:020000040000FA
:0600000090EFA4F01200D5
:06000800FCEF9FF0120066
:0600180098EF9FF01200BA
:06002A000C008FB700007E
:100030007606000001000000424B0100740600003B
:1000400002000000404B01007206000002000000A8
:100050008D4A010000010000B30000008B4A01003E
:100060007006000002000000184A0100840500002C
:1000700073000000164A01006E0600000200000036
:10008000124A010067060000040000000A4A01004D
:10009000F800000008000000084A01005E0F0000A0
:1000A00002000000044A0100630600000400000092
:0C00B000024A01007E0E00000200000069
:0400BC00BEEC16F090
:1000C000FD0EDB5006016E5D2CE0FE0E6E5D11E054
:1000D0001C0EE66EE66A270EE66E0F0EE66E6E5199
:1000E000DEEC19F056EC1AF002E2E16AE552E16E3C
:1000F0000250FD0EDBCF6EF6DB50FE0812E01C0E48
:10010000E66EE66AFD0EDB50DEEC19F0270EE66EB9
:100110000F0EE66E56EC1AF002E2E16AE552E16E6D
:100120000250CCEF16F006016E516F5D01E1120036
:10013000FE0E6F5D1CE0250EE66EE66A010EE66EB1
:10014000020EE66E0F0E17EC1AF01B0E65EC17F0A0
:10015000EF5017EC1AF0E4EC18F0250E79EC1BF0D8
:1001600014EC1DF002E2E16AE552E16E02506EC647
:100170006FF6250EE66EE66A42CFE6FF27CF00F067
:1001800028CF01F079EC1BF0010EE66E020EE66E50
:100190000F0EE66E14EC1DF002E2E16AE552E16E2C
:1001A00002501200BEEC16F00B0EE12402E3E168EF
:1001B000E652E16EC20EF36E090EF3CFDBFF0F0EB7
:1001C000F36E0A0EF3CFDBFF0F01005101110FE1B7
:1001D00051EC63F020C000FF21C001FFFF0E0F01B2
:1001E0000017070E0117000E0027040E01233C0E16
:1001F000E66EE66AE66AB30EE66E010EE66E94EC13
:1002000096F0006E050EE15C02E2E16AE552E16EF5
:100210000050010EDB6ADF6A31EC18F001E392D086
:10022000C4EC19F04FEC17F08FEC17F0F62A000E23
:10023000F722F8220800080EF5CFDBFF4FEC17F08D
:100240008FEC17F0020EF626000EF722F8220900B6
:10025000020EF5CFDBFF0A00030EF5CFDBFF4FECFC
:1002600017F0D8EC1DF0040EF626000EF722F82247
:100270000900040EF5CFDBFF0A00050EF5CFDBFF0A
:10028000080EDB502BE1090EDBCF22F00A0E76ECD4
:1002900019F03DEC1DF0250E0226000E032212EC93
:1002A0001CF0040EACEC1EF0050EDB5003207DECC0
:1002B00017F0D950090F5EEC1CF0090EDBCF00F0EF
:1002C0000A0E03EC1AF0D880FE0E00541E0E0154E4
:1002D000000E0254000E035402E2EFD7FFD7080EBF
:1002E000DBCF42FF060EDBCF27FF070EDBCF28FF59
:1002F000250E0F012727000E2823020EDB5027258D
:10030000296F030EDB5028212A6F010E2927000ECA
:100310002A23040EDB5029252B6F050EDB502A21E2
:100320002C6F0D0E3D6F3E97FEDE4FEC17F01EC09A
:1003300003F0D8EC1DF00800F5CF26FF8CEC0FF091
:10034000DF2A6AD70B0EE15C02E2E16AE552E16E58
:10035000CCEF16F073EC1EF0DF6A31EC18F001E31D
:100360008FD0C4EC19F00D0E0F013D5D01E086D079
:10037000DADEF60EDB500F01265D01E07FD0F90ECC
:10038000DB5010E1F70EDBCF12FFF80EDBCF13FFCF
:100390003E87040E3D6FF70EDBCF40FFF80EDBCF3C
:1003A00041FF6AD0000E005D040E015906E3880E7D
:1003B000D8800055130E015503E2006B040E016F47
:1003C00000CF12FF01CF13FF002B000E0123F70E09
:1003D000DBCF10FFF80EDBCF11FFC9EC17F00F01D8
:1003E0003E89F90EDB50040A26E0070A45E1FA0EC1
:1003F000DBCF04F0FB0EDBCF05F0FC0EDB5004245A
:10040000026EFD0EDB50052017EC19F0FA0EDBCF63
:1004100018FFFB0EDBCF19FFFC0EDBCF1AFFFD0E22
:10042000DBCF1BFF256B270E026F036B046B056B85
:10043000020E3D6F21D0D4EC17F0020E65EC17F0E0
:10044000EECF04F0EFCF05F0D4EC17F00450EE241B
:10045000026E0550EE2017EC19F067EC1DF002E279
:10046000E16AE552E16E00500F01050E3D6F010E8D
:10047000E66E020E6DEC17F0DF5003D0DF2A6DD769
:10048000FE0EE552CCEF16F0F1EC1CF00F013FA987
:1004900003D03F99010E01D0000ECCEF16F0F1EC25
:1004A0001CF0070E0F013D5D02E0000E01D0010EB1
:1004B000CCEF16F0F1EC1CF017EC1CF00F013D51E5
:1004C000080A2EE0010A2CE0050A2AE0020A25E0CB
:1004D000050A18E00D0A0BE0010A09E0070A24E00A
:1004E000020A22E0010A20E0060A1AE11DD06DECA2
:1004F0001DF006E00E512D19FAE10F512E19F7E10A
:10050000080E0CD06DEC1DF006E00E512D19FAE12D
:100510000F512E19F7E10C0E01D00D0E3D6F06D0D4
:10052000E66A140E6DEC17F08CEC0FF0CCEF16F0C1
:10053000F1EC1CF00F013E9757EC1DF0BBDFE552CC
:10054000CCEF16F0F1EC1CF0EEDD3AEC1CF0CAEC4E
:1005500019F0430EE66E0F0EE66E5CEC1AF002E246
:10056000E16AE552E16E005010CF4DFF11CF4EFF12
:10057000430E006E0F0E44EC1DF0CCEF16F0F1ECC4
:100580001CF0D1DD0F010E512D1902E10F512E1972
:1005900002E0E7EC1CF0CCEF16F073EC1EF021EC5F
:1005A00017F03DCFDFFF070EDF5C06E00B0EDF5CD0
:1005B00003E0F36AF46A21D00F012F512D5D305111
:1005C0002E5910E3E2EC17F00206000E035A2F51E9
:1005D0002D5D046E2E513055056E1AEC1DF044EC65
:1005E0001DF00BD02D512F5D006E30512E55016E38
:1005F0000006000E015AC3EC1AF0E552CCEF16F0DB
:1006000073EC1EF0E65243EC1EF0DAEC1CF002E153
:10061000000E39D047EC1EF004E1ED5002E19DECF4
:1006200017F00F013F51010B09E1CFEC19F0E2EC9B
:1006300017F0FAEC19F002E34CEC1EF0010EE66E36
:10064000E66AE66EA9EC1BF056EC18F002E2E16AED
:10065000E552E16E00500F012D2B000E2E23295183
:100660002D5D2A512E5902E3C8EC1AF047EC1EF01A
:1006700005E1ED5003E19DEC17F004D03EBB02D044
:1006800038EC17F0010EE552E552CCEF16F0FFEC16
:100690001CF002E3E168E6528AEC1EF005E19DECF5
:1006A00017F0F36AF46A3DD076EC1DF0F5EC1CF01F
:1006B00069EC17F003E2F90E08EC1AF00F013F5154
:1006C000010B05E1DEEC1DF002E34CEC1EF068ECE2
:1006D0001AF010E329EC1DF0B0EC1EF002E2E16A22
:1006E000E552FEEC1AF0D950FB0FC3EC17F0ED22E7
:1006F000B5EC1EF051EC1EF0B0EC1EF002E2E16A27
:10070000E55209EC1DF0F5EC1CF069EC17F003E381
:100710009DEC17F004D03EBB02D038EC17F02CEC67
:1007200019F0060EE15C02E2E16AE552E16ECCEFFF
:1007300016F0FFEC1CF002E3E168E6528AEC1EF0D2
:1007400005E19DEC17F0F36AF46A44D00F013F51C4
:10075000010B05E1DEEC1DF002E34CEC1EF076EC43
:100760001DF0A0EC1DF069EC17F003E2F80E08ECA8
:100770001AF068EC1AF015E329EC1DF008EC18F0FB
:1007800023EC1AF002E2E16AE552FEEC1AF0026A8A
:10079000D950FA0FC3EC17F0EE220250EE22B5EC5E
:1007A0001EF051EC1EF008EC18F023EC1AF002E2F7
:1007B000E16AE55209EC1DF0A0EC1DF069EC17F0C0
:1007C00003E39DEC17F004D03EBB02D038EC17F0E9
:1007D0002CEC19F0060EE15C02E2E16AE552E16EF2
:1007E000CCEF16F0BEEC16F0FB0EDBCF02F0FC0EE9
:1007F000DBCF03F056EC1EF06EEC1CF05EEC97F0D5
:10080000E552E552F3CF04F0F4CF05F0F3CFE6FF65
:10081000F4CFE6FFFB0EDBCFE6FFB9EC17F037DFD6
:10082000066E050EE15C02E2E16AE552E16E0650F9
:100830007EEC1BF0F324006E0350F42044EC1DF01A
:10084000CCEF16F0BEEC16F008EC18F06CEC97F05C
:10085000E552E552E55221C006F022C007F021C062
:10086000E6FF22C0E6FF08EC18F057EC1DF061DF50
:10087000086E060EE15C02E2E16AE552E16E0850A4
:10088000F3CF03F0F4CF04F0056ADBEC1EF0EE507A
:10089000F324006EEE50F420016EEE500520026E3F
:1008A00000C021F001C022F0236ECCEF16F0E4EC82
:1008B0001DF00F01A3EC17F00006000E015A41ECE9
:1008C00018F09FEC19F048EC18F002E2E16AE552EA
:1008D000E16ECCEF16F0BEEC16F0E9EC17F0A5ECEB
:1008E0001DF0F350F41006E021EC17F017EC1CF0AB
:1008F000E7EC1CF0CCEF16F0F1EC1CF00F016FEC04
:100900001BF006E33351315D006E3251345513D084
:1009100033512B5D026E2C513455036E12EC1CF0DA
:100920002951315D046E32512A55056E025004245E
:10093000006E0350052044EC1DF0CCEF16F073EC74
:100940001EF0E652E9EC17F0DAEC1CF002E1000EC2
:1009500028D021EC17F0AAEC1DF00CE0010EE66E99
:10096000E66A98EC1AF073EC17F002E2E16AE552DD
:10097000E16E00500F01332B000E342333512B5DF9
:1009800034512C5902E221EC1CF047EC1EF004E13A
:10099000ED5002E13F8504D03EBB02D038EC17F0A9
:1009A000010EE552E552CCEF16F0BEEC16F01CEC51
:1009B0001CF0020EDB6A030EDB6AE9EC17F0DAECDE
:1009C0001CF003E1F36AF46A84D021EC17F0A4EC84
:1009D00019F002EC1BF008E28AEC17F0F90EEECFEA
:1009E000DBFFFA0EEDCFDBFFF90EDB500F013325F5
:1009F0000001006EFA0EDB500F0134210001016E80
:100A00000F0104EC1DF02CE23351DCEC1AF03455EC
:100A10007DEC17F041EC18F0AAEC1DF017E0020E87
:100A2000DBCFE6FF030EDBCFE6FF98EC1AF0010EFA
:100A300073EC17F002E2E16AE552E16E00504CEC13
:100A400017F0D950FB0FC3EC17F0ED224CEC17F068
:100A5000D950F90F94EC1CF0BEEC17F021EC1CF00F
:100A6000AAEC1DF00CE0E0EC1CF098EC1AF0010E82
:100A700073EC17F002E2E16AE552E16E0050A3EC7C
:100A80001AF022500F013327235034234CEC17F077
:100A9000D950F90FC3EC17F0ED22DECF02F0DDCF15
:100AA00003F0F90EF8EC1EF0FA0EDB500358016E5D
:100AB000F90EDBCF04F0FA0E9FEC1AF002E33F854B
:100AC00004D03EBB02D038EC17F0A4EC19F0C3EC14
:100AD0001AF0040EE15C02E2E16AE552E16ECCEF4D
:100AE00016F0E4EC1DF00F012951DCEC1AF02A5548
:100AF000016E41EC18F0E9EC17F048EC18F002E256
:100B0000E16AE552E16ECCEF16F0FFEC1CF002E377
:100B1000E168E652E16ED950F90F78EC17F003E185
:100B2000F36AF46A82D05BEC1EF091EC1AF0F5ECFB
:100B30001CF0DBCF03F079EC1DF0020EDBCF04F0EC
:100B4000030E9FEC1AF00FE23DEC1DF0F70EF8ECEF
:100B50001EF0F80EDB500358016EF90E00C0DBFFEB
:100B6000FA0E01C0DBFFF70E26EC1CF0F80EDB508E
:100B7000342100C0DEFFDD6ECFEC19F004EC1DF077
:100B800004E275EC1CF09CEC1DF0DE502B5D006E59
:100B9000DD502C59DFEC1EF0A4EC19F0040EDBCF75
:100BA00002F0050E69EC17F00DE3E0EC1CF0D2EC5E
:100BB00018F0010E73EC17F002E2E16AE552E16E03
:100BC00000502FD0CBEC18F0D2EC18F0010E73ECE3
:100BD00017F002E2E16AE552E16E0050F5EC1CF01C
:100BE0008CEC1CF073EC1AF0010EE66E040EDBCFF9
:100BF00006F0050EDBCF07F0FB0EDB500624046E7B
:100C0000FC0EDB500720056E04C0E6FFE66EF3EC39
:100C100015F0086E080EE15C02E2E16AE552E16E51
:100C20000850A4EC19F0C3EC1AF0060EE15C02E2E5
:100C3000E16AE552E16ECCEF16F073EC1EF06EEC5B
:100C40001CF0010EAAEC1AF057EC1DF05EDF006EEE
:100C5000070EE15C02E2E16AE552E16E0050DF500E
:100C6000E552CCEF16F0BEEC16F0300EE12402E3B4
:100C7000E168E652E16ED950F90F78EC17F003E124
:100C8000F36AF46A27D15BEC1EF0F70EDB50F35CDD
:100C9000006EF80EB3EC1DF0F5EC1CF0ABEC19F0A7
:100CA00001E20ED1D950F50F78EC17F00FE04CECC3
:100CB00017F0F50EDBCF02F0F60E69EC17F006E246
:100CC000F50EDBCF22F0F60E07EC1BF0F70E26EC4C
:100CD0001CF0F80E74EC18F002E2B9EC1EF0B3EC64
:100CE0001CF0F70EDBCF22F0F80E76EC19F0A3EC37
:100CF0001AF0B0EC1BF0FB0EDBCF22F0FC0E10EC78
:100D00001BF039EC18F001E3DB2A0D0EEFCFDBFF0F
:100D10000F0EDB6AF40EDB500AE0610E49EC1DF0A9
:100D200006E30D0EDB507A0802E3AFEC18F0200E5C
:100D3000F36E0E0E37EC19F006E2040EDB50E76E90
:100D40000E0EE7CFDBFF0E0EE6EC19F006E2020E08
:100D5000DB50E76E0E0EE7CFDBFF0E0E7DEC1DF0D5
:100D6000100FD4EC19F081EC1CF002E2E16AE552BC
:100D7000E16E00500E0EDB50DE26000EDD220E0E60
:100D800093EC1EF002E119EC1BF0F40EDB505CE07A
:100D90000C0EDB6AE9EC1DF001E38AD0D950100F8C
:100DA000016E000EDA20026E0C0E2AEC1AF010E32F
:100DB000D950100F036E000EDA20046E0C0E22ECD8
:100DC0001BF006E3E00E026E7FEC19F086EC1BF0E0
:100DD0007FEC19F00AEC19F00D0EDB50F35C1BE10F
:100DE000F90EDB06DBCF00F0FA0E01E2DB0674EC55
:100DF0001BF042E039EC18F001E3DB2A2BEC1BF08E
:100E0000610E49EC1DF01DE30D0EDB507A0819E36D
:100E1000AFEC18F016D041EC19F013E0BEEC1CF06A
:100E200001E3DB2A0D0EEFCFDBFF610E49EC1DF075
:100E300006E30D0EDB507A0802E3AFEC18F00F0E5C
:100E4000DB6A0C0EDB2AA6D70C0EDB6AE9EC1DF080
:100E50002FE27FEC19F00F010AEC19F00D0EDB50B8
:100E6000F35C17E1F90EDB06DBCF00F0FA0E01E2CE
:100E7000DB0674EC1BF006E14CEC19F00C0E5BEC9D
:100E80001DF028D039EC18F001E3DB2A2BEC1BF025
:100E90000CD041EC19F009E0BEEC1CF001E3DB2AB8
:100EA0000D0EEFCFDBFF0F0EDB6A0C0EDB2ACED769
:100EB0000E0E62EC1DF0F5EC1CF0ABEC19F003E249
:100EC000F368F46807D00E0E0DEC1AF0060F5EEC16
:100ED0001CF02DD7300EE15C02E2E16AE552E16ED2
:100EE000CCEF16F0BEEC16F0310EE12402E3E1681F
:100EF000E652E16ED950F80F78EC17F003E1F36A8F
:100F0000F46A10D15BEC1EF0F60EDB50F35C006E61
:100F1000F70EB3EC1DF0A0EC1DF0ABEC19F001E204
:100F2000F7D0D950F40F78EC17F00FE04CEC17F035
:100F3000F40EDBCF02F0F50E69EC17F006E2F40ECA
:100F4000DBCF22F0F50E07EC1BF0F60E26EC1CF0C2
:100F5000F70E74EC18F002E2B9EC1EF0B3EC1CF0E2
:100F6000F60EDBCF22F0F70E76EC19F0AEEC1AF0AD
:100F7000B0EC1BF0DBEC1EF00A0EEECFDBFF0B0E2D
:100F8000EECFDBFF0C0EEECFDBFF27EC17F0100EE1
:100F9000DB6AF30EDB5009E08DEC1DF006E30E0E6C
:100FA000DB507A0802E3BAEC18F0200EF36E0F0E55
:100FB00037EC19F003E2040E63EC1BF00F0EE6ECC5
:100FC00019F003E2020E63EC1BF00F0E7DEC1DF036
:100FD000110FD4EC19F081EC1CF002E2E16AE55249
:100FE000E16E00500F0EDB50DE26000EDD220F0EEC
:100FF00093EC1EF002E119EC1BF0F30EDB5053E012
:101000000D0EDB6A0F0EDB5049EC1DF001E378D0CA
:10101000D950110F016E000EDA20026E0D0E2AEC6F
:101020001AF010E3D950110F036E000EDA20046E8F
:101030000D0E22EC1BF006E3E00E026E88EC19F0B8
:1010400086EC1BF088EC19F00AEC19F00E0EDB5060
:10105000F35C16E1F80EDB06DBCF00F0F90E01E2DF
:10106000DB0674EC1BF039E0BAEC1DF08DEC1DF0E2
:1010700017E30E0EDB507A0813E3BAEC18F010D029
:101080005BEC19F00DE099EC1CF08DEC1DF006E323
:101090000E0EDB507A0802E3BAEC18F0100EDB6A91
:1010A0000D0EDB2AAFD70D0EDB6A0F0EDB5049ECBD
:1010B0001DF026E288EC19F00F010AEC19F00E0E73
:1010C000DB50F35C13E1F80EDB06DBCF00F0F90E2A
:1010D00001E2DB0674EC1BF006E14CEC19F00D0E9E
:1010E0005BEC1DF01FD0BAEC1DF007D05BEC19F0E3
:1010F00004E099EC1CF0100EDB6A0D0EDB2AD5D74C
:101100000F0E62EC1DF0A0EC1DF0ABEC19F003E249
:10111000F368F46807D00F0E0DEC1AF0060F5EECC2
:101120001CF043D7310EE15C02E2E16AE552E16E68
:10113000CCEF16F0BEEC16F0F70EDBCFE6FFB5EC09
:101140001AF0DBEC17F0010EE66EE66AA9EC1BF074
:1011500057EC1DF088DD006E0A0EE15C02E2E16AE8
:10116000E552E16E0050CCEF16F0FFEC1CF002E30C
:10117000E168E652E16EDF6A31EC18F001E3A2D1DA
:10118000C4EC19F0030EDB6A010EDB6A020EDB6AA7
:101190000F013F51020B03E13F51040B10E066ECDD
:1011A00076F000090CE0100E12EC19F00F013F511F
:1011B000040B01E0010EE76E010EE7CFDBFF0F012C
:1011C0003EAB11D0F6ECA1F00F012050395D006E5E
:1011D00021503A59016EE83402E2D2EC1AF003E3EE
:1011E000100E12EC19F03EAD09D07BEC1AF002E2C1
:1011F000D2EC1AF003E3100E12EC19F00B0E3D5D69
:101200000BE17BEC1AF002E2D2EC1AF005E3110ECE
:1012100012EC19F00C0E3D6F040E3D5D5FE1CDEC5C
:101220001AF0C5EC18F05AE2E3EC1EF057E087EC38
:101230001CF0E4EC18F0405100184AE1415101184B
:1012400047E193EC00F03AEC1CF0AAEC16F034EC19
:101250001BF0CAEC19F056EC1AF002E2E16AE55212
:10126000E16E025092EC1DF0EECF10FFEDCF11FFBA
:10127000AAEC16F00C0E65EC17F0EECF0AFFEECFDD
:101280000BFFEECF0CFFEFCF0DFF0F010A2B0B234F
:101290000C230D231A511825026E1B511921036EC0
:1012A00002501025006E03501121016EEFEC1DF06D
:1012B000120E12EC19F0060E3D6FD7EC16F002E29A
:1012C000E16AE552E16E06500101EB6BEC6B06D072
:1012D000040EDB2A050EA5E3DB2AA3D7030EDB50A1
:1012E00009E0010EDB5002E0000E01D0010EE66EB7
:1012F0008EEC1BF00F013EB933D0070E3D5D01E0CF
:10130000DFD07DEC18F001E0DBD00F013E51070B80
:1013100006081AE13E51080B01E0010EE76E030ECC
:10132000E7CFDBFFDFCFE6FF5AEC02F0E552DFCF7D
:10133000E6FF5AEC02F0E552030EDB5001E0C0D0AC
:101340000F010E0E3D6FBCD093EC00F0020EE66E66
:10135000100E6DEC17F0C9EC17F0E0EC1AF0B0D0FD
:101360007DEC18F001E0ACD093EC00F00F013D51A2
:101370000C0A69E0060A62E0030A6FE0010A59E01C
:101380000F0A4EE00C0A4CE00D0A41E0030A3DE072
:10139000060A11E0010A69E1F6ECA1F020C039FF6C
:1013A00021C03AFFCAEC19F04FEC8FF0E552E5523C
:1013B0000F01030E28D01C0EE66E0F0EE66ECAEC6F
:1013C00019F0A4EC8FF085EC1EF0000915E1F6ECA5
:1013D000A1F00F013951205C006E3A512158016E85
:1013E0000050025D0150035940E2060E255D02E205
:1013F000B7EC1BF0020E07D0020E12EC19F0010E32
:10140000DB6A0F01050E3D6F30D0020E20D0020EB8
:10141000255D02E2120E1BD03EB71FD0020E06D091
:10142000050E255D0EE3080E3D6F110EF36E030EE3
:101430001AD0050E255D11E2110E09D0050E255DAD
:101440000CE2100E04D0050E255D07E2110E12EC21
:1014500019F0DE52010EDD6E08D0140E12EC19F0F8
:10146000010EF36E020EF3CFDBFF030EDB5023E021
:10147000010EDB501CE0B7EC1BF062EC1AF0016EC1
:10148000026A036A01AE02D00268036866EC18F0D3
:101490004DEC1DF008E2AEEC1DF001AE02D002688A
:1014A000036866EC18F02BEC1CF0E66A02D0010E23
:1014B000E66E8EEC1BF0020EDB5002E08CEC0FF0BF
:1014C000DF2A5AD6CDEC1AF0C5EC18F030E2E3EC86
:1014D0001EF02DE0AAEC16F0120E65EC17F012ECDF
:1014E0001AF056EC1EF0F6ECA1F07EEC1BF0205C3E
:1014F000006E03502158016EDC0ED8800054010E9E
:1015000001540FE2D7EC16F002E2E16AE552E16E17
:1015100006500101EB6BEC6B040EDB06050E01E2DD
:10152000DB06040EDB2A050ECFE3DB2ACDD7060E41
:10153000E15C02E2E16AE552E16ECCEF16F0BEEC4E
:1015400016F0250EE12402E3E168E652E16EC5ECF7
:1015500016F0EAEC1AF0170EEECFDBFFD4EC17F022
:10156000180EEECFDBFF190EEECFDBFF1A0EEECF1B
:10157000DBFF1B0EEECFDBFF1C0EDB6A060EF36EED
:101580001D0EF3CFDBFFAEEC1AF01E0E22C0DBFF08
:101590001F0E23C0DBFF1E0EDBCFE6FF1F0EBEECCF
:1015A0001BF01E0EF3CFDBFF1F0EC5EC1BF0140F5C
:1015B00033EC1DF0200E00C0DBFF210E01C0DBFF6D
:1015C000B5EC1AF071EC78F0E552E552220EF3CF4B
:1015D000DBFF230EF4CFDBFF200EDBCF00F0210E6C
:1015E000DBCF01F0220EDB50001849E1230EDB5067
:1015F000011845E1000ECCEC1BF0140EAAEC1AF019
:10160000D8EC79F085EC1EF0FAEC1CF04EEC0FF003
:10161000E552E552D9500C0FD2EC16F091EC19F0CE
:10162000006E016A140E005E000E015A240E00C006
:10163000DBFFDB50026E036AAEEC1AF00250225C54
:10164000006E03502358016E140E005E000E015A06
:10165000F80E00C0DBFFF90E01C0DBFFB9EC17F09C
:10166000FAEC1CF0CCDA85EC1EF0000908E0B5ECD1
:101670001AF0FAEC1CF0CBEC0FF085EC1EF07AECD3
:1016800076F0010E006E250EE15C02E2E16AE552A1
:10169000E16E0050CCEF16F0BEEC16F02A0EE124FD
:1016A00002E3E168E652E16E93EC00F0FD0EDBA090
:1016B00004D00F013F87FD0EDB900F013E9B3E9D46
:1016C0003E9F3F933F953F9166EC76F00009FCE02A
:1016D000FD0EDB50060B05E0260EDB6A270EDB6AEB
:1016E000EFD00F010E512D1910E10F512E190DE100
:1016F000260EDB6A270EDB6A3FA7E2D014511511D4
:1017000001E1DED0FD0EDB80DBD02D510E5D2E51D0
:101710000F593CE20E512D5D006E2E510F55E9EC34
:1017200018F003E362EC1AF004D0E2EC17F036ECA8
:101730001AF0A8EC1CF002E2EDEC19F0BDEC1EF082
:1017400002E23EEC1AF03FA713D0D6EC18F0280EB8
:10175000DB50001803E1290EDB50011809E020ECF2
:101760001DF0EE1802E1020EED1802E0FD0EDB8026
:10177000260EDBCFE6FF270E90EC18F002E2E16ABE
:10178000E552E16E0050C2EC1DF09AD00E51295D79
:10179000006E2A510F5596EC1BF0240EDB502D25C0
:1017A000026E250EDB502E21036E2751025C006E67
:1017B00028510358E9EC18F003E362EC1AF004D066
:1017C000E2EC17F036EC1AF0A8EC1CF002E2EDECBB
:1017D00019F0BDEC1EF002E23EEC1AF03FA713D068
:1017E000D6EC18F0280EDB50001803E1290EDB5070
:1017F000011809E020EC1DF0EE1802E1020EED18D0
:1018000002E0FD0EDB80240EDBCF00F0250EDBCFE7
:1018100001F0260EDBCF02F0270E69EC17F004E290
:10182000B2EC19F0D3EC1BF05FEC1EF090EC18F06A
:1018300002E2E16AE552E16E0050260EDBCF02F0D3
:10184000270EDBCF03F0240EF8EC1EF0250EDB5044
:10185000035896EC1BF0D950240F69EC1CF027E0DC
:101860005FEC1EF0DBCFE6FF42CFE6FF27CFE6FFBF
:1018700028CFE6FFE66A0F010E51295D006E2A515E
:101880000F55016E026A036A070E00260A0E012236
:10189000000E0222032264EC1EF0F3EC15F0046E3D
:1018A000080EE15C02E2E16AE552E16E0450C2EC2E
:1018B0001DF029510E5D2A510F5902E3F6EC1DF07F
:1018C000D950260F69EC1CF004E1FD0EDB50030B30
:1018D00016E0D950260F69EC1CF002E0FD0EDB8605
:1018E000FC0EDBA008D00F01256BF20E026F9E0EDE
:1018F000036F046B056B1CEC19F03E8930D0FC0EB5
:10190000DBA21ED03E0EE96E0F0EEA6EEF50070B03
:10191000E82AE850070BF36EF46EF80EEF14F3109C
:10192000EF6EF4500F010607000E075B085B095BC2
:10193000010EF36E260EF3CFDBFF270EDB6A0FD00E
:101940000F013EA90CD0DBB008D0255106E02507D9
:10195000D89005330433033302331CEC19F0020E24
:1019600012CFDBFF030E13CFDBFF040E10CFDBFF24
:10197000050E11CFDBFF060E06CFDBFF070E07CFEC
:10198000DBFF080E08CFDBFF090E09CFDBFF0A0ED5
:101990000ACFDBFF0B0E0BCFDBFF0C0E0CCFDBFFF8
:1019A0000D0E0DCFDBFF0F0EDB9CDB9E0E0EDB90D2
:1019B000DB92DB94DB96FD0E63EC1BF0140EDB6A0E
:1019C000150EDB6AD6EC18F09EEC1BF0FD0EDBA2C8
:1019D00015D0DBB808D00A0EDB6A0B0EDB6A0C0EE2
:1019E000DB6A0D0EDB6A24A303D0A5EC1EF006D043
:1019F000062B000E0723082309232483FD0EDBA0FA
:101A00000BD024A103D0A5EC1EF006D0062B000EAF
:101A100007230823092324816FEC1BF003E39FECC9
:101A200018F002D0F4EC1AF0100E00C0DBFF110E1B
:101A300001C0DBFFAAEC76F0A5EC1DF0400E005EC5
:101A4000DAEC1BF0CFEC19F00001800E011402E07B
:101A5000DE6ADD6AB9EC19F002EC1BF008E28AECF0
:101A600017F0100EEECFDBFF110EEDCFDBFFD950DC
:101A7000020FD4EC19F012DAE552E552E7EC1EF051
:101A8000140EEE26000EED220E0EDB88DB9ADB8CA8
:101A9000DB9EFD0EDBA22DD0E7EC1EF0040EEE2641
:101AA000000EED22020EF36E160EF3CFDBFF040ED6
:101AB000F36E170EF3CFDBFF020EF36E180EF3CFAB
:101AC000DBFF140E30EC1CF0010E006ED9500E0F2F
:101AD000D2EC16F0FDEC1DF000240F0BF36EF46E4B
:101AE000F346F346F346F3460F0EEF14F310EF6E92
:101AF000F4501A0E90C4DBFF1B0E91C4DBFF1C0ECA
:101B000092C4DBFF1D0E93C4DBFF1E0E18CFDBFF5C
:101B10001F0E19CFDBFF200E1ACFDBFF210E1BCFCC
:101B2000DBFF220EDB6A060EF36E230EF3CFDBFF24
:101B3000B2EC19F0D3EC1BF05FEC1EF0BEEC1BF026
:101B4000240EF3CFDBFF250EC5EC1BF01A0F33EC90
:101B50001DF0120E00C0DBFF130E01C0DBFFDF0E15
:101B6000E66E090EE66E35EC78F03DEC1BF0060EE5
:101B7000E66ECAEC19F06FEC98F0006E050EE15CB1
:101B800002E2E16AE552E16E0050140EE66EE66A8A
:101B9000D950020FD4EC19F0C0EC19F0FD0EDBA205
:101BA00009D0040EE66EE66AD950160FD4EC19F08F
:101BB000C0EC19F0F30EE66E090EE66E3FEC78F01D
:101BC0003DEC1BF071EC78F0E552E552EBEC1EF0C9
:101BD000030EE66E0A0EE66E35EC78F0E552E5523D
:101BE000020EAAEC1AF0C0EC19F015EC78F02A0EEF
:101BF000E15C02E2E16AE552E16ECCEF16F0FFEC47
:101C00001CF002E3E168E652E16E3EEC1CF0EE509F
:101C1000ED1001E1AAD0DE52FE0EDD6ED4EC17F01D
:101C2000020E65EC17F0EECF06F0EFCF07F0D4EC24
:101C300017F00650EE24046E0750EE20056EC5EC3A
:101C400016F00450EE24026E0550EE20036E3EECBA
:101C50001CF00250EE18006E0350EE18016E41ECBD
:101C600018F0DF6A31EC18F047E2C4EC19F00D0E01
:101C70000F013D5D3FE0040E3D5D0CE1A2EC1EF066
:101C80000050401937E10150411934E1010EDFCF16
:101C9000DBFF30D040CF00F041CF01F0020EDB502F
:101CA000001828E1030EDB50011824E193EC00F04A
:101CB000A2EC1EF00F01125100181CE11351011883
:101CC00019E1C5EC16F012EC1AF01051021812E1ED
:101CD000115103180FE1D4EC17F0EE5018190AE176
:101CE000EE50191907E1EE501A1904E1EE501B19D4
:101CF00001E12DE0DF2AB6D7010EDB50FE0829E016
:101D0000010EDBCFE6FF5EEC00F0E55293EC00F055
:101D1000010EDB50FE081DE0020EDBCF40FF030E7C
:101D2000DBCF41FF67EC1DF002E2E16AE552E16EB4
:101D30000050C5EC16F0EECF10FFEDCF11FF3EECDA
:101D40001CF0EECF12FFEDCF13FF35EC1CF0010EAF
:101D50009BD0C5EC16F00D0E65EC17F0EF50020BA2
:101D600004E00101EB51EC1102E0000E8DD0CDEC4E
:101D70001AF0C5EC18F036E2E3EC1EF033E087EC25
:101D80001CF0E4EC18F03EEC1CF012EC1AF00250DF
:101D9000001822E1035001181FE192EC1DF0E4EC61
:101DA00018F0C5EC16F012EC1AF00250001814E10D
:101DB0000350011811E1D4EC17F086EC1DF0EE5041
:101DC0000001001808E1EE50011805E1EE5002187C
:101DD00002E1EE50031849E0040EDB2A050EC9E3C8
:101DE000DB2AC7D7DF6A31EC18F04DE2C4EC19F0FA
:101DF0000F013EA746D093EC00F0A2EC1EF000507D
:101E00000F0112193EE1015013193BE13AEC1CF0AD
:101E1000DBEC17F0AAEC16F034EC1BF056EC1AF0E1
:101E200002E2E16AE552E16E0250C5EC16F0E4EC24
:101E300018F092EC1DF000C0EEFF01C0EDFFC5EC04
:101E400016F0040E65EC17F086EC1DF00C0E65EC38
:101E500017F000C0EEFF9BEC1EF0A2EC1EF087EC2A
:101E60001CF000C0EEFF01C0EDFFF6ECA1F021C0B8
:101E700001F0AAEC16F0120E69EC1EF001C0EDFFA5
:101E800003D0DF2AB0D7000E006E060EE15C02E23E
:101E9000E16AE552E16E0050CCEF16F0BEEC16F0B0
:101EA000C5EC16F077EC1EF0C5EC16F0D7EC1AF086
:101EB0003EEC1CF077EC1EF03EEC1CF0F0EC1EF05B
:101EC000040E4AEC1CF0040E69EC1EF09BEC1EF0B4
:101ED000C5EC16F0080E4AEC1CF0080E69EC1EF07A
:101EE0009BEC1EF0ECEC1CF077EC1EF0ECEC1CF024
:101EF000F0EC1EF0100E00EC1FF0100E65EC17F069
:101F0000F0EC1EF0120E00EC1FF0120E65EC17F054
:101F1000D7EC1AF0CCEF16F093EC00F012CF40FFA4
:101F200013CF41FFC8EC1AF027CF2FFF28CF30FF87
:101F300029CF31FF2ACF32FF21EC1CF00F013E5197
:101F4000080B02E0040E01D00D0E3D6F3E913E9352
:101F50003E953E993E9B3E9D3E9F3F913F933F95D0
:101F60003F973F89249124932497249935EC1CF0C2
:101F700015ECA1F0F3CF06FFF4CF07FF15ECA1F0AD
:101F8000F3CF08FFF4CF09FF0F0122692369010E87
:101F9000146F156B1200BEEC16F01A0EE12402E36A
:101FA000E168E652E16EC5EC16F00D0E65EC17F037
:101FB0000E0EEFCFDBFFC5EC16F0080E65EC17F048
:101FC0000F0EEECFDBFF100EEECFDBFF110EEECFCC
:101FD000DBFF120EEECFDBFFC5EC16F0040E65EC56
:101FE00017F0130EEECFDBFFEAEC1AF00F013E9173
:101FF0003E933E953EB904D0C9EC17F0E0EC1AF0E0
:102000003D51050A23E0010A10E0BCEC1AF0170E5E
:1020100022C0DBFF180E23C0DBFF0E0EDBA04AD070
:10202000170EDB2A180E46E344D00E0EDBB408EF81
:1020300015F0DBA805D020EC18F0E66A040EA1D25A
:10204000DBA208EF15F0F8EC18F029D00E0EDBB487
:102050000FEF15F0DBA810D004EC1EF001E01BD14F
:10206000EE50071901E017D1EE50081901E013D125
:10207000EE50091901E00FD10E0EDBA20FEF15F0A3
:10208000F8EC18F0C3EC1EF00E0EDBA808D0E7EC5D
:102090001CF00F01070E3D6F3E990FEF15F0010E7A
:1020A000E66E120E6DEC17F00F01060E3D6F0FEF8E
:1020B00015F0DB2A0E0EDBA205D0170EDB2A180E58
:1020C00001E3DB2A6FEC1BF003E39FEC18F002D076
:1020D000F4EC1AF00C0E00C0DBFF0D0E01C0DBFFAC
:1020E000D950130FD2EC16F00A51EE5C006E0B5172
:1020F000EE58016E0C51EE58026E0D51EE58036E03
:102100000BEC1EF0080E02C0DBFF090E03C0DBFF64
:10211000060EDBCF22F0070E10EC1BF0190EDB6A67
:10212000D950170F69EC1CF06EE0D9500C0F69EC18
:102130001CF001E183D0C9EC1EF002E646EC1BF076
:1021400005E37DEC1EF096EC19F040E3170EDBCFB3
:1021500000F0180E03EC1AF065EC1CF04FEC1BF0CD
:102160000334000E031809E6D880000E0054000E58
:102170000154000E0254000E03542BE20C0EDBCF70
:1021800008F00D0EDBCF09F0170EDB50085C046E73
:10219000180EDB500958056E066A076A05AE02D0B4
:1021A0000668076865EC1CF0030EEBCFF3FF0750E1
:1021B000F318E8AE02D0F33408D0EE50045CEE50D1
:1021C0000558EE500658EE50075803E3010E30EC68
:1021D0001CF07DEC1EF0030EEB500318E8AE02D0AD
:1021E000033402D096EC19F029E2170EDBCF06F08B
:1021F000180E86EC1AF0E83421E204500008000EB4
:1022000005541CE218D012EC1EF0080EDBCF02F0D1
:10221000090EDBCF03F000500110021003100BE099
:10222000C9EC1EF002E646EC1BF008E37DEC1EF064
:1022300096EC19F003E2010E30EC1CF0190EDB50A5
:1022400005E10E0EDBB4EBD30BEF15F00E0EDB50F9
:10225000060B01E0DDD30E0EDBA8E1D33D510C0AE5
:1022600001E1A8D10B0A39E00F0A37E0010A35E095
:10227000020A33E0010A31E00C0A01E0AED104ECBD
:102280001EF008E1EE50071905E1EE50081902E1D1
:10229000EE50091920E0130E06CFDBFF140E07CF16
:1022A000DBFF150E08CFDBFF160E09CFDBFF20EC9E
:1022B00018F0010EE66E040E6DEC17F0130EDBCF76
:1022C00006FF140EDBCF07FF150EDBCF08FF160E3F
:1022D000DBCF09FFA4D3070E3D6F0E512D5D006EBD
:1022E0002E510F55016E83EC17F0040E69EC1BF0B4
:1022F00006E0A3EC17F0D950040F5EEC1CF0040EBE
:10230000DBCF00F0050E03EC1AF0060EE96E0F0E9F
:10231000EA6E4FEC1BF05AEC18F0CCEC1CF00450B9
:10232000EE5C006E0550EE58016E0650EE58026EDF
:102330000750EE58036E0001800E031402E0E66AB7
:102340006CD30F012F510E5D046E0F513055056E89
:10235000066A076A05AE02D0066807680450065D83
:10236000006E05500759016E06500859026E07505D
:102370000959036E5AEC18F04DEC1DF00CE2AEEC6E
:102380001DF08AEC17F00050EE5E0150EE5A02503C
:10239000EE5A0350EE5ACCEC1CF0EE50045C006E8A
:1023A000EE500558016EEE500658026EEE5007587A
:1023B000036E5AEC18F0DECF21F0DECF22F0DECF34
:1023C00023F0DDCF24F0DD52DD522434000E24183A
:1023D00009E6D880000E2154000E2254000E23542A
:1023E000000E24545BE2AEEC1DF08AEC17F0EE50C8
:1023F000005CEE500158EE500258EE5003584EE388
:10240000249724993F91040E2FCFDBFF050E30CF88
:10241000DBFF8AEC17F0EE502F27EE503023A6ECAE
:102420001BF00E5D01500F5909E34DEC1DF023E246
:102430000E512F5D006E30510F5518D0E2EC17F0A1
:102440000E510224006E0F510320016E83EC17F031
:1024500043EC1CF02F51005C305101580CE2040E8B
:10246000DB502F5D006E050EDB503059016E9EEC87
:102470001BF02BEC1CF029512F5D2A51305906E33B
:10248000A3EC17F000502F5F0150305B29510E5D17
:102490002A510F5928E3F6EC1DF025D00E512F19C3
:1024A00002E10F5130191FE024A71CD024A919D034
:1024B00062EC1AF0016E026A036A01AE02D0026891
:1024C000036866EC18F04DEC1DF008E2AEEC1DF070
:1024D00001AE02D00268036866EC18F02BEC1CF029
:1024E0003F85248924872D512F1917E12E5130194A
:1024F00014E13FB702D03E9910D07AEC1CF00DE108
:102500000751EE180AE10851EE1807E10951EE18DB
:1025100004E103E13E993F9724911451151106E11E
:10252000ECEC1CF0EE50ED1001E03F83C3EC1EF02C
:10253000080E3D5D1CE17AEC1CF04FE10751EE18EE
:102540004CE10851EE1849E10951EE1846E145E128
:10255000C9EC17F0BA0E0F0135271A0E3623030EF9
:102560003723000E38233E89090E3D6F36D0090E01
:102570003D5D0AE10E0EDBB030D020EC18F0E66ACB
:10258000140E6DEC17F044D20A0E3D5D26E17AEC94
:102590001CF001E044D20751EE1801E040D208518E
:1025A000EE1801E03CD20951EE1801E038D201E00A
:1025B00036D22ED27AEC1CF001E031D20751EE185F
:1025C00001E02DD20851EE1801E029D20951EE1890
:1025D00001E025D201E023D21BD20E0EDBBA1FD2BE
:1025E0000B0E3D5D01E11BD20A0E3D5D01E117D2EC
:1025F0000C0E3D5D01E113D2D950FA0F78EC17F0C3
:1026000001E188D1DDEC18F0013402E2D2EC1AF0DD
:1026100001E2ACD0CAEC1DF0026E036A0A0EDB5078
:10262000F35C006E0B0EDB50035852EC1DF0F2EC25
:1026300098F0E552E552DDEC18F0D950FA0FC3ECF2
:1026400017F0ED22E1EC1BF00C0EDBCF02F00D0ECB
:1026500069EC17F00CE20C0EDBCF22F00D0EDBCF95
:1026600023F0FA0E22C0DBFFFB0E23C0DBFFE1EC00
:102670001BF000500F01E8EC1BF0FA0EDB50312587
:10268000006EFB0EDB503221016E04EC1DF021E2E6
:102690003151DCEC1AF03255DFEC1EF0CBEC18F0C7
:1026A00066EC19F002E2E16AE552E16E0050AAEC34
:1026B00017F002E2E16AE552E16E0450CFEC1EF041
:1026C000016E0F0129510024316F2A510120326F10
:1026D00010D0DBEC17F066EC19F002E2E16AE5528B
:1026E000E16E0050BCEC1AF022500F01312723504C
:1026F0003223221D01E1231D01E10CD1BCEC1AF0B3
:102700002250225F2350235B16512225006E175161
:102710002321016E83EC17F0040EDBCF00F069EC8F
:102720001BF021E1233504E222510008000E23555D
:1027300001E2F0D0A6EC1BF0E8EC1BF0040EDBCFBE
:1027400022F0050EDBCF23F0225031272350322315
:1027500031512B5D32512C5906E275EC1CF00050C2
:10276000315F0150325B22692369D4D0DDEC18F06F
:10277000013401E3CFD0D2EC1AF001E3CBD00A0E42
:10278000DBCF02F00B0EDBCF03F058EC1BF00C0E8E
:10279000DBCF04F00D0E9FEC1AF00EE20C0EDBCF37
:1027A00002F00D0EDBCF03F05CEC1BF0FA0E00C064
:1027B000DBFFFB0E01C0DBFFCAEC1DF0CCEC1BF015
:1027C0000A0EDB500F01EFEC1BF058EC1BF004EC91
:1027D0001DF03EE231512B5D026E2C513255036EDD
:1027E00012EC1CF05CEC1BF08EDB040E69EC1BF0B1
:1027F00010E1CBEC18F012EC18F002E2E16AE552BD
:10280000E16E0250A7DB02E2E16AE552E16E04509C
:1028100026D0D1DB23EC1DF00A0EDB50EFEC1BF0D1
:1028200029512B5D046E2C512A55056E010E04268C
:10283000000E05221AEC1DF052EC1DF0D4D9066EE4
:10284000080EE15C02E2E16AE552E16E065007D053
:10285000B2DBE8DB02E2E16AE552E16E02500F0111
:10286000221D07E1231D05E1FDEC1BF0F6EC1BF03A
:1028700051D0DDEC18F02251005C2351015825E2C3
:10288000B2DB13E3FA0EDBCF08F0FB0EDBCF09F06F
:102890000A0EDB500824066E0B0EDB500920076E73
:1028A0002251065C2351075803E2F6EC1BF00AD0D4
:1028B00004EC1CF00A0EDB50005C166F0B0EDB50B4
:1028C0000158176FFDEC1BF025D08DDB23E2DDEC0A
:1028D00018F022511625026E23511721036E005065
:1028E000025C0150035816E3FA0EDBCF06F0FB0E34
:1028F00086EC1AF02251045C026E23510558036ED7
:102900001651025C006E17510358016E00501627D5
:1029100001501723D950170F69EC1CF017E0070E70
:102920003D5D02E017EC1CF03EAF05D0E7EC1CF07B
:1029300093EC00F00BD03E8F3EBD08D03E8D0BECEB
:102940001CF00F0E0F013B27000E3C230E0EDBA0E8
:1029500066D00ACF00F00BCF01F00CCF02F00DCF04
:1029600003F0002A000E012202220322170EDBCF01
:1029700004F0180EDBCF05F0066A076AD950130F72
:1029800011DAEE500426EE500522EE500622EE50EB
:1029900007220050041843E10150051840E102509D
:1029A00006183DE1035007183AE139E10F010A2BFF
:1029B000000E0B230C230D233D51090A26E0010ACA
:1029C00014E00F0A08E0010A26E10C0E3D6F010E2B
:1029D000E66E110E23D00B0E3D6F0BEC1CF01F0E9C
:1029E0000F013B27000E3C2316D07AEC1CF00AE1C5
:1029F0000751EE1807E10851EE1804E10951EE18ED
:102A000001E103E00A0E3D6F06D0E66A100E65DABA
:102A10008CEC0FF004D0010EE66E100E5EDA1A0E8A
:102A2000E15C02E2E16AE552E16EB6D1FFEC1CF036
:102A300002E3E168E652E16E04DAAAEC1DF007E178
:102A4000010EF36EFB0EF3CFDBFFFC0EDB6A0F0112
:102A50002751DCEC1AF02855016E0006DAEC1BF069
:102A60006DEC19F0DECF04F0DDCF05F06EEC1EF05A
:102A70006BE393EC00F0F80EDB50030B03E1F80E70
:102A8000DB80DB82A3EC1AF0040E22C0DBFF050E14
:102A900023C0DBFF6DEC19F09CEC1DF0F80EDBA2FF
:102AA0000ED0DBA006D0CFEC19F0D8900132003266
:102AB00002D0CFEC19F0D950040F5EEC1CF0040EDC
:102AC000DB500F012725006E050EDB50282115DA9B
:102AD00000C0DEFF01C0DDFF020E31CFDBFF030EC1
:102AE00032CFDBFF221D01E1231D10E004EC1CF0BE
:102AF000D950020F5EEC1CF0CFD904EC1DF006E2B9
:102B000075EC1CF0D950020FFCEC1EF0C5D900503A
:102B1000335D015034590BE2CFEC19F00050335DB6
:102B2000015034591BE2F80EDBB40ED00FD019EC73
:102B30001EF00CE2CFEC19F00050295D01502A592B
:102B40000DE2F80EDBA402D0000E44D0DECF33FF3E
:102B5000DDCF34FFDECF31FFDDCF32FF19EC1EF0C9
:102B600027E2F80EDB50040B23E0020EDBCF22F04D
:102B7000030EDBCF23F02951225C006E2A5123582B
:102B800073EC1AF00FDB14EC1DF002E2E16AE5527F
:102B9000E16E02500F016FEC1BF00AE2DE50295D7E
:102BA000006EDD502A59016E0050315F0150325BDA
:102BB000DECF29FFDDCF2AFF35EC1CF027CF2FFF1A
:102BC00028CF30FFC8EC1AF0070E3D5D02E1E7ECBC
:102BD0001CF0010E006E060EE15C02E2E16AE552B5
:102BE000E16E0050D9D0CAD8F80EDB501BE0010AC4
:102BF00040E1FB0EDB500CE0010A3BE12EDAB9D9D3
:102C00005CEC1AF002E2E16AE552E16E005031D06C
:102C1000D950FC0FF3DB02E120EC1EF01EDA18ECB9
:102C20007AF014D0FB0EDB5014E0010A22E1D950F7
:102C3000F90FE4DB06E1E0EC1CF03FEC78F0E55244
:102C4000E55227EC1EF095D9D8EC79F085EC1EF012
:102C500010D003DA8ED929EC79F0006E060EE15C13
:102C600002E2E16AE552E16E0050D0EC79F0000931
:102C7000FCE092D083D8120EE12402E3E168E65230
:102C8000E16EFB0EDB5014E0010A5DE1F60EDBCFD6
:102C9000E6FFF70E4AEC1AF06CD971EC96F0006E74
:102CA000070EE15C02E2E16AE552E16E00504BD0B2
:102CB000D950FC0FA3DB02E120EC1EF0100EF36EE6
:102CC000DB6E110EDB6AD950F60F12D93CE051DBF6
:102CD000F60EDBCF02F0F70EFCD80CE2F60EDBCFDF
:102CE00022F0F70EDBCF23F0100E22C0DBFF110E17
:102CF00023C0DBFF100EDBCFE6FF110ECBDBFAECBF
:102D00001CF071EC96F0006E070EE15C02E2E16AE5
:102D1000E552E16E0050100EDBCFE6FF110EDBCF67
:102D2000E6FFFAEC1CF02CDB24DB026AD950F80F2A
:102D30002AD9EE220250EE221CDBD950F60F94EC79
:102D40001CF01CD9C0D7120EE15C02E2E16AE55228
:102D5000E16E22D0040EDBCFE9FF050EDBCFEAFFE8
:102D6000140EEA02F3CFEAFFE902F3CFE9FFF450D1
:102D7000EA26B30EE926010EEA221200FAEC1CF054
:102D8000E1CFD9FFE2CFDAFF1200FC0EDBCFE9FF83
:102D9000FD0EDBCFEAFF1200E552E5CFDAFFE7CF09
:102DA000D9FF1200E96E000EDA20EA6E120043EC41
:102DB0001CF0020ED8800056000E0156140E0102BF
:102DC000F3CF01F00002F3CF00F0F4500126F3CF6F
:102DD000E6FF01C0E6FF010EE66EE76E2EEC1EF088
:102DE000E7500226000E0322140E0302F3CF03F075
:102DF0000202F3CF02F0F4500326B30E0226010EB6
:102E0000032256EC1EF0010EE66E040EDBCF04F03A
:102E1000050EDBCF05F0140E0502F3CF05F004021A
:102E2000F3CF04F0F4500526B30E0426010E05225C
:102E300004C0E6FF05C0E6FFD6DE066E080EE15CC4
:102E4000120057EC1DF05EEC00F0E5521200DBECD6
:102E50001EF0EFCFF6FFEE2AEFCFF7FF000EEE22C7
:102E6000EFCFF8FFEE2208000E0EF5CFDBFF1200C9
:102E70003E8BF6ECA1F020C000F021C001F0026A08
:102E8000036A060E0026000E01220222032200C061
:102E900039FF01C03AFF1200020ED5EF1EF0FC0E02
:102EA000006E480E016E010E026EDFCF03F0046A61
:102EB000056A060E266E276A286A03C021F004C040
:102EC00022F005C023F045EF8DF0E926000EEA223E
:102ED0001200DBCF03F097EF1DF0E66E4CEC0BF029
:102EE000E552E5521200E66E6EEC1CF081EF1CF02C
:102EF00094EC1CF0EE50ED101200016E010E002655
:102F0000000E01221200040E00C0DBFF050E01C0FE
:102F1000DBFF1200D9CFE9FFDACFEAFF1200005041
:102F20001E24F36E01501F20F46E02502020F86E14
:102F3000F4CFF7FFF3CFF6FF120057EC1DF0BFEC14
:102F400002F0E55212002751295D006E2A512855E2
:102F5000016E1200CFEC1EF052EC1DF023EC1DF0C0
:102F600029CFE6FF2ACFE6FF3EDE046E080EE15CC5
:102F70001200FC0EDBCFE6FF57EF1DF00050EE5EB7
:102F80000150ED5A120094EC1CF00050EE26015056
:102F90001200ECECA1F020C035FF21C036FF22C0AA
:102FA00037FF23C038FF1200FA0EDBCFE9FFFB0E1C
:102FB000DBCFEAFF1200FA0EDBCFE6FFFB0EDBCF22
:102FC000E6FF12002751295D026E2A512855036E33
:102FD000120057EC1DF07CEC04F0E5521200E552B3
:102FE000E552A5EF1DF0FA0EDBCF02F0FB0EDBCFB2
:102FF00003F00A0EACEC1EF00B0EDB500320016E4A
:1030000022511625046E23511721056E6EEF1EF016
:10301000FA0EDBCFE6FFFB0EDBCFE6FFFC0EDBCFCD
:10302000E6FF120023EC1DF00A0EDB503125006E86
:103030000B0EDB503221000152EC1DF014EF1DF09D
:103040000F0EDBCF06FF100EDBCF07FF110EDBCF1D
:1030500008FF120EDBCF09FF120027EC1EF0E0EF95
:103060001CF0DF50006E016A060E005C000E015875
:103070001200FB0EDBCFE9FFDB2AFC0EDBCFEAFF01
:103080001200020E00C0DBFF030E01C0DBFF1200C6
:10309000EBEC1EF03DEC1DF0DE50025C006EDD50EE
:1030A000035844EC1DF0040EE15C120035EC1EF0F8
:1030B00081EF1CF000C0DFFF010E01C0DBFF020E3C
:1030C00002C0DBFF030E03C0DBFF12000050065FEF
:1030D0000150075B0250085B0350095B1200DBCF15
:1030E000F4FFF350F45C1200DB503421016E0BEC62
:1030F0001EF012EC1EF004EF1DF0ECECA1F00F013D
:103100003551205C006E36512158016E37512258DE
:10311000026E38512358036E0001800E0314120012
:10312000DBCFE6FF42CFE6FF0ECFE6FF0FCFE6FF95
:10313000E66A070EE66E0A0EE66E81EF1CF0295174
:103140002B5D026E2C512A55036E3351315D046E96
:1031500032513455056E1AEC1DF0016E1200E00E6E
:10316000006E0D0EDBCFE7FF0050E7260D0EE7CF18
:10317000DBFF1200E00E006E0E0EDBCFE7FF00500B
:10318000E7260E0EE7CFDBFF12007DDB030E005CAF
:10319000000E01581200040EDBCFE6FF050EDBCF58
:1031A000E6FF120042CFE6FF51EF1EF0260EDBCF06
:1031B00000F0270EDBCF01F012000A0EDBCF00F08B
:1031C0000B0EDBCF01F01200EECF00F0EFCF01F0DD
:1031D0001200016E260E00C0DBFF270E01C0DBFFD0
:1031E000280E14CFDBFF290E15CFDBFF4DEF1DF0AE
:1031F000130EDBCF0AFF140EDBCF0BFF150EDBCF58
:103200000CFF160EDBCF0DFF0A2B000E0B230C2339
:103210000D2312000024E96E000E0120EA6EEF502B
:10322000F36E1200F36E030EF3CFDBFF1200036E9A
:1032300079EC1DF0EFEF1DF0ECECA1F020500F0148
:103240000225356F21500321366F22500421376F3C
:1032500023500521386F12002EEC1EF0DE500224A0
:10326000006EDD50032000C0F3FFF46E1200F3CFB8
:10327000DBFFDBCF00F0040EDBCF01F0050ED1EF5A
:103280001DF03CEC1EF0F90E22C0DBFFFA0E23C04D
:10329000DBFF0F0EDB501200060EDBCF04F0070E33
:1032A000DBCF05F0080EDB50045C026E090EDB502C
:1032B0000558036E12003CEC1EF0F80E22C0DBFF36
:1032C000F90E23C0DBFF100EDB501200BCDB31CF48
:1032D000E6FF32CFE6FF81EF1CF087DBDBCF03F0A8
:1032E000FB0EACEC1EF0FC0EF4EF1EF0DBCF23F077
:1032F000060E22C0DBFF070E23C0DBFF1200D950F1
:10330000100F006E000EDA20016E0C0EDB50120062
:10331000D950110F006E000EDA20016E0D0EDB5039
:103320001200FDEC1DF0040DF35012000050EE5C95
:103330000150EE580250EE580350EE581200B7DB21
:10334000CDEC02F0E5521200F90EDBCF00F0FA0EE0
:10335000DBCF01F01200DBCF03F00250005C035022
:1033600001581200260EDBCF22F0270EDBCF23F010
:103370001200100EDBCF00F0110EDBCF01F01200B7
:1033800018EC7AF085EF1EF0DFCFE6FF5EEC00F080
:10339000E5521200180EE66E0F0EE66E1200DECF3A
:1033A00000F0DDCF01F01200E66E000EDA20E66ECE
:1033B0001200EECFE6FFEFCFE6FF12001C0DC5DBDB
:1033C000000E0026020E012264EF1EF0DBCF00F09B
:1033D000020EDBCF01F0030EE4D3280EDBCF22F088
:1033E000290EDBCF23F0260E22C0DBFF270E23C0E1
:1033F000DBFF1200D8900332023299D395DAEE52F5
:10340000EF50800B1200DBCF01F0026A036A12005A
:10341000DBCFDEFFDBCFDDFF1200DB50006E016A89
:10342000D9501200EECF02F0EFCF03F01200E66E9B
:103430006F511C0DF3CFE9FFF4CFEAFF000EE92630
:10344000020EEA22120035EC1EF014DC006E080EAB
:10345000E15C1200DB500F010124E96E000E022036
:10346000EA6EEFCF00F0610E005C12000E512F5D8E
:10347000046E30510F55056E1AEF1DF0180EF36EE5
:10348000260EF3CFDBFF020EF36E270EF3CFDBFF2A
:103490003F851200DBCFE6FFF80EDBCFE6FFF90E2B
:1034A000DBCFE6FFFA0EDBCFE6FF120046EC96F02C
:1034B000026E060EE15C120046EC96F0006E060EFF
:1034C000E15C12002F510E5D006E0F51305512005D
:1034D000DE502D25006EDD502E21016E2951005C3D
:1034E0002A5101581200DEDA42CFE6FF29CFE6FF6B
:1034F0002ACFE6FF1200F6ECA1F00F0120503B5D51
:10350000006E21503C59016EE8341200DBCF07F009
:103510000A0EDB500624046E0B0EDB500720056EEE
:103520001200020EF3CFDBFF030EF4CFDBFF12001D
:1035300042CFE6FF33CFE6FF34CFE6FF1200DBCF0A
:1035400005F06EEF1EF0F90EDBCF22F0FA0EDBCFA6
:1035500023F01200E66EE66AFAEF1CF0F80EDBCFFD
:1035600022F0F90EDBCF23F01200F80EDBCFE6FFDE
:10357000F90EDBCFE6FF1200FA0EDBCF22F0FB0ED6
:10358000DBCF23F0120000C0F3FF01C0F4FF1200F4
:1035900027CF2DFF28CF2EFF1200040EDB6A050E69
:1035A000DB6A120000500008000E01541200F3CF35
:1035B000EEFF01C0EDFF12002B5D006E2C511200DA
:1035C000740E0F013527350E3623060E3723000EF5
:1035D00038231200140EEECFDBFF150EEECFDBFF0B
:1035E000160EEECFDBFF12003151335D006E345109
:1035F0003255016E0006000E015A1200E16E0050B5
:1036000043EF1CF0DECF02F0DDCF03F090D2DBCF32
:1036100023F0020E22C0DBFF030E23C0DBFF1200EB
:10362000DBCF23F00A0E22C0DBFF0B0E23C0DBFF33
:10363000120029CFDEFF2ACFDDFF040EDB68050E66
:10364000DB681200DB500324E96E000E0420EA6EF2
:10365000EF507A0812000D0EEFCFDBFF010EF36E74
:103660000F0EF3CFDBFF1200E9CF00F0EACF01F03D
:10367000E9CFE6FFEACFE6FF1200E552E552260E5B
:10368000DBCFE6FF270EDBCFE6FF1200000EEE5C7D
:10369000000EEE58000EEE58000EEE581200EE50DE
:1036A0000026EE500122EE500222EE5003221200BC
:1036B000FA0E52DBFB0E98D30A0E9ADB0B0EDB5090
:1036C0000358016E1200DB50E76E0F0EE7CFDBFFF1
:1036D0001200050EDBCF01F0800E011412003351F1
:1036E000315D345132591200DBCF01F0005001102E
:1036F0001200005E000E015A64EF1EF0E552E7CFA3
:1037000003F0E552E7CF02F0025012000024E96E08
:10371000000E0120EA6E0250EF261200030EDBCFEE
:10372000E6FF4CEC0BF0E552E5521200016E240E60
:1037300000C0DBFF250E01C0DBFF12000050062792
:1037400001500723000E0823092312009CD80050C3
:103750001200D950FC0FE66EFF0EDA20E66E120062
:10376000080E22C0DBFF090E23C0DBFF1200252B51
:10377000D89002370337043705371200DBCFE6FF56
:1037800091EC67F0E552E5521200F4CFDBFF0C0E2E
:10379000E66EE66AD9501200E66EE66AF2EC98F040
:1037A000E552E5521200240E22C0DBFF250E23C095
:1037B000DBFF1200000E015A00C0DEFF01C0DDFF7A
:1037C0001200FA0EDBCF00F0FB0EDBCF01F012008F
:1037D0000A2701500B23000E0C230D231200312564
:1037E000026E0B0EDB503221036E1200FA0EDBCF9D
:1037F00016FFFB0EDBCF17FF12000A0EDBCF22FFF6
:103800000B0EDBCF23FF120022511625006E235131
:103810001721016E1200F6ECA1F020C03BFF21C081
:103820003CFF1200010E0226000E0322120031CFCF
:1038300033FF32CF34FF1200E652E652E652E65230
:10384000120029CF33FF2ACF34FF1200DB500F01C3
:103850003325006E12002FCF0EFF30CF0FFF120066
:10386000F36E190EF3CFDBFF120027CF0EFF28CF28
:103870000FFF12000A0EE66EE66A1200C5EC16F0A3
:10388000020E65EF17F0040EDBCF00F0050EDBCF64
:1038900001F0120065EC17F0EECFE6FFEECFE6FF89
:1038A00088DDB0EC67F031DA20C000F021C001F013
:1038B00022C002F023C003F0C5EF16F0D2EC16F0E0
:1038C0000050EE260150ED221200D950060FD2EF23
:1038D00016F0D2EC16F0EE50ED101200FB0EDBCF1E
:1038E000E6FFFC0EDBCFE6FF1200295165DE2A550C
:1038F0007DEF17F0D9500F0FD2EC16F00651EE18ED
:103900001200F3EC15F0006E080EE15C1200AAEC58
:1039100016F0100E65EF17F0DBCF03F0040E68DA37
:10392000050EDB5003581200E96EFF0EDA20EA6E36
:103930001200D9500A0FD2EC16F0FA0EEECFDBFFD0
:10394000FB0EEECFDBFFFC0EEECFDBFF27EF17F019
:10395000016ED950280F50DA29DC280EDBCF02F097
:10396000290E69EF17F0060E53DDDB502B5D006E5C
:10397000070EDB502C590001DFEF1EF00A0EDBCFE3
:1039800022F00B0EDBCF23F0FB0E22C0DBFFFC0E80
:1039900023C0DBFF39EF18F00F0EDBCF04F0100E61
:1039A000DBCF05F0110EDBCF06F0120EDBCF07F0F8
:1039B0008AEF17F010DA8AEC17F0EE50ED101200D3
:1039C000F90EDBCFE6FFFA0EDBCFE6FF1200010EA9
:1039D000E66E100E6DEF17F0C5EC16F00E0E65EFEB
:1039E00017F0BEEC16F021EF17F0F90EDBCF02F066
:1039F000FA0E1200D9CFE6FFDACFE6FF1200BEECD6
:103A000016F0060EE124120000502B5D01502C59D7
:103A10001200E16E00508AEC17F0EE500F012D27D6
:103A2000EE502E234CEF17F0F3EC15F0026E080E5B
:103A3000E15C12000450025C006E05500358120055
:103A4000C6D9180E1200E66AE668E66842CFE6FFBD
:103A500012002D51295D006E2A512E55016E83EC06
:103A600017F0CBEF18F0A0DCD7EC67F0E552E55289
:103A7000EFEC17F0001E011E1200020EDBCF02F069
:103A8000030EDBCF03F01200016E00C0F3FFF46EF3
:103A90001200F36E0D0E6FEF18F02F510E5D3051C6
:103AA0000F591200016E00C0E6FFE66E1200FD0E17
:103AB000DBCFE6FF120050D9000E03207DEC17F09B
:103AC000C3EF1AF0AADC020F97D94CEF17F0D2DE41
:103AD000DBEC17F05FDC5CEF1AF0010EE66E110E06
:103AE0006DEC17F00F01145115111200020E90DC4D
:103AF0005CD1F70E31D9F80E77D1DBCFE6FFE66A5D
:103B0000D2EC18F0010EE66ED9501200EECF00F0A4
:103B1000EECF01F087DCAAEF16F0610EF36E0E0E09
:103B20006FEF18F0AAEC16F00A0E65EF17F00050D0
:103B3000025C0150035812008AEC17F0BEEF17F038
:103B4000F80EDBCF02F0F90E1200F3CF00F0F4CF45
:103B500001F01200D950FB0F78EF17F0A3EC17F02B
:103B6000026A036A1200DB50F458016E41EC18F04F
:103B70004CEF17F027EC17F0010EF36E100EF3CF99
:103B8000DBFF1200B2EC19F022500F010E27235078
:103B90000F231200C5EC16F00C0E65EC17F091EF38
:103BA00019F0DBCF02F00050015C000E0258120049
:103BB0001FC004F020C005F08FEF17F04CEC17F099
:103BC000E2EC17F0FAEF19F0BEEC16F035DE21EF5B
:103BD00017F00E0EDB50F36E0C0E6FEF18F0005066
:103BE0001219406F01501319416F1200A3EC17F026
:103BF00000500E5F01500F5B1200EF50F00BE842D7
:103C0000E842E842E8421200D9500F0FD2EC16F019
:103C1000EE5006191200060E00C0DBFF070E01C0B1
:103C2000DBFF1200060EDBCF00F0070EDBCF01F04A
:103C300012004CEC17F03351005C34510158120063
:103C4000B9EC17F035EC78F0E552E5521200F60EBB
:103C5000DBCFE6FFF70EDBCFE6FF1200040EDBCF73
:103C600002F0050EDBCF03F0120042CFE6FF2DCFAE
:103C7000E6FF2ECFE6FF1200080EDBCF22F0090E82
:103C8000DBCF23F0120021EC17F09FEF19F08AEC44
:103C900017F0010EEE1812009DEC17F00F013F8196
:103CA0001200DECFE6FFDDCFE6FF120002C0E6FF26
:103CB00003C0E6FF120021EC17F0E9EF17F0240E25
:103CC000DBCFE6FF250E120000C0E6FF01C0E6FFD5
:103CD000120065EC17F020C0EEFF12000050045CEB
:103CE000015005581200BEEC16F0E6521200D9EC55
:103CF00019F091EC67F0EFEF17F00C0EDBCF00F04E
:103D00000D0E03EC1AF065EF1CF0E552E552E5529A
:103D1000E5521200E16E41DCB6DF91EC1AF0D950A9
:103D2000020F69EF1CF00DEC1AF0040F65D8D950A2
:103D3000040F69EF1CF001C0EEFF02C0EEFF03C0EC
:103D4000EEFF12009BDDE4EF18F0BFDDEE06000E83
:103D5000EE5AEE5AEE5A1200DB500224006E1200A8
:103D6000010EE66EBBDD56EF18F08DDDE5DEC8EF27
:103D70001AF0BBDDAADDBEEF17F062DED880EE548C
:103D8000020EED54120028DEEECF14FFEDCF15FF2A
:103D900012009BDDD890030EEB50000A1200FA0EC1
:103DA000DBCF02F0FB0E8CEF1CF0DBCF00F0030E3C
:103DB000DBCF01F01200D950FA0F94EF1CF07DEC2C
:103DC00017F083EF17F0A3DDEE50ED101200D9507D
:103DD000260FD2EF16F0F3CFDEFFF4CFDDFF120097
:103DE000D7EC1AF0C5EF16F0DB500320016E12007D
:103DF000DB50025C006E1200D2EC16F0BEEF17F042
:0A3E000065EC17F074DFC5EF16F053
:063E0A000E01326BFF0EF9
:103E1000E66EE66A000EE66EE66AA10EE66EE66AF9
:103E20000DEC70F0A8EC34F002E2E16AE552E16ECC
:103E300000500601706F120099EC30F0160EE1246C
:103E400002E3E168E652E16EFF0E0601705D52E0AA
:103E500070C6E6FF8CEC72F05DEC32F04BE070C6A1
:103E6000E6FF72EC2CF0E552080EDB6AD950080F21
:103E7000A9EC30F082EC34F05BDAA8EC34F002E22A
:103E8000E16AE552E16E0050E76E0F0EE7CFDBFF0F
:103E9000DB502EE0D950090FA9EC30F08FDA9FECFF
:103EA00033F026E00E0132916CEC31F001E032810A
:103EB000080EDBCFE6FF82EC34F0BCDA006E050EB4
:103EC000E15C02E2E16AE552E16E0050E76E150E38
:103ED000E7CFDBFF0E0132A102D03FEC32F0150E2E
:103EE000DB5006E00501D25105E1CAEC71F002D0C9
:103EF000F0EC72F0010E006E160EE15C02E2E16A77
:103F0000E552E16E0050AEEF30F090EC33F0FC0E75
:103F1000DBCFDEFFDBCFDDFF35EC31F03D0EE66EB3
:103F20000E0EE66E24EC97F0ACEC34F0E552F90E90
:103F3000DBCF45FEF80EDBCF46FEF70EDBCF47FEAC
:103F4000F30EDBCF49FEF40EDBCF4AFEF50EDBCFDE
:103F50004BFEF60EDBCF4CFEDECFE6FFDDCFE6FFFD
:103F60004FEC8FF0E552FAEF33F099EC30F00C0E95
:103F7000E12402E3E168E652E16E8EEC32F087EC78
:103F800032F0FCEC33F00A0EDBCFE6FF0B0EDBCF9A
:103F9000E6FFA4EC8FF0E55243EC31F022E00A0E8C
:103FA000DBCFE9FF0B0EDBCFEAFFCCEC31F0A20E4A
:103FB000E66EE66A3FEC33F0FE0EE66EE6680DEC68
:103FC00070F0A8EC34F002E2E16AE552E16E0050D4
:103FD0000E01486FFF0E005C02E1000E03D0010EDF
:103FE00001D0000E006E0C0EE15C02E2E16AE552C7
:103FF000E16E0050AEEF30F099EC30F03B0EE12472
:1040000002E3E168E652E16E6CEC31F001E1F7D0D9
:1040100048CEE6FF72EC2CF0E552020E45CEDBFFF7
:104020003D0EDE6E0E0EDD6E300E05EC33F0160E1C
:104030002ECEDBFF170E2FEC34F02AEC34F011EC0F
:1040400033F0040E05EC33F0020EDBCFE6FFA5ECF7
:1040500030F0020EE2EC30F00BE0DFCFE9FFDF2AB8
:10406000010EDBCFEAFF01E3DB2AEF50E66EEFD76C
:10407000A40E05EC33F0180E2ECEDBFF190E2FEC3C
:1040800034F0D950130F83EC33F046CEE6FFB5EC95
:104090002CF007EC34F002E2E16AE55200EC32F079
:1040A00001E1ABD0D950250FD6EC30F0EF50400BEA
:1040B00001E1A3D0E66AD9502A0FD6EC30F0C9EC62
:1040C00030F002E2E16AE552E16E005052EC34F069
:1040D00087EC34F0E76E130EE7CFDBFF020E01EC46
:1040E00033F0020EE2EC30F006E0D9503A0F0AEC61
:1040F00033F03A0EF4D7400E55EC34F090C4E6FF9E
:10410000A5EC30F091C4E6FFA5EC30F092C4E6FFD8
:10411000A5EC30F093C4E6FFA5EC30F02AEC34F0C7
:10412000D4C5E6FFA5EC30F02AEC34F0F70E01EC34
:1041300033F0430E55EC34F04CCEE6FFA5EC30F0F6
:104140004BCEE6FFA5EC30F04ACEE6FFA5EC30F012
:1041500049CEE6FFA5EC30F0300E05EC33F01A0E38
:104160002ECEDBFF1B0E2FEC34F0300E05EC33F0BF
:104170001C0E2ECEDBFF1D0E2FEC34F0D950120F8B
:1041800083EC33F0FD0EDBCFE6FFB5EC2CF007EC53
:1041900034F002E2E16AE55200EC32F02EE052EC3B
:1041A00034F0120EDB2805EC33F0120EDB5046EC37
:1041B00031F0D950030F66EC33F0140E00C0DBFF72
:1041C000150E01C0DBFF020EE2EC30F00BE0140E26
:1041D000D4EC33F0150EDBCFEAFF01E3DB2A79ECF8
:1041E00034F0F1D7F80E01EC33F0D950380FA9ECC8
:1041F00030F0260ED8EC33F009E13FEC32F048CE37
:10420000E6FF84EC70F0E552000E88D0380E01EC29
:1042100033F0390EDB50FF080DE1040EF36E390E5A
:10422000F3CFDBFFF90EDB6AFA0EDB6AFB0EDB6A0B
:10423000FC0EDB6A390EDB5046EC31F0DBCFE6FFDB
:10424000A5EC30F0020EE2EC30F00DE0D950F90FA1
:10425000006EFF0EDA20016E020EDB5083EC31F0AF
:10426000EF50E66EEDD7120EDBCFE6FF390EDB28FE
:10427000010FE552E724020F010F46EC31F01E0E4C
:104280002ECEDBFF1F0E2FCEDBFF1C0EDBCF2EFE54
:104290001D0E4FEC34F0020E006EDBCFE7FFE8504E
:1042A000E726020EE7CFDBFF1A0EDBCF2EFE1B0E3A
:1042B0004FEC34F0130EDBCFE6FF020EDB50020FA3
:1042C000060F030F030F060FE552E724020F46EC1B
:1042D00031F0180EDBCF2EFE190E4FEC34F0020E2B
:1042E000DB50020F0E014525020F030F46EC31F0A3
:1042F000160EDBCF2EFE170E4FEC34F01E0EDBCF6A
:104300002EFE1F0EDBCF2FFE3FEC32F0CAEC71F019
:1043100048CEE6FF84EC70F0E552010E006E3B0ED5
:10432000E15C02E2E16AE552E16E0050AEEF30F08E
:1043300093EC33F0E6523FEC33F0C2EC31F000097D
:104340002FE00BEC34F02CE08FEC30F0090EF0ECA9
:1043500031F0DF5002E0DF0423E1A3EC33F03AEC6C
:104360002BF0E55243EC31F01BE0FCEC33F0ADEC0C
:104370002BF09FEC33F014E036EC34F04CEC32F0E0
:10438000DBCFEFFF0DEC33F003E133EC34F008E06A
:1043900035EC31F0AFEC7CF0E552E552030802E178
:1043A000000E02D0040EDB50006E050EE15C02E24E
:1043B000E16AE552E16E0050AEEF30F093EC33F07D
:1043C0000BEC34F02AE08FEC30F0D8EC31F00DEC4F
:1043D00033F003E02BEC33F009E133EC34F006E08A
:1043E0000BEC34F01AE00FEC31F01AD02BEC33F078
:1043F00014E133EC34F011E10BEC34F00EE08FEC0F
:1044000030F0040EF0EC31F00BEC34F006E08FEC01
:1044100030F0050EF0EC31F002D0000E01D0010EAC
:10442000006E040EE15C02E2E16AE552E16E0050CA
:10443000AEEF30F099EC30F0590EE12402E3E16880
:10444000E652E16EDF6A110EDB6A130EDB6A140EB0
:10445000DB6A150EDB6A160EDB6A170EDB6A1A0EB4
:10446000DB6A1B0EDB6A1C0EDB6A1F0EDB6A2A0E80
:10447000DB6A2B0EDB6A2C0EDB6A2D0EDB6A2E0E3E
:10448000DB6A2F0EDB6A300EDB6A310EDB6A320E1E
:10449000DB6A330EDB6A340EDB6A350EDB6A360EFE
:1044A000DB6A370EDB6A0E01396B3A6B376B386BA0
:1044B000356B366B3B6B3C6B95EC32F0240E22C0B7
:1044C000DBFF250E23C0DBFF060171510B0A01E162
:1044D0007CD3010A01E142D2030A01E19DD1010A24
:1044E00001E118D10F0A01E1ECD0010A01E1DAD0B3
:1044F000030A01E18AD0010A71E0070A61E0010ABA
:1045000055E0030A36E0010A02E0D2EF26F0E2ECC1
:1045100032F0300EBBEC34F02A0E2ECEDBFF2B0E29
:104520002FEC34F011EC33F02AEC34F00DEC33F0D6
:1045300005EC33F0F90EDB50E76E130EE7CFDBFF2F
:10454000040E05EC33F0F90EDBCFE6FFA5EC30F0FE
:10455000F90EE2EC30F00BE0FA0ED4EC33F0FB0E87
:10456000DBCFEAFF01E3DB2AEF50E66EEFD706016F
:10457000712BA20EBBEC34F02C0E2ECEDBFF2D0ED9
:104580002FEC34F011EC33F0020E55EC34F08FECDC
:1045900030F0030E46EC34F0020E46EC34F0010E1F
:1045A00046EC34F079EC34F00601712B2AEC34F04F
:1045B0002E0E2ECEDBFF2F0E2FEC34F00601712BCA
:1045C0002AEC34F09CEC32F011EC33F0110EDB6A83
:1045D000120EDB6A580EDB6A0601712BD950380FB8
:1045E0009EEC34F0000901E15BD3380EDBCFE6FF2F
:1045F000390EDBCFE6FFFDEC2FF0E552E552E76E1A
:10460000150EE7CFDBFF0601712B150EDB50E76EB1
:104610001A0EE7CFDBFF1B0EDB6A1C0EDB6A2BECEE
:1046200033F028E133EC34F025E18FEC30F0040E68
:1046300020EC34F0EFCF00F0150EDB50D8800054A2
:1046400008E38FEC30F0040E20EC34F01A0EEFCFBC
:10465000DBFFBFEC34F01B0EEFCFDBFF65EC32F07D
:10466000006E000E005C06E365EC32F0E76E1C0E97
:10467000E7CFDBFF1A0EDB50E76E160EE7CFDBFF4E
:104680001A0EDBCFE6FF1C0EDBCFE6FF1B0EDB5066
:10469000E552E702F350E552E724E76E170EE7CF45
:1046A000DBFF712B300EBBEC34F08AEC31F011ECF7
:1046B00033F011EC33F03E0EDB6A3F0EDB6A06018D
:1046C000712B1A0EDB5009E1A3EC32F00B0E716F67
:1046D00021EC31F06DEC32F065D3110EDB2A61EC88
:1046E00033F0DF5001E1DCD23A0EDBCF00F03B0EBD
:1046F000DBCF01F0ABEC33F0DF50006E016AABECC6
:1047000033F021EC31F033EC34F002E16DEC32F0B7
:104710000601712B73EC34F001E1C2D27CEC34F071
:1047200005E00BEC2CF0000901E1BAD233EC34F0D7
:1047300025E052EC34F0260E2ECEDBFF270E2FCED6
:10474000DBFF100E01EC33F0A1EC34F0200E00C0C2
:10475000DBFF210E01C0DBFF100EDB50DF6EDF50F0
:10476000DF0600090BE0200ED4EC33F0210EDBCF86
:10477000EAFF01E3DB2A79EC34F0F1D7240EDBCF3A
:10478000E6FF250EDBCFE6FFAFEC7CF0E552E5520D
:10479000E76E140EE7CFDBFF0601716B7CEC34F0A3
:1047A00005E1140EDB50020807E104D0140EDB50C3
:1047B000030802E0090E716F61EC34F050EC30F048
:1047C0009FEC33F021E0060171511EE11A0EDB6A05
:1047D000170EDB6A716B14EC33F002E2E16AE5520A
:1047E000AAEC32F0470EDBCFD3F5B1EC32F00E017C
:1047F000020E2E5F000E2F5B0501D56B0501040E26
:10480000D46F0501010ED26F0601715101E1CAD2C8
:10481000070E715D01E1C6D21A0EDB5002E01A0EDE
:10482000DB061A0EDB5002E1A3EC32F0170EDB06BA
:1048300014EC33F002E2E16AE552AAEC32F0DB0458
:1048400001E18AD0B0EC34F001E186D0DEEC33F047
:1048500024EC34F0C7EC34F003E0EFEC32F003D09A
:10486000100EDBCFE6FF46EC33F007E01BEC31F037
:1048700001E3DB2AEF50E66EF6D70E01345105E076
:1048800011EC33F0100EDB2802D0100EDB50020FBB
:104890008DEC34F00DEC33F00AE155EC33F002E22C
:1048A000E16AE552E16E005059EC34F048D02BEC4F
:1048B00033F045E17CEC34F042E0FEEC32F0A0084D
:1048C0002DE11D0E01EC33F011EC33F01D0EDB5029
:1048D000800810E14BEC31F003E027EC32F0FDE111
:1048E0002BEC32F000BE016800500E013513015070
:1048F000361325D01D0EDB50810821E14BEC31F041
:1049000003E027EC32F0FDE12BEC32F000BE016851
:1049100000500E01391301503A1311D033EC34F02A
:104920000EE15DEC34F04BEC31F003E027EC32F0BB
:10493000FDE12BEC32F000BE0168F4EC31F0D9500F
:104940003C0FD6EC30F0020EEE26000EED220EECFF
:1049500034F0E2EC32F035D10601712BF3EC30F09B
:1049600024EC34F052EC34F07CEC34F047E100EC11
:1049700034F003E0EFEC32F003D0100EDBCFE6FFB3
:1049800046EC33F007E01BEC31F001E3DB2AEF509B
:10499000E66EF6D70E01345102E0B7EC33F0D95091
:1049A000580FA9EC30F065EC34F0ECEC30F052EC40
:1049B0002EF0A8EC34F002E2E16AE552E16E00501C
:1049C000DF6E580EDB500DE0110EDBCFE6FF580E08
:1049D000DBCFE6FF01EC31F002E2E16AE552E16E85
:1049E00000500E01345103E0100EDB2802D0100EEF
:1049F000DB50020FDF241CEC33F053D0FEEC32F01E
:104A0000A00803E033EC34F029E100EC34F003E0DB
:104A1000EFEC32F003D0100EDBCFE6FF46EC33F0C4
:104A200007E01BEC31F001E3DB2AEF50E66EF6D72E
:104A30000E01345107E011EC33F0100EDB50020F81
:104A4000010F03D0100EDB50020F1CEC33F0E66AAE
:104A5000D950400F04EC34F0DF6E23D0B0EC34F0CA
:104A600020E165EC34F0EFD9E552E552DF6EDF501E
:104A700018E100EC34F003E0EFEC32F003D0100E5C
:104A8000DBCFE6FF46EC33F007E01BEC31F001E34F
:104A9000DB2AEF50E66EF6D70E01345102E0B7EC98
:104AA00033F0DF506BE17CEC34F068E00DEC33F078
:104AB00007E155EC33F002E2E16AE552E16E0050A5
:104AC00059EC34F0B0EC34F003E033EC34F00DE1A9
:104AD0002BEC33F00AE10E01020E2E5F000E2F5B6D
:104AE000820E05EC33F0B7EC33F0FEEC32F0A008A8
:104AF00003E033EC34F003E1020EDF6E05D0B0ECDE
:104B000034F002E193EC34F04BEC31F003E027ECAD
:104B100032F0FDE12BEC32F000BE016800500E01D6
:104B20003713015038134BEC31F003E027EC32F02F
:104B3000FDE12BEC32F000BE016800500E01351390
:104B4000015036134BEC31F003E027EC32F0FDE17D
:104B50002BEC32F000BE016800500E0139130150F9
:104B60003A134BEC31F003E027EC32F0FDE12BEC93
:104B700032F000BE0168F4EC31F007D0B0EC34F054
:104B800004E1020EDF241CEC33F0FEEC32F0A0084E
:104B900003E033EC34F003E1DF508DEC34F00EEC45
:104BA00034F021EC31F0E2EC32F033EC34F009E196
:104BB0002BEC33F006E11A0EDB5003E106010B0E7D
:104BC00002D00601070E716FEDD0180EDB6A1B0EC6
:104BD000DB50F36E180EDBCFF4FFF350F45C01E30F
:104BE000E1D0360EDBCF30FE370EDBCF31FE190EB3
:104BF000DB6A1C0EDB50F36E190EDBCFF4FFF350B3
:104C0000F45C01E3CCD0190EDB500BE1150EDBCFC9
:104C1000E6FF1C0EDB50E552E75CE76E110EE7CFB6
:104C2000DBFF110EDB2A190EDBCFE6FF160EDB5081
:104C3000E552E724010F3BCE00F03CCE01F005E049
:104C4000D89001320032E804FBE10050010B14E07F
:104C5000170EDB0661EC33F01C0EDB50F36E190E01
:104C6000DB50F35C01E198D03A0EDB500E013027A7
:104C70003B0EDB50312390D0170EDB06F3EC30F007
:104C800024EC34F0180EDB50E76E1F0EE7CFDBFF8D
:104C900061EC33F0DF5001E182D073EC34F002E1DB
:104CA000000EC7D0B4EC30F07CEC34F004E00BEC38
:104CB0002CF0000974E014EC33F002E2E16AE552F2
:104CC00000EC32F029E1C7EC34F003E0EFEC32F015
:104CD00003D0100EDBCFE6FF46EC33F007E01BEC11
:104CE00031F001E3DB2AEF50E66EF6D70E013451C6
:104CF00002E0B7EC33F05DEC34F093EC34F04BECC5
:104D000031F003E027EC32F0FDE12BEC32F000BE95
:104D10000168F4EC31F03CD0D9501F0FA9EC30F011
:104D20004CEC33F065EC34F080D9006E080EE15C99
:104D300002E2E16AE552E16E0050DF6EDF5024E1ED
:104D4000B4EC30F052EC34F0100EDBCFE6FF46EC62
:104D500033F007E01BEC31F001E3DB2AEF50E66EA5
:104D6000F6D75DEC34F04BEC31F003E027EC32F099
:104D7000FDE12BEC32F000BE0168F4EC31F0100ED6
:104D8000DB50020F020F02D0020EDF241CEC33F0C6
:104D90000EEC34F021EC31F0190EDB2A2AD7180E74
:104DA000DB2A15D71A0EDB5002E064EF22F0170E53
:104DB000DB5002E064EF22F00601716BE5EC33F0AA
:104DC00098EC31F04AEC34F0040EE76E3E0EDBCF87
:104DD00000F03F0EDBCF01F0E75059EC32F0060E49
:104DE00059EC32F0030E59EC32F0030E59EC32F06C
:104DF000B8EC32F02C0EDBCF2EFE2D0EDBCF2FFECB
:104E00004AEC34F0130EDB50050F040F026E036AF8
:104E10003E0EDB500224006E3F0EDB500320016E7D
:104E2000B8EC32F0B1EC32F04AEC34F091EC31F005
:104E3000010E006E590EE15C02E2E16AE552E16E9C
:104E40000050AEEF30F099EC30F0360EE12402E382
:104E5000E168E652E16E340EDB6ADF6A70EC34F032
:104E600006E170EC34F00BE17FEC34F008E1010E68
:104E7000F36E340EF3CFDBFF99EC34F012E0D9502F
:104E80002C0FA9EC30F0D9501D0FA9EC30F0ECEC50
:104E900030F049EC32F002E2E16AE55200EC32F027
:104EA00002E1000EB8D0D9501D0F66EC33F01B0E96
:104EB00000C0DBFF1C0E01C0DBFF9CEC32F02C0EAF
:104EC000DB50DF6E9FEC31F0010E0E012E27000E3D
:104ED0002F23DF50DF0600090BE01B0ED4EC33F06C
:104EE0001C0EDBCFEAFF01E3DB2A79EC34F0F1D7CB
:104EF0002C0EDB50DF6EC4EC34F0EFCF51FEBCEC77
:104F000033F0EFCFDBFF7FEC34F01FE111EC33F037
:104F1000DF2A8AEC31F09FEC31F02C0EDB2A01EC19
:104F200033F098EC31F08AEC31F07DEC33F046EC64
:104F300031F0DB5007E198EC31F059EC34F0020E1F
:104F4000F36EDB6E020EDB5064D0350EDB6A340E7E
:104F5000DB0410E14D0EE66E0E0EE66ED950350FF5
:104F6000A9EC30F02EEC33F002E2E16AE55200ECFD
:104F700032F020E0C0EC33F0C3EC33F00E01526BA2
:104F8000D9502D0FCDEC34F0090EDB6AD950090F42
:104F90000AEC33F051EC33F0190EEFCFDBFF340E97
:104FA000DB500BE1D950190FA9EC30F00A0EECECF4
:104FB00033F003E19FEC31F05AD7080EBFEC32F02A
:104FC000030F04EC34F00E01522751EC33F0190EAC
:104FD000DBCFEFFF5251DF262C0EDBCFE7FF525124
:104FE000E7262C0EE7CFDBFF8AEC31F09FEC31F0A7
:104FF0002C0E01EC33F098EC31F0C0EC33F0DBCF49
:10500000EFFFBCEC33F0B3EC33F051CEEFFF7DECAF
:1050100033F0DF26DF50006E360EE15C02E2E16A1B
:10502000E552E16E0050AEEF30F099EC30F0260E14
:10503000E12402E3E168E652E16E050EDB6A0C0E44
:10504000DB6A010EF36E020EF3CFDBFFDBCF00F065
:10505000F60EDBCFE9FFF70EDBCFEAFFEF50D8808B
:10506000005415E370EC34F009E17FEC34F006E114
:1050700070EC34F009E17FEC34F006E1010E62ECF3
:1050800031F099EC34F013E0020EDB2ADFD7D9506F
:10509000030FA9EC30F035EC31F0ECEC30F049ECDA
:1050A00032F002E2E16AE55200EC32F002E1000E79
:1050B000C3D052EC34F0080E2ECEDBFF090E2FCEFB
:1050C000DBFFDBEC30F0C6EC32F0A6EC31F0010E89
:1050D0000E012E27000E2F230C0EE2EC30F00AE01A
:1050E000CFEC30F079EC34F0FA0EDB2AFB0EF4E36F
:1050F000DB2AF2D7DBEC30F0C6EC32F0C4EC34F053
:10510000EFCF53FEB3EC34F04CEC32F0EFCFDBFFDB
:105110007FEC34F01AE111EC33F00C0EDB2A13ECC7
:1051200032F0A6EC31F0030EDB2A01EC33F0CDECCB
:1051300032F013EC32F07DEC33F04FEC32F00C0E29
:10514000DBCFE7FF010EDB5072D0DF6A050EDB0418
:105150000EE1550EE66E0E0EE66E3FEC33F02EECD1
:1051600033F002E2E16AE55200EC32F024E0CAECEE
:1051700033F0C3EC33F00E01546BD950060F0AEC38
:1051800033F0D950150F0AEC33F0140EDB6AD95006
:10519000140F0AEC33F051EC33F0240EEFCFDBFFA9
:1051A000050EDB500BE1D950240FA9EC30F0150EA1
:1051B000ECEC33F003E1A6EC31F060D7130EBFEC5A
:1051C00032F00E0F04EC34F00E01542751EC33F0A2
:1051D000240EDBCFEFFF0C0EDBCFE7FF5451E726A9
:1051E0000C0EE7CFDBFF030EDBCFE7FF5451E726C2
:1051F000030EE7CFDBFF13EC32F0A6EC31F0030E29
:1052000001EC33F0CDEC32F0CAEC33F0DBCFEFFF42
:10521000B3EC34F04CEC32F0B3EC33F053CEEFFFA0
:105220007DEC33F0006E0C0EDBCFE7FF0050E7267D
:105230000C0EE7CFDBFFDB50006E260EE15C02E2D6
:10524000E16AE552E16E0050AEEF30F099EC30F0DB
:10525000130EE12402E3E168E652E16E080EDB6A18
:105260000E01010E346F8FEC30F0090ED4EC32F0E9
:1052700036EC34F04CEC32F0EFCFDBFF32A161D1F1
:105280000B0EDB6A0C0EDB6A0D0EDB6A0E0EDB6AA0
:10529000F90EDB5046EC31F0F90EDB50E76E050EEF
:1052A000E7CFDBFF95EC32F0060E22C0DBFF070EE6
:1052B00023C0DBFFE66AD9500B0FD6EC30F0C9EC07
:1052C00030F002E2E16AE552E16E00508BEC33F01F
:1052D000C2EC30F02FEC31F03FEC33F09FEC30F0CB
:1052E000080EDB5013E1010EDFCFDBFFD9500B0FAF
:1052F000D6EC30F00F0EEECFDBFF100EEECFDBFF63
:10530000110EEECFDBFF120EEECFDBFFC2EC30F062
:10531000050EF3EC32F044EC33F0800B05E0C2EC08
:1053200030F0070EF3EC32F044EC33F0080B02E0FF
:1053300039EC34F03CEC31F0EF50DF5C50E0F90E2A
:10534000FAEC31F001E1BAD0080EDB0405E144ECDF
:1053500033F0080B01E1F9D044EC33F0080B01E124
:10536000F4D0E66A090EDBCF04F00A0EDBCF05F0BD
:10537000066A076A04C0E6FF05C0E6FF06C0E6FF4E
:1053800007C0E6FF33CEE6FF32EC5EF0086E060E95
:10539000E15C02E2E16AE552E16E0850006E016AEA
:1053A000026A036A00AE03D00168026803680B0E4C
:1053B00000C0DBFF0C0E01C0DBFF0D0E02C0DBFFE7
:1053C0000E0E03C0DBFF15EC31F004EC32F023C00D
:1053D000DBFF010EF36E080EF3CFDBFF6BD7020E7F
:1053E000DB06060EDB2A070E01E3DB2A44EC33F072
:1053F000100B43E144EC33F0010B02E039EC34F0E4
:10540000C2EC30F0060E24EC32F0C2EC30F0060EA6
:10541000F3EC32F015EC31F028EC31F0C2EC30F066
:10542000E7EC32F02FEC31F07FEC32F006E1020EC7
:10543000DB5003E10E01346B88D07FEC32F00AE1DF
:10544000020EDB0407E13CEC31F0EF5003E10E010A
:10545000346B34D0040EDB50A10830E1020EDB5077
:105460002DE10E01010E346FC4EC34F0A00EEF6E8E
:10547000F36E040EF3CFDBFF21D0020EDB040CE150
:105480003CEC31F0EF5008E10E01346B44EC33F0AA
:10549000100B01E10FD759D0020EDB500AE144ECAA
:1054A00033F0100B03E17FEC32F008E10E01346BB6
:1054B0004CD015EC31F004EC32F0FAD6C2EC30F0FE
:1054C000160EF0EC31F03CEC31F0EFCFDFFFC2EC28
:1054D00030F0D9EC32F0020EDB040CE13CEC31F0A0
:1054E000EF50E66EC2EC30F0160E20EC34F083EC98
:1054F00032F029D0020EDB5006E1C2EC30F0160E7D
:1055000024EC32F020D0020EDB50010803E3800EC1
:10551000DF1419E0C2EC30F0170E20EC34F0EF6825
:105520007FEC32F003E1030EDB5015E07FEC32F04C
:1055300008E1030EDB0405E1F90EFAEC31F016E1A7
:1055400013D0000E23D0010E21D07FEC32F010E1F9
:10555000030EDB5002E1020E19D0030EDB0415E14D
:10556000F90EFAEC31F002E1810E10D0800E0ED06F
:10557000040EDB50A10804E0040EDB50A50805E191
:10558000030EDB0402E1820E01D0000E006E130E4A
:10559000E15C02E2E16AE552E16E0050AEEF30F00C
:1055A00090EC33F070EC34F015E108EC33F0080BBC
:1055B00004E108EC33F0010B0BE0E66A8FEC30F00D
:1055C000F2EC33F002E2E16AE552E16E005002D003
:1055D000000E4CD0F6EC33F02FEC31F08FEC30F0C5
:1055E000040EF3EC32F08FEC30F0050EF3EC32F0F9
:1055F00008EC33F0800B04E0B3EC34F0F3EC32F061
:1056000008EC33F0080B04E108EC33F0010B13E075
:105610003FEC33F09FEC30F0D950010F0AEC33F03F
:10562000DECF00F0DDCF01F0026A036A8FEC30F0CC
:105630000E0EE8EC30F070EC34F0CCE136EC34F0E7
:1056400024EC32F036EC34F0F3EC32F0F6EC33F0DC
:10565000E7EC32F02FEC31F08FEC30F0D9EC32F097
:105660008FEC30F0160E24EC32F0010EE552E552CC
:10567000AEEF30F0B7EC34F0EAEC32F0040EDF5C61
:105680000BE157D94FEC32F0CFEC30F0010EDBCF0D
:10569000EFFFDB50080802E2000E11D0010EE2EC31
:1056A00030F009E046D9DF6E75EC32F001E3DB2A19
:1056B000DFCFEFFFF3D78FEC30F0EF6A010EE5524A
:1056C000E552AEEF30F099EC30F0080EE12402E341
:1056D000E168E6522FEC32F02CD9020814E1FCEC20
:1056E00033F058D89FEC33F00EE0D950040FD6ECCD
:1056F00030F0D880040EEE54000EEE54000EEE543E
:10570000000EEE5402E2000E1ED0DE6ADE6ADE6A91
:10571000DD6ADD52DD52040EE2EC30F00FE009D913
:10572000E66ED9CF00F0DACF01F0040EDB500F01A6
:10573000D924D6EC30F083EC32F0EDD78FEC30F09A
:10574000D8EC31F0010E006E080EE15C02E2E16A75
:10575000E552E16E0050AEEF30F090EC33F0EAEC41
:1057600032F0A00EDF5C0BE0A10EDF5C08E0A30EC0
:10577000DF5C05E0A50EDF5C02E0000E09D08FECD7
:1057800030F0DFCFEFFF61EC34F004D8E552E552A2
:10579000FAEF33F093EC33F0010EDB6A020EDB6AB2
:1057A000030EDB6AC6D8DF6E010EDFCFDBFFDFAE94
:1057B0001AD0000EDF9EDF50020802E2000E21D058
:1057C000DF28E76E030EE7CFDBFFDF50DF060009BF
:1057D0000EE0AFD8E66EA1EC34F0DF5083EC31F090
:1057E00083EC32F0F2D7F36E030EF3CFDBFF8FECD6
:1057F00030F0010EDBCFEEFF020EDBCFEDFF030E2C
:10580000DB50006E040EE15C02E2E16AE552E16EFB
:105810000050AEEF30F099EC30F0EAEC32F0050ECB
:10582000DF5C03E186D8000902E0000E01D0010E22
:10583000E552AEEF30F093EC33F07BD806080CE184
:1058400039EC32F0000908E067EC31F00F0ED88037
:10585000EE54000EED5402E2000E15D0CFEC30F005
:10586000DFCFEFFFDF50DF06000909E062D8E66E08
:1058700075EC32F001E3DB2A83EC32F0F3D78FECE6
:1058800030F0EF68010E006E040EE15C02E2E16AA6
:10589000E552E16E0050AEEF30F0B7EC34F0ADEC15
:1058A00031F047D8300808E139EC32F0E76E040EE9
:1058B000E7CFDBFFDB5002E1000E0AD0040EDB2A4B
:1058C0008FEC30F0DECFEEFFDDCFEDFF040EDB50CE
:1058D000006E050EE15C02E2E16AE552E16E005005
:1058E000AEEF30F099EC30F0FD0EDBCFE6FFD4ECFC
:1058F00070F05DEC32F0F8E00E01306B316B2E6B26
:105900002F6BAEEF30F099EC30F02ECEE6FF2FCEBD
:10591000E6FF9CEC70F0E552E552FD0EDBCFE6FFB2
:1059200001EC71F0E5520E012E2B000E2F23AEEF8D
:1059300030F0B7EC34F00E0130CE00F031CE01F093
:10594000302B000E312300C0E6FF01C0E6FFC3ECA0
:1059500070F0E552E5523FEC33F0A6EC72F0E55200
:10596000E552DF50E552AEEF30F093EC33F0DE6AF3
:10597000DE6ADE6ADD6ADD52DD52FB0EDBCFE6FF5A
:10598000FC0EDBCFE6FF67EC31F0B2EC31F002E267
:10599000E16AE552E16E005081EC33F0100B31E129
:1059A00081EC33F0800B1BE0F6EC30F0070E20ECBE
:1059B00034F0EFCF00F0FD0EDB50005C10E1F70E8D
:1059C000DBCFE6FFA3EC33F0FC0EDBCFE6FF49ECC8
:1059D00032F002E2E16AE552E16E00501ED081EC45
:1059E00033F0080B04E181EC33F0010B15E0E66ABB
:1059F000F6EC30F0F2EC33F002E2E16AE552E16EEF
:105A0000005015EC31F020C0DEFF21C0DEFF22C0C7
:105A1000DEFF23C0DDFFAFD7000E006E040EE15C99
:105A200002E2E16AE552E16E005098D382DB260E75
:105A3000E12402E3E168E6522FEC32F070DBCCECBB
:105A400031F0250EDB6A240EDB6AD9500C0F81DBA6
:105A5000D950040FABDBB2EC31F002E2E16AE5525F
:105A6000E16E0050240EDB50E76E99DBE75020EC2E
:105A700034F0100EDBCFEFFF040EDBCF00F0050E8D
:105A8000DBCF01F0060EDBCF02F0070EDBCF03F019
:105A900067EC31F0EE50001812E1EE5001180FE102
:105AA000EE5002180CE1EE50031809E108E1240E53
:105AB000DB2A81DB240EDBCFEFFF010E5FD0250E4A
:105AC000DB50010A49E0010AC0E1D950110F6EDB39
:105AD000EF50080B3CE0D9501A0F68DB080EEECFF0
