:020000040000FA
:06000000F3EFB0F0120066
:06000800B7EFAFF012009B
:0600180060EFAFF01200E2
:06002A000E005D650100FF
:100030002F060000010000005B6501002C06000097
:1000400002000000DA6301000008000081010000E6
:10005000D96301002E06000001000000D7630100F3
:100060002A060000020000002463010000020000D4
:10007000B3000000F86201002E0F00002C00000009
:10008000F9D80000FF04000001000000F662010042
:100090002806000002000000F262010024060000B1
:1000A00004000000EA620100F704000008000000FC
:1000B000E86201005E0F000002000000E46201003F
:1000C0002006000004000000E2620100FE090000BA
:0400D000020000002A
:0C00D400CAEC16F0FD0EDB500601285DA2
:1000E0002CE0FE0E285D11E01C0EE66EE66ACF0ED7
:1000F000E66E040EE66E2851EAEC19F062EC1AF096
:1001000002E2E16AE552E16E0250FD0EDBCF28F615
:10011000DB50FE0812E01C0EE66EE66AFD0EDB50B8
:10012000EAEC19F0CF0EE66E040EE66E62EC1AF001
:1001300002E2E16AE552E16E0250D8EF16F00601E4
:100140002851295D01E11200FE0E295D1CE0250EFB
:10015000E66EE66A010EE66EAA0EE66E040E23EC6B
:100160001AF01B0E71EC17F0EF5023EC1AF0F0ECC4
:1001700018F0250E85EC1BF020EC1DF002E2E16A80
:10018000E552E16E025028C629F6250EE66EE66AB3
:10019000EAC4E6FFCFC400F0D0C401F085EC1BF048
:1001A000010EE66EAA0EE66E040EE66E20EC1DF061
:1001B00002E2E16AE552E16E02501200CAEC16F06A
:1001C0000B0EE12402E3E168E652E16EC20EF36E2B
:1001D000090EF3CFDBFF0F0EF36E0A0EF3CFDBFF3A
:1001E0000401A851A9110FE106EC74F020C0A8F495
:1001F00021C0A9F4FF0E0401A817070EA917000ECD
:10020000A827040EA9233C0EE66EE66AE66AB30E42
:10021000E66E020EE66EF7ECA4F0006E050EE15CF1
:1002200002E2E16AE552E16E0050010EDB6ADF6A2C
:100230003DEC18F001E392D0D0EC19F05BEC17F034
:100240009BEC17F0F62A000EF722F8220800080EA1
:10025000F5CFDBFF5BEC17F09BEC17F0020EF626F8
:10026000000EF722F8220900020EF5CFDBFF0A008C
:10027000030EF5CFDBFF5BEC17F0E4EC1DF0040E92
:10028000F626000EF722F8220900040EF5CFDBFF58
:100290000A00050EF5CFDBFF080EDB502BE1090E3F
:1002A000DBCF22F00A0E82EC19F049EC1DF0250E8E
:1002B0000226000E03221EEC1CF0040EB8EC1EF009
:1002C000050EDB50032089EC17F0D950090F6AECBA
:1002D0001CF0090EDBCF00F00A0E0FEC1AF0D880EC
:1002E000FE0E00541E0E0154000E0254000E035464
:1002F00002E2EFD7FFD7080EDBCFEAF4060EDBCF22
:10030000CFF4070EDBCFD0F4250E0401CF27000E6B
:10031000D023020EDB50CF25D16F030EDB50D0214E
:10032000D26F010ED127000ED223040EDB50D1254F
:10033000D36F050EDB50D221D46F0D0EE56FE6971B
:10034000FEDE5BEC17F01EC003F0E4EC1DF00800CD
:10035000F5CFCEF498EC0FF0DF2A6AD70B0EE15CF4
:1003600002E2E16AE552E16ED8EF16F07FEC1EF092
:10037000DF6A3DEC18F001E38FD0D0EC19F00D0EE0
:100380000401E55D01E086D0DADEF60EDB50040103
:10039000CE5D01E07FD0F90EDB5010E1F70EDBCF30
:1003A000BAF4F80EDBCFBBF4E687040EE56FF70E68
:1003B000DBCFE8F4F80EDBCFE9F46AD0000EA85DDD
:1003C000040EA95906E3880ED880A855130EA95526
:1003D00003E2A86B040EA96FA8C4BAF4A9C4BBF4C5
:1003E000A82B000EA923F70EDBCFB8F4F80EDBCF55
:1003F000B9F4D5EC17F00401E689F90EDB50040AD4
:1004000026E0070A45E1FA0EDBCF04F0FB0EDBCF56
:1004100005F0FC0EDB500424026EFD0EDB500520BF
:1004200023EC19F0FA0EDBCFC0F4FB0EDBCFC1F4E6
:10043000FC0EDBCFC2F4FD0EDBCFC3F4CD6B270E79
:10044000AA6FAB6BAC6BAD6B020EE56F21D0E0EC2D
:1004500017F0020E71EC17F0EECF04F0EFCF05F0BD
:10046000E0EC17F00450EE24026E0550EE2023EC71
:1004700019F073EC1DF002E2E16AE552E16E005002
:100480000401050EE56F010EE66E020E79EC17F021
:10049000DF5003D0DF2A6DD7FE0EE552D8EF16F0FD
:1004A000FDEC1CF00401E7A903D0E799010E01D08F
:1004B000000ED8EF16F0FDEC1CF0070E0401E55D10
:1004C00002E0000E01D0010ED8EF16F0FDEC1CF09A
:1004D00023EC1CF00401E551080A2EE0010A2CE08F
:1004E000050A2AE0020A25E0050A18E00D0A0BE0D9
:1004F000010A09E0070A24E0020A22E0010A20E0DA
:10050000060A1AE11DD079EC1DF006E0B651D519A6
:10051000FAE1B751D619F7E1080E0CD079EC1DF0CD
:1005200006E0B651D519FAE1B751D619F7E10C0E2C
:1005300001D00D0EE56F06D0E66A140E79EC17F0C7
:1005400098EC0FF0D8EF16F0FDEC1CF00401E697E4
:1005500063EC1DF0BBDFE552D8EF16F0FDEC1CF0AC
:10056000EEDD46EC1CF0D6EC19F0EB0EE66E040E58
:10057000E66E68EC1AF002E2E16AE552E16E0050C4
:10058000B8C4F5F4B9C4F6F4EB0E006E040E50ECEA
:100590001DF0D8EF16F0FDEC1CF0D1DD0401B651D2
:1005A000D51902E1B751D61902E0F3EC1CF0D8EFEF
:1005B00016F07FEC1EF02DEC17F0E5C4DFFF070E00
:1005C000DF5C06E00B0EDF5C03E0F36AF46A21D027
:1005D0000401D751D55DD851D65910E3EEEC17F090
:1005E0000206000E035AD751D55D046ED651D85578
:1005F000056E26EC1DF050EC1DF00BD0D551D75DEB
:10060000006ED851D655016E0006000E015ACFEC8F
:100610001AF0E552D8EF16F07FEC1EF0E6524FECE0
:100620001EF0E6EC1CF002E1000E39D053EC1EF097
:1006300004E1ED5002E1A9EC17F00401E751010BD0
:1006400009E1DBEC19F0EEEC17F006EC1AF002E32E
:1006500058EC1EF0010EE66EE66AE66EB5EC1BF095
:1006600062EC18F002E2E16AE552E16E005004012A
:10067000D52B000ED623D151D55DD251D65902E3E8
:10068000D4EC1AF053EC1EF005E1ED5003E1A9ECB7
:1006900017F004D0E6BB02D044EC17F0010EE5528F
:1006A000E552D8EF16F00BEC1DF002E3E168E652DC
:1006B00096EC1EF005E1A9EC17F0F36AF46A3DD060
:1006C00082EC1DF001EC1DF075EC17F003E2F90E61
:1006D00014EC1AF00401E751010B05E1EAEC1DF0FE
:1006E00002E358EC1EF074EC1AF010E335EC1DF048
:1006F000BCEC1EF002E2E16AE5520AEC1BF0D950B4
:10070000FB0FCFEC17F0ED22C1EC1EF05DEC1EF0FC
:10071000BCEC1EF002E2E16AE55215EC1DF001ECC2
:100720001DF075EC17F003E3A9EC17F004D0E6BB5D
:1007300002D044EC17F038EC19F0060EE15C02E24E
:10074000E16AE552E16ED8EF16F00BEC1DF002E322
:10075000E168E65296EC1EF005E1A9EC17F0F36AA9
:10076000F46A44D00401E751010B05E1EAEC1DF005
:1007700002E358EC1EF082EC1DF0ACEC1DF075ECC1
:1007800017F003E2F80E14EC1AF074EC1AF015E30B
:1007900035EC1DF014EC18F02FEC1AF002E2E16ACF
:1007A000E5520AEC1BF0026AD950FA0FCFEC17F0B1
:1007B000EE220250EE22C1EC1EF05DEC1EF014ECB5
:1007C00018F02FEC1AF002E2E16AE55215EC1DF088
:1007D000ACEC1DF075EC17F003E3A9EC17F004D0B6
:1007E000E6BB02D044EC17F038EC19F0060EE15CE1
:1007F00002E2E16AE552E16ED8EF16F0CAEC16F0BB
:10080000FB0EDBCF02F0FC0EDBCF03F062EC1EF040
:100810007AEC1CF0C1ECA5F0E552E552F3CF04F000
:10082000F4CF05F0F3CFE6FFF4CFE6FFFB0EDBCF0E
:10083000E6FFC5EC17F037DF066E050EE15C02E25D
:10084000E16AE552E16E06508AEC1BF0F324006E7B
:100850000350F42050EC1DF0D8EF16F0CAEC16F05F
:1008600014EC18F0CFECA5F0E552E552E55221C0AA
:1008700006F022C007F021C0E6FF22C0E6FF14EC1C
:1008800018F063EC1DF061DF086E060EE15C02E219
:10089000E16AE552E16E0850F3CF03F0F4CF04F0C3
:1008A000056AE7EC1EF0EE50F324006EEE50F420E3
:1008B000016EEE500520026E00C021F001C022F052
:1008C000236ED8EF16F0F0EC1DF00401AFEC17F03A
:1008D0000006000E015A4DEC18F0ABEC19F054EC88
:1008E00018F002E2E16AE552E16ED8EF16F0CAECC8
:1008F00016F0F5EC17F0B1EC1DF0F350F41006E033
:100900002DEC17F023EC1CF0F3EC1CF0D8EF16F0F4
:10091000FDEC1CF004017BEC1BF006E3DB51D95D20
:10092000006EDA51DC5513D0DB51D35D026ED45129
:10093000DC55036E1EEC1CF0D151D95D046EDA510A
:10094000D255056E02500424006E0350052050EC71
:100950001DF0D8EF16F07FEC1EF0E652F5EC17F024
:10096000E6EC1CF002E1000E28D02DEC17F0B6ECFE
:100970001DF00CE0010EE66EE66AA4EC1AF07FECC6
:1009800017F002E2E16AE552E16E00500401DB2B50
:10099000000EDC23DB51D35DDC51D45902E22DEC97
:1009A0001CF053EC1EF004E1ED5002E1E78504D0A9
:1009B000E6BB02D044EC17F0010EE552E552D8EF49
:1009C00016F0CAEC16F028EC1CF0020EDB6A030EDF
:1009D000DB6AF5EC17F0E6EC1CF003E1F36AF46A6D
:1009E00084D02DEC17F0B0EC19F00EEC1BF008E2FF
:1009F00096EC17F0F90EEECFDBFFFA0EEDCFDBFF32
:100A0000F90EDB500401DB250001006EFA0EDB500D
:100A10000401DC210001016E040110EC1DF02CE248
:100A2000DB51E8EC1AF0DC5589EC17F04DEC18F0CE
:100A3000B6EC1DF017E0020EDBCFE6FF030EDBCFB6
:100A4000E6FFA4EC1AF0010E7FEC17F002E2E16A77
:100A5000E552E16E005058EC17F0D950FB0FCFEC87
:100A600017F0ED2258EC17F0D950F90FA0EC1CF05C
:100A7000CAEC17F02DEC1CF0B6EC1DF00CE0ECEC21
:100A80001CF0A4EC1AF0010E7FEC17F002E2E16A10
:100A9000E552E16E0050AFEC1AF022500401DB2762
:100AA0002350DC2358EC17F0D950F90FCFEC17F096
:100AB000ED22DECF02F0DDCF03F0F90E04EC1FF0E3
:100AC000FA0EDB500358016EF90EDBCF04F0FA0E7C
:100AD000ABEC1AF002E3E78504D0E6BB02D044ECAD
:100AE00017F0B0EC19F0CFEC1AF0040EE15C02E262
:100AF000E16AE552E16ED8EF16F0F0EC1DF004016A
:100B0000D151E8EC1AF0D255016E4DEC18F0F5EC2D
:100B100017F054EC18F002E2E16AE552E16ED8EF0A
:100B200016F00BEC1DF002E3E168E652E16ED950DD
:100B3000F90F84EC17F003E1F36AF46A82D067ECF2
:100B40001EF09DEC1AF001EC1DF0DBCF03F085ECFC
:100B50001DF0020EDBCF04F0030EABEC1AF00FE237
:100B600049EC1DF0F70E04EC1FF0F80EDB500358B3
:100B7000016EF90E00C0DBFFFA0E01C0DBFFF70EBD
:100B800032EC1CF0F80EDB50DC2100C0DEFFDD6E25
:100B9000DBEC19F010EC1DF004E281EC1CF0A8EC89
:100BA0001DF0DE50D35D006EDD50D459EBEC1EF02D
:100BB000B0EC19F0040EDBCF02F0050E75EC17F067
:100BC0000DE3ECEC1CF0DEEC18F0010E7FEC17F0FE
:100BD00002E2E16AE552E16E00502FD0D7EC18F046
:100BE000DEEC18F0010E7FEC17F002E2E16AE5524C
:100BF000E16E005001EC1DF098EC1CF07FEC1AF057
:100C0000010EE66E040EDBCF06F0050EDBCF07F01B
:100C1000FB0EDB500624046EFC0EDB500720056E35
:100C200004C0E6FFE66EFFEC15F0086E080EE15C0E
:100C300002E2E16AE552E16E0850B0EC19F0CFEC47
:100C40001AF0060EE15C02E2E16AE552E16ED8EFCD
:100C500016F07FEC1EF07AEC1CF0010EB6EC1AF0E8
:100C600063EC1DF05EDF006E070EE15C02E2E16AFC
:100C7000E552E16E0050DF50E552D8EF16F0CAECB5
:100C800016F0300EE12402E3E168E652E16ED9503D
:100C9000F90F84EC17F003E1F36AF46A27D167ECEB
:100CA0001EF0F70EDB50F35C006EF80EBFEC1DF08B
:100CB00001EC1DF0B7EC19F001E20ED1D950F50F9F
:100CC00084EC17F00FE058EC17F0F50EDBCF02F0D4
:100CD000F60E75EC17F006E2F50EDBCF22F0F60EFD
:100CE00013EC1BF0F70E32EC1CF0F80E80EC18F051
:100CF00002E2C5EC1EF0BFEC1CF0F70EDBCF22F0D9
:100D0000F80E82EC19F0AFEC1AF0BCEC1BF0FB0E05
:100D1000DBCF22F0FC0E1CEC1BF045EC18F001E3DD
:100D2000DB2A0D0EEFCFDBFF0F0EDB6AF40EDB507C
:100D30000AE0610E55EC1DF006E30D0EDB507A085B
:100D400002E3BBEC18F0200EF36E0E0E43EC19F02C
:100D500006E2040EDB50E76E0E0EE7CFDBFF0E0E51
:100D6000F2EC19F006E2020EDB50E76E0E0EE7CF52
:100D7000DBFF0E0E89EC1DF0100FE0EC19F08DEC8E
:100D80001CF002E2E16AE552E16E00500E0EDB500B
:100D9000DE26000EDD220E0E9FEC1EF002E125EC99
:100DA0001BF0F40EDB505CE00C0EDB6AF5EC1DF082
:100DB00001E38AD0D950100F016E000EDA20026EC6
:100DC0000C0E36EC1AF010E3D950100F036E000E23
:100DD000DA20046E0C0E2EEC1BF006E3E00E026E21
:100DE0008BEC19F092EC1BF08BEC19F016EC19F06F
:100DF0000D0EDB50F35C1BE1F90EDB06DBCF00F0E0
:100E0000FA0E01E2DB0680EC1BF042E045EC18F044
:100E100001E3DB2A37EC1BF0610E55EC1DF01DE3FE
:100E20000D0EDB507A0819E3BBEC18F016D04DEC30
:100E300019F013E0CAEC1CF001E3DB2A0D0EEFCF32
:100E4000DBFF610E55EC1DF006E30D0EDB507A085A
:100E500002E3BBEC18F00F0EDB6A0C0EDB2AA6D700
:100E60000C0EDB6AF5EC1DF02FE28BEC19F00F0194
:100E700016EC19F00D0EDB50F35C17E1F90EDB06F2
:100E8000DBCF00F0FA0E01E2DB0680EC1BF006E19E
:100E900058EC19F00C0E67EC1DF028D045EC18F05A
:100EA00001E3DB2A37EC1BF00CD04DEC19F009E024
:100EB000CAEC1CF001E3DB2A0D0EEFCFDBFF0F0EB7
:100EC000DB6A0C0EDB2ACED70E0E6EEC1DF001ECA9
:100ED0001DF0B7EC19F003E2F368F46807D00E0ECA
:100EE00019EC1AF0060F6AEC1CF02DD7300EE15CFD
:100EF00002E2E16AE552E16ED8EF16F0CAEC16F0B4
:100F0000310EE12402E3E168E652E16ED950F80FB8
:100F100084EC17F003E1F36AF46A10D167EC1EF079
:100F2000F60EDB50F35C006EF70EBFEC1DF0ACEC80
:100F30001DF0B7EC19F001E2F7D0D950F40F84ECB2
:100F400017F00FE058EC17F0F40EDBCF02F0F50EBF
:100F500075EC17F006E2F40EDBCF22F0F50E13EC81
:100F60001BF0F60E32EC1CF0F70E80EC18F002E2EB
:100F7000C5EC1EF0BFEC1CF0F60EDBCF22F0F70E36
:100F800082EC19F0BAEC1AF0BCEC1BF0E7EC1EF0A6
:100F90000A0EEECFDBFF0B0EEECFDBFF0C0EEECF1B
:100FA000DBFF33EC17F0100EDB6AF30EDB5009E0C9
:100FB00099EC1DF006E30E0EDB507A0802E3C6EC56
:100FC00018F0200EF36E0F0E43EC19F003E2040E3E
:100FD0006FEC1BF00F0EF2EC19F003E2020E6FEC57
:100FE0001BF00F0E89EC1DF0110FE0EC19F08DECE9
:100FF0001CF002E2E16AE552E16E00500F0EDB5098
:10100000DE26000EDD220F0E9FEC1EF002E125EC25
:101010001BF0F30EDB5053E00D0EDB6A0F0EDB50BE
:1010200055EC1DF001E378D0D950110F016E000E80
:10103000DA20026E0D0E36EC1AF010E3D950110FC3
:10104000036E000EDA20046E0D0E2EEC1BF006E38C
:10105000E00E026E94EC19F092EC1BF094EC19F097
:1010600016EC19F00E0EDB50F35C16E1F80EDB0601
:10107000DBCF00F0F90E01E2DB0680EC1BF039E07B
:10108000C6EC1DF099EC1DF017E30E0EDB507A084C
:1010900013E3C6EC18F010D067EC19F00DE0A5ECE6
:1010A0001CF099EC1DF006E30E0EDB507A0802E30B
:1010B000C6EC18F0100EDB6A0D0EDB2AAFD70D0E52
:1010C000DB6A0F0EDB5055EC1DF026E294EC19F0B4
:1010D0000F0116EC19F00E0EDB50F35C13E1F80E65
:1010E000DB06DBCF00F0F90E01E2DB0680EC1BF043
:1010F00006E158EC19F00D0E67EC1DF01FD0C6ECA0
:101100001DF007D067EC19F004E0A5EC1CF0100E00
:10111000DB6A0D0EDB2AD5D70F0E6EEC1DF0ACECA2
:101120001DF0B7EC19F003E2F368F46807D00F0E76
:1011300019EC1AF0060F6AEC1CF043D7310EE15C93
:1011400002E2E16AE552E16ED8EF16F0CAEC16F061
:10115000F70EDBCFE6FFC1EC1AF0E7EC17F0010E5B
:10116000E66EE66AB5EC1BF063EC1DF088DD006E00
:101170000A0EE15C02E2E16AE552E16E0050D8EF4E
:1011800016F00BEC1DF002E3E168E652E16EDF6A57
:101190003DEC18F001E3A2D1D0EC19F0030EDB6AAC
:1011A000010EDB6A020EDB6A0401E751020B03E168
:1011B000E751040B10E0E5EC87F000090CE0100E9D
:1011C0001EEC19F00401E751040B01E0010EE76E7B
:1011D000010EE7CFDBFF0401E6AB11D081ECAEF0EE
:1011E00004012050E15D006E2150E259016EE834A7
:1011F00002E2DEEC1AF003E3100E1EEC19F0E6AD8D
:1012000009D087EC1AF002E2DEEC1AF003E3100ECC
:101210001EEC19F00B0EE55D0BE187EC1AF002E213
:10122000DEEC1AF005E3110E1EEC19F00C0EE56F62
:10123000040EE55D5FE1D9EC1AF0D1EC18F05AE24A
:10124000EFEC1EF057E093EC1CF0F0EC18F0E851D6
:1012500000184AE1E951011847E19FEC00F046EC23
:101260001CF0B6EC16F040EC1BF0D6EC19F062EC7A
:101270001AF002E2E16AE552E16E02509EEC1DF0C6
:10128000EECFB8F4EDCFB9F4B6EC16F00C0E71EC6D
:1012900017F0EECFB2F4EECFB3F4EECFB4F4EFCF5D
:1012A000B5F40401B22BB323B423B523C251C02536
:1012B000026EC351C121036E0250B825006E035067
:1012C000B921016EFBEC1DF0120E1EEC19F0060E9A
:1012D000E56FE3EC16F002E2E16AE552E16E0650DA
:1012E0000201EB6BEC6B06D0040EDB2A050EA5E3C6
:1012F000DB2AA3D7030EDB5009E0010EDB5002E02E
:10130000000E01D0010EE66E9AEC1BF00401E6B966
:1013100033D0070EE55D01E0DFD089EC18F001E085
:10132000DBD00401E651070B06081AE1E651080B71
:1013300001E0010EE76E030EE7CFDBFFDFCFE6FF34
:1013400066EC02F0E552DFCFE6FF66EC02F0E55214
:10135000030EDB5001E0C0D004010E0EE56FBCD0DF
:101360009FEC00F0020EE66E100E79EC17F0D5EC53
:1013700017F0ECEC1AF0B0D089EC18F001E0ACD02A
:101380009FEC00F00401E5510C0A69E0060A62E0F6
:10139000030A6FE0010A59E00F0A4EE00C0A4CE024
:1013A0000D0A41E0030A3DE0060A11E0010A69E185
:1013B00081ECAEF020C0E1F421C0E2F4D6EC19F0EB
:1013C00048EC9FF0E552E5520401030E28D0C40E0C
:1013D000E66E040EE66ED6EC19F09DEC9FF091ECF3
:1013E0001EF0000915E181ECAEF00401E151205C32
:1013F000006EE2512158016E0050AA5D0150AB59B8
:1014000040E2060ECD5D02E2C3EC1BF0020E07D0F7
:10141000020E1EEC19F0010EDB6A0401050EE56FE9
:1014200030D0020E20D0020ECD5D02E2120E1BD093
:10143000E6B71FD0020E06D0050ECD5D0EE3080EF6
:10144000E56F110EF36E030E1AD0050ECD5D11E29D
:10145000110E09D0050ECD5D0CE2100E04D0050E64
:10146000CD5D07E2110E1EEC19F0DE52010EDD6EAD
:1014700008D0140E1EEC19F0010EF36E020EF3CF1D
:10148000DBFF030EDB5023E0010EDB501CE0C3EC5E
:101490001BF06EEC1AF0016E026A036A01AE02D014
:1014A0000268036872EC18F059EC1DF008E2BAEC1F
:1014B0001DF001AE02D00268036872EC18F037EC40
:1014C0001CF0E66A02D0010EE66E9AEC1BF0020EEA
:1014D000DB5002E098EC0FF0DF2A5AD6D9EC1AF074
:1014E000D1EC18F030E2EFEC1EF02DE0B6EC16F087
:1014F000120E71EC17F01EEC1AF062EC1EF081EC8B
:10150000AEF08AEC1BF0205C006E03502158016E97
:10151000DC0ED8800054010E01540FE2E3EC16F00B
:1015200002E2E16AE552E16E06500201EB6BEC6B00
:10153000040EDB06050E01E2DB06040EDB2A050EB7
:10154000CFE3DB2ACDD7060EE15C02E2E16AE55289
:10155000E16ED8EF16F0CAEC16F0250EE12402E396
:10156000E168E652E16ED1EC16F0F6EC1AF0170ED7
:10157000EECFDBFFE0EC17F0180EEECFDBFF190E1D
:10158000EECFDBFF1A0EEECFDBFF1B0EEECFDBFF45
:101590001C0EDB6A060EF36E1D0EF3CFDBFFBAECFA
:1015A0001AF01E0E22C0DBFF1F0E23C0DBFF1E0E33
:1015B000DBCFE6FF1F0ECAEC1BF01E0EF3CFDBFFE6
:1015C0001F0ED1EC1BF0140F3FEC1DF0200E00C0DD
:1015D000DBFF210E01C0DBFFC1EC1AF0F0EC89F05B
:1015E000E552E552220EF3CFDBFF230EF4CFDBFFF3
:1015F000200EDBCF00F0210EDBCF01F0220EDB50FE
:10160000001849E1230EDB50011845E1000ED8EC2B
:101610001BF0140EB6EC1AF057EC8BF091EC1EF0A8
:1016200006EC1DF05AEC0FF0E552E552D9500C0FC4
:10163000DEEC16F09DEC19F0006E016A140E005EEF
:10164000000E015A240E00C0DBFFDB50026E036A5D
:10165000BAEC1AF00250225C006E03502358016E5F
:10166000140E005E000E015AF80E00C0DBFFF90EEA
:1016700001C0DBFFC5EC17F006EC1DF0CCDA91ECF5
:101680001EF0000908E0C1EC1AF006EC1DF0D7ECE2
:101690000FF091EC1EF0F9EC87F0010E006E250EB4
:1016A000E15C02E2E16AE552E16E0050D8EF16F02B
:1016B000CAEC16F02A0EE12402E3E168E652E16E7C
:1016C0009FEC00F0FD0EDBA004D00401E787FD0EC7
:1016D000DB900401E69BE69DE69FE793E795E791A3
:1016E000E5EC87F00009FCE0FD0EDB50060B05E0A1
:1016F000260EDB6A270EDB6AEFD00401B651D5193E
:1017000010E1B751D6190DE1260EDB6A270EDB6A10
:10171000E7A7E2D0BC51BD1101E1DED0FD0EDB80B8
:10172000DBD0D551B65DD651B7593CE2B651D55D47
:10173000006ED651B755F5EC18F003E36EEC1AF0D5
:1017400004D0EEEC17F042EC1AF0B4EC1CF002E21C
:10175000F9EC19F0C9EC1EF002E24AEC1AF0E7A726
:1017600013D0E2EC18F0280EDB50001803E1290E2C
:10177000DB50011809E02CEC1DF0EE1802E1020E1E
:10178000ED1802E0FD0EDB80260EDBCFE6FF270E14
:101790009CEC18F002E2E16AE552E16E0050CEECFA
:1017A0001DF09AD0B651D15D006ED251B755A2EC62
:1017B0001BF0240EDB50D525026E250EDB50D62102
:1017C000036ECF51025C006ED0510358F5EC18F057
:1017D00003E36EEC1AF004D0EEEC17F042EC1AF0D2
:1017E000B4EC1CF002E2F9EC19F0C9EC1EF002E2D4
:1017F0004AEC1AF0E7A713D0E2EC18F0280EDB5001
:10180000001803E1290EDB50011809E02CEC1DF053
:10181000EE1802E1020EED1802E0FD0EDB80240E50
:10182000DBCF00F0250EDBCF01F0260EDBCF02F080
:10183000270E75EC17F004E2BEEC19F0DFEC1BF09C
:101840006BEC1EF09CEC18F002E2E16AE552E16EEE
:101850000050260EDBCF02F0270EDBCF03F0240E64
:1018600004EC1FF0250EDB500358A2EC1BF0D950FE
:10187000240F75EC1CF027E06BEC1EF0DBCFE6FFCD
:10188000EAC4E6FFCFC4E6FFD0C4E6FFE66A04017F
:10189000B651D15D006ED251B755016E026A036A2E
:1018A000070E00260A0E0122000E0222032270EC0F
:1018B0001EF0FFEC15F0046E080EE15C02E2E16A36
:1018C000E552E16E0450CEEC1DF0D151B65DD2511F
:1018D000B75902E302EC1EF0D950260F75EC1CF04C
:1018E00004E1FD0EDB50030B16E0D950260F75EC1A
:1018F0001CF002E0FD0EDB86FC0EDBA008D004012C
:10190000CD6BF20EAA6F9E0EAB6FAC6BAD6B28EC7D
:1019100019F0E68930D0FC0EDBA21ED0E60EE96E8F
:10192000040EEA6EEF50070BE82AE850070BF36E3F
:10193000F46EF80EEF14F310EF6EF4500401AE07DE
:10194000000EAF5BB05BB15B010EF36E260EF3CF02
:10195000DBFF270EDB6A0FD00401E6A90CD0DBB059
:1019600008D0CD5106E0CD07D890AD33AC33AB33C2
:10197000AA3328EC19F0020EBAC4DBFF030EBBC475
:10198000DBFF040EB8C4DBFF050EB9C4DBFF060E97
:10199000AEC4DBFF070EAFC4DBFF080EB0C4DBFF35
:1019A000090EB1C4DBFF0A0EB2C4DBFF0B0EB3C4D9
:1019B000DBFF0C0EB4C4DBFF0D0EB5C4DBFF0F0E56
:1019C000DB9CDB9E0E0EDB90DB92DB94DB96FD0E48
:1019D0006FEC1BF0140EDB6A150EDB6AE2EC18F0FC
:1019E000AAEC1BF0FD0EDBA215D0DBB808D00A0E66
:1019F000DB6A0B0EDB6A0C0EDB6A0D0EDB6ACCA316
:101A000003D0B1EC1EF006D0AE2B000EAF23B023F6
:101A1000B123CC83FD0EDBA00BD0CCA103D0B1EC65
:101A20001EF006D0AE2B000EAF23B023B123CC8125
:101A30007BEC1BF003E3ABEC18F002D000EC1BF0E6
:101A4000100E00C0DBFF110E01C0DBFF29EC88F097
:101A5000B1EC1DF0400E005EE6EC1BF0DBEC19F083
:101A60000001800E011402E0DE6ADD6AC5EC19F0A7
:101A70000EEC1BF008E296EC17F0100EEECFDBFF39
:101A8000110EEDCFDBFFD950020FE0EC19F012DAA6
:101A9000E552E552F3EC1EF0140EEE26000EED2298
:101AA0000E0EDB88DB9ADB8CDB9EFD0EDBA22DD0DD
:101AB000F3EC1EF0040EEE26000EED22020EF36E85
:101AC000160EF3CFDBFF040EF36E170EF3CFDBFF22
:101AD000020EF36E180EF3CFDBFF140E3CEC1CF07D
:101AE000010E006ED9500E0FDEEC16F009EC1EF060
:101AF00000240F0BF36EF46EF346F346F346F34601
:101B00000F0EEF14F310EF6EF4501A0E81C9DBFFC5
:101B10001B0E82C9DBFF1C0E83C9DBFF1D0E84C9AF
:101B2000DBFF1E0EC0C4DBFF1F0EC1C4DBFF200E97
:101B3000C2C4DBFF210EC3C4DBFF220EDB6A060E2C
:101B4000F36E230EF3CFDBFFBEEC19F0DFEC1BF0DE
:101B50006BEC1EF0CAEC1BF0240EF3CFDBFF250E5E
:101B6000D1EC1BF01A0F3FEC1DF0120E00C0DBFF92
:101B7000130E01C0DBFFDF0EE66E090EE66EB4EC5D
:101B800089F049EC1BF0060EE66ED6EC19F0D2ECAB
:101B9000A6F0006E050EE15C02E2E16AE552E16E3C
:101BA0000050140EE66EE66AD950020FE0EC19F010
:101BB000CCEC19F0FD0EDBA209D0040EE66EE66A4D
:101BC000D950160FE0EC19F0CCEC19F0F30EE66EDC
:101BD000090EE66EBEEC89F049EC1BF0F0EC89F0E2
:101BE000E552E552F7EC1EF0030EE66E0A0EE66EC5
:101BF000B4EC89F0E552E552020EB6EC1AF0CCECEA
:101C000019F094EC89F02A0EE15C02E2E16AE552F7
:101C1000E16ED8EF16F00BEC1DF002E3E168E6523E
:101C2000E16E4AEC1CF0EE50ED1001E1AAD0DE525C
:101C3000FE0EDD6EE0EC17F0020E71EC17F0EECF49
:101C400006F0EFCF07F0E0EC17F00650EE24046E3C
:101C50000750EE20056ED1EC16F00450EE24026E13
:101C60000550EE20036E4AEC1CF00250EE18006E98
:101C70000350EE18016E4DEC18F0DF6A3DEC18F0E1
:101C800047E2D0EC19F00D0E0401E55D3FE0040ED3
:101C9000E55D0CE1AEEC1EF00050E81937E10150B3
:101CA000E91934E1010EDFCFDBFF30D0E8C400F0EA
:101CB000E9C401F0020EDB50001828E1030EDB50EE
:101CC000011824E19FEC00F0AEEC1EF00401BA51C3
:101CD00000181CE1BB51011819E1D1EC16F01EEC03
:101CE0001AF0B851021812E1B95103180FE1E0ECF3
:101CF00017F0EE50C0190AE1EE50C11907E1EE509D
:101D0000C21904E1EE50C31901E12DE0DF2AB6D774
:101D1000010EDB50FE0829E0010EDBCFE6FF6AEC86
:101D200000F0E5529FEC00F0010EDB50FE081DE0D4
:101D3000020EDBCFE8F4030EDBCFE9F473EC1DF009
:101D400002E2E16AE552E16E0050D1EC16F0EECF0E
:101D5000B8F4EDCFB9F44AEC1CF0EECFBAF4EDCF05
:101D6000BBF441EC1CF0010E9BD0D1EC16F00D0E33
:101D700071EC17F0EF50020B04E00201EB51EC1193
:101D800002E0000E8DD0D9EC1AF0D1EC18F036E25A
:101D9000EFEC1EF033E093EC1CF0F0EC18F04AECA2
:101DA0001CF01EEC1AF00250001822E1035001183A
:101DB0001FE19EEC1DF0F0EC18F0D1EC16F01EECDB
:101DC0001AF00250001814E10350011811E1E0EC80
:101DD00017F092EC1DF0EE500001001808E1EE50F3
:101DE000011805E1EE50021802E1EE50031849E037
:101DF000040EDB2A050EC9E3DB2AC7D7DF6A3DECF8
:101E000018F04DE2D0EC19F00401E6A746D09FECA3
:101E100000F0AEEC1EF000500401BA193EE1015092
:101E2000BB193BE146EC1CF0E7EC17F0B6EC16F002
:101E300040EC1BF062EC1AF002E2E16AE552E16E5E
:101E40000250D1EC16F0F0EC18F09EEC1DF000C042
:101E5000EEFF01C0EDFFD1EC16F0040E71EC17F0AF
:101E600092EC1DF00C0E71EC17F000C0EEFFA7EC29
:101E70001EF0AEEC1EF093EC1CF000C0EEFF01C0B3
:101E8000EDFF81ECAEF021C001F0B6EC16F0120EC1
:101E900075EC1EF001C0EDFF03D0DF2AB0D7000EB5
:101EA000006E060EE15C02E2E16AE552E16E00506E
:101EB000D8EF16F0CAEC16F0D1EC16F083EC1EF059
:101EC000D1EC16F0E3EC1AF04AEC1CF083EC1EF0B7
:101ED0004AEC1CF0FCEC1EF0040E56EC1CF0040E58
:101EE00075EC1EF0A7EC1EF0D1EC16F0080E56ECC7
:101EF0001CF0080E75EC1EF0A7EC1EF0F8EC1CF0C0
:101F000083EC1EF0F8EC1CF0FCEC1EF0100E0CEC58
:101F10001FF0100E71EC17F0FCEC1EF0120E0CEC22
:101F20001FF0120E71EC17F0E3EC1AF0D8EF16F078
:101F30009FEC00F0BAC4E8F4BBC4E9F4D4EC1AF0A6
:101F4000CFC4D7F4D0C4D8F4D1C4D9F4D2C4DAF40D
:101F50002DEC1CF00401E651080B02E0040E01D048
:101F60000D0EE56FE691E693E695E699E69BE69D14
:101F7000E69FE791E793E795E797E789CC91CC93C4
:101F8000CC97CC9941EC1CF071ECACF0F3CFAEF4F3
:101F9000F4CFAFF471ECACF0F3CFB0F4F4CFB1F414
:101FA0000401CA69CB69010EBC6FBD6B1200CAEC9B
:101FB00016F01A0EE12402E3E168E652E16ED1EC7C
:101FC00016F00D0E71EC17F00E0EEFCFDBFFD1EC1B
:101FD00016F0080E71EC17F00F0EEECFDBFF100EAF
:101FE000EECFDBFF110EEECFDBFF120EEECFDBFFED
:101FF000D1EC16F0040E71EC17F0130EEECFDBFFF0
:10200000F6EC1AF00401E691E693E695E6B904D001
:10201000D5EC17F0ECEC1AF0E551050A23E0010AC3
:1020200010E0C8EC1AF0170E22C0DBFF180E23C018
:10203000DBFF0E0EDBA04AD0170EDB2A180E46E39C
:1020400044D00E0EDBB414EF15F0DBA805D02CEC59
:1020500018F0E66A040EA1D2DBA214EF15F004EC2E
:1020600019F029D00E0EDBB41BEF15F0DBA810D051
:1020700010EC1EF001E01BD1EE50AF1901E017D1BA
:10208000EE50B01901E013D1EE50B11901E00FD1BB
:102090000E0EDBA21BEF15F004EC19F0CFEC1EF0D6
:1020A0000E0EDBA808D0F3EC1CF00401070EE56F60
:1020B000E6991BEF15F0010EE66E120E79EC17F0A3
:1020C0000401060EE56F1BEF15F0DB2A0E0EDBA2F6
:1020D00005D0170EDB2A180E01E3DB2A7BEC1BF080
:1020E00003E3ABEC18F002D000EC1BF00C0E00C0C8
:1020F000DBFF0D0E01C0DBFFD950130FDEEC16F035
:10210000B251EE5C006EB351EE58016EB451EE5810
:10211000026EB551EE58036E17EC1EF0080E02C0A9
:10212000DBFF090E03C0DBFF060EDBCF22F0070E3C
:102130001CEC1BF0190EDB6AD950170F75EC1CF064
:102140006EE0D9500C0F75EC1CF001E183D0D5EC9A
:102150001EF002E652EC1BF005E389EC1EF0A2EC47
:1021600019F040E3170EDBCF00F0180E0FEC1AF059
:1021700071EC1CF05BEC1BF00334000E031809E655
:10218000D880000E0054000E0154000E0254000EC0
:1021900003542BE20C0EDBCF08F00D0EDBCF09F061
:1021A000170EDB50085C046E180EDB500958056EE4
:1021B000066A076A05AE02D00668076871EC1CF073
:1021C000030EEBCFF3FF0750F318E8AE02D0F33461
:1021D00008D0EE50045CEE500558EE500658EE5014
:1021E000075803E3010E3CEC1CF089EC1EF0030ED3
:1021F000EB500318E8AE02D0033402D0A2EC19F081
:1022000029E2170EDBCF06F0180E92EC1AF0E83434
:1022100021E204500008000E05541CE218D01EEC08
:102220001EF0080EDBCF02F0090EDBCF03F00050EA
:102230000110021003100BE0D5EC1EF002E652EC88
:102240001BF008E389EC1EF0A2EC19F003E2010E8A
:102250003CEC1CF0190EDB5005E10E0EDBB4EBD3A9
:1022600017EF15F00E0EDB50060B01E0DDD30E0E5E
:10227000DBA8E1D3E5510C0A01E1A8D10B0A39E052
:102280000F0A37E0010A35E0020A33E0010A31E0C3
:102290000C0A01E0AED110EC1EF008E1EE50AF19CF
:1022A00005E1EE50B01902E1EE50B11920E0130E35
:1022B000AEC4DBFF140EAFC4DBFF150EB0C4DBFFF2
:1022C000160EB1C4DBFF2CEC18F0010EE66E040E06
:1022D00079EC17F0130EDBCFAEF4140EDBCFAFF4B6
:1022E000150EDBCFB0F4160EDBCFB1F4A4D3070E7E
:1022F000E56FB651D55D006ED651B755016E8FECC6
:1023000017F0040E75EC1BF006E0AFEC17F0D95097
:10231000040F6AEC1CF0040EDBCF00F0050E0FEC8E
:102320001AF0AE0EE96E040EEA6E5BEC1BF066EC82
:1023300018F0D8EC1CF00450EE5C006E0550EE581E
:10234000016E0650EE58026E0750EE58036E000103
:10235000800E031402E0E66A6CD30401D751B65D27
:10236000046EB751D855056E066A076A05AE02D0ED
:10237000066807680450AE5D006E0550AF59016EE7
:102380000650B059026E0750B159036E66EC18F052
:1023900059EC1DF00CE2BAEC1DF096EC17F0005071
:1023A000EE5E0150EE5A0250EE5A0350EE5AD8EC4F
:1023B0001CF0EE50045C006EEE500558016EEE50BD
:1023C0000658026EEE500758036E66EC18F0DECF2A
:1023D00021F0DECF22F0DECF23F0DDCF24F0DD527E
:1023E000DD522434000E241809E6D880000E215452
:1023F000000E2254000E2354000E24545BE2BAEC6B
:102400001DF096EC17F0EE50005CEE500158EE50C7
:102410000258EE5003584EE3CC97CC99E791040E46
:10242000D7C4DBFF050ED8C4DBFF96EC17F0EE50E7
:10243000D727EE50D823B2EC1BF0B65D0150B75948
:1024400009E359EC1DF023E2B651D75D006ED85177
:10245000B75518D0EEEC17F0B6510224006EB75104
:102460000320016E8FEC17F04FEC1CF0D751005C8D
:10247000D85101580CE2040EDB50D75D006E050EFA
:10248000DB50D859016EAAEC1BF037EC1CF0D1518F
:10249000D75DD251D85906E3AFEC17F00050D75FA3
:1024A0000150D85BD151B65DD251B75928E302EC47
:1024B0001EF025D0B651D71902E1B751D8191FE047
:1024C000CCA71CD0CCA919D06EEC1AF0016E026A10
:1024D000036A01AE02D00268036872EC18F059EC8E
:1024E0001DF008E2BAEC1DF001AE02D002680368EC
:1024F00072EC18F037EC1CF0E785CC89CC87D5510D
:10250000D71917E1D651D81914E1E7B702D0E699E7
:1025100010D086EC1CF00DE1AF51EE180AE1B0517D
:10252000EE1807E1B151EE1804E103E1E699E797EF
:10253000CC91BC51BD1106E1F8EC1CF0EE50ED1051
:1025400001E0E783CFEC1EF0080EE55D1CE186ECB0
:102550001CF04FE1AF51EE184CE1B051EE1849E1DB
:10256000B151EE1846E145E1D5EC17F0BA0E040181
:10257000DD271A0EDE23030EDF23000EE023E6899B
:10258000090EE56F36D0090EE55D0AE10E0EDBB0EF
:1025900030D02CEC18F0E66A140E79EC17F044D227
:1025A0000A0EE55D26E186EC1CF001E044D2AF5155
:1025B000EE1801E040D2B051EE1801E03CD2B1512A
:1025C000EE1801E038D201E036D22ED286EC1CF0B3
:1025D00001E031D2AF51EE1801E02DD2B051EE182A
:1025E00001E029D2B151EE1801E025D201E023D259
:1025F0001BD20E0EDBBA1FD20B0EE55D01E11BD222
:102600000A0EE55D01E117D20C0EE55D01E113D282
:10261000D950FA0F84EC17F001E188D1E9EC18F0F9
:10262000013402E2DEEC1AF001E2ACD0D6EC1DF08F
:10263000026E036A0A0EDB50F35C006E0B0EDB5079
:1026400003585EEC1DF055ECA7F0E552E552E9ECBD
:1026500018F0D950FA0FCFEC17F0ED22EDEC1BF08B
:102660000C0EDBCF02F00D0E75EC17F00CE20C0E29
:10267000DBCF22F00D0EDBCF23F0FA0E22C0DBFF02
:10268000FB0E23C0DBFFEDEC1BF000500401F4EC6B
:102690001BF0FA0EDB50D925006EFB0EDB50DA2161
:1026A000016E10EC1DF021E2D951E8EC1AF0DA5578
:1026B000EBEC1EF0D7EC18F072EC19F002E2E16AD4
:1026C000E552E16E0050B6EC17F002E2E16AE55225
:1026D000E16E0450DBEC1EF0016E0401D1510024C8
:1026E000D96FD2510120DA6F10D0E7EC17F072ECFD
:1026F00019F002E2E16AE552E16E0050C8EC1AF00E
:1027000022500401D9272350DA23CA1D01E1CB1D31
:1027100001E10CD1C8EC1AF02250CA5F2350CB5B08
:10272000BE51CA25006EBF51CB21016E8FEC17F050
:10273000040EDBCF00F075EC1BF021E1CB3504E299
:10274000CA510008000ECB5501E2F0D0B2EC1BF0EC
:10275000F4EC1BF0040EDBCF22F0050EDBCF23F0F0
:102760002250D9272350DA23D951D35DDA51D459D5
:1027700006E281EC1CF00050D95F0150DA5BCA69B7
:10278000CB69D4D0E9EC18F0013401E3CFD0DEEC12
:102790001AF001E3CBD00A0EDBCF02F00B0EDBCF39
:1027A00003F064EC1BF00C0EDBCF04F00D0EABEC71
:1027B0001AF00EE20C0EDBCF02F00D0EDBCF03F0B1
:1027C00068EC1BF0FA0E00C0DBFFFB0E01C0DBFF64
:1027D000D6EC1DF0D8EC1BF00A0EDB500401FBEC2C
:1027E0001BF064EC1BF010EC1DF03EE2D951D35D00
:1027F000026ED451DA55036E1EEC1CF068EC1BF02F
:102800008EDB040E75EC1BF010E1D7EC18F01EEC1B
:1028100018F002E2E16AE552E16E0250A7DB02E243
:10282000E16AE552E16E045026D0D1DB2FEC1DF0B9
:102830000A0EDB50FBEC1BF0D151D35D046ED4517A
:10284000D255056E010E0426000E052226EC1DF061
:102850005EEC1DF0D4D9066E080EE15C02E2E16A7E
:10286000E552E16E065007D0B2DBE8DB02E2E16A36
:10287000E552E16E02500401CA1D07E1CB1D05E1DE
:1028800009EC1CF002EC1CF051D0E9EC18F0CA5134
:10289000005CCB51015825E2B2DB13E3FA0EDBCF2B
:1028A00008F0FB0EDBCF09F00A0EDB500824066EA1
:1028B0000B0EDB500920076ECA51065CCB5107583E
:1028C00003E202EC1CF00AD010EC1CF00A0EDB5004
:1028D000005CBE6F0B0EDB500158BF6F09EC1CF0A3
:1028E00025D08DDB23E2E9EC18F0CA51BE25026E3B
:1028F000CB51BF21036E0050025C0150035816E318
:10290000FA0EDBCF06F0FB0E92EC1AF0CA51045C13
:10291000026ECB510558036EBE51025C006EBF5172
:102920000358016E0050BE270150BF23D950170F26
:1029300075EC1CF017E0070EE55D02E023EC1CF0DF
:10294000E6AF05D0F3EC1CF09FEC00F00BD0E68F67
:10295000E6BD08D0E68D17EC1CF00F0E0401E3274E
:10296000000EE4230E0EDBA066D0B2C400F0B3C4A8
:1029700001F0B4C402F0B5C403F0002A000E012235
:1029800002220322170EDBCF04F0180EDBCF05F076
:10299000066A076AD950130F11DAEE500426EE507A
:1029A0000522EE500622EE5007220050041843E1A3
:1029B0000150051840E1025006183DE10350071888
:1029C0003AE139E10401B22B000EB323B423B5235D
:1029D000E551090A26E0010A14E00F0A08E0010A9D
:1029E00026E10C0EE56F010EE66E110E23D00B0EE4
:1029F000E56F17EC1CF01F0E0401E327000EE42323
:102A000016D086EC1CF00AE1AF51EE1807E1B05188
:102A1000EE1804E1B151EE1801E103E00A0EE56F92
:102A200006D0E66A100E65DA98EC0FF004D0010EBD
:102A3000E66E100E5EDA1A0EE15C02E2E16AE55221
:102A4000E16EB6D10BEC1DF002E3E168E652E16EF7
:102A500004DAB6EC1DF007E1010EF36EFB0EF3CFC6
:102A6000DBFFFC0EDB6A0401CF51E8EC1AF0D05515
:102A7000016E0006E6EC1BF079EC19F0DECF04F0F5
:102A8000DDCF05F07AEC1EF06BE39FEC00F0F80E62
:102A9000DB50030B03E1F80EDB80DB82AFEC1AF0B6
:102AA000040E22C0DBFF050E23C0DBFF79EC19F01A
:102AB000A8EC1DF0F80EDBA20ED0DBA006D0DBECFC
:102AC00019F0D8900132003202D0DBEC19F0D95065
:102AD000040F6AEC1CF0040EDB500401CF25006EDD
:102AE000050EDB50D02115DA00C0DEFF01C0DDFF8E
:102AF000020ED9C4DBFF030EDAC4DBFFCA1D01E1FD
:102B0000CB1D10E010EC1CF0D950020F6AEC1CF049
:102B1000CFD910EC1DF006E281EC1CF0D950020F69
:102B200008EC1FF0C5D90050DB5D0150DC590BE209
:102B3000DBEC19F00050DB5D0150DC591BE2F80EB4
:102B4000DBB40ED00FD025EC1EF00CE2DBEC19F05C
:102B50000050D15D0150D2590DE2F80EDBA402D035
:102B6000000E44D0DECFDBF4DDCFDCF4DECFD9F4D1
:102B7000DDCFDAF425EC1EF027E2F80EDB50040B73
:102B800023E0020EDBCF22F0030EDBCF23F0D15186
:102B9000225C006ED25123587FEC1AF00FDB20EC40
:102BA0001DF002E2E16AE552E16E025004017BECA5
:102BB0001BF00AE2DE50D15D006EDD50D259016E8D
:102BC0000050D95F0150DA5BDECFD1F4DDCFD2F413
:102BD00041EC1CF0CFC4D7F4D0C4D8F4D4EC1AF034
:102BE000070EE55D02E1F3EC1CF0010E006E060E2F
:102BF000E15C02E2E16AE552E16E0050D9D0CAD848
:102C0000F80EDB501BE0010A40E1FB0EDB500CE04C
:102C1000010A3BE12EDAB9D968EC1AF002E2E16A66
:102C2000E552E16E005031D0D950FC0FF3DB02E1E8
:102C30002CEC1EF01EDA97EC8BF014D0FB0EDB5060
:102C400014E0010A22E1D950F90FE4DB06E1ECECD3
:102C50001CF0BEEC89F0E552E55233EC1EF095D93C
:102C600057EC8BF091EC1EF010D003DA8ED9A8EC63
:102C70008AF0006E060EE15C02E2E16AE552E16E66
:102C800000504FEC8BF00009FCE092D083D8120E7C
:102C9000E12402E3E168E652E16EFB0EDB5014E052
:102CA000010A5DE1F60EDBCFE6FFF70E56EC1AF0F7
:102CB0006CD9D4ECA4F0006E070EE15C02E2E16A8C
:102CC000E552E16E00504BD0D950FC0FA3DB02E17E
:102CD0002CEC1EF0100EF36EDB6E110EDB6AD95079
:102CE000F60F12D93CE051DBF60EDBCF02F0F70E07
:102CF000FCD80CE2F60EDBCF22F0F70EDBCF23F090
:102D0000100E22C0DBFF110E23C0DBFF100EDBCF45
:102D1000E6FF110ECBDB06EC1DF0D4ECA4F0006E48
:102D2000070EE15C02E2E16AE552E16E0050100E2E
:102D3000DBCFE6FF110EDBCFE6FF06EC1DF02CDB50
:102D400024DB026AD950F80F2AD9EE220250EE2273
:102D50001CDBD950F60FA0EC1CF01CD9C0D7120E0A
:102D6000E15C02E2E16AE552E16E22D0040EDBCFC3
:102D7000E9FF050EDBCFEAFF140EEA02F3CFEAFF0C
:102D8000E902F3CFE9FFF450EA26B30EE926020E7A
:102D9000EA22120006EC1DF0E1CFD9FFE2CFDAFF04
:102DA0001200FC0EDBCFE9FFFD0EDBCFEAFF1200C5
:102DB000E552E5CFDAFFE7CFD9FF1200E96E000E4A
:102DC000DA20EA6E12004FEC1CF0020ED88000569A
:102DD000000E0156140E0102F3CF01F00002F3CFF2
:102DE00000F0F4500126F3CFE6FF01C0E6FF010E2C
:102DF000E66EE76E3AEC1EF0E7500226000E032264
:102E0000140E0302F3CF03F00202F3CF02F0F450EA
:102E10000326B30E0226020E032262EC1EF0010E00
:102E2000E66E040EDBCF04F0050EDBCF05F0140ECA
:102E30000502F3CF05F00402F3CF04F0F4500526A9
:102E4000B30E0426020E052204C0E6FF05C0E6FF0D
:102E5000D6DE066E080EE15C120063EC1DF06AEC33
:102E600000F0E5521200E7EC1EF0EFCFF6FFEE2A7D
:102E7000EFCFF7FF000EEE22EFCFF8FFEE220800B3
:102E80000E0EF5CFDBFF1200E68B81ECAEF020C01A
:102E900000F021C001F0026A036A060E0026000E4F
:102EA00001220222032200C0E1F401C0E2F4120078
:102EB000020EE1EF1EF0A00E006E610E016E010E1B
:102EC000026EDFCF03F0046A056A060E266E276ADB
:102ED000286A03C021F004C022F005C023F03EEFB1
:102EE0009DF0E926000EEA221200DBCF03F0A3EFEB
:102EF0001DF0E66E58EC0BF0E552E5521200E66E5E
:102F00007AEC1CF08DEF1CF0A0EC1CF0EE50ED10F4
:102F10001200016E010E0026000E01221200040EA6
:102F200000C0DBFF050E01C0DBFF1200D9CFE9FFB7
:102F3000DACFEAFF120000501E24F36E01501F206A
:102F4000F46E02502020F86EF4CFF7FFF3CFF6FFB7
:102F5000120063EC1DF0CBEC02F0E5521200CF51F1
:102F6000D15D006ED251D055016E1200DBEC1EF027
:102F70005EEC1DF02FEC1DF0D1C4E6FFD2C4E6FFDD
:102F80003EDE046E080EE15C1200FC0EDBCFE6FFB5
:102F900063EF1DF00050EE5E0150ED5A1200A0EC00
:102FA0001CF00050EE260150120077ECAEF020C06D
:102FB000DDF421C0DEF422C0DFF423C0E0F412000F
:102FC000FA0EDBCFE9FFFB0EDBCFEAFF1200FA0EB1
:102FD000DBCFE6FFFB0EDBCFE6FF1200CF51D15D6A
:102FE000026ED251D055036E120063EC1DF088ECD6
:102FF00004F0E5521200E552E552B1EF1DF0FA0E71
:10300000DBCF02F0FB0EDBCF03F00A0EB8EC1EF0B4
:103010000B0EDB500320016ECA51BE25046ECB514E
:10302000BF21056E7AEF1EF0FA0EDBCFE6FFFB0E36
:10303000DBCFE6FFFC0EDBCFE6FF12002FEC1DF02E
:103040000A0EDB50D925006E0B0EDB50DA21000191
:103050005EEC1DF020EF1DF00F0EDBCFAEF4100E76
:10306000DBCFAFF4110EDBCFB0F4120EDBCFB1F437
:10307000120033EC1EF0ECEF1CF0DF50006E016A22
:10308000060E005C000E01581200FB0EDBCFE9FFBC
:10309000DB2AFC0EDBCFEAFF1200020E00C0DBFFD2
:1030A000030E01C0DBFF1200F7EC1EF049EC1DF02F
:1030B000DE50025C006EDD50035850EC1DF0040E33
:1030C000E15C120041EC1EF08DEF1CF000C0DFFF50
:1030D000010E01C0DBFF020E02C0DBFF030E03C0C6
:1030E000DBFF12000050AE5F0150AF5B0250B05BDF
:1030F0000350B15B1200DBCFF4FFF350F45C12001D
:10310000DB50DC21016E17EC1EF01EEC1EF010EF00
:103110001DF077ECAEF00401DD51205C006EDE5155
:103120002158016EDF512258026EE0512358036E80
:103130000001800E03141200DBCFE6FFEAC4E6FFB5
:10314000B6C4E6FFB7C4E6FFE66A070EE66E0A0EEF
:10315000E66E8DEF1CF0D151D35D026ED451D25585
:10316000036EDB51D95D046EDA51DC55056E26EC39
:103170001DF0016E1200E00E006E0D0EDBCFE7FFBA
:103180000050E7260D0EE7CFDBFF1200E00E006EC9
:103190000E0EDBCFE7FF0050E7260E0EE7CFDBFF7A
:1031A00012007DDB030E005C000E01581200040EBD
:1031B000DBCFE6FF050EDBCFE6FF1200EAC4E6FF39
:1031C0005DEF1EF0260EDBCF00F0270EDBCF01F007
:1031D00012000A0EDBCF00F00B0EDBCF01F0120065
:1031E000EECF00F0EFCF01F01200016E260E00C00E
:1031F000DBFF270E01C0DBFF280EBCC4DBFF290E5E
:10320000BDC4DBFF59EF1DF0130EDBCFB2F4140E7B
:10321000DBCFB3F4150EDBCFB4F4160EDBCFB5F471
:10322000B22B000EB323B423B52312000024E96EA1
:10323000000E0120EA6EEF50F36E1200F36E030EE3
:10324000F3CFDBFF1200036E85EC1DF0FBEF1DF0EA
:1032500077ECAEF020500401AA25DD6F2150AB21A0
:10326000DE6F2250AC21DF6F2350AD21E06F1200E2
:103270003AEC1EF0DE500224006EDD50032000C048
:10328000F3FFF46E1200F3CFDBFFDBCF00F0040E90
:10329000DBCF01F0050EDDEF1DF048EC1EF0F90E5E
:1032A00022C0DBFFFA0E23C0DBFF0F0EDB50120043
:1032B000060EDBCF04F0070EDBCF05F0080EDB5067
:1032C000045C026E090EDB500558036E120048ECD8
:1032D0001EF0F80E22C0DBFFF90E23C0DBFF100E3C
:1032E000DB501200BCDBD9C4E6FFDAC4E6FF8DEF89
:1032F0001CF087DBDBCF03F0FB0EB8EC1EF0FC0EFE
:1033000000EF1FF0DBCF23F0060E22C0DBFF070E1D
:1033100023C0DBFF1200D950100F006E000EDA2020
:10332000016E0C0EDB501200D950110F006E000E12
:10333000DA20016E0D0EDB50120009EC1EF0040DB8
:10334000F35012000050EE5C0150EE580250EE585F
:103350000350EE581200B7DBD9EC02F0E552120030
:10336000F90EDBCF00F0FA0EDBCF01F01200DBCF5D
:1033700003F00250005C035001581200260EDBCF10
:1033800022F0270EDBCF23F01200100EDBCF00F06F
:10339000110EDBCF01F0120097EC8BF091EF1EF0D5
:1033A000DFCFE6FF6AEC00F0E5521200C00EE66ED9
:1033B000040EE66E1200DECF00F0DDCF01F0120049
:1033C000E66E000EDA20E66E1200EECFE6FFEFCFDB
:1033D000E6FF12001C0DC5DB000E0026040E0122C4
:1033E00070EF1EF0DBCF00F0020EDBCF01F0030E1A
:1033F000E4D3280EDBCF22F0290EDBCF23F0260EFC
:1034000022C0DBFF270E23C0DBFF1200D89003325F
:10341000023299D395DAEE52EF50800B1200DBCFD7
:1034200001F0026A036A1200DBCFDEFFDBCFDDFFB3
:103430001200DB50006E016AD9501200EECF02F08C
:10344000EFCF03F01200E66E29511C0DF3CFE9FF18
:10345000F4CFEAFF000EE926040EEA22120041EC46
:103460001EF014DC006E080EE15C1200DB500F0150
:103470000124E96E000E0220EA6EEFCF00F0610E2B
:10348000005C1200B651D75D046ED851B755056E79
:1034900026EF1DF0180EF36E260EF3CFDBFF020EA3
:1034A000F36E270EF3CFDBFFE7851200DBCFE6FFDD
:1034B000F80EDBCFE6FFF90EDBCFE6FFFA0EDBCF2F
:1034C000E6FF1200A9ECA4F0026E060EE15C120009
:1034D000A9ECA4F0006E060EE15C1200D751B65DB7
:1034E000006EB751D8551200DE50D525006EDD5064
:1034F000D621016ED151005CD25101581200DEDAA2
:10350000EAC4E6FFD1C4E6FFD2C4E6FF120081ECB4
:10351000AEF004012050E35D006E2150E459016ECD
:10352000E8341200DBCF07F00A0EDB500624046EED
:103530000B0EDB500720056E1200020EF3CFDBFFEF
:10354000030EF4CFDBFF1200EAC4E6FFDBC4E6FFA4
:10355000DCC4E6FF1200DBCF05F07AEF1EF0F90EB7
:10356000DBCF22F0FA0EDBCF23F01200E66EE66A24
:1035700006EF1DF0F80EDBCF22F0F90EDBCF23F0C3
:103580001200F80EDBCFE6FFF90EDBCFE6FF1200EC
:10359000FA0EDBCF22F0FB0EDBCF23F0120000C0CF
:1035A000F3FF01C0F4FF1200CFC4D5F4D0C4D6F4A9
:1035B0001200040EDB6A050EDB6A120000500008E0
:1035C000000E01541200F3CFEEFF01C0EDFF120018
:1035D000D35D006ED4511200740E0401DD27350E48
:1035E000DE23060EDF23000EE0231200140EEECFC2
:1035F000DBFF150EEECFDBFF160EEECFDBFF12006A
:10360000D951DB5D006EDC51DA55016E0006000E0B
:10361000015A1200E16E00504FEF1CF0DECF02F0B5
:10362000DDCF03F090D2DBCF23F0020E22C0DBFF10
:10363000030E23C0DBFF1200DBCF23F00A0E22C0F3
:10364000DBFF0B0E23C0DBFF1200D1C4DEFFD2C4B0
:10365000DDFF040EDB68050EDB681200DB5003247F
:10366000E96E000E0420EA6EEF507A0812000D0E8B
:10367000EFCFDBFF010EF36E0F0EF3CFDBFF120077
:10368000E9CF00F0EACF01F0E9CFE6FFEACFE6FFAD
:103690001200E552E552260EDBCFE6FF270EDBCF08
:1036A000E6FF1200000EEE5C000EEE58000EEE5823
:1036B000000EEE581200EE500026EE500122EE50A1
:1036C0000222EE5003221200FA0E52DBFB0E98D3B8
:1036D0000A0E9ADB0B0EDB500358016E1200DB5012
:1036E000E76E0F0EE7CFDBFF1200050EDBCF01F018
:1036F000800E01141200DB51D95DDC51DA59120041
:10370000DBCF01F0005001101200005E000E015AE4
:1037100070EF1EF0E552E7CF03F0E552E7CF02F07D
:10372000025012000024E96E000E0120EA6E0250E1
:10373000EF261200030EDBCFE6FF58EC0BF0E5524C
:10374000E5521200016E240E00C0DBFF250E01C001
:10375000DBFF12000050AE270150AF23000EB02354
:10376000B12312009CD800501200D950FC0FE66E15
:10377000FF0EDA20E66E1200080E22C0DBFF090EF3
:1037800023C0DBFF1200CD2BD890AA37AB37AC3764
:10379000AD371200DBCFE6FF46EC78F0E552E5529C
:1037A0001200F4CFDBFF0C0EE66EE66AD950120071
:1037B000E66EE66A55ECA7F0E552E5521200240EDB
:1037C00022C0DBFF250E23C0DBFF1200000E015AD2
:1037D00000C0DEFF01C0DDFF1200FA0EDBCF00F0FB
:1037E000FB0EDBCF01F01200B2270150B323000E15
:1037F000B423B5231200D925026E0B0EDB50DA215B
:10380000036E1200FA0EDBCFBEF4FB0EDBCFBFF46B
:1038100012000A0EDBCFCAF40B0EDBCFCBF4120082
:10382000CA51BE25006ECB51BF21016E120081EC42
:10383000AEF020C0E3F421C0E4F41200010E022631
:10384000000E03221200D9C4DBF4DAC4DCF4120047
:10385000E652E652E652E6521200D1C4DBF4D2C47C
:10386000DCF41200DB500401DB25006E1200D7C42B
:10387000B6F4D8C4B7F41200F36E190EF3CFDBFF21
:103880001200CFC4B6F4D0C4B7F412000A0EE66E2C
:10389000E66A1200D1EC16F0020E71EF17F0040E7A
:1038A000DBCF00F0050EDBCF01F0120071EC17F05A
:1038B000EECFE6FFEECFE6FF88DD65EC78F031DA9B
:1038C00020C000F021C001F022C002F023C003F0AC
:1038D000D1EF16F0DEEC16F00050EE260150ED228E
:1038E0001200D950060FDEEF16F0DEEC16F0EE50A7
:1038F000ED101200FB0EDBCFE6FFFC0EDBCFE6FF88
:103900001200D15165DED25589EF17F0D9500F0F53
:10391000DEEC16F0AE51EE181200FFEC15F0006E62
:10392000080EE15C1200B6EC16F0100E71EF17F005
:10393000DBCF03F0040E68DA050EDB5003581200EB
:10394000E96EFF0EDA20EA6E1200D9500A0FDEECA3
:1039500016F0FA0EEECFDBFFFB0EEECFDBFFFC0E18
:10396000EECFDBFF33EF17F0016ED950280F50DA9E
:1039700029DC280EDBCF02F0290E75EF17F0060EBA
:1039800053DDDB50D35D006E070EDB50D4590001D0
:10399000EBEF1EF00A0EDBCF22F00B0EDBCF23F095
:1039A000FB0E22C0DBFFFC0E23C0DBFF45EF18F04F
:1039B0000F0EDBCF04F0100EDBCF05F0110EDBCFC6
:1039C00006F0120EDBCF07F096EF17F010DA96EC48
:1039D00017F0EE50ED101200F90EDBCFE6FFFA0EF5
:1039E000DBCFE6FF1200010EE66E100E79EF17F046
:1039F000D1EC16F00E0E71EF17F0CAEC16F02DEFA9
:103A000017F0F90EDBCF02F0FA0E1200D9CFE6FF65
:103A1000DACFE6FF1200CAEC16F0060EE12412001F
:103A20000050D35D0150D4591200E16E005096EC65
:103A300017F0EE500401D527EE50D62358EF17F0BB
:103A4000FFEC15F0026E080EE15C12000450025CFF
:103A5000006E055003581200C6D9180E1200E66A0F
:103A6000E668E668EAC4E6FF1200D551D15D006E53
:103A7000D251D655016E8FEC17F0D7EF18F0A0DCBD
:103A80008CEC78F0E552E552FBEC17F0001E011EBD
:103A90001200020EDBCF02F0030EDBCF03F01200A8
:103AA000016E00C0F3FFF46E1200F36E0D0E7BEF9B
:103AB00018F0D751B65DD851B7591200016E00C049
:103AC000E6FFE66E1200FD0EDBCFE6FF120050D9D6
:103AD000000E032089EC17F0CFEF1AF0AADC020FDA
:103AE00097D958EF17F0D2DEE7EC17F05FDC68EFFC
:103AF0001AF0010EE66E110E79EC17F00401BC51BC
:103B0000BD111200020E90DC5CD1F70E31D9F80E17
:103B100077D1DBCFE6FFE66ADEEC18F0010EE66E49
:103B2000D9501200EECF00F0EECF01F087DCB6EFF7
:103B300016F0610EF36E0E0E7BEF18F0B6EC16F079
:103B40000A0E71EF17F00050025C0150035812008A
:103B500096EC17F0CAEF17F0F80EDBCF02F0F90E73
:103B60001200F3CF00F0F4CF01F01200D950FB0F98
:103B700084EF17F0AFEC17F0026A036A1200DB5013
:103B8000F458016E4DEC18F058EF17F033EC17F0C5
:103B9000010EF36E100EF3CFDBFF1200BEEC19F036
:103BA00022500401B6272350B7231200D1EC16F09F
:103BB0000C0E71EC17F09DEF19F0DBCF02F0005006
:103BC000015C000E025812001FC004F020C005F076
:103BD0009BEF17F058EC17F0EEEC17F006EF1AF029
:103BE000CAEC16F035DE2DEF17F00E0EDB50F36E3B
:103BF0000C0E7BEF18F00050BA19E86F0150BB199A
:103C0000E96F1200AFEC17F00050B65F0150B75BE0
:103C10001200EF50F00BE842E842E842E84212009E
:103C2000D9500F0FDEEC16F0EE50AE191200060E52
:103C300000C0DBFF070E01C0DBFF1200060EDBCF6A
:103C400000F0070EDBCF01F0120058EC17F0DB514B
:103C5000005CDC5101581200C5EC17F0B4EC89F09F
:103C6000E552E5521200F60EDBCFE6FFF70EDBCF92
:103C7000E6FF1200040EDBCF02F0050EDBCF03F0EF
:103C80001200EAC4E6FFD5C4E6FFD6C4E6FF120080
:103C9000080EDBCF22F0090EDBCF23F012002DEC53
:103CA00017F0ABEF19F096EC17F0010EEE181200BA
:103CB000A9EC17F00401E7811200DECFE6FFDDCFAB
:103CC000E6FF120002C0E6FF03C0E6FF12002DEC83
:103CD00017F0F5EF17F0240EDBCFE6FF250E1200EC
:103CE00000C0E6FF01C0E6FF120071EC17F020C033
:103CF000EEFF12000050045C015005581200CAEC9F
:103D000016F0E6521200E5EC19F046EC78F0FBEF05
:103D100017F00C0EDBCF00F00D0E0FEC1AF071EF68
:103D20001CF0E552E552E552E5521200E16E41DC2D
:103D3000B6DF9DEC1AF0D950020F75EF1CF019ECAC
:103D40001AF0040F65D8D950040F75EF1CF001C0AC
:103D5000EEFF02C0EEFF03C0EEFF12009BDDF0EFAE
:103D600018F0BFDDEE06000EEE5AEE5AEE5A1200C3
:103D7000DB500224006E1200010EE66EBBDD62EF26
:103D800018F08DDDE5DED4EF1AF0BBDDAADDCAEF59
:103D900017F062DED880EE54020EED54120028DED9
:103DA000EECFBCF4EDCFBDF412009BDDD890030E36
:103DB000EB50000A1200FA0EDBCF02F0FB0E98EF78
:103DC0001CF0DBCF00F0030EDBCF01F01200D95066
:103DD000FA0FA0EF1CF089EC17F08FEF17F0A3DDBE
:103DE000EE50ED101200D950260FDEEF16F0F3CF93
:103DF000DEFFF4CFDDFF1200E3EC1AF0D1EF16F096
:103E0000DB500320016E1200DB50025C006E1200DA
:103E1000DEEC16F0CAEF17F071EC17F074DFD1EF9B
:023E200016F09A
:0E3E22009EEC36F0E6520F0130CF00F031CFAB
:103E300001F0302B000E312300C0E6FF01C0E6FF89
:103E400060EC7CF0E552E55234EC3AF041EC7EF067
:103E5000E552E552DF50E552A6EF36F05DEC3AF060
:103E600038EC39F0DEDFDF6E010EDFCFDBFFDFAED7
:103E70001CD0000EDF9EDF50020802E2000E23D0AD
:103E8000DF28E76E030EE7CFDBFFDF50DF06000918
:103E900010E0C7DFE66ED950010F39EC3AF0DF5081
:103EA00003EC38F02CEC39F0F0D7F36E030EF3CFBF
:103EB000DBFF92EC36F0010EDBCFEEFF020EDBCF24
:103EC000EDFF030EDB50006E040EE15C02E2E16ADE
:103ED000E552E16E0050A6EF36F09EEC36F0E65269
:103EE0008CEC39F0040EDF5C0DE130EC39F0010EA2
:103EF000E7CFDBFFB0EC36F0010EDBCFEFFFDB509E
:103F0000080802E2000E11D0010EF6EC36F009E0CE
:103F100088DFDF6E16EC39F001E3DB2ADFCFEFFF3D
:103F2000F3D792EC36F0EF6A010EE552E552A6EFB8
:103F300036F09EEC36F0080EE12402E3E168E6522A
:103F4000BFEC3AF06EDF020814E1D950040FD6EC52
:103F500038F000090EE0D950040FD5EC36F0D880C7
:103F6000040EEE54000EEE54000EEE54000EEE540D
:103F700002E2000E1ED0DE6ADE6ADE6ADD6ADD5213
:103F8000DD52040EF6EC36F00FE04BDFE66ED9CFD3
:103F900000F0DACF01F0040EDB500F01D924D5EC8C
:103FA00036F02CEC39F0EDD792EC36F056EC38F0D8
:103FB000010ECAEC38F002E2E16AE552E16E00500F
:103FC000A6EF36F09EEC36F0E652E6528CEC39F075
:103FD000A00EDF5C0BE0A10EDF5C08E0A30EDF5C4F
:103FE00005E0A50EDF5C02E0000E08D092EC36F092
:103FF000DFCFEFFFD950010FD6EC38F0E5EC3BF006
:10400000A6EF36F09EEC36F08CEC39F0050EDF5C56
:1040100003E107DF000902E0000E01D0010EE552C6
:10402000A6EF36F05DEC3AF0FCDE06080CE1E9ECB8
:1040300037F0000908E07CEC37F0120ED880EE541F
:10404000000EED5402E2000E15D0B0EC36F0DFCFDA
:10405000EFFFDF50DF06000909E0E3DEE66E16EC55
:1040600039F001E3DB2A2CEC39F0F3D792EC36F08F
:10407000EF68010E006E040EE15C02E2E16AE552B7
:10408000E16E0050A6EF36F05DEC3AF0E652C9DE84
:10409000300808E1E9EC37F0E76E040EE7CFDBFF0C
:1040A000DB5002E1000E0AD0040EDB2A92EC36F05F
:1040B000DECFEEFFDDCFEDFF040EDB504BEC3BF02F
:1040C00002E2E16AE552E16E0050A6EF36F09EECA6
:1040D00036F0FD0EDBCFE6FF71EC7CF01CEC39F026
:1040E000F8E00F01306B316B2E6B2F6BA6EF36F0C3
:1040F0009EEC36F02ECFE6FF2FCFE6FF39EC7CF0BA
:10410000E552E552FD0EDBCFE6FF9CEC7CF0E5527C
:104110000F012E2B000E2F23A6EF36F00E01006BA1
:10412000000EE66EE66AA10EE66EE66AE66AE66AEA
:10413000E66AE66AE66AD4EC7AF0006E090EE15CA3
:1041400002E2E16AE552E16E00500F01326F1200A7
:104150009EEC36F0FD0EDBCF00F00A0EE76E001885
:10416000E8AE02D0E73402D0E750005C09E322EC6D
:104170003AF0EF6A22EC3AF0EE52EF6A000E1ED0EF
:1041800062EC38F003AE02D0046805689AEC37F0B0
:10419000C5EC38F02CEC39F062EC38F003AE02D00C
:1041A000046805689AEC37F0F62A000EF722F82228
:1041B000C5EC38F0EE522CEC39F0010EA6EF36F0DB
:1041C0009EEC36F0170EE12402E3E168E652E16E60
:1041D000010EFFEC38F0FF0E0F01325D5BE032CFD5
:1041E000E6FF27EC7EF01CEC39F054E032CFE6FF1E
:1041F0006EDFE552090EDB6AD950090FCAEC39F0BF
:104200007FEC38F027EC26F0006E060EE15C02E24F
:10421000E16AE552E16E0050E76E100EE7CFDBFF7A
:10422000130EDB5003080CE0100EDB5031E0D950C8
:104230000A0FCAEC39F0F9EC26F0ECEC3AF028E081
:104240000E010091DAEC37F001E00081130EDB5033
:10425000030810E0090EDBCFE6FF7FEC38F089ECB5
:1042600030F04BEC3BF002E2E16AE552E16E0050C7
:1042700091EC39F00E0100A102D0E0EC38F0160EFE
:10428000DB5006E00901225105E15DEC7DF002D032
:104290008BEC7EF0010E006E170EE15C02E2E16A2B
:1042A000E552E16E0050A6EF36F09EEC36F0FC0EC3
:1042B000DBCF1DFEFD0EDBCF1EFE0AEC37F00A0E33
:1042C000E66E0E0EE66E87ECA5F0E5EC3BF0E552EF
:1042D000F90EDBCF12FEF70EDBCF13FEF80EDBCFAD
:1042E00014FEF60EDBCF15FEF20EDBCF17FEF30E3B
:1042F000DBCF18FEF40EDBCF19FEF50EDBCF1AFE76
:104300000E011669A6EF36F09EEC36F00C0EE12495
:1043100002E3E168E652E16E46EC39F03FEC39F039
:104320000A0EDBCFE9FF0B0EDBCFEAFF6EEC38F0B5
:10433000FF0E0E01165D18E1A20EE66EE66AFE0E95
:10434000E66EE668030EE66E7CEC37F0DEEC39F0E4
:10435000D4EC7AF0006E090EE15C02E2E16AE5520B
:10436000E16E00500E01166F16CEE6FF0FEC7CF0EA
:10437000E552010802E0000E01D0010E006E0C0EA5
:10438000E15C02E2E16AE552E16E0050A6EF36F030
:104390009EEC36F0DCEC38F0FD0EDB50060A22E035
:1043A000020A1BE0060A15E0010A0FE0020A09E012
:1043B000010A03E0F36AF46A21D011EC37F0010E30
:1043C0000FD011EC37F0020E0BD011EC37F0040EC9
:1043D00007D011EC37F0030E03D011EC37F0050EC7
:1043E000EF6E06D0DCEC38F0400E006E0F0E03D0FE
:1043F000370E006E0F0E00C0F3FFF46EA6EF36F01E
:104400009EEC36F0500EE12402E3E168E652E16EE4
:104410001A0EDB6A1B0EDB6A2B0EF36E370E96EC60
:1044200039F0380ED0EC37F0390E96EC39F03A0E00
:10443000F3CFDBFF030EF36E3B0ED0EC37F03C0EF8
:10444000D0EC37F03D0EF3CFDBFF040EF36E3E0EE3
:10445000D0EC37F03F0EF3CFDBFF2B0EF36E400EA8
:1044600096EC39F0410ED0EC37F0420EF3CFDBFF83
:10447000020EF36E430ED0EC37F0440ED0EC37F062
:10448000450EF3CFDBFF030EF36E460EF3CFDBFFDB
:10449000470EDB6A480EDB6A490EDB6A4A0EDB6AAE
:1044A000DAEC37F001E1A5D10F014D514E1101E0D9
:1044B000F2D04F51501101E0EED016CEE6FF07DEEC
:1044C000E5522ECF55FF2FCF56FF020E12CEDBFF47
:1044D0000A0EDE6E0E0EDD6E66EC3BF02ECF4DFF4B
:1044E0002FCF4EFF82EC3BF06EEC3BF0010E8FECD9
:1044F0003BF0020EDBCFE6FFA4EC36F0020EF6EC4A
:1045000036F00BE0DFCFE9FFDF2A010EDBCFEAFF59
:1045100001E3DB2AEF50E66EEFD7A70EC3EC39F0CC
:10452000820EC3EC39F02ECF4FFF2FCF50FF82EC1D
:104530003BF0020E8FEC3BF082EC3BF0D5EC39F017
:10454000010EC3EC39F06EEC3BF0D5EC39F06EECBB
:104550003BF0D5EC39F066EC3BF02ECF51FF2FCF7E
:1045600052FF82EC3BF026EC3CF0070EF2EC3BF005
:10457000400F84EC37F0160EF6EC36F007E0C6EC90
:1045800037F001E3DB2A9CEC3BF0F5D7D5EC39F0B2
:10459000430E8FEC3BF01ACEE6FFA4EC36F019CEBA
:1045A000E6FFA4EC36F018CEE6FFA4EC36F017CE0A
:1045B000E6FFA4EC36F053EC37F0100EFFEC38F0C9
:1045C000C6EC39F0ACEC37F026EC3CF0090EF2EC1E
:1045D0003BF0370F84EC37F0160EF6EC36F007E0C0
:1045E000C6EC37F001E3DB2A9CEC3BF0F5D7D5ECC9
:1045F00039F02DEC3AF01BCEE6FF1CCEE6FF38EC8E
:104600003BF002E2E16AE55225EC38F001E1EFD03F
:104610008CEC3BF0160EDB50E76E170EE7CFDBFF9E
:10462000160E76EC37F0170EC6EC39F0490EDB6A41
:104630004A0EDB6A490EDBCF00F04A0EDBCF01F0F9
:10464000020EDB50000101AE02D0D89003D0005C16
:10465000000E015814E2D950030F39EC3AF0490E1C
:10466000DB500024E96E4A0EDB500120EA6E9CEC20
:104670003BF0490EDB2A4A0EDDE3DB2ADBD753ECA5
:1046800037F0170EDB500E0F91EC39F0C6EC39F015
:10469000ACEC37F004D053CF2EFF54CF2FFF66EC95
:1046A0003BF02ECF53FF2FCF54FF82EC3BF0060E92
:1046B0000901245D6DE0D950160FCAEC39F024C908
:1046C000E6FF66DEE5EC3BF0180EF3CFDBFF190EDC
:1046D000F4CFDBFFD950180FD5EC36F0EE50ED10CB
:1046E00001E185D08CEC3BF0160EDB28C3EC39F0F1
:1046F000160EF6EC36F006E0C6EC37F001E3DB2AE6
:10470000EF50F4D7D5EC39F02DEC3AF013CEE6FFAC
:1047100014CEE6FF38EC3BF002E2E16AE55225EC0C
:1047200038F065E0D950210FD5EC36F0EF50400B52
:104730005EE0E66AD950270FD5EC36F0E9EC36F0AA
:1047400002E2E16AE552E16E00508CEC3BF0AEEC27
:104750003AF0DB50E76E170EE7CFDBFFC6EC39F01F
:10476000020EF6EC36F006E0D9504B0F9CEC36F01A
:104770004B0EF4D753EC37F0170EDB500E0FC6EC90
:104780003AF0480E93EC3BF0470E76EC37F0AED0A3
:104790002DEC3AF0CEEC36F038EC3BF002E2E16A78
:1047A000E55225EC38F023E0D950030F84EC37F0C4
:1047B0008CEC3BF0160EDB28C3EC39F0160E76ECD1
:1047C00037F0020EF6EC36F007E0C6EC37F001E306
:1047D000DB2A9CEC3BF0F5D7F70EC6EC39F0D9504C
:1047E000350FCAEC39F0220EFAEC3AF009E1E0ECB0
:1047F00038F016CEE6FF1BEC7CF0E552000EF9D047
:10480000350EC6EC39F0360EDB50FF0844E1F80EE9
:10481000DBCF22F0F90EDBCF23F04C0E22C0DBFF02
:104820004D0E23C0DBFF4E0EDB6A4F0EDB6A4C0ED3
:10483000DBCFE6FF4D0EDBCFE6FFC1ECA5F0E55286
:10484000E552360EF3CFDBFF76EC37F0C6EC39F0ED
:104850004E0EDB6A4F0EDB6A4DEC39F0020EDB5078
:10486000000101AE02D0D89003D0005C000E0158C8
:104870002AE24DEC39F04C0EDB500024E96E4D0E6F
:10488000DB500120EA6E9CEC3BF04E0EDB2A4F0E13
:10489000E3E3DB2AE1D7360E76EC37F0DBCFE6FF39
:1048A000A4EC36F0020EF6EC36F00DE0D950F80F1D
:1048B000006EFF0EDA20016E020EDB5003EC38F0C2
:1048C000EF50E66EEDD70EEC39F0360EDB28010F17
:1048D000E552E724020F010FC6EC3AF053EC37F033
:1048E000480EC6EC39F0470ED2EC3BF000EC3BF042
:1048F0001A0EDBCF53FF1B0EDBCF54FF040EE76E07
:10490000470EDBCF00F0480EDBCF01F0E75053EC51
:1049100038F00F01492701504A23000E4B234C2346
:104920000901590505E101CEE6FF20EC6EF05FD0EC
:10493000470E49CFDBFF480E4ACFDBFF51CF2EFF9A
:1049400052CF2FFF93EC3BF049CF00F04ACF01F05C
:104950004BCF02F04CCF03F0040E4FEC3BF00222A1
:1049600003220C0E4FEC3BF00222032254EC39F0F0
:104970004FCF2EFF50CF2FFF93EC3BF0040EE76E8E
:10498000470EDBCF02F0480E07EC3BF00E01125150
:1049900000010224006E000E0320016E020E4FEC97
:1049A0003BF0030E4FEC3BF054EC39F04DCF2EFFB3
:1049B0004ECF2FFF93EC3BF055CF2EFF56CF2FFF5E
:1049C0000F014D6B4E6B4F6B506B516B526B536BBA
:1049D000546B556B566B496B4A6B4B6B4C6BE0ECF5
:1049E00038F05DEC7DF016CEE6FF1BEC7CF0E55276
:1049F000010E006E500EE15C02E2E16AE552E16EEA
:104A00000050A6EF36F05DEC3AF0DE6ADE6ADE6A50
:104A1000DD6ADD52DD520AEC37F07CEC37F029EC30
:104A200038F002E2E16AE552E16E0050E7EC39F05D
:104A3000100B39E1E7EC39F0800B20E0B0EC36F0F8
:104A400034EC3CF0EECF00F0EFCF01F0FC0EDB5089
:104A5000001814E1FD0EDB50011810E1F60EDBCF5B
:104A6000E6FFF70EDBCFE6FF9BEC3AF019EC38F0EF
:104A700002E2E16AE552E16E005021D0E7EC39F044
:104A8000080B04E1E7EC39F0010B18E0E66AB0EC42
:104A900036F00F0ED1EC39F0E9EC36F002E2E16AC3
:104AA000E552E16E00503EEC37F020C0DEFF21C041
:104AB000DEFF22C0DEFF23C0DDFFABD7000E006E9D
:104AC000040EE15C02E2E16AE552E16E0050A6EFFD
:104AD00036F09EEC36F0270EE12402E3E168E65260
:104AE000BFEC3AF092EC36F06EEC38F0260EDB6A52
:104AF000250EDB6AD9500C0F03EC37F0040FD5EC10
:104B000036F029EC38F002E2E16AE552E16E00503D
:104B1000250EDB50E76EB0EC36F0E750D1EC39F003
:104B2000100EDBCFEFFF040EDBCF00F0050EDBCF66
:104B300001F0060EDBCF02F0070EDBCF03F07CECBA
:104B400037F0EE50001813E1EE50011810E1EE506E
:104B500002180DE1EE5003180AE109E1250EDB2AE7
:104B6000EFEC36F0250EDBCFEFFF010E66D0260E00
:104B7000DB50010A4EE0010ABDE1D950110FD5EC1E
:104B800036F0EF50080B40E0D9501B0FD5EC36F053
:104B9000080EEECFDBFF090EEECFDBFF0A0EEECFE5
:104BA000DBFF0B0EEECFDBFFE66A7EEC3AF0E9ECC2
:104BB00036F002E2E16AE552E16E00503EEC37F079
:104BC000080E20C0DBFF090E21C0DBFF3FEC39F0EF
:104BD000080EDBCF00F0090EDBCF01F00A0EDBCFB1
:104BE00002F00B0EDBCF03F07CEC37F00050EE5CF4
:104BF0000150EE580250EE580350EE5805E37EEC9B
:104C00003AF031EC38F076D7010EF36E260EF3CF82
:104C1000DBFFD950110FD5EC36F0EF50100B02E14D
:104C2000000E0BD0250EDB2AD9501F0FD5EC36F025
:104C300031EC38F0260EDB6A5DD7006E270EE15CA2
:104C400002E2E16AE552E16E0050A6EF36F09EEC1A
:104C500036F0140EE12402E3E168E652E16E040E40
:104C6000DB6A100EDB6A110EDB6A0AEC38F0120EFA
:104C700000C0DBFF130E01C0DBFF30EC39F0050E86
:104C8000E7CFDBFF53EC3AF0EE2A000EED22050EE3
:104C9000DB50300801E09FD0E9EC37F0E66E82ECA3
:104CA0003AF027EC37F082EC3AF0EE50ED1001E1EB
:104CB00092D082EC3AF0010EEE1809E1ED5007E1D6
:104CC00053EC3AF0EE2A000EED22060E29D082ECCB
:104CD0003AF0020EEE180DE1ED500BE153EC3AF014
:104CE000020EEE26000EED22810E9BEC39F0070E2F
:104CF00017D082EC3AF0030EEE186DE1ED506BE147
:104D000053EC3AF0030EEE26000EED22820E9BECE1
:104D100039F0010EDB50E76E070EE7CFDBFF080E20
:104D2000DFCFDBFF7CEC37F00C0EEECFDBFF0D0EA0
:104D3000EDCFDBFF53EC3BF04EE00AEC38F0100E09
:104D4000DB500024E96E110EDB500120EA6E020EEA
:104D5000EF6E92EC36F0090EE9EC38F0DF5005E02A
:104D6000DF0403E0030EDF5C36E10AEC38F0010EED
:104D7000B9EC37F0010EEF6E0AEC38F0020EB9EC28
:104D800037F0DFCFEFFFDF5002E0DF0426E19BECDE
:104D90003AF06DEC1FF0E55281EC37F01CE0D95091
:104DA000040FCAEC39F0E2EC1FF0ECEC3AF013E03F
:104DB00073EC3BF0040EDBCFEFFFBBEC39F003E10B
:104DC00085EC3BF008E00AEC37F073EC5EF0E5525E
:104DD000E552030802E1000E02D0040EDB50006E23
:104DE000140EE15C02E2E16AE552E16E0050A6EFCA
:104DF00036F05DEC3AF053EC3BF02AE092EC36F002
:104E000056EC38F0BBEC39F003E0FBEC39F009E18B
:104E100085EC3BF006E053EC3BF01AE02CEC37F06D
:104E20001AD0FBEC39F014E185EC3BF011E153ECC6
:104E30003BF00EE092EC36F0040EE9EC38F053EC67
:104E40003BF006E092EC36F0050EE9EC38F002D0CB
:104E5000000E01D0010E006E040EE15C02E2E16A78
:104E6000E552E16E0050A6EF36F09EEC36F00C0EE7
:104E7000E12402E3E168E652E16E38EC39F04EECF1
:104E800038F0040EDB6AE7EC39F0100B08E1E7ECD0
:104E900039F0020B04E1E7EC39F0200B0EE1BBEC3A
:104EA00039F002E1020E07D0FBEC39F003E06BECC5
:104EB0003BF003E1110E20EC38F06BEC3BF005E029
:104EC00030EC39F0020E29EC3AF0040EDB2AD9500E
:104ED000060FCAEC39F0B0EC36F0060E99EC36F05D
:104EE000E66EA8EC20F081EC37F00EE1BBEC39F077
:104EF00002E1030E07D0FBEC39F003E06BEC3BF072
:104F000003E1070E20EC38F0060EDB50F36E020EC4
:104F1000DB50F35C0EE0BBEC39F002E1030E07D08E
:104F2000FBEC39F003E06BEC3BF003E1070E20EC07
:104F300038F06BEC3BF005E030EC39F0030E29EC77
:104F40003AF0040EDB2A030EDB507F080EE2BBECC6
:104F500039F002E1030E07D0FBEC39F003E06BEC13
:104F60003BF003E1080E20EC38F0E7EC39F0040BDD
:104F700006E1D5EC3BF003E0020E20EC38F0EFEC5C
:104F800037F0DF6A070EDB50FF084AE0030EDB5004
:104F9000040833E3030EF6EC36F014E06BEC3BF060
:104FA00005E030EC39F0010E29EC3AF05BEC39F019
:104FB000030EDB5003EC38F0010EDBCFEFFF040EE5
:104FC000DB2AE8D7050EDB5001E07FD019EC3CF07E
:104FD000DFCFE6FFEDEC39F002E2E16AE55225ECC5
:104FE00038F073E1BBEC39F00BE0FBEC39F003E097
:104FF0006BEC3BF06AE10A0E66D0BBEC39F002E1E3
:10500000030E61D0FBEC39F003E06BEC3BF05DE1AB
:10501000E7EC39F0020B02E0110E55D0080E53D028
:10502000D5EC3BF0E66E030EDBCFE6FFB0EC36F0DE
:10503000FCEC36F0C9EC5EF0E55281EC37F014E19F
:10504000BBEC39F002E1030E0DD0FBEC39F003E0CC
:105050006BEC3BF009E1E7EC39F0020B02E0110EDA
:1050600001D0080E20EC38F0030EF6EC36F01CE010
:105070006BEC3BF005E030EC39F0080E29EC3AF02F
:10508000040EDB2A050EDB50EFE119EC3CF0DF509B
:10509000DF2AE66EEDEC39F002E2E16AE55225EC3A
:1050A00038F0E2E1030EDED7050EDB500EE119EC1D
:1050B0003CF0E668EDEC39F002E2E16AE55225ECFD
:1050C00038F003E1030E20EC38F0EFEC36F0050E7B
:1050D000DBCFEFFF040EDB50006E0C0EE15C02E252
:1050E000E16AE552E16E0050A6EF36F09EEC36F034
:1050F0000F0EE12402E3E168E652E16E4EEC38F077
:10510000EFEC37F0E9EC3BF001E07DD0ECEC3BF06C
:1051100006E149EC3CF099EC36F0000874E373ECDE
:105120003BF0030EEFCFDBFFD9500C0FCAEC39F088
:10513000030EFAEC3AF067E0FB0EDB500FE1D8EC1F
:1051400039F00CE00C0EC6EC39F0040E2ECFDBFF6C
:10515000050E2FCFDBFF0D0ED2EC3BF0CFEC39F07C
:10516000020B20E0E66A92EC36F0A0EC39F0E9ECB4
:1051700036F002E2E16AE552E16E0050AEEC3AF040
:10518000DB5060EC3AF0010EF6EC36F041E0D9501D
:105190000E0F9CEC36F0D8EC39F0F5E00E0EC6ECB4
:1051A00039F0F1D7DF6AEFEC37F0020EDB6AD95045
:1051B000080FCAEC39F0F7EC3BF002E2E16AE55285
:1051C00025EC38F020E00D0EDB50FF0813E00D0E4B
:1051D00076EC37F00D0EDB501BE0D8EC39F0FAE03E
:1051E0005BEC39F00D0EDB06DB5003EC38F09CEC89
:1051F0003BF0F0D7020EDB2AD8EC39F006E0080EBF
:10520000C6EC39F002D0000E23D0FF0EDF5CCFE1F8
:10521000FB0EDB501BE1D8EC39F015E0060E2ECF6B
:10522000DBFF070E2FCFDBFF040EDBCF2EFF050EBB
:10523000DBCF2FFF020EC6EC39F0060EDBCF2EFFC0
:10524000070EDBCF2FFF020EDB2ADB2A020EDB501C
:10525000006E0F0EE15C02E2E16AE552E16E005081
:10526000A6EF36F09EEC36F0400EE12402E3E16852
:10527000E652E16E020EDB6A360EDB6A370EDB6A3F
:10528000010EF36E3C0EF3CFDBFF3A0EDB6ADF6AF2
:10529000E9EC3BF006E1E9EC3BF00BE1ECEC3BF038
:1052A00008E1010EF36E3A0EF3CFDBFF86EC3AF025
:1052B00027E0ACEC3BF002E2E16AE55225EC38F085
:1052C0001FE0310EDBCFE6FFD9501E0FCAEC39F0DC
:1052D000CEEC36F00AEC37F07CEC38F002E2E16A12
:1052E000E552E16E005001080DE086EC3AF008E06E
:1052F000ACEC3BF002E2E16AE55225EC38F0E1E18A
:10530000000E25D1D9501E0F39EC3AF01C0E00C00A
:10531000DBFF1D0E01C0DBFF310EDB50DF6E6FECDB
:105320003AF01AE0360E2ECFDBFF370EF8EC37F0EE
:10533000010E0F012E27000E2F23DF50DF0600097C
:105340000BE01C0EF0EC3AF01D0EDBCFEAFF01E3A0
:10535000DB2A9CEC3BF0F1D7310EDB50DF6E73ECB7
:105360003BF0EFCF23FE88EC3BF0340EEECFDBFFBB
:10537000350EEDCFDBFFECEC3BF02CE16FEC3AF0BF
:1053800026E0D5EC39F0DF2ACAEC3AF0DB2AC6EC8D
:1053900039F095EC38F0380E2ECFDBFF390E2FCFD9
:1053A000DBFF0AEC37F0B4EC3AF002E2E16AE552D6
:1053B000E16E0050E76E020EE7CFDBFFDB5007E146
:1053C00095EC38F0DAEC3BF0020EF36EDB6E020E79
:1053D000DB50BBD03B0EDB6A3A0EDB0412E11F0E42
:1053E000E66E0E0EE66ED9503B0FCAEC39F0F5ECC6
:1053F00039F0EDEC38F002E2E16AE55225EC38F0E4
:105400005AE097EC3BF0330E3EEC38F00E01246B83
:10541000D950320F9CEC36F0D9503C0F9CEC36F052
:105420003C0EDB0408E1D9503D0F9CEC36F03D0EFC
:10543000A3EC3AF022D03C0EDB5002081EE1B8EC9F
:1054400038F03E0F1CEC37F002E2E16AE552E16E03
:1054500000500A0EDB6A0B0EDB6A3E0EA3EC3AF03C
:10546000D9500A0FD5EC36F0EE50ED6EEF6A3F0ED4
:10547000BDEC38F00A0F0EEC3BF0090EDB6AD95098
:10548000090F9CEC36F078EC3BF01A0EEFCFDBFF07
:105490003A0EDB5013E1D9501A0FCAEC39F00A0E5C
:1054A000DBCFE6FF0B0EDBCFE6FFEEEC5FF0E55265
:1054B00081EC37F003E115EC3BF0F3D6080EDB92FC
:1054C000DB98DB840AEC37F0010EE66ED950030F4F
:1054D000CAEC39F0CCEC37F002E2E16AE552E16E59
:1054E00000500E01242778EC3BF01A0EDBCFEFFFC3
:1054F0002451DF26310EDBCFE7FF2451E726310EA2
:10550000E7CFDBFF6FEC3AF006E0CAEC3AF0C6EC0E
:1055100039F095EC38F097EC3BF0330EDBCFEFFF32
:1055200088EC3BF0340EDBCFEEFF350EDBCFEDFF2A
:1055300073EC3BF023CEEFFF0AEC37F0B4EC3AF01B
:1055400002E2E16AE552E16E0050DF26DF50006EB4
:10555000400EE15C02E2E16AE552E16E0050A6EF26
:1055600036F09EEC36F0320EE12402E3E168E652BA
:10557000E16E4EEC38F0260EDB6A270EDB6A010E78
:10558000F36E2C0EF3CFDBFF030EDB6A4EEC38F02C
:10559000070EDB6A080EDB6A240EDB6A250EDB6A67
:1055A000260EDB6A270EDB6A280EDB6A290EDB6A11
:1055B0002A0EDB6A2B0EDB6A060EDB6A2A0EDB6A1A
:1055C0005FEC39F0050EEFCFDBFF9CEC38F02D0ED1
:1055D00022C0DBFF2E0E23C0DBFF010EF36E020E96
:1055E000F3CFDBFFDBCF00F05FEC39F0EF50D8807A
:1055F000005414E3E9EC3BF006E1E9EC3BF00BE18D
:10560000ECEC3BF008E1040EDB2A010E9BEC39F0D8
:1056100086EC3AF052E0020EDB2AE4D7ECEC3BF0E9
:1056200027E0040EDBCF00F0050EDB50D8800054DD
:105630001FE3F5EC39F0D3EC5FF081EC37F00AE1D1
:1056400078EC3BF03EEC3AF081EC37F003E186EC8D
:105650003AF033E0050EDBCF00F0040EDB50D880CB
:10566000005403E278EC3BF0EF2A040EDB2AD9D792
:10567000C2EC3BF002E2E16AE55225EC38F01DE0B5
:10568000030EDBCFE6FF0AEC37F0CEEC36F00EEC83
:1056900038F07CEC38F002E2E16AE552E16E00504D
:1056A00001080DE086EC3AF008E0C2EC3BF002E2C3
:1056B000E16AE55225EC38F0E3E1000E22D1260E36
:1056C0002ECFDBFF270E2FCFDBFF8CEC3BF0240E21
:1056D0002ECFDBFF250E2FCFDBFF030EDB50E76E57
:1056E0002A0EE7CFDBFF1CEC3BF0010E0F012E274B
:1056F000000E2F232A0EF6EC36F00AE0B0EC36F05E
:105700009CEC3BF0FA0EDB2AFB0EF4E3DB2AF2D72B
:10571000EFEC36F0030EDBCFEFFF2A0EEFCFDBFF0F
:1057200073EC3BF0EFCF25FE88EC3BF0070EEECF9D
:10573000DBFF080EEDCFDBFFECEC3BF01CE1D5EC22
:1057400039F02A0EDB2A2DEC38F0DB2AC6EC39F0D2
:1057500066EC39F023EC3BF00EEC38F0B4EC3AF0A8
:1057600002E2E16AE55215EC38F02A0EDBCFE7FFE2
:10577000010EDB50C1D0DF6A060EDB041FE1270EED
:10578000E66E0E0EE66EF7EC3BF002E2E16AE552E1
:1057900025EC38F013E1260EDBCF2EFF270EDBCFF2
:1057A0002FFF2D0EDBCF22F02E0EDBCF23F0FA0ED3
:1057B00022C0DBFFFB0E23C0DBFF27D797EC3BF0BB
:1057C000230E3EEC38F00E01266BD950220F9CECD4
:1057D00036F0D9502C0F9CEC36F02C0EDB0408E18F
:1057E000D9502F0F9CEC36F02F0EFBEC3BF020D065
:1057F0002C0EDB5002081CE1B8EC38F0300F1CEC2A
:1058000037F002E2E16AE552E16E0050100EDB6A09
:10581000110EDB6A300EFBEC3BF053EC3AF0EE502D
:10582000ED6EEF6A310EBDEC38F0100F0EEC3BF070
:105830000F0EDB6AD9500F0F9CEC36F049EC3CF0B0
:105840006DEC39F00E0EDB92DB98DB840EEC38F059
:10585000010EE66ED950090FCAEC39F0CCEC37F0E6
:1058600002E2E16AE552E16E00500E01262778EC73
:105870003BF0200EDBCFEFFF2A0EDBCFE7FF2651F8
:10588000E7262A0EE7CFDBFF030EDBCFE7FF26512B
:10589000E726030EE7CFDBFFF40EDBCFE9FFF50EC3
:1058A00000EC3CF006E02DEC38F0C6EC39F066EC8C
:1058B00039F097EC3BF0230EDBCFEFFF88EC3BF0A9
:1058C000070EDBCFEEFF080EDBCFEDFF73EC3BF0F6
:1058D00025CEEFFF0EEC38F0E66ACEEC36F006DCB3
:1058E000016E050EE15C02E2E16AE552E16E0150F3
:1058F0002A0EDBCFE7FF0150E7262A0EE7CFDBFFBA
:10590000DB50006E320EE15C02E2E16AE552E16ECC
:105910000050A6EF36F09EEC36F0170EE12402E3BD
:10592000E168E652E16E010EDF6E090EDB6A92EC71
:1059300036F0090ED1EC39F0040EEFCFDBFF73EC3B
:105940003BF0050EEFCFDBFF0E0100A19CD10C0E4A
:10595000DB6A0D0EDB6A0E0EDB6A0F0EDB6AF90ED8
:10596000DB50E76E030EE7CFDBFFF90EDB50E76E8F
:10597000060EE7CFDBFF9CEC38F0070E22C0DBFF02
:10598000080E23C0DBFFE66AD9500C0FD5EC36F0C9
:10599000E9EC36F002E2E16AE552E16E005074ECA7
:1059A0003AF0B7EC36F073EC37F01CEC3CF0090E33
:1059B000DB5013E1010E76EC37F0D9500C0FD5EC2B
:1059C00036F0100EEECFDBFF110EEECFDBFF120E26
:1059D000EECFDBFF130EEECFDBFFB7EC36F0050E9C
:1059E000ACEC36F0FEEC39F0800B2CE07AEC38F0C1
:1059F000DF0408E1D950140F9CEC36F0140EB4EC1F
:105A00003BF020D0020EDF5C1DE1B8EC38F0150F42
:105A10001CEC37F002E2E16AE552E16E0050B7ECAF
:105A200036F0A3EC39F0150EB4EC3BF0B7EC36F0E1
:105A300044EC38F0160EDB50006E016AB7EC36F01D
:105A4000FCEC37F0FEEC39F0080B02E006EC3AF023
:105A50008CEC37F0EF50F36E010EDB50F35C4FE04F
:105A6000A3EC38F001E1C8D0090EDB0405E1FEEC3F
:105A700039F0080B01E10BD1FEEC39F0080B01E124
:105A800006D1E66A0A0EDBCF04F00B0EDBCF05F081
:105A9000066A076A04C0E6FF05C0E6FF06C0E6FF27
:105AA00007C0E6FF01CEE6FFE7EC6EF0086E060EDB
:105AB000E15C02E2E16AE552E16E0850006E016AC3
:105AC000026A036A00AE03D00168026803680C0E24
:105AD00000C0DBFF0D0E01C0DBFF0E0E02C0DBFFBE
