:020000040000FA
:060000009DEFB8F01200B4
:06000800A8EFB3F01200A6
:0600180033EFB3F012000B
:06002A000F00E773010066
:10003000AA07000001000000E5730100A807000006
:10004000020000000C73010000020000D900000053
:100050000B7301005F0F0000010000000973010035
:10006000A60700000200000008730100FF05000061
:10007000010000004272010000030000C600000001
:1000800016720100000700002C000000DDD80000FF
:10009000FF0300000100000014720100A40700002B
:1000A00002000000107201009E0700000400000022
:1000B00008720100F7050000080000000672010048
:1000C000A207000002000000027201009A0700006F
:1000D0000400000000720100FE02000002000000A7
:1000E000D0EC16F0FD0EDB500701A45D2CE0FE0EF7
:1000F000A45D11E01C0EE66EE66ACF0EE66E050EFC
:10010000E66EA451F0EC19F068EC1AF002E2E16A34
:10011000E552E16E0250FD0EDBCFA4F7DB50FE0886
:1001200012E01C0EE66EE66AFD0EDB50F0EC19F0F4
:10013000CF0EE66E050EE66E68EC1AF002E2E16A9A
:10014000E552E16E0250DEEF16F00701A451A55D05
:1001500001E11200FE0EA55D1CE0250EE66EE66ACA
:10016000010EE66EAA0EE66E050E29EC1AF01B0EC5
:1001700077EC17F0EF5029EC1AF0F6EC18F0250E9A
:100180008BEC1BF026EC1DF002E2E16AE552E16E19
:100190000250A4C7A5F7250EE66EE66AEAC5E6FF9B
:1001A000CFC500F0D0C501F08BEC1BF0010EE66E60
:1001B000AA0EE66E050EE66E26EC1DF002E2E16A7E
:1001C000E552E16E02501200D0EC16F00B0EE12465
:1001D00002E3E168E652E16EC20EF36E090EF3CF60
:1001E000DBFF0F0EF36E0A0EF3CFDBFF0501A85104
:1001F000A9110FE1F8EC73F020C0A8F521C0A9F512
:10020000FF0E0501A817070EA917000EA827040E58
:10021000A9233C0EE66EE66AE66A000EE66E0F0E55
:10022000E66E8EECACF0006E050EE15C02E2E16A77
:10023000E552E16E0050010EDB6ADF6A43EC18F014
:1002400001E392D0D6EC19F061EC17F0A1EC17F0B5
:10025000F62A000EF722F8220800080EF5CFDBFF81
:1002600061EC17F0A1EC17F0020EF626000EF72253
:10027000F8220900020EF5CFDBFF0A00030EF5CFCE
:10028000DBFF61EC17F0EAEC1DF0040EF626000E21
:10029000F722F8220900040EF5CFDBFF0A00050E55
:1002A000F5CFDBFF080EDB502BE1090EDBCF22F090
:1002B0000A0E88EC19F04FEC1DF0250E0226000EF8
:1002C000032224EC1CF0040EBEEC1EF0050EDB50E5
:1002D00003208FEC17F0D950090F70EC1CF0090EB9
:1002E000DBCF00F00A0E15EC1AF0D880FE0E005499
:1002F0001E0E0154000E0254000E035402E2EFD70A
:10030000FFD7080EDBCFEAF5060EDBCFCFF5070EE1
:10031000DBCFD0F5250E0501CF27000ED023020E2E
:10032000DB50CF25D16F030EDB50D021D26F010EF1
:10033000D127000ED223040EDB50D125D36F050E3A
:10034000DB50D221D46F0D0EE56FE697FEDE61EC37
:1003500017F01EC003F0EAEC1DF00800F5CFCEF553
:100360009EEC0FF0DF2A6AD70B0EE15C02E2E16A35
:10037000E552E16EDEEF16F085EC1EF0DF6A43EC2D
:1003800018F001E38FD0D6EC19F00D0E0501E55DF4
:1003900001E086D0DADEF60EDB500501CE5D01E02D
:1003A0007FD0F90EDB5010E1F70EDBCFBAF5F80E77
:1003B000DBCFBBF5E687040EE56FF70EDBCFE8F584
:1003C000F80EDBCFE9F56AD0000EA85D040EA9593E
:1003D00006E3880ED880A855130EA95503E2A86B32
:1003E000040EA96FA8C5BAF5A9C5BBF5A82B000EC8
:1003F000A923F70EDBCFB8F5F80EDBCFB9F5DBECB0
:1004000017F00501E689F90EDB50040A26E0070A19
:1004100045E1FA0EDBCF04F0FB0EDBCF05F0FC0E5E
:10042000DB500424026EFD0EDB50052029EC19F090
:10043000FA0EDBCFC0F5FB0EDBCFC1F5FC0EDBCF38
:10044000C2F5FD0EDBCFC3F5CD6B270EAA6FAB6BEC
:10045000AC6BAD6B020EE56F21D0E6EC17F0020E2F
:1004600077EC17F0EECF04F0EFCF05F0E6EC17F0E5
:100470000450EE24026E0550EE2029EC19F079ECC0
:100480001DF002E2E16AE552E16E00500501050E41
:10049000E56F010EE66E020E7FEC17F0DF5003D021
:1004A000DF2A6DD7FE0EE552DEEF16F003EC1DF0ED
:1004B0000501E7A903D0E799010E01D0000EDEEF98
:1004C00016F003EC1DF0070E0501E55D02E0000EDD
:1004D00001D0010EDEEF16F003EC1DF029EC1CF04C
:1004E0000501E551080A2EE0010A2CE0050A2AE080
:1004F000020A25E0050A18E00D0A0BE0010A09E0EE
:10050000070A24E0020A22E0010A20E0060A1AE1B2
:100510001DD07FEC1DF006E0B651D519FAE1B751B8
:10052000D619F7E1080E0CD07FEC1DF006E0B651AD
:10053000D519FAE1B751D619F7E10C0E01D00D0E1D
:10054000E56F06D0E66A140E7FEC17F09EEC0FF014
:10055000DEEF16F003EC1DF00501E69769EC1DF0E7
:10056000BBDFE552DEEF16F003EC1DF0EEDD4CECE8
:100570001CF0DCEC19F0EB0EE66E050EE66E6EEC90
:100580001AF002E2E16AE552E16E0050B8C5F5F5F5
:10059000B9C5F6F5EB0E006E050E56EC1DF0DEEF5C
:1005A00016F003EC1DF0D1DD0501B651D51902E1BD
:1005B000B751D61902E0F9EC1CF0DEEF16F085EC2D
:1005C0001EF033EC17F0E5C5DFFF070EDF5C06E039
:1005D0000B0EDF5C03E0F36AF46A21D00501D7510A
:1005E000D55DD851D65910E3F4EC17F00206000E91
:1005F000035AD751D55D046ED651D855056E2CECF3
:100600001DF056EC1DF00BD0D551D75D006ED851C2
:10061000D655016E0006000E015AD5EC1AF0E552CF
:10062000DEEF16F085EC1EF0E65255EC1EF0ECEC19
:100630001CF002E1000E39D059EC1EF004E1ED503F
:1006400002E1AFEC17F00501E751010B09E1E1EC24
:1006500019F0F4EC17F00CEC1AF002E35EEC1EF06B
:10066000010EE66EE66AE66EBBEC1BF068EC18F075
:1006700002E2E16AE552E16E00500501D52B000E61
:10068000D623D151D55DD251D65902E3DAEC1AF016
:1006900059EC1EF005E1ED5003E1AFEC17F004D08A
:1006A000E6BB02D04AEC17F0010EE552E552DEEF50
:1006B00016F011EC1DF002E3E168E6529CEC1EF02E
:1006C00005E1AFEC17F0F36AF46A3DD088EC1DF059
:1006D00007EC1DF07BEC17F003E2F90E1AEC1AF0B0
:1006E0000501E751010B05E1F0EC1DF002E35EECC2
:1006F0001EF07AEC1AF010E33BEC1DF0C2EC1EF099
:1007000002E2E16AE55210EC1BF0D950FB0FD5EC88
:1007100017F0ED22C7EC1EF063EC1EF0C2EC1EF0E9
:1007200002E2E16AE5521BEC1DF007EC1DF07BECE8
:1007300017F003E3AFEC17F004D0E6BB02D04AECAD
:1007400017F03EEC19F0060EE15C02E2E16AE552B8
:10075000E16EDEEF16F011EC1DF002E3E168E65207
:100760009CEC1EF005E1AFEC17F0F36AF46A44D09C
:100770000501E751010B05E1F0EC1DF002E35EEC31
:100780001EF088EC1DF0B2EC1DF07BEC17F003E2DC
:10079000F80E1AEC1AF07AEC1AF015E33BEC1DF0A7
:1007A0001AEC18F035EC1AF002E2E16AE55210ECAE
:1007B0001BF0026AD950FA0FD5EC17F0EE22025066
:1007C000EE22C7EC1EF063EC1EF01AEC18F035ECCC
:1007D0001AF002E2E16AE5521BEC1DF0B2EC1DF0EA
:1007E0007BEC17F003E3AFEC17F004D0E6BB02D0CC
:1007F0004AEC17F03EEC19F0060EE15C02E2E16A09
:10080000E552E16EDEEF16F0D0EC16F0FB0EDBCF1A
:1008100002F0FC0EDBCF03F068EC1EF080EC1CF065
:1008200058ECADF0E552E552F3CF04F0F4CF05F00B
:10083000F3CFE6FFF4CFE6FFFB0EDBCFE6FFCBEC1A
:1008400017F037DF066E050EE15C02E2E16AE55261
:10085000E16E065090EC1BF0F324006E0350F42080
:1008600056EC1DF0DEEF16F0D0EC16F01AEC18F096
:1008700066ECADF0E552E552E55221C006F022C02B
:1008800007F021C0E6FF22C0E6FF1AEC18F069EC81
:100890001DF061DF086E060EE15C02E2E16AE552DE
:1008A000E16E0850F3CF03F0F4CF04F0056AEDECED
:1008B0001EF0EE50F324006EEE50F420016EEE5068
:1008C0000520026E00C021F001C022F0236EDEEF91
:1008D00016F0F6EC1DF00501B5EC17F00006000E61
:1008E000015A53EC18F0B1EC19F05AEC18F002E28E
:1008F000E16AE552E16EDEEF16F0D0EC16F0FBECAB
:1009000017F0B7EC1DF0F350F41006E033EC17F0DD
:1009100029EC1CF0F9EC1CF0DEEF16F003EC1DF0F6
:10092000050181EC1BF006E3DB51D95D006EDA5165
:10093000DC5513D0DB51D35D026ED451DC55036E10
:1009400024EC1CF0D151D95D046EDA51D255056EFC
:1009500002500424006E0350052056EC1DF0DEEF1B
:1009600016F085EC1EF0E652FBEC17F0ECEC1CF0F8
:1009700002E1000E28D033EC17F0BCEC1DF00CE0C7
:10098000010EE66EE66AAAEC1AF085EC17F002E2B8
:10099000E16AE552E16E00500501DB2B000EDC231D
:1009A000DB51D35DDC51D45902E233EC1CF059EC3D
:1009B0001EF004E1ED5002E1E78504D0E6BB02D071
:1009C0004AEC17F0010EE552E552DEEF16F0D0ECDE
:1009D00016F02EEC1CF0020EDB6A030EDB6AFBEC59
:1009E00017F0ECEC1CF003E1F36AF46A84D033EC0A
:1009F00017F0B6EC19F014EC1BF008E29CEC17F0C1
:100A0000F90EEECFDBFFFA0EEDCFDBFFF90EDB5078
:100A10000501DB250001006EFA0EDB500501DC212B
:100A20000001016E050116EC1DF02CE2DB51EEEC2D
:100A30001AF0DC558FEC17F053EC18F0BCEC1DF0FD
:100A400017E0020EDBCFE6FF030EDBCFE6FFAAECDA
:100A50001AF0010E85EC17F002E2E16AE552E16E50
:100A600000505EEC17F0D950FB0FD5EC17F0ED22DB
:100A70005EEC17F0D950F90FA6EC1CF0D0EC17F093
:100A800033EC1CF0BCEC1DF00CE0F2EC1CF0AAEC1A
:100A90001AF0010E85EC17F002E2E16AE552E16E10
:100AA0000050B5EC1AF022500501DB272350DC235F
:100AB0005EEC17F0D950F90FD5EC17F0ED22DECF30
:100AC00002F0DDCF03F0F90E0AEC1FF0FA0EDB5056
:100AD0000358016EF90EDBCF04F0FA0EB1EC1AF0F8
:100AE00002E3E78504D0E6BB02D04AEC17F0B6EC8F
:100AF00019F0D5EC1AF0040EE15C02E2E16AE5526D
:100B0000E16EDEEF16F0F6EC1DF00501D151EEECD2
:100B10001AF0D255016E53EC18F0FBEC17F05AECBA
:100B200018F002E2E16AE552E16EDEEF16F011EC38
:100B30001DF002E3E168E652E16ED950F90F8AEC4C
:100B400017F003E1F36AF46A82D06DEC1EF0A3ECB7
:100B50001AF007EC1DF0DBCF03F08BEC1DF0020E5A
:100B6000DBCF04F0030EB1EC1AF00FE24FEC1DF0F6
:100B7000F70E0AEC1FF0F80EDB500358016EF90E69
:100B800000C0DBFFFA0E01C0DBFFF70E38EC1CF0F3
:100B9000F80EDB50DC2100C0DEFFDD6EE1EC19F069
:100BA00016EC1DF004E287EC1CF0AEEC1DF0DE50FC
:100BB000D35D006EDD50D459F1EC1EF0B6EC19F0A7
:100BC000040EDBCF02F0050E7BEC17F00DE3F2EC28
:100BD0001CF0E4EC18F0010E85EC17F002E2E16A7B
:100BE000E552E16E00502FD0DDEC18F0E4EC18F087
:100BF000010E85EC17F002E2E16AE552E16E005069
:100C000007EC1DF09EEC1CF085EC1AF0010EE66E70
:100C1000040EDBCF06F0050EDBCF07F0FB0EDB503A
:100C20000624046EFC0EDB500720056E04C0E6FFB0
:100C3000E66E05EC16F0086E080EE15C02E2E16A71
:100C4000E552E16E0850B6EC19F0D5EC1AF0060E3C
:100C5000E15C02E2E16AE552E16EDEEF16F085EC5E
:100C60001EF080EC1CF0010EBCEC1AF069EC1DF0DB
:100C70005EDF006E070EE15C02E2E16AE552E16EC2
:100C80000050DF50E552DEEF16F0D0EC16F0300EDB
:100C9000E12402E3E168E652E16ED950F90F8AECF3
:100CA00017F003E1F36AF46A27D16DEC1EF0F70E3A
:100CB000DB50F35C006EF80EC5EC1DF007EC1DF088
:100CC000BDEC19F001E20ED1D950F50F8AEC17F006
:100CD0000FE05EEC17F0F50EDBCF02F0F60E7BECCA
:100CE00017F006E2F50EDBCF22F0F60E19EC1BF042
:100CF000F70E38EC1CF0F80E86EC18F002E2CBECA4
:100D00001EF0C5EC1CF0F70EDBCF22F0F80E88ECDD
:100D100019F0B5EC1AF0C2EC1BF0FB0EDBCF22F0A1
:100D2000FC0E22EC1BF04BEC18F001E3DB2A0D0E5D
:100D3000EFCFDBFF0F0EDB6AF40EDB500AE0610E33
:100D40005BEC1DF006E30D0EDB507A0802E3C1EC0C
:100D500018F0200EF36E0E0E49EC19F006E2040EA8
:100D6000DB50E76E0E0EE7CFDBFF0E0EF8EC19F04E
:100D700006E2020EDB50E76E0E0EE7CFDBFF0E0E33
:100D80008FEC1DF0100FE6EC19F093EC1CF002E272
:100D9000E16AE552E16E00500E0EDB50DE26000ED9
:100DA000DD220E0EA5EC1EF002E12BEC1BF0F40E82
:100DB000DB505CE00C0EDB6AFBEC1DF001E38AD03B
:100DC000D950100F016E000EDA20026E0C0E3CECB2
:100DD0001AF010E3D950100F036E000EDA20046EE3
:100DE0000C0E34EC1BF006E3E00E026E91EC19F0F1
:100DF00098EC1BF091EC19F01CEC19F00D0EDB5087
:100E0000F35C1BE1F90EDB06DBCF00F0FA0E01E22A
:100E1000DB0686EC1BF042E04BEC18F001E3DB2A2A
:100E20003DEC1BF0610E5BEC1DF01DE30D0EDB5085
:100E30007A0819E3C1EC18F016D053EC19F013E05E
:100E4000D0EC1CF001E3DB2A0D0EEFCFDBFF610ECF
:100E50005BEC1DF006E30D0EDB507A0802E3C1ECFB
:100E600018F00F0EDB6A0C0EDB2AA6D70C0EDB6A1D
:100E7000FBEC1DF02FE291EC19F00F011CEC19F0C6
:100E80000D0EDB50F35C17E1F90EDB06DBCF00F053
:100E9000FA0E01E2DB0686EC1BF006E15EEC19F0CF
:100EA0000C0E6DEC1DF028D04BEC18F001E3DB2AA2
:100EB0003DEC1BF00CD053EC19F009E0D0EC1CF029
:100EC00001E3DB2A0D0EEFCFDBFF0F0EDB6A0C0E0A
:100ED000DB2ACED70E0E74EC1DF007EC1DF0BDEC36
:100EE00019F003E2F368F46807D00E0E1FEC1AF055
:100EF000060F70EC1CF02DD7300EE15C02E2E16AC7
:100F0000E552E16EDEEF16F0D0EC16F0310EE12482
:100F100002E3E168E652E16ED950F80F8AEC17F06F
:100F200003E1F36AF46A10D16DEC1EF0F60EDB50AB
:100F3000F35C006EF70EC5EC1DF0B2EC1DF0BDECDD
:100F400019F001E2F7D0D950F40F8AEC17F00FE056
:100F50005EEC17F0F40EDBCF02F0F50E7BEC17F031
:100F600006E2F40EDBCF22F0F50E19EC1BF0F60EC4
:100F700038EC1CF0F70E86EC18F002E2CBEC1EF019
:100F8000C5EC1CF0F60EDBCF22F0F70E88EC19F062
:100F9000C0EC1AF0C2EC1BF0EDEC1EF00A0EEECF26
:100FA000DBFF0B0EEECFDBFF0C0EEECFDBFF39ECE1
:100FB00017F0100EDB6AF30EDB5009E09FEC1DF01A
:100FC00006E30E0EDB507A0802E3CCEC18F0200E9C
:100FD000F36E0F0E49EC19F003E2040E75EC1BF0F2
:100FE0000F0EF8EC19F003E2020E75EC1BF00F0E79
:100FF0008FEC1DF0110FE6EC19F093EC1CF002E2FF
:10100000E16AE552E16E00500F0EDB50DE26000E65
:10101000DD220F0EA5EC1EF002E12BEC1BF0F30E0F
:10102000DB5053E00D0EDB6A0F0EDB505BEC1DF066
:1010300001E378D0D950110F016E000EDA20026E54
:101040000D0E3CEC1AF010E3D950110F036E000E98
:10105000DA20046E0D0E34EC1BF006E3E00E026E97
:101060009AEC19F098EC1BF09AEC19F01CEC19F0C2
:101070000E0EDB50F35C16E1F80EDB06DBCF00F062
:10108000F90E01E2DB0686EC1BF039E0CCEC1DF03A
:101090009FEC1DF017E30E0EDB507A0813E3CCEC47
:1010A00018F010D06DEC19F00DE0ABEC1CF09FECDB
:1010B0001DF006E30E0EDB507A0802E3CCEC18F0CC
:1010C000100EDB6A0D0EDB2AAFD70D0EDB6A0F0E9A
:1010D000DB505BEC1DF026E29AEC19F00F011CECE2
:1010E00019F00E0EDB50F35C13E1F80EDB06DBCFDC
:1010F00000F0F90E01E2DB0686EC1BF006E15EEC87
:1011000019F00D0E6DEC1DF01FD0CCEC1DF007D0CA
:101110006DEC19F004E0ABEC1CF0100EDB6A0D0E68
:10112000DB2AD5D70F0E74EC1DF0B2EC1DF0BDEC30
:1011300019F003E2F368F46807D00F0E1FEC1AF001
:10114000060F70EC1CF043D7310EE15C02E2E16A5D
:10115000E552E16EDEEF16F0D0EC16F0F70EDBCFC5
:10116000E6FFC7EC1AF0EDEC17F0010EE66EE66A4A
:10117000BBEC1BF069EC1DF088DD006E0A0EE15C33
:1011800002E2E16AE552E16E0050DEEF16F011EC8A
:101190001DF002E3E168E652E16EDF6A43EC18F00D
:1011A00001E3A2D1D6EC19F0030EDB6A010EDB6A73
:1011B000020EDB6A0501E751020B03E1E751040B64
:1011C00010E0E1EC87F000090CE0100E24EC19F0BF
:1011D0000501E751040B01E0010EE76E010EE7CFB8
:1011E000DBFF0501E6AB11D039ECB6F0050120506C
:1011F000E15D006E2150E259016EE83402E2E4EC58
:101200001AF003E3100E24EC19F0E6AD09D08DECD2
:101210001AF002E2E4EC1AF003E3100E24EC19F0E9
:101220000B0EE55D0BE18DEC1AF002E2E4EC1AF036
:1012300005E3110E24EC19F00C0EE56F040EE55DCC
:101240005FE1DFEC1AF0D7EC18F05AE2F5EC1EF093
:1012500057E099EC1CF0F6EC18F0E85100184AE160
:10126000E951011847E1A5EC00F04CEC1CF0BCEC96
:1012700016F046EC1BF0DCEC19F068EC1AF002E218
:10128000E16AE552E16E0250A4EC1DF0EECFB8F534
:10129000EDCFB9F5BCEC16F00C0E77EC17F0EECFF5
:1012A000B2F5EECFB3F5EECFB4F5EFCFB5F505015E
:1012B000B22BB323B423B523C251C025026EC35150
:1012C000C121036E0250B825006E0350B921016E92
:1012D00001EC1EF0120E24EC19F0060EE56FE9EC9D
:1012E00016F002E2E16AE552E16E06500F01386B3A
:1012F000396B06D0040EDB2A050EA5E3DB2AA3D743
:10130000030EDB5009E0010EDB5002E0000E01D0BD
:10131000010EE66EA0EC1BF00501E6B933D0070E16
:10132000E55D01E0DFD08FEC18F001E0DBD00501D6
:10133000E651070B06081AE1E651080B01E0010E21
:10134000E76E030EE7CFDBFFDFCFE6FF6CEC02F0CA
:10135000E552DFCFE6FF6CEC02F0E552030EDB5006
:1013600001E0C0D005010E0EE56FBCD0A5EC00F089
:10137000020EE66E100E7FEC17F0DBEC17F0F2ECCD
:101380001AF0B0D08FEC18F001E0ACD0A5EC00F072
:101390000501E5510C0A69E0060A62E0030A6FE004
:1013A000010A59E00F0A4EE00C0A4CE00D0A41E038
:1013B000030A3DE0060A11E0010A69E139ECB6F0E2
:1013C00020C0E1F521C0E2F5DCEC19F004ECA5F059
:1013D000E552E5520501030E28D0C40EE66E050E57
:1013E000E66EDCEC19F059ECA5F097EC1EF0000964
:1013F00015E139ECB6F00501E151205C006EE251D7
:101400002158016E0050AA5D0150AB5940E2060E12
:10141000CD5D02E2C9EC1BF0020E07D0020E24ECF7
:1014200019F0010EDB6A0501050EE56F30D0020EE2
:1014300020D0020ECD5D02E2120E1BD0E6B71FD007
:10144000020E06D0050ECD5D0EE3080EE56F110EFF
:10145000F36E030E1AD0050ECD5D11E2110E09D008
:10146000050ECD5D0CE2100E04D0050ECD5D07E239
:10147000110E24EC19F0DE52010EDD6E08D0140EB0
:1014800024EC19F0010EF36E020EF3CFDBFF030E16
:10149000DB5023E0010EDB501CE0C9EC1BF074ECC8
:1014A0001AF0016E026A036A01AE02D00268036894
:1014B00078EC18F05FEC1DF008E2C0EC1DF001AE16
:1014C00002D00268036878EC18F03DEC1CF0E66A84
:1014D00002D0010EE66EA0EC1BF0020EDB5002E023
:1014E0009EEC0FF0DF2A5AD6DFEC1AF0D7EC18F09A
:1014F00030E2F5EC1EF02DE0BCEC16F0120E77ECAD
:1015000017F024EC1AF068EC1EF039ECB6F090EC11
:101510001BF0205C006E03502158016EDC0ED88059
:101520000054010E01540FE2E9EC16F002E2E16A08
:10153000E552E16E06500F01386B396B040EDB0685
:10154000050E01E2DB06040EDB2A050ECFE3DB2AE3
:10155000CDD7060EE15C02E2E16AE552E16EDEEF14
:1015600016F0D0EC16F0250EE12402E3E168E65215
:10157000E16ED7EC16F0FCEC1AF0170EEECFDBFFA5
:10158000E6EC17F0180EEECFDBFF190EEECFDBFF07
:101590001A0EEECFDBFF1B0EEECFDBFF1C0EDB6A5D
:1015A000060EF36E1D0EF3CFDBFFC0EC1AF01E0E1D
:1015B00022C0DBFF1F0E23C0DBFF1E0EDBCFE6FFCA
:1015C0001F0ED0EC1BF01E0EF3CFDBFF1F0ED7EC6F
:1015D0001BF0140F45EC1DF0200E00C0DBFF210EA8
:1015E00001C0DBFFC7EC1AF0ECEC89F0E552E552E4
:1015F000220EF3CFDBFF230EF4CFDBFF200EDBCF79
:1016000000F0210EDBCF01F0220EDB50001849E183
:10161000230EDB50011845E1000EDEEC1BF0140E2A
:10162000BCEC1AF053EC8BF097EC1EF00CEC1DF0B8
:1016300060EC0FF0E552E552D9500C0FE4EC16F0D7
:10164000A3EC19F0006E016A140E005E000E015A40
:10165000240E00C0DBFFDB50026E036AC0EC1AF000
:101660000250225C006E03502358016E140E005E7F
:10167000000E015AF80E00C0DBFFF90E01C0DBFFBF
:10168000CBEC17F00CEC1DF0CCDA97EC1EF0000957
:1016900008E0C7EC1AF00CEC1DF0DDEC0FF097EC55
:1016A0001EF0F5EC87F0010E006E250EE15C02E203
:1016B000E16AE552E16E0050DEEF16F0D0EC16F074
:1016C0002A0EE12402E3E168E652E16EA5EC00F0A7
:1016D000FD0EDBA004D00501E787FD0EDB900501C0
:1016E000E69BE69DE69FE793E795E791E1EC87F0BF
:1016F0000009FCE0FD0EDB50060B05E0260EDB6A60
:10170000270EDB6AEFD00501B651D51910E1B751AC
:10171000D6190DE1260EDB6A270EDB6AE7A7E2D0B9
:10172000BC51BD1101E1DED0FD0EDB80DBD0D55117
:10173000B65DD651B7593CE2B651D55D006ED65173
:10174000B755FBEC18F003E374EC1AF004D0F4EC9A
:1017500017F048EC1AF0BAEC1CF002E2FFEC19F0BA
:10176000CFEC1EF002E250EC1AF0E7A713D0E8EC41
:1017700018F0280EDB50001803E1290EDB50011889
:1017800009E032EC1DF0EE1802E1020EED1802E065
:10179000FD0EDB80260EDBCFE6FF270EA2EC18F055
:1017A00002E2E16AE552E16E0050D4EC1DF09AD0FD
:1017B000B651D15D006ED251B755A8EC1BF0240E86
:1017C000DB50D525026E250EDB50D621036ECF519E
:1017D000025C006ED0510358FBEC18F003E374EC8C
:1017E0001AF004D0F4EC17F048EC1AF0BAEC1CF044
:1017F00002E2FFEC19F0CFEC1EF002E250EC1AF01E
:10180000E7A713D0E8EC18F0280EDB50001803E12E
:10181000290EDB50011809E032EC1DF0EE1802E150
:10182000020EED1802E0FD0EDB80240EDBCF00F08F
:10183000250EDBCF01F0260EDBCF02F0270E7BEC6E
:1018400017F004E2C4EC19F0E5EC1BF071EC1EF0AB
:10185000A2EC18F002E2E16AE552E16E0050260EB9
:10186000DBCF02F0270EDBCF03F0240E0AEC1FF0D3
:10187000250EDB500358A8EC1BF0D950240F7BEC4D
:101880001CF027E071EC1EF0DBCFE6FFEAC5E6FFB7
:10189000CFC5E6FFD0C5E6FFE66A0501B651D15DCA
:1018A000006ED251B755016E026A036A070E002618
:1018B0000A0E0122000E0222032276EC1EF005EC35
:1018C00016F0046E080EE15C02E2E16AE552E16E98
:1018D0000450D4EC1DF0D151B65DD251B75902E39A
:1018E00008EC1EF0D950260F7BEC1CF004E1FD0E35
:1018F000DB50030B16E0D950260F7BEC1CF002E006
:10190000FD0EDB86FC0EDBA008D00501CD6BF20ED0
:10191000AA6F9E0EAB6FAC6BAD6B2EEC19F0E68927
:1019200030D0FC0EDBA21ED0E60EE96E050EEA6E8C
:10193000EF50070BE82AE850070BF36EF46EF80E31
:10194000EF14F310EF6EF4500501AE07000EAF5B1D
:10195000B05BB15B010EF36E260EF3CFDBFF270EFB
:10196000DB6A0FD00501E6A90CD0DBB008D0CD5161
:1019700006E0CD07D890AD33AC33AB33AA332EECB1
:1019800019F0020EBAC5DBFF030EBBC5DBFF040E68
:10199000B8C5DBFF050EB9C5DBFF060EAEC5DBFF24
:1019A000070EAFC5DBFF080EB0C5DBFF090EB1C5E2
:1019B000DBFF0A0EB2C5DBFF0B0EB3C5DBFF0C0E5F
:1019C000B4C5DBFF0D0EB5C5DBFF0F0EDB9CDB9E48
:1019D0000E0EDB90DB92DB94DB96FD0E75EC1BF0BC
:1019E000140EDB6A150EDB6AE8EC18F0B0EC1BF0A5
:1019F000FD0EDBA215D0DBB808D00A0EDB6A0B0E99
:101A0000DB6A0C0EDB6A0D0EDB6ACCA303D0B7ECED
:101A10001EF006D0AE2B000EAF23B023B123CC8333
:101A2000FD0EDBA00BD0CCA103D0B7EC1EF006D08E
:101A3000AE2B000EAF23B023B123CC8181EC1BF081
:101A400003E3B1EC18F002D006EC1BF0100E00C05E
:101A5000DBFF110E01C0DBFF25EC88F0B7EC1DF0B9
:101A6000400E005EECEC1BF0E1EC19F00001800E82
:101A7000011402E0DE6ADD6ACBEC19F014EC1BF015
:101A800008E29CEC17F0100EEECFDBFF110EEDCF4D
:101A9000DBFFD950020FE6EC19F012DAE552E552FD
:101AA000F9EC1EF0140EEE26000EED220E0EDB8871
:101AB000DB9ADB8CDB9EFD0EDBA22DD0F9EC1EF059
:101AC000040EEE26000EED22020EF36E160EF3CF7C
:101AD000DBFF040EF36E170EF3CFDBFF020EF36E87
:101AE000180EF3CFDBFF140E42EC1CF0010E006E5B
:101AF000D9500E0FE4EC16F00FEC1EF000240F0B83
:101B0000F36EF46EF346F346F346F3460F0EEF140E
:101B1000F310EF6EF4501A0E00CEDBFF1B0E01CE59
:101B2000DBFF1C0E02CEDBFF1D0E03CEDBFF1E0E05
:101B3000C0C5DBFF1F0EC1C5DBFF200EC2C5DBFF2A
:101B4000210EC3C5DBFF220EDB6A060EF36E230EE9
:101B5000F3CFDBFFC4EC19F0E5EC1BF071EC1EF0E9
:101B6000D0EC1BF0240EF3CFDBFF250ED7EC1BF0DF
:101B70001A0F45EC1DF0120E00C0DBFF130E01C062
:101B8000DBFFDF0EE66E090EE66EB0EC89F04FEC7F
:101B90001BF0060EE66EDCEC19F069ECAEF0006EA0
:101BA000050EE15C02E2E16AE552E16E0050140EBE
:101BB000E66EE66AD950020FE6EC19F0D2EC19F0A5
:101BC000FD0EDBA209D0040EE66EE66AD950160FB0
:101BD000E6EC19F0D2EC19F0F30EE66E090EE66EA3
:101BE000BAEC89F04FEC1BF0ECEC89F0E552E552D1
:101BF000FDEC1EF0030EE66E0A0EE66EB0EC89F008
:101C0000E552E552020EBCEC1AF0D2EC19F090EC61
:101C100089F02A0EE15C02E2E16AE552E16EDEEF54
:101C200016F011EC1DF002E3E168E652E16E50ECB3
:101C30001CF0EE50ED1001E1AAD0DE52FE0EDD6E7A
:101C4000E6EC17F0020E77EC17F0EECF06F0EFCFD0
:101C500007F0E6EC17F00650EE24046E0750EE2075
:101C6000056ED7EC16F00450EE24026E0550EE20FF
:101C7000036E50EC1CF00250EE18006E0350EE188C
:101C8000016E53EC18F0DF6A43EC18F047E2D6EC33
:101C900019F00D0E0501E55D3FE0040EE55D0CE178
:101CA000B4EC1EF00050E81937E10150E91934E1B5
:101CB000010EDFCFDBFF30D0E8C500F0E9C501F051
:101CC000020EDB50001828E1030EDB50011824E15E
:101CD000A5EC00F0B4EC1EF00501BA5100181CE1AF
:101CE000BB51011819E1D7EC16F024EC1AF0B851E9
:101CF000021812E1B95103180FE1E6EC17F0EE50AB
:101D0000C0190AE1EE50C11907E1EE50C21904E111
:101D1000EE50C31901E12DE0DF2AB6D7010EDB50EA
:101D2000FE0829E0010EDBCFE6FF70EC00F0E55283
:101D3000A5EC00F0010EDB50FE081DE0020EDBCF2B
:101D4000E8F5030EDBCFE9F579EC1DF002E2E16A7C
:101D5000E552E16E0050D7EC16F0EECFB8F5EDCFBE
:101D6000B9F550EC1CF0EECFBAF5EDCFBBF547EC72
:101D70001CF0010E9BD0D7EC16F00D0E77EC17F08F
:101D8000EF50020B04E00F013851391102E0000E50
:101D90008DD0DFEC1AF0D7EC18F036E2F5EC1EF03F
:101DA00033E099EC1CF0F6EC18F050EC1CF024EC4D
:101DB0001AF00250001822E1035001181FE1A4ECB0
:101DC0001DF0F6EC18F0D7EC16F024EC1AF00250E7
:101DD000001814E10350011811E1E6EC17F098EC3B
:101DE0001DF0EE500001001808E1EE50011805E169
:101DF000EE50021802E1EE50031849E0040EDB2A0F
:101E0000050EC9E3DB2AC7D7DF6A43EC18F04DE2C1
:101E1000D6EC19F00501E6A746D0A5EC00F0B4EC2D
:101E20001EF000500501BA193EE10150BB193BE11B
:101E30004CEC1CF0EDEC17F0BCEC16F046EC1BF093
:101E400068EC1AF002E2E16AE552E16E0250D7EC6A
:101E500016F0F6EC18F0A4EC1DF000C0EEFF01C087
:101E6000EDFFD7EC16F0040E77EC17F098EC1DF0B0
:101E70000C0E77EC17F000C0EEFFADEC1EF0B4ECEA
:101E80001EF099EC1CF000C0EEFF01C0EDFF39EC34
:101E9000B6F021C001F0BCEC16F0120E7BEC1EF087
:101EA00001C0EDFF03D0DF2AB0D7000E006E060E92
:101EB000E15C02E2E16AE552E16E0050DEEF16F00D
:101EC000D0EC16F0D7EC16F089EC1EF0D7EC16F03B
:101ED000E9EC1AF050EC1CF089EC1EF050EC1CF010
:101EE00002EC1FF0040E5CEC1CF0040E7BEC1EF008
:101EF000ADEC1EF0D7EC16F0080E5CEC1CF0080EF2
:101F00007BEC1EF0ADEC1EF0FEEC1CF089EC1EF03C
:101F1000FEEC1CF002EC1FF0100E12EC1FF0100E85
:101F200077EC17F002EC1FF0120E12EC1FF0120EFD
:101F300077EC17F0E9EC1AF0DEEF16F0A5EC00F004
:101F4000BAC5E8F5BBC5E9F5DAEC1AF0CFC5D7F5A7
:101F5000D0C5D8F5D1C5D9F5D2C5DAF533EC1CF02A
:101F60000501E651080B02E0040E01D00D0EE56FED
:101F7000E691E693E695E699E69BE69DE69FE79176
:101F8000E793E795E797E789CC91CC93CC97CC99E9
:101F900047EC1CF0C1ECB4F0F3CFAEF5F4CFAFF5E5
:101FA000C1ECB4F0F3CFB0F5F4CFB1F50501CA69D7
:101FB000CB69010EBC6FBD6B1200D0EC16F01A0E8F
:101FC000E12402E3E168E652E16ED7EC16F00D0E73
:101FD00077EC17F00E0EEFCFDBFFD7EC16F0080E04
:101FE00077EC17F00F0EEECFDBFF100EEECFDBFF1E
:101FF000110EEECFDBFF120EEECFDBFFD7EC16F0AB
:10200000040E77EC17F0130EEECFDBFFFCEC1AF0AA
:102010000501E691E693E695E6B904D0DBEC17F00E
:10202000F2EC1AF0E551050A23E0010A10E0CEECCB
:102030001AF0170E22C0DBFF180E23C0DBFF0E0EB6
:10204000DBA04AD0170EDB2A180E46E344D00E0E52
:10205000DBB41AEF15F0DBA805D032EC18F0E66A15
:10206000040EA1D2DBA21AEF15F00AEC19F029D068
:102070000E0EDBB421EF15F0DBA810D016EC1EF02D
:1020800001E01BD1EE50AF1901E017D1EE50B019AD
:1020900001E013D1EE50B11901E00FD10E0EDBA219
:1020A00021EF15F00AEC19F0D5EC1EF00E0EDBA8AE
:1020B00008D0F9EC1CF00501070EE56FE69921EF59
:1020C00015F0010EE66E120E7FEC17F00501060EFC
:1020D000E56F21EF15F0DB2A0E0EDBA205D0170EFF
:1020E000DB2A180E01E3DB2A81EC1BF003E3B1ECE1
:1020F00018F002D006EC1BF00C0E00C0DBFF0D0E3A
:1021000001C0DBFFD950130FE4EC16F0B251EE5CC6
:10211000006EB351EE58016EB451EE58026EB551D7
:10212000EE58036E1DEC1EF0080E02C0DBFF090E18
:1021300003C0DBFF060EDBCF22F0070E22EC1BF004
:10214000190EDB6AD950170F7BEC1CF06EE0D950EA
:102150000C0F7BEC1CF001E183D0DBEC1EF002E6FF
:1021600058EC1BF005E38FEC1EF0A8EC19F040E3EF
:10217000170EDBCF00F0180E15EC1AF077EC1CF000
:1021800061EC1BF00334000E031809E6D880000E42
:102190000054000E0154000E0254000E03542BE2B2
:1021A0000C0EDBCF08F00D0EDBCF09F0170EDB5065
:1021B000085C046E180EDB500958056E066A076A43
:1021C00005AE02D00668076877EC1CF0030EEBCF73
:1021D000F3FF0750F318E8AE02D0F33408D0EE5006
:1021E000045CEE500558EE500658EE50075803E3D5
:1021F000010E42EC1CF08FEC1EF0030EEB500318A6
:10220000E8AE02D0033402D0A8EC19F029E2170E90
:10221000DBCF06F0180E98EC1AF0E83421E20450F7
:102220000008000E05541CE218D024EC1EF0080E25
:10223000DBCF02F0090EDBCF03F0005001100210DB
:1022400003100BE0DBEC1EF002E658EC1BF008E399
:102250008FEC1EF0A8EC19F003E2010E42EC1CF02A
:10226000190EDB5005E10E0EDBB4EBD31DEF15F0BC
:102270000E0EDB50060B01E0DDD30E0EDBA8E1D322
:10228000E5510C0A01E1A8D10B0A39E00F0A37E049
:10229000010A35E0020A33E0010A31E00C0A01E0EC
:1022A000AED116EC1EF008E1EE50AF1905E1EE508C
:1022B000B01902E1EE50B11920E0130EAEC5DBFFFC
:1022C000140EAFC5DBFF150EB0C5DBFF160EB1C592
:1022D000DBFF32EC18F0010EE66E040E7FEC17F017
:1022E000130EDBCFAEF5140EDBCFAFF5150EDBCF43
:1022F000B0F5160EDBCFB1F5A4D3070EE56FB651DE
:10230000D55D006ED651B755016E95EC17F0040EF1
:102310007BEC1BF006E0B5EC17F0D950040F70EC25
:102320001CF0040EDBCF00F0050E15EC1AF0AE0E1B
:10233000E96E050EEA6E61EC1BF06CEC18F0DEEC59
:102340001CF00450EE5C006E0550EE58016E065015
:10235000EE58026E0750EE58036E0001800E031413
:1023600002E0E66A6CD30501D751B65D046EB75141
:10237000D855056E066A076A05AE02D0066807687A
:102380000450AE5D006E0550AF59016E0650B05955
:10239000026E0750B159036E6CEC18F05FEC1DF043
:1023A0000CE2C0EC1DF09CEC17F00050EE5E01500A
:1023B000EE5A0250EE5A0350EE5ADEEC1CF0EE508C
:1023C000045C006EEE500558016EEE500658026E29
:1023D000EE500758036E6CEC18F0DECF21F0DECF24
:1023E00022F0DECF23F0DDCF24F0DD52DD522434A5
:1023F000000E241809E6D880000E2154000E225445
:10240000000E2354000E24545BE2C0EC1DF09CEC43
:1024100017F0EE50005CEE500158EE500258EE50AE
:1024200003584EE3CC97CC99E791040ED7C5DBFF58
:10243000050ED8C5DBFF9CEC17F0EE50D727EE5009
:10244000D823B8EC1BF0B65D0150B75909E35FEC37
:102450001DF023E2B651D75D006ED851B75518D0A4
:10246000F4EC17F0B6510224006EB7510320016E50
:1024700095EC17F055EC1CF0D751005CD851015881
:102480000CE2040EDB50D75D006E050EDB50D85910
:10249000016EB0EC1BF03DEC1CF0D151D75DD25178
:1024A000D85906E3B5EC17F00050D75F0150D85B60
:1024B000D151B65DD251B75928E308EC1EF025D0B2
:1024C000B651D71902E1B751D8191FE0CCA71CD0DB
:1024D000CCA919D074EC1AF0016E026A036A01AE3D
:1024E00002D00268036878EC18F05FEC1DF008E297
:1024F000C0EC1DF001AE02D00268036878EC18F061
:102500003DEC1CF0E785CC89CC87D551D71917E174
:10251000D651D81914E1E7B702D0E69910D08CEC67
:102520001CF00DE1AF51EE180AE1B051EE1807E1D1
:10253000B151EE1804E103E1E699E797CC91BC5163
:10254000BD1106E1FEEC1CF0EE50ED1001E0E7835A
:10255000D5EC1EF0080EE55D1CE18CEC1CF04FE1A3
:10256000AF51EE184CE1B051EE1849E1B151EE18FF
:1025700046E145E1DBEC17F0BA0E0501DD271A0E46
:10258000DE23030EDF23000EE023E689090EE56F4C
:1025900036D0090EE55D0AE10E0EDBB030D032EC2C
:1025A00018F0E66A140E7FEC17F044D20A0EE55DCF
:1025B00026E18CEC1CF001E044D2AF51EE1801E0B2
:1025C00040D2B051EE1801E03CD2B151EE1801E01A
:1025D00038D201E036D22ED28CEC1CF001E031D2A0
:1025E000AF51EE1801E02DD2B051EE1801E029D222
:1025F000B151EE1801E025D201E023D21BD20E0E1C
:10260000DBBA1FD20B0EE55D01E11BD20A0EE55DC0
:1026100001E117D20C0EE55D01E113D2D950FA0F9A
:102620008AEC17F001E188D1EFEC18F0013402E2F6
:10263000E4EC1AF001E2ACD0DCEC1DF0026E036AAF
:102640000A0EDB50F35C006E0B0EDB50035864EC9B
:102650001DF0ECECAEF0E552E552EFEC18F0D9507D
:10266000FA0FD5EC17F0ED22F3EC1BF00C0EDBCFDC
:1026700002F00D0E7BEC17F00CE20C0EDBCF22F01B
:102680000D0EDBCF23F0FA0E22C0DBFFFB0E23C0C2
:10269000DBFFF3EC1BF000500501FAEC1BF0FA0E27
:1026A000DB50D925006EFB0EDB50DA21016E16ECF3
:1026B0001DF021E2D951EEEC1AF0DA55F1EC1EF0E2
:1026C000DDEC18F078EC19F002E2E16AE552E16E17
:1026D0000050BCEC17F002E2E16AE552E16E0450F2
:1026E000E1EC1EF0016E0501D1510024D96FD251E9
:1026F0000120DA6F10D0EDEC17F078EC19F002E25F
:10270000E16AE552E16E0050CEEC1AF0225005016C
:10271000D9272350DA23CA1D01E1CB1D01E10CD1D9
:10272000CEEC1AF02250CA5F2350CB5BBE51CA25B3
:10273000006EBF51CB21016E95EC17F0040EDBCF7C
:1027400000F07BEC1BF021E1CB3504E2CA5100081C
:10275000000ECB5501E2F0D0B8EC1BF0FAEC1BF008
:10276000040EDBCF22F0050EDBCF23F02250D92759
:102770002350DA23D951D35DDA51D45906E287ECDC
:102780001CF00050D95F0150DA5BCA69CB69D4D024
:10279000EFEC18F0013401E3CFD0E4EC1AF001E3E0
:1027A000CBD00A0EDBCF02F00B0EDBCF03F06AECCE
:1027B0001BF00C0EDBCF04F00D0EB1EC1AF00EE2A4
:1027C0000C0EDBCF02F00D0EDBCF03F06EEC1BF036
:1027D000FA0E00C0DBFFFB0E01C0DBFFDCEC1DF0DE
:1027E000DEEC1BF00A0EDB50050101EC1CF06AEC7C
:1027F0001BF016EC1DF03EE2D951D35D026ED451B0
:10280000DA55036E24EC1CF06EEC1BF08EDB040E2C
:102810007BEC1BF010E1DDEC18F024EC18F002E288
:10282000E16AE552E16E0250A7DB02E2E16AE5529D
:10283000E16E045026D0D1DB35EC1DF00A0EDB50E2
:1028400001EC1CF0D151D35D046ED451D255056E0C
:10285000010E0426000E05222CEC1DF064EC1DF088
:10286000D4D9066E080EE15C02E2E16AE552E16E3F
:10287000065007D0B2DBE8DB02E2E16AE552E16E26
:1028800002500501CA1D07E1CB1D05E10FEC1CF04C
:1028900008EC1CF051D0EFEC18F0CA51005CCB51A1
:1028A000015825E2B2DB13E3FA0EDBCF08F0FB0E92
:1028B000DBCF09F00A0EDB500824066E0B0EDB504E
:1028C0000920076ECA51065CCB51075803E208EC99
:1028D0001CF00AD016EC1CF00A0EDB50005CBE6F38
:1028E0000B0EDB500158BF6F0FEC1CF025D08DDBB9
:1028F00023E2EFEC18F0CA51BE25026ECB51BF2186
:10290000036E0050025C0150035816E3FA0EDBCF51
:1029100006F0FB0E98EC1AF0CA51045C026ECB5123
:102920000558036EBE51025C006EBF510358016E24
:102930000050BE270150BF23D950170F7BEC1CF06D
:1029400017E0070EE55D02E029EC1CF0E6AF05D0CC
:10295000F9EC1CF0A5EC00F00BD0E68FE6BD08D03A
:10296000E68D1DEC1CF00F0E0501E327000EE4239D
:102970000E0EDBA066D0B2C500F0B3C501F0B4C541
:1029800002F0B5C503F0002A000E01220222032244
:10299000170EDBCF04F0180EDBCF05F0066A076ACE
:1029A000D950130F11DAEE500426EE500522EE50E6
:1029B0000622EE5007220050041843E1015005188A
:1029C00040E1025006183DE1035007183AE139E1B1
:1029D0000501B22B000EB323B423B523E551090A38
:1029E00026E0010A14E00F0A08E0010A26E10C0EB5
:1029F000E56F010EE66E110E23D00B0EE56F1DEC98
:102A00001CF01F0E0501E327000EE42316D08CEC0A
:102A10001CF00AE1AF51EE1807E1B051EE1804E1E5
:102A2000B151EE1801E103E00A0EE56F06D0E66A47
:102A3000100E65DA9EEC0FF004D0010EE66E100E5B
:102A40005EDA1A0EE15C02E2E16AE552E16EB6D1AD
:102A500011EC1DF002E3E168E652E16E04DABCEC31
:102A60001DF007E1010EF36EFB0EF3CFDBFFFC0E52
:102A7000DB6A0501CF51EEEC1AF0D055016E00066D
:102A8000ECEC1BF07FEC19F0DECF04F0DDCF05F0AD
:102A900080EC1EF06BE3A5EC00F0F80EDB50030BAE
:102AA00003E1F80EDB80DB82B5EC1AF0040E22C0E5
:102AB000DBFF050E23C0DBFF7FEC19F0AEEC1DF051
:102AC000F80EDBA20ED0DBA006D0E1EC19F0D89016
:102AD0000132003202D0E1EC19F0D950040F70EC51
:102AE0001CF0040EDB500501CF25006E050EDB50F7
:102AF000D02115DA00C0DEFF01C0DDFF020ED9C50E
:102B0000DBFF030EDAC5DBFFCA1D01E1CB1D10E0C0
:102B100016EC1CF0D950020F70EC1CF0CFD916EC5B
:102B20001DF006E287EC1CF0D950020F0EEC1FF0EE
:102B3000C5D90050DB5D0150DC590BE2E1EC19F026
:102B40000050DB5D0150DC591BE2F80EDBB40ED007
:102B50000FD02BEC1EF00CE2E1EC19F00050D15D2F
:102B60000150D2590DE2F80EDBA402D0000E44D081
:102B7000DECFDBF5DDCFDCF5DECFD9F5DDCFDAF565
:102B80002BEC1EF027E2F80EDB50040B23E0020EC4
:102B9000DBCF22F0030EDBCF23F0D151225C006E9D
:102BA000D251235885EC1AF00FDB26EC1DF002E21F
:102BB000E16AE552E16E0250050181EC1BF00AE288
:102BC000DE50D15D006EDD50D259016E0050D95FEC
:102BD0000150DA5BDECFD1F5DDCFD2F547EC1CF04A
:102BE000CFC5D7F5D0C5D8F5DAEC1AF0070EE55DFC
:102BF00002E1F9EC1CF0010E006E060EE15C02E24F
:102C0000E16AE552E16E0050D9D0CAD8F80EDB5027
:102C10001BE0010A40E1FB0EDB500CE0010A3BE146
:102C20002EDAB9D96EEC1AF002E2E16AE552E16EF1
:102C3000005031D0D950FC0FF3DB02E132EC1EF032
:102C40001EDA93EC8BF014D0FB0EDB5014E0010A7B
:102C500022E1D950F90FE4DB06E1F2EC1CF0BAEC0A
:102C600089F0E552E55239EC1EF095D953EC8BF022
:102C700097EC1EF010D003DA8ED9A4EC8AF0006E27
:102C8000060EE15C02E2E16AE552E16E00504BECB7
:102C90008BF00009FCE092D083D8120EE12402E30D
:102CA000E168E652E16EFB0EDB5014E0010A5DE1E3
:102CB000F60EDBCFE6FFF70E5CEC1AF06CD96BEC8E
:102CC000ACF0006E070EE15C02E2E16AE552E16EF3
:102CD00000504BD0D950FC0FA3DB02E132EC1EF0C8
:102CE000100EF36EDB6E110EDB6AD950F60F12D99F
:102CF0003CE051DBF60EDBCF02F0F70EFCD80CE225
:102D0000F60EDBCF22F0F70EDBCF23F0100E22C041
:102D1000DBFF110E23C0DBFF100EDBCFE6FF110E31
:102D2000CBDB0CEC1DF06BECACF0006E070EE15C45
:102D300002E2E16AE552E16E0050100EDBCFE6FFE1
:102D4000110EDBCFE6FF0CEC1DF02CDB24DB026A5E
:102D5000D950F80F2AD9EE220250EE221CDBD950AE
:102D6000F60FA6EC1CF01CD9C0D7120EE15C02E2F3
:102D7000E16AE552E16E22D0040EDBCFE9FF050ED9
:102D8000DBCFEAFF140EEA02F3CFEAFFE902F3CF4A
:102D9000E9FFF450EA26000EE9260F0EEA2212009F
:102DA0000CEC1DF0E1CFD9FFE2CFDAFF1200FC0EF0
:102DB000DBCFE9FFFD0EDBCFEAFF1200E552E5CFE6
:102DC000DAFFE7CFD9FF1200E96E000EDA20EA6ED3
:102DD000120055EC1CF0020ED8800056000E015671
:102DE000140E0102F3CF01F00002F3CF00F0F45013
:102DF0000126F3CFE6FF01C0E6FF010EE66EE76EA7
:102E000040EC1EF0E7500226000E0322140E0302CF
:102E1000F3CF03F00202F3CF02F0F4500326000ECA
:102E200002260F0E032268EC1EF0010EE66E040E61
:102E3000DBCF04F0050EDBCF05F0140E0502F3CF57
:102E400005F00402F3CF04F0F4500526000E04262A
:102E50000F0E052204C0E6FF05C0E6FFD6DE066EB3
:102E6000080EE15C120069EC1DF070EC00F0E55218
:102E70001200EDEC1EF0EFCFF6FFEE2AEFCFF7FFDA
:102E8000000EEE22EFCFF8FFEE2208000E0EF5CF77
:102E9000DBFF1200E68B39ECB6F020C000F021C059
:102EA00001F0026A036A060E0026000E01220222C9
:102EB000032200C0E1F501C0E2F51200020EE7EFC7
:102EC0001EF0160E006E710E016E010E026EDFCF47
:102ED00003F0046A056A060E266E276A286A03C094
:102EE00021F004C022F005C023F0CBEFA2F0E926C8
:102EF000000EEA221200DBCF03F0A9EF1DF0E66E10
:102F00005EEC0BF0E552E5521200E66E80EC1CF030
:102F100093EF1CF0A6EC1CF0EE50ED101200016EC9
:102F2000010E0026000E01221200040E00C0DBFF7D
:102F3000050E01C0DBFF1200D9CFE9FFDACFEAFFAF
:102F4000120000501E24F36E01501F20F46E025038
:102F50002020F86EF4CFF7FFF3CFF6FF120069ECF4
:102F60001DF0D1EC02F0E5521200CF51D15D006EA0
:102F7000D251D055016E1200E1EC1EF064EC1DF050
:102F800035EC1DF0D1C5E6FFD2C5E6FF3EDE046E8E
:102F9000080EE15C1200FC0EDBCFE6FF69EF1DF0CE
:102FA0000050EE5E0150ED5A1200A6EC1CF00050ED
:102FB000EE26015012002FECB6F020C0DDF521C046
:102FC000DEF522C0DFF523C0E0F51200FA0EDBCFFC
:102FD000E9FFFB0EDBCFEAFF1200FA0EDBCFE6FFC4
:102FE000FB0EDBCFE6FF1200CF51D15D026ED25156
:102FF000D055036E120069EC1DF08EEC04F0E55222
:103000001200E552E552B7EF1DF0FA0EDBCF02F0E9
:10301000FB0EDBCF03F00A0EBEEC1EF00B0EDB50F6
:103020000320016ECA51BE25046ECB51BF21056E2F
:1030300080EF1EF0FA0EDBCFE6FFFB0EDBCFE6FFE4
:10304000FC0EDBCFE6FF120035EC1DF00A0EDB5064
:10305000D925006E0B0EDB50DA21000164EC1DF067
:1030600026EF1DF00F0EDBCFAEF5100EDBCFAFF568
:10307000110EDBCFB0F5120EDBCFB1F5120039EC3B
:103080001EF0F2EF1CF0DF50006E016A060E005CCD
:10309000000E01581200FB0EDBCFE9FFDB2AFC0E0D
:1030A000DBCFEAFF1200020E00C0DBFF030E01C0FF
:1030B000DBFF1200FDEC1EF04FEC1DF0DE50025C59
:1030C000006EDD50035856EC1DF0040EE15C12005A
:1030D00047EC1EF093EF1CF000C0DFFF010E01C0B3
:1030E000DBFF020E02C0DBFF030E03C0DBFF12009A
:1030F0000050AE5F0150AF5B0250B05B0350B15B5C
:103100001200DBCFF4FFF350F45C1200DB50DC2143
:10311000016E1DEC1EF024EC1EF016EF1DF02FECDE
:10312000B6F00501DD51205C006EDE512158016EC4
:10313000DF512258026EE0512358036E0001800EC9
:1031400003141200DBCFE6FFEAC5E6FFB6C5E6FFD3
:10315000B7C5E6FFE66A070EE66E0A0EE66E93EF67
:103160001CF0D151D35D026ED451D255036EDB51A8
:10317000D95D046EDA51DC55056E2CEC1DF0016E44
:103180001200E00E006E0D0EDBCFE7FF0050E726C9
:103190000D0EE7CFDBFF1200E00E006E0E0EDBCF50
:1031A000E7FF0050E7260E0EE7CFDBFF12007DDBC6
:1031B000030E005C000E01581200040EDBCFE6FF88
:1031C000050EDBCFE6FF1200EAC5E6FF63EF1EF057
:1031D000260EDBCF00F0270EDBCF01F012000A0E27
:1031E000DBCF00F00B0EDBCF01F01200EECF00F0D2
:1031F000EFCF01F01200016E260E00C0DBFF270E9C
:1032000001C0DBFF280EBCC5DBFF290EBDC5DBFFFF
:103210005FEF1DF0130EDBCFB2F5140EDBCFB3F56D
:10322000150EDBCFB4F5160EDBCFB5F5B22B000EC5
:10323000B323B423B52312000024E96E000E01204D
:10324000EA6EEF50F36E1200F36E030EF3CFDBFF66
:103250001200036E8BEC1DF001EF1EF02FECB6F0A8
:1032600020500501AA25DD6F2150AB21DE6F2250D1
:10327000AC21DF6F2350AD21E06F120040EC1EF057
:10328000DE500224006EDD50032000C0F3FFF46E18
:103290001200F3CFDBFFDBCF00F0040EDBCF01F039
:1032A000050EE3EF1DF04EEC1EF0F90E22C0DBFF21
:1032B000FA0E23C0DBFF0F0EDB501200060EDBCF31
:1032C00004F0070EDBCF05F0080EDB50045C026E45
:1032D000090EDB500558036E12004EEC1EF0F80E7E
:1032E00022C0DBFFF90E23C0DBFF100EDB50120003
:1032F000BCDBD9C5E6FFDAC5E6FF93EF1CF087DB40
:10330000DBCF03F0FB0EBEEC1EF0FC0E06EF1FF051
:10331000DBCF23F0060E22C0DBFF070E23C0DBFF4E
:103320001200D950100F006E000EDA20016E0C0E44
:10333000DB501200D950110F006E000EDA20016E22
:103340000D0EDB5012000FEC1EF0040DF3501200B6
:103350000050EE5C0150EE580250EE580350EE580B
:103360001200B7DBDFEC02F0E5521200F90EDBCF02
:1033700000F0FA0EDBCF01F01200DBCF03F00250B9
:10338000005C035001581200260EDBCF22F0270EFE
:10339000DBCF23F01200100EDBCF00F0110EDBCFDD
:1033A00001F0120093EC8BF097EF1EF0DFCFE6FFF9
:1033B00070EC00F0E5521200C00EE66E050EE66EEF
:1033C0001200DECF00F0DDCF01F01200E66E000E3D
:1033D000DA20E66E1200EECFE6FFEFCFE6FF120036
:1033E0001C0DC5DB000E0026050E012276EF1EF037
:1033F000DBCF00F0020EDBCF01F0030EE4D3280E8A
:10340000DBCF22F0290EDBCF23F0260E22C0DBFF1C
:10341000270E23C0DBFF1200D8900332023299D36B
:1034200095DAEE52EF50800B1200DBCF01F0026A0A
:10343000036A1200DBCFDEFFDBCFDDFF1200DB50C3
:10344000006E016AD9501200EECF02F0EFCF03F008
:103450001200E66EA5511C0DF3CFE9FFF4CFEAFF91
:10346000000EE926050EEA22120047EC1EF014DCDD
:10347000006E080EE15C1200DB500F010124E96EC2
:10348000000E0220EA6EEFCF00F0610E005C120029
:10349000B651D75D046ED851B755056E2CEF1DF0AF
:1034A000180EF36E260EF3CFDBFF020EF36E270E1F
:1034B000F3CFDBFFE7851200DBCFE6FFF80EDBCFB3
:1034C000E6FFF90EDBCFE6FFFA0EDBCFE6FF1200D8
:1034D00040ECACF0026E060EE15C120040ECACF089
:1034E000006E060EE15C1200D751B65D006EB7515A
:1034F000D8551200DE50D525006EDD50D621016E64
:10350000D151005CD25101581200DEDAEAC5E6FF63
:10351000D1C5E6FFD2C5E6FF120039ECB6F00501D1
:103520002050E35D006E2150E459016EE834120032
:10353000DBCF07F00A0EDB500624046E0B0EDB50C7
:103540000720056E1200020EF3CFDBFF030EF4CF4F
:10355000DBFF1200EAC5E6FFDBC5E6FFDCC5E6FFE0
:103560001200DBCF05F080EF1EF0F90EDBCF22F06A
:10357000FA0EDBCF23F01200E66EE66A0CEF1DF0C8
:10358000F80EDBCF22F0F90EDBCF23F01200F80E9D
:10359000DBCFE6FFF90EDBCFE6FF1200FA0EDBCF42
:1035A00022F0FB0EDBCF23F0120000C0F3FF01C0BE
:1035B000F4FF1200CFC5D5F5D0C5D6F51200040E24
:1035C000DB6A050EDB6A120000500008000E015491
:1035D0001200F3CFEEFF01C0EDFF1200D35D006ECD
:1035E000D4511200740E0501DD27350EDE23060EC0
:1035F000DF23000EE0231200140EEECFDBFF150ECA
:10360000EECFDBFF160EEECFDBFF1200D951DB5DF4
:10361000006EDC51DA55016E0006000E015A1200F0
:10362000E16E005055EF1CF0DECF02F0DDCF03F06D
:1036300090D2DBCF23F0020E22C0DBFF030E23C0AB
:10364000DBFF1200DBCF23F00A0E22C0DBFF0B0EE4
:1036500023C0DBFF1200D1C5DEFFD2C5DDFF040EA3
:10366000DB68050EDB681200DB500324E96E000EF8
:103670000420EA6EEF507A0812000D0EEFCFDBFF48
:10368000010EF36E0F0EF3CFDBFF1200E9CF00F057
:10369000EACF01F0E9CFE6FFEACFE6FF1200E552FC
:1036A000E552260EDBCFE6FF270EDBCFE6FF12004A
:1036B000000EEE5C000EEE58000EEE58000EEE58B6
:1036C0001200EE500026EE500122EE500222EE5083
:1036D00003221200FA0E52DBFB0E98D30A0E9ADB7D
:1036E0000B0EDB500358016E1200DB50E76E0F0E1D
:1036F000E7CFDBFF1200050EDBCF01F0800E0114D7
:103700001200DB51D95DDC51DA591200DBCF01F038
:10371000005001101200005E000E015A76EF1EF0FC
:10372000E552E7CF03F0E552E7CF02F00250120076
:103730000024E96E000E0120EA6E0250EF2612000E
:10374000030EDBCFE6FF5EEC0BF0E552E552120014
:10375000016E240E00C0DBFF250E01C0DBFF12004E
:103760000050AE270150AF23000EB023B12312004A
:103770009CD800501200D950FC0FE66EFF0EDA20E4
:10378000E66E1200080E22C0DBFF090E23C0DBFF2D
:103790001200CD2BD890AA37AB37AC37AD3712001B
:1037A000DBCFE6FF38EC78F0E552E5521200F4CFBB
:1037B000DBFF0C0EE66EE66AD9501200E66EE66A92
:1037C000ECECAEF0E552E5521200240E22C0DBFF15
:1037D000250E23C0DBFF1200000E015A00C0DEFFE1
:1037E00001C0DDFF1200FA0EDBCF00F0FB0EDBCFD5
:1037F00001F01200B2270150B323000EB423B52309
:103800001200D925026E0B0EDB50DA21036E120076
:10381000FA0EDBCFBEF5FB0EDBCFBFF512000A0EB2
:10382000DBCFCAF50B0EDBCFCBF51200CA51BE259C
:10383000006ECB51BF21016E120039ECB6F020C0F2
:10384000E3F521C0E4F51200010E0226000E03226A
:103850001200D9C5DBF5DAC5DCF51200E652E652F6
:10386000E652E6521200D1C5DBF5D2C5DCF51200F6
:10387000DB500501DB25006E1200D7C5B6F5D8C5B3
:10388000B7F51200F36E190EF3CFDBFF1200CFC5B0
:10389000B6F5D0C5B7F512000A0EE66EE66A12005C
:1038A000D7EC16F0020E77EF17F0040EDBCF00F026
:1038B000050EDBCF01F0120077EC17F0EECFE6FF3C
:1038C000EECFE6FF88DD57EC78F031DA20C000F06B
:1038D00021C001F022C002F023C003F0D7EF16F0A0
:1038E000E4EC16F00050EE260150ED221200D95003
:1038F000060FE4EF16F0E4EC16F0EE50ED101200B7
:10390000FB0EDBCFE6FFFC0EDBCFE6FF1200D15152
:1039100065DED2558FEF17F0D9500F0FE4EC16F09B
:10392000AE51EE18120005EC16F0006E080EE15CC8
:103930001200BCEC16F0100E77EF17F0DBCF03F09F
:10394000040E68DA050EDB5003581200E96EFF0E14
:10395000DA20EA6E1200D9500A0FE4EC16F0FA0EE3
:10396000EECFDBFFFB0EEECFDBFFFC0EEECFDBFF7F
:1039700039EF17F0016ED950280F50DA29DC280EE4
:10398000DBCF02F0290E7BEF17F0060E53DDDB5084
:10399000D35D006E070EDB50D4590001F1EF1EF02D
:1039A0000A0EDBCF22F00B0EDBCF23F0FB0E22C082
:1039B000DBFFFC0E23C0DBFF4BEF18F00F0EDBCF5D
:1039C00004F0100EDBCF05F0110EDBCF06F0120E67
:1039D000DBCF07F09CEF17F010DA9CEC17F0EE50FD
:1039E000ED101200F90EDBCFE6FFFA0EDBCFE6FF9B
:1039F0001200010EE66E100E7FEF17F0D7EC16F0F6
:103A00000E0E77EF17F0D0EC16F033EF17F0F90E3B
:103A1000DBCF02F0FA0E1200D9CFE6FFDACFE6FFD5
:103A20001200D0EC16F0060EE12412000050D35D17
:103A30000150D4591200E16E00509CEC17F0EE508A
:103A40000501D527EE50D6235EEF17F005EC16F0F2
:103A5000026E080EE15C12000450025C006E05501C
:103A600003581200C6D9180E1200E66AE668E66826
:103A7000EAC5E6FF1200D551D15D006ED251D65590
:103A8000016E95EC17F0DDEF18F0A0DC7EEC78F01D
:103A9000E552E55201EC18F0001E011E1200020E64
:103AA000DBCF02F0030EDBCF03F01200016E00C08B
:103AB000F3FFF46E1200F36E0D0E81EF18F0D75184
:103AC000B65DD851B7591200016E00C0E6FFE66E30
:103AD0001200FD0EDBCFE6FF120050D9000E0320CE
:103AE0008FEC17F0D5EF1AF0AADC020F97D95EEF32
:103AF00017F0D2DEEDEC17F05FDC6EEF1AF0010E7E
:103B0000E66E110E7FEC17F00501BC51BD111200DD
:103B1000020E90DC5CD1F70E31D9F80E77D1DBCFF5
:103B2000E6FFE66AE4EC18F0010EE66ED9501200EA
:103B3000EECF00F0EECF01F087DCBCEF16F0610EA7
:103B4000F36E0E0E81EF18F0BCEC16F00A0E77EF54
:103B500017F00050025C0150035812009CEC17F063
:103B6000D0EF17F0F80EDBCF02F0F90E1200F3CF12
:103B700000F0F4CF01F01200D950FB0F8AEF17F0DC
:103B8000B5EC17F0026A036A1200DB50F458016EBC
:103B900053EC18F05EEF17F039EC17F0010EF36EEE
:103BA000100EF3CFDBFF1200C4EC19F02250050118
:103BB000B6272350B7231200D7EC16F00C0E77EC83
:103BC00017F0A3EF19F0DBCF02F00050015C000EFC
:103BD000025812001FC004F020C005F0A1EF17F03A
:103BE0005EEC17F0F4EC17F00CEF1AF0D0EC16F0D6
:103BF00035DE33EF17F00E0EDB50F36E0C0E81EF57
:103C000018F00050BA19E86F0150BB19E96F1200A3
:103C1000B5EC17F00050B65F0150B75B1200EF50E3
:103C2000F00BE842E842E842E8421200D9500F0F98
:103C3000E4EC16F0EE50AE191200060E00C0DBFFE9
:103C4000070E01C0DBFF1200060EDBCF00F0070EEF
:103C5000DBCF01F012005EEC17F0DB51005CDC51B1
:103C600001581200CBEC17F0B0EC89F0E552E552A8
:103C70001200F60EDBCFE6FFF70EDBCFE6FF1200F9
:103C8000040EDBCF02F0050EDBCF03F01200EAC515
:103C9000E6FFD5C5E6FFD6C5E6FF1200080EDBCF6E
:103CA00022F0090EDBCF23F0120033EC17F0B1EF56
:103CB00019F09CEC17F0010EEE181200AFEC17F0A3
:103CC0000501E7811200DECFE6FFDDCFE6FF12003F
:103CD00002C0E6FF03C0E6FF120033EC17F0FBEF73
:103CE00017F0240EDBCFE6FF250E120000C0E6FF22
:103CF00001C0E6FF120077EC17F020C0EEFF1200C3
:103D00000050045C015005581200D0EC16F0E65249
:103D10001200EBEC19F038EC78F001EF18F00C0E13
:103D2000DBCF00F00D0E15EC1AF077EF1CF0E5522A
:103D3000E552E552E5521200E16E41DCB6DFA3EC3C
:103D40001AF0D950020F7BEF1CF01FEC1AF0040F91
:103D500065D8D950040F7BEF1CF001C0EEFF02C004
:103D6000EEFF03C0EEFF12009BDDF6EF18F0BFDDA3
:103D7000EE06000EEE5AEE5AEE5A1200DB50022406
:103D8000006E1200010EE66EBBDD68EF18F08DDDEF
:103D9000E5DEDAEF1AF0BBDDAADDD0EF17F062DE68
:103DA000D880EE54020EED54120028DEEECFBCF5A2
:103DB000EDCFBDF512009BDDD890030EEB50000A4D
:103DC0001200FA0EDBCF02F0FB0E9EEF1CF0DBCFF1
:103DD00000F0030EDBCF01F01200D950FA0FA6EF6E
:103DE0001CF08FEC17F095EF17F0A3DDEE50ED10FF
:103DF0001200D950260FE4EF16F0F3CFDEFFF4CF18
:103E0000DDFF1200E9EC1AF0D7EF16F0DB500320CB
:103E1000016E1200DB50025C006E1200E4EC16F042
:0E3E2000D0EF17F077EC17F074DFD7EF16F045
:023E2E00A4EC02
:103E300036F0E652070102C700F003C701F0022B7B
:103E4000000E032300C0E6FF01C0E6FF52EC7CF049
:103E5000E552E5523AEC3AF033EC7EF0E552E552A9
:103E6000DF50E552ACEF36F063EC3AF03EEC39F05F
:103E7000DEDFDF6E010EDFCFDBFFDFAE1CD0000E1A
:103E8000DF9EDF50020802E2000E23D0DF28E76E3B
:103E9000030EE7CFDBFFDF50DF06000910E0C7DFCE
:103EA000E66ED950010F3FEC3AF0DF5009EC38F0E4
:103EB00032EC39F0F0D7F36E030EF3CFDBFF98EC62
:103EC00036F0010EDBCFEEFF020EDBCFEDFF030E6F
:103ED000DB50006E040EE15C02E2E16AE552E16E45
:103EE0000050ACEF36F0A4EC36F0E65292EC39F02C
:103EF000040EDF5C0DE136EC39F0010EE7CFDBFF9D
:103F0000B6EC36F0010EDBCFEFFFDB50080802E223
:103F1000000E11D0010EFCEC36F009E088DFDF6EF8
:103F20001CEC39F001E3DB2ADFCFEFFFF3D798EC8D
:103F300036F0EF6A010EE552E552ACEF36F0A4EC34
:103F400036F0080EE12402E3E168E652C5EC3AF0EF
:103F50006EDF020814E1D950040FDCEC38F00009E0
:103F60000EE0D950040FDBEC36F0D880040EEE548E
:103F7000000EEE54000EEE54000EEE5402E2000E5F
:103F80001ED0DE6ADE6ADE6ADD6ADD52DD52040EB4
:103F9000FCEC36F00FE04BDFE66ED9CF00F0DACF65
:103FA00001F0040EDB500F01D924DBEC36F032ECCB
:103FB00039F0EDD798EC36F05CEC38F0010ED0EC2F
:103FC00038F002E2E16AE552E16E0050ACEF36F003
:103FD000A4EC36F0E652E65292EC39F0A00EDF5C2B
:103FE0000BE0A10EDF5C08E0A30EDF5C05E0A50E90
:103FF000DF5C02E0000E08D098EC36F0DFCFEFFF78
:10400000D950010FDCEC38F0EBEC3BF0ACEF36F0C4
:10401000A4EC36F092EC39F0050EDF5C03E107DF2B
:10402000000902E0000E01D0010EE552ACEF36F0BF
:1040300063EC3AF0FCDE06080CE1EFEC37F0000927
:1040400008E082EC37F0120ED880EE54000EED54EA
:1040500002E2000E15D0B6EC36F0DFCFEFFFDF50F6
:10406000DF06000909E0E3DEE66E1CEC39F001E34F
:10407000DB2A32EC39F0F3D798EC36F0EF68010E1A
:10408000006E040EE15C02E2E16AE552E16E00506E
:10409000ACEF36F063EC3AF0E652C9DE300808E1E6
:1040A000EFEC37F0E76E040EE7CFDBFFDB5002E109
:1040B000000E0AD0040EDB2A98EC36F0DECFEEFFBD
:1040C000DDCFEDFF040EDB5051EC3BF002E2E16A84
:1040D000E552E16E0050ACEF36F0A4EC36F0FD0E88
:1040E000DBCFE6FF63EC7CF022EC39F0F8E007016F
:1040F000026B036B006B016BACEF36F0A4EC36F097
:1041000000C7E6FF01C7E6FF2BEC7CF0E552E55265
:10411000FD0EDBCFE6FF8EEC7CF0E5520701002BB5
:10412000000E0123ACEF36F007012C6B000EE66E9B
:10413000E66AA10EE66EE66AE66AE66AE66AE66A9C
:10414000E66AC6EC7AF0006E090EE15C02E2E16A12
:10415000E552E16E00500701046F1200A4EC36F046
:10416000FD0EDBCF00F00A0EE76E0018E8AE02D0BD
:10417000E73402D0E750005C09E328EC3AF0EF6A3C
:1041800028EC3AF0EE52EF6A000E1ED068EC38F0E0
:1041900003AE02D004680568A0EC37F0CBEC38F031
:1041A00032EC39F068EC38F003AE02D004680568F0
:1041B000A0EC37F0F62A000EF722F822CBEC38F00C
:1041C000EE5232EC39F0010EACEF36F0A4EC36F0E2
:1041D000170EE12402E3E168E652E16E010E05EC00
:1041E00039F0FF0E0701045D5BE004C7E6FF19EC40
:1041F0007EF022EC39F054E004C7E6FF6EDFE552B2
:10420000090EDB6AD950090FD0EC39F085EC38F093
:104210002DEC26F0006E060EE15C02E2E16AE5524A
:10422000E16E0050E76E100EE7CFDBFF130EDB50A0
:1042300003080CE0100EDB5031E0D9500A0FD0EC2F
:1042400039F0FFEC26F0F2EC3AF028E007012C916F
:10425000E0EC37F001E02C81130EDB50030810E096
:10426000090EDBCFE6FF85EC38F08FEC30F051EC37
:104270003BF002E2E16AE552E16E005097EC39F062
:1042800007012CA102D0E6EC38F0160EDB5006E058
:1042900002017A5105E14FEC7DF002D07DEC7EF019
:1042A000010E006E170EE15C02E2E16AE552E16E7A
:1042B0000050ACEF36F0A4EC36F0FC0EDBCF49F743
:1042C000FD0EDBCF4AF710EC37F0360EE66E070E28
:1042D000E66E1EECADF0EBEC3BF0E552F90EDBCFF9
:1042E0003EF7F70EDBCF3FF7F80EDBCF40F7F60EC9
:1042F000DBCF41F7F20EDBCF43F7F30EDBCF44F712
:10430000F40EDBCF45F7F50EDBCF46F70701426928
:10431000ACEF36F0A4EC36F00C0EE12402E3E168D9
:10432000E652E16E4CEC39F045EC39F00A0EDBCF89
:10433000E9FF0B0EDBCFEAFF74EC38F0FF0E07014C
:10434000425D18E1A20EE66EE66AFE0EE66EE668D3
:10435000030EE66E82EC37F0E4EC39F0C6EC7AF04E
:10436000006E090EE15C02E2E16AE552E16E005086
:104370000701426F42C7E6FF01EC7CF0E5520108FD
:1043800002E0000E01D0010E006E0C0EE15C02E2B4
:10439000E16AE552E16E0050ACEF36F0A4EC36F085
:1043A000E2EC38F0FD0EDB50060A22E0020A1BE0C8
:1043B000060A15E0010A0FE0020A09E0010A03E01B
:1043C000F36AF46A21D017EC37F0010E0FD017EC26
:1043D00037F0020E0BD017EC37F0040E07D017ECB5
:1043E00037F0030E03D017EC37F0050EEF6E06D052
:1043F000E2EC38F0120E006E070E03D0090E006ECC
:10440000070E00C0F3FFF46EACEF36F0A4EC36F00C
:10441000500EE12402E3E168E652E16E1A0EDB6A17
:104420001B0EDB6A2B0EF36E370E9CEC39F0380E48
:10443000D6EC37F0390E9CEC39F03A0EF3CFDBFFB7
:10444000030EF36E3B0ED6EC37F03C0ED6EC37F095
:104450003D0EF3CFDBFF040EF36E3E0ED6EC37F0CD
:104460003F0EF3CFDBFF2B0EF36E400E9CEC39F0CA
:10447000410ED6EC37F0420EF3CFDBFF020EF36EA7
:10448000430ED6EC37F0440ED6EC37F0450EF3CFA2
:10449000DBFF030EF36E460EF3CFDBFF470EDB6A46
:1044A000480EDB6A490EDB6A4A0EDB6AE0EC37F045
:1044B00001E1A5D107011F51201101E0F2D02151E6
:1044C000221101E0EED042C7E6FF07DEE55200C749
:1044D00027F701C728F7020E3EC7DBFF360EDE6E58
:1044E000070EDD6E6CEC3BF000C71FF701C720F72D
:1044F00088EC3BF074EC3BF0010E95EC3BF0020EC7
:10450000DBCFE6FFAAEC36F0020EFCEC36F00BE057
:10451000DFCFE9FFDF2A010EDBCFEAFF01E3DB2A71
:10452000EF50E66EEFD7A70EC9EC39F0820EC9EC5A
:1045300039F000C721F701C722F788EC3BF0020EE3
:1045400095EC3BF088EC3BF0DBEC39F0010EC9EC6C
:1045500039F074EC3BF0DBEC39F074EC3BF0DBEC65
:1045600039F06CEC3BF000C723F701C724F788EC67
:104570003BF02CEC3CF0070EF8EC3BF0400F8AECE3
:1045800037F0160EFCEC36F007E0CCEC37F001E328
:10459000DB2AA2EC3BF0F5D7DBEC39F0430E95ECCF
:1045A0003BF046C7E6FFAAEC36F045C7E6FFAAECAB
:1045B00036F044C7E6FFAAEC36F043C7E6FFAAECA4
:1045C00036F059EC37F0100E05EC39F0CCEC39F040
:1045D000B2EC37F02CEC3CF0090EF8EC3BF0370F66
:1045E0008AEC37F0160EFCEC36F007E0CCEC37F036
:1045F00001E3DB2AA2EC3BF0F5D7DBEC39F033EC3E
:104600003AF047C7E6FF48C7E6FF3EEC3BF002E260
:10461000E16AE5522BEC38F001E1EFD092EC3BF08F
:10462000160EDB50E76E170EE7CFDBFF160E7CECA5
:1046300037F0170ECCEC39F0490EDB6A4A0EDB6A14
:10464000490EDBCF00F04A0EDBCF01F0020EDB504B
:10465000000101AE02D0D89003D0005C000E0158DA
:1046600014E2D950030F3FEC3AF0490EDB5000241E
:10467000E96E4A0EDB500120EA6EA2EC3BF0490ED7
:10468000DB2A4A0EDDE3DB2ADBD759EC37F0170EC5
:10469000DB500E0F97EC39F0CCEC39F0B2EC37F080
:1046A00004D025C700F726C701F76CEC3BF000C724
:1046B00025F701C726F788EC3BF0060E02017C5D6A
:1046C0006DE0D950160FD0EC39F07CC2E6FF66DE03
:1046D000EBEC3BF0180EF3CFDBFF190EF4CFDBFF52
:1046E000D950180FDBEC36F0EE50ED1001E185D01B
:1046F00092EC3BF0160EDB28C9EC39F0160EFCEC00
:1047000036F006E0CCEC37F001E3DB2AEF50F4D7CB
:10471000DBEC39F033EC3AF03FC7E6FF40C7E6FF89
:104720003EEC3BF002E2E16AE5522BEC38F065E04A
:10473000D950210FDBEC36F0EF50400B5EE0E66A1B
:10474000D950270FDBEC36F0EFEC36F002E2E16AED
:10475000E552E16E005092EC3BF0B4EC3AF0DB50E5
:10476000E76E170EE7CFDBFFCCEC39F0020EFCEC66
:1047700036F006E0D9504B0FA2EC36F04B0EF4D7D2
:1047800059EC37F0170EDB500E0FCCEC3AF0480E18
:1047900099EC3BF0470E7CEC37F0AED033EC3AF0BE
:1047A000D4EC36F03EEC3BF002E2E16AE5522BEC51
:1047B00038F023E0D950030F8AEC37F092EC3BF04D
:1047C000160EDB28C9EC39F0160E7CEC37F0020E21
:1047D000FCEC36F007E0CCEC37F001E3DB2AA2EC8E
:1047E0003BF0F5D7F70ECCEC39F0D950350FD0ECC3
:1047F00039F0220E00EC3BF009E1E6EC38F042C75C
:10480000E6FF0DEC7CF0E552000EF9D0350ECCEC55
:1048100039F0360EDB50FF0844E1F80EDBCF22F012
:10482000F90EDBCF23F04C0E22C0DBFF4D0E23C070
:10483000DBFF4E0EDB6A4F0EDB6A4C0EDBCFE6FF72
:104840004D0EDBCFE6FF58ECADF0E552E552360EEB
:10485000F3CFDBFF7CEC37F0CCEC39F04E0EDB6AAB
:104860004F0EDB6A53EC39F0020EDB50000101AE53
:1048700002D0D89003D0005C000E01582AE253EC1D
:1048800039F04C0EDB500024E96E4D0EDB50012058
:10489000EA6EA2EC3BF04E0EDB2A4F0EE3E3DB2A7E
:1048A000E1D7360E7CEC37F0DBCFE6FFAAEC36F032
:1048B000020EFCEC36F00DE0D950F80F006EFF0E42
:1048C000DA20016E020EDB5009EC38F0EF50E66E94
:1048D000EDD714EC39F0360EDB28010FE552E72452
:1048E000020F010FCCEC3AF059EC37F0480ECCEC4B
:1048F00039F0470ED8EC3BF006EC3BF01A0EDBCF5C
:1049000025F71B0EDBCF26F7040EE76E470EDBCF35
:1049100000F0480EDBCF01F0E75059EC38F007010A
:104920001B2701501C23000E1D231E230201B1056D
:1049300005E12DC7E6FF12EC6EF05FD0470E1BC7F6
:10494000DBFF480E1CC7DBFF23C700F724C701F7B6
:1049500099EC3BF01BC700F01CC701F01DC702F02B
:104960001EC703F0040E55EC3BF0022203220C0E8E
:1049700055EC3BF0022203225AEC39F021C700F734
:1049800022C701F799EC3BF0040EE76E470EDBCF30
:1049900002F0480E0DEC3BF007013E5100010224ED
:1049A000006E000E0320016E020E55EC3BF0030E6C
:1049B00055EC3BF05AEC39F01FC700F720C701F760
:1049C00099EC3BF027C700F728C701F707011F6BD9
:1049D000206B216B226B236B246B256B266B276B63
:1049E000286B1B6B1C6B1D6B1E6BE6EC38F04FECE1
:1049F0007DF042C7E6FF0DEC7CF0E552010E006E43
:104A0000500EE15C02E2E16AE552E16E0050ACEF6B
:104A100036F063EC3AF0DE6ADE6ADE6ADD6ADD52A9
:104A2000DD5210EC37F082EC37F02FEC38F002E278
:104A3000E16AE552E16E0050EDEC39F0100B39E11E
:104A4000EDEC39F0800B20E0B6EC36F03AEC3CF0BF
:104A5000EECF00F0EFCF01F0FC0EDB50001814E1B8
:104A6000FD0EDB50011810E1F60EDBCFE6FFF70E6E
:104A7000DBCFE6FFA1EC3AF01FEC38F002E2E16A8E
:104A8000E552E16E005021D0EDEC39F0080B04E165
:104A9000EDEC39F0010B18E0E66AB6EC36F00F0EDB
:104AA000D7EC39F0EFEC36F002E2E16AE552E16E64
:104AB000005044EC37F020C0DEFF21C0DEFF22C0F2
:104AC000DEFF23C0DDFFABD7000E006E040EE15CFD
:104AD00002E2E16AE552E16E0050ACEF36F0A4EC80
:104AE00036F0270EE12402E3E168E652C5EC3AF025
:104AF00098EC36F074EC38F0260EDB6A250EDB6A93
:104B0000D9500C0F09EC37F0040FDBEC36F02FEC2A
:104B100038F002E2E16AE552E16E0050250EDB500A
:104B2000E76EB6EC36F0E750D7EC39F0100EDBCF7D
:104B3000EFFF040EDBCF00F0050EDBCF01F0060E19
:104B4000DBCF02F0070EDBCF03F082EC37F0EE5044
:104B5000001813E1EE50011810E1EE5002180DE1BB
:104B6000EE5003180AE109E1250EDB2AF5EC36F0D8
:104B7000250EDBCFEFFF010E66D0260EDB50010ABB
:104B80004EE0010ABDE1D950110FDBEC36F0EF50D9
:104B9000080B40E0D9501B0FDBEC36F0080EEECFCF
:104BA000DBFF090EEECFDBFF0A0EEECFDBFF0B0EB5
:104BB000EECFDBFFE66A84EC3AF0EFEC36F002E28F
:104BC000E16AE552E16E005044EC37F0080E20C077
:104BD000DBFF090E21C0DBFF45EC39F0080EDBCF0F
:104BE00000F0090EDBCF01F00A0EDBCF02F00B0E56
:104BF000DBCF03F082EC37F00050EE5C0150EE5852
:104C00000250EE580350EE5805E384EC3AF037ECCE
:104C100038F076D7010EF36E260EF3CFDBFFD950B6
:104C2000110FDBEC36F0EF50100B02E1000E0BD051
:104C3000250EDB2AD9501F0FDBEC36F037EC38F0AD
:104C4000260EDB6A5DD7006E270EE15C02E2E16AA8
:104C5000E552E16E0050ACEF36F0A4EC36F0140EE5
:104C6000E12402E3E168E652E16E040EDB6A100E15
:104C7000DB6A110EDB6A10EC38F0120E00C0DBFFAD
:104C8000130E01C0DBFF36EC39F0050EE7CFDBFF7A
:104C900059EC3AF0EE2A000EED22050EDB503008FA
:104CA00001E09FD0EFEC37F0E66E88EC3AF02DECA7
:104CB00037F088EC3AF0EE50ED1001E192D088EC3C
:104CC0003AF0010EEE1809E1ED5007E159EC3AF027
:104CD000EE2A000EED22060E29D088EC3AF0020EE4
:104CE000EE180DE1ED500BE159EC3AF0020EEE2614
:104CF000000EED22810EA1EC39F0070E17D088ECE2
:104D00003AF0030EEE186DE1ED506BE159EC3AF01C
:104D1000030EEE26000EED22820EA1EC39F0010EFC
:104D2000DB50E76E070EE7CFDBFF080EDFCFDBFFC0
:104D300082EC37F00C0EEECFDBFF0D0EEDCFDBFF7C
:104D400059EC3BF04EE010EC38F0100EDB50002434
:104D5000E96E110EDB500120EA6E020EEF6E98EC48
:104D600036F0090EEFEC38F0DF5005E0DF0403E029
:104D7000030EDF5C36E110EC38F0010EBFEC37F0CB
:104D8000010EEF6E10EC38F0020EBFEC37F0DFCF03
:104D9000EFFFDF5002E0DF0426E1A1EC3AF073EC14
:104DA0001FF0E55287EC37F01CE0D950040FD0EC2F
:104DB00039F0E8EC1FF0F2EC3AF013E079EC3BF05C
:104DC000040EDBCFEFFFC1EC39F003E18BEC3BF0DD
:104DD00008E010EC37F000EC5EF0E552E552030815
:104DE00002E1000E02D0040EDB50006E140EE15CF6
:104DF00002E2E16AE552E16E0050ACEF36F063EC9E
:104E00003AF059EC3BF02AE098EC36F05CEC38F0E4
:104E1000C1EC39F003E001EC3AF009E18BEC3BF036
:104E200006E059EC3BF01AE032EC37F01AD001EC16
:104E30003AF014E18BEC3BF011E159EC3BF00EE061
:104E400098EC36F0040EEFEC38F059EC3BF006E04D
:104E500098EC36F0050EEFEC38F002D0000E01D0E1
:104E6000010E006E040EE15C02E2E16AE552E16EC1
:104E70000050ACEF36F0A4EC36F00C0EE12402E367
:104E8000E168E652E16E3EEC39F054EC38F0040E85
:104E9000DB6AEDEC39F0100B08E1EDEC39F0020BB8
:104EA00004E1EDEC39F0200B0EE1C1EC39F002E148
:104EB000020E07D001EC3AF003E071EC3BF003E1A5
:104EC000110E26EC38F071EC3BF005E036EC39F0D1
:104ED000020E2FEC3AF0040EDB2AD950060FD0EC6C
:104EE00039F0B6EC36F0060E9FEC36F0E66EAEEC1E
:104EF00020F087EC37F00EE1C1EC39F002E1030E4F
:104F000007D001EC3AF003E071EC3BF003E1070E4F
:104F100026EC38F0060EDB50F36E020EDB50F35C2D
:104F20000EE0C1EC39F002E1030E07D001EC3AF0DB
:104F300003E071EC3BF003E1070E26EC38F071EC76
:104F40003BF005E036EC39F0030E2FEC3AF0040E9E
:104F5000DB2A030EDB507F080EE2C1EC39F002E1E0
:104F6000030E07D001EC3AF003E071EC3BF003E1F3
:104F7000080E26EC38F0EDEC39F0040B06E1DBEC22
:104F80003BF003E0020E26EC38F0F5EC37F0DF6A78
:104F9000070EDB50FF084AE0030EDB50040833E342
:104FA000030EFCEC36F014E071EC3BF005E036EC5F
:104FB00039F0010E2FEC3AF061EC39F0030EDB50C2
:104FC00009EC38F0010EDBCFEFFF040EDB2AE8D747
:104FD000050EDB5001E07FD01FEC3CF0DFCFE6FF99
:104FE000F3EC39F002E2E16AE5522BEC38F073E1C0
:104FF000C1EC39F00BE001EC3AF003E071EC3BF06E
:105000006AE10A0E66D0C1EC39F002E1030E61D00C
:1050100001EC3AF003E071EC3BF05DE1EDEC39F0CE
:10502000020B02E0110E55D0080E53D0DBEC3BF022
:10503000E66E030EDBCFE6FFB6EC36F002EC37F09F
:1050400056EC5EF0E55287EC37F014E1C1EC39F034
:1050500002E1030E0DD001EC3AF003E071EC3BF0FD
:1050600009E1EDEC39F0020B02E0110E01D0080E5F
:1050700026EC38F0030EFCEC36F01CE071EC3BF053
:1050800005E036EC39F0080E2FEC3AF0040EDB2A7E
:10509000050EDB50EFE11FEC3CF0DF50DF2AE66E3F
:1050A000F3EC39F002E2E16AE5522BEC38F0E2E190
:1050B000030EDED7050EDB500EE11FEC3CF0E66878
:1050C000F3EC39F002E2E16AE5522BEC38F003E14F
:1050D000030E26EC38F0F5EC36F0050EDBCFEFFFD3
:1050E000040EDB50006E0C0EE15C02E2E16AE55258
:1050F000E16E0050ACEF36F0A4EC36F00F0EE12478
:1051000002E3E168E652E16E54EC38F0F5EC37F07A
:10511000EFEC3BF001E07DD0F2EC3BF006E14FEC30
:105120003CF09FEC36F0000874E379EC3BF0030EA2
:10513000EFCFDBFFD9500C0FD0EC39F0030E00ECB1
:105140003BF067E0FB0EDB500FE1DEEC39F00CE0EA
:105150000C0ECCEC39F0040E00C7DBFF050E01C7C6
:10516000DBFF0D0ED8EC3BF0D5EC39F0020B20E064
:10517000E66A98EC36F0A6EC39F0EFEC36F002E295
:10518000E16AE552E16E0050B4EC3AF0DB5066ECB7
:105190003AF0010EFCEC36F041E0D9500E0FA2ECD3
:1051A00036F0DEEC39F0F5E00E0ECCEC39F0F1D74C
:1051B000DF6AF5EC37F0020EDB6AD950080FD0EC4D
:1051C00039F0FDEC3BF002E2E16AE5522BEC38F0FD
:1051D00020E00D0EDB50FF0813E00D0E7CEC37F0E5
:1051E0000D0EDB501BE0DEEC39F0FAE061EC39F03B
:1051F0000D0EDB06DB5009EC38F0A2EC3BF0F0D7EB
:10520000020EDB2ADEEC39F006E0080ECCEC39F0B9
:1052100002D0000E23D0FF0EDF5CCFE1FB0EDB508F
:105220001BE1DEEC39F015E0060E00C7DBFF070ED0
:1052300001C7DBFF040EDBCF00F7050EDBCF01F764
:10524000020ECCEC39F0060EDBCF00F7070EDBCFF9
:1052500001F7020EDB2ADB2A020EDB50006E0F0E76
:10526000E15C02E2E16AE552E16E0050ACEF36F03B
:10527000A4EC36F0400EE12402E3E168E652E16E70
:10528000020EDB6A360EDB6A370EDB6A010EF36E46
:105290003C0EF3CFDBFF3A0EDB6ADF6AEFEC3BF04C
:1052A00006E1EFEC3BF00BE1F2EC3BF008E1010E24
:1052B000F36E3A0EF3CFDBFF8CEC3AF027E0B2EC62
:1052C0003BF002E2E16AE5522BEC38F01FE0310ED0
:1052D000DBCFE6FFD9501E0FD0EC39F0D4EC36F01E
:1052E00010EC37F082EC38F002E2E16AE552E16E50
:1052F000005001080DE08CEC3AF008E0B2EC3BF015
:1053000002E2E16AE5522BEC38F0E1E1000E25D132
:10531000D9501E0F3FEC3AF01C0E00C0DBFF1D0EF3
:1053200001C0DBFF310EDB50DF6E75EC3AF01AE0A6
:10533000360E00C7DBFF370EFEEC37F0010E07011B
:105340000027000E0123DF50DF0600090BE01C0ED2
:10535000F6EC3AF01D0EDBCFEAFF01E3DB2AA2EC0C
:105360003BF0F1D7310EDB50DF6E79EC3BF0EFCF45
:105370004FF78EEC3BF0340EEECFDBFF350EEDCF6A
:10538000DBFFF2EC3BF02CE175EC3AF026E0DBECD5
:1053900039F0DF2AD0EC3AF0DB2ACCEC39F09BEC88
:1053A00038F0380E00C7DBFF390E01C7DBFF10EC09
:1053B00037F0BAEC3AF002E2E16AE552E16E0050F1
:1053C000E76E020EE7CFDBFFDB5007E19BEC38F026
:1053D000E0EC3BF0020EF36EDB6E020EDB50BBD056
:1053E0003B0EDB6A3A0EDB0412E14B0EE66E070E53
:1053F000E66ED9503B0FD0EC39F0FBEC39F0F3EC12
:1054000038F002E2E16AE5522BEC38F05AE09DEC0C
:105410003BF0330E44EC38F00701506BD950320F9B
:10542000A2EC36F0D9503C0FA2EC36F03C0EDB0477
:1054300008E1D9503D0FA2EC36F03D0EA9EC3AF050
:1054400022D03C0EDB5002081EE1BEEC38F03E0FCD
:1054500022EC37F002E2E16AE552E16E00500A0EFA
:10546000DB6A0B0EDB6A3E0EA9EC3AF0D9500A0F4C
:10547000DBEC36F0EE50ED6EEF6A3F0EC3EC38F029
:105480000A0F14EC3BF0090EDB6AD950090FA2ECAD
:1054900036F07EEC3BF01A0EEFCFDBFF3A0EDB501E
:1054A00013E1D9501A0FD0EC39F00A0EDBCFE6FF2A
:1054B0000B0EDBCFE6FFCFEC5FF0E55287EC37F069
:1054C00003E11BEC3BF0F3D6080EDB92DB98DB84A8
:1054D00010EC37F0010EE66ED950030FD0EC39F026
:1054E000D2EC37F002E2E16AE552E16E00500701CA
:1054F00050277EEC3BF01A0EDBCFEFFF5051DF263A
:10550000310EDBCFE7FF5051E726310EE7CFDBFF4F
:1055100075EC3AF006E0D0EC3AF0CCEC39F09BECCC
:1055200038F09DEC3BF0330EDBCFEFFF8EEC3BF021
:10553000340EDBCFEEFF350EDBCFEDFF79EC3BF029
:105540004FC7EFFF10EC37F0BAEC3AF002E2E16A35
:10555000E552E16E0050DF26DF50006E400EE15C48
:1055600002E2E16AE552E16E0050ACEF36F0A4ECE5
:1055700036F0320EE12402E3E168E652E16E54ECCB
:1055800038F0260EDB6A270EDB6A010EF36E2C0E56
:10559000F3CFDBFF030EDB6A54EC38F0070EDB6A57
:1055A000080EDB6A240EDB6A250EDB6A260EDB6A38
:1055B000270EDB6A280EDB6A290EDB6A2A0EDB6AFD
:1055C0002B0EDB6A060EDB6A2A0EDB6A65EC39F00D
:1055D000050EEFCFDBFFA2EC38F02D0E22C0DBFF73
:1055E0002E0E23C0DBFF010EF36E020EF3CFDBFFA6
:1055F000DBCF00F065EC39F0EF50D880005414E3B5
:10560000EFEC3BF006E1EFEC3BF00BE1F2EC3BF0B2
:1056100008E1040EDB2A010EA1EC39F08CEC3AF023
:1056200052E0020EDB2AE4D7F2EC3BF027E0040E56
:10563000DBCF00F0050EDB50D88000541FE3FBECFD
:1056400039F0B4EC5FF087EC37F00AE17EEC3BF028
:1056500044EC3AF087EC37F003E18CEC3AF033E0BD
:10566000050EDBCF00F0040EDB50D880005403E2BF
:105670007EEC3BF0EF2A040EDB2AD9D7C8EC3BF0D6
:1056800002E2E16AE5522BEC38F01DE0030EDBCFBD
:10569000E6FF10EC37F0D4EC36F014EC38F082EC86
:1056A00038F002E2E16AE552E16E005001080DE0D7
:1056B0008CEC3AF008E0C8EC3BF002E2E16AE5521B
:1056C0002BEC38F0E3E1000E22D1260E00C7DBFF01
:1056D000270E01C7DBFF92EC3BF0240E00C7DBFF77
:1056E000250E01C7DBFF030EDB50E76E2A0EE7CF66
:1056F000DBFF22EC3BF0010E07010027000E012327
:105700002A0EFCEC36F00AE0B6EC36F0A2EC3BF0E8
:10571000FA0EDB2AFB0EF4E3DB2AF2D7F5EC36F0C7
:10572000030EDBCFEFFF2A0EEFCFDBFF79EC3BF070
:10573000EFCF51F78EEC3BF0070EEECFDBFF080EFC
:10574000EDCFDBFFF2EC3BF01CE1DBEC39F02A0E95
:10575000DB2A33EC38F0DB2ACCEC39F06CEC39F096
:1057600029EC3BF014EC38F0BAEC3AF002E2E16AD2
:10577000E5521BEC38F02A0EDBCFE7FF010EDB50C1
:10578000C1D0DF6A060EDB041FE1530EE66E070E82
:10579000E66EFDEC3BF002E2E16AE5522BEC38F0FC
:1057A00013E1260EDBCF00F7270EDBCF01F72D0E1E
:1057B000DBCF22F02E0EDBCF23F0FA0E22C0DBFF70
:1057C000FB0E23C0DBFF27D79DEC3BF0230E44EC00
:1057D00038F00701526BD950220FA2EC36F0D950A5
:1057E0002C0FA2EC36F02C0EDB0408E1D9502F0F61
:1057F000A2EC36F02F0E01EC3CF020D02C0EDB504A
:1058000002081CE1BEEC38F0300F22EC37F002E267
:10581000E16AE552E16E0050100EDB6A110EDB6AA0
:10582000300E01EC3CF059EC3AF0EE50ED6EEF6AC0
:10583000310EC3EC38F0100F14EC3BF00F0EDB6AA6
:10584000D9500F0FA2EC36F04FEC3CF073EC39F06E
:105850000E0EDB92DB98DB8414EC38F0010EE66E62
:10586000D950090FD0EC39F0D2EC37F002E2E16AFE
:10587000E552E16E0050070152277EEC3BF0200E0E
:10588000DBCFEFFF2A0EDBCFE7FF5251E7262A0ED0
:10589000E7CFDBFF030EDBCFE7FF5251E726030E16
:1058A000E7CFDBFFF40EDBCFE9FFF50E06EC3CF0B3
:1058B00006E033EC38F0CCEC39F06CEC39F09DECD0
:1058C0003BF0230EDBCFEFFF8EEC3BF0070EDBCF80
:1058D000EEFF080EDBCFEDFF79EC3BF051C7EFFF99
:1058E00014EC38F0E66AD4EC36F006DC016E050EF6
:1058F000E15C02E2E16AE552E16E01502A0EDBCF83
:10590000E7FF0150E7262A0EE7CFDBFFDB50006EF2
:10591000320EE15C02E2E16AE552E16E0050ACEF6A
:1059200036F0A4EC36F0170EE12402E3E168E6520B
:10593000E16E010EDF6E090EDB6A98EC36F0090E9F
:10594000D7EC39F0040EEFCFDBFF79EC3BF0050E1E
:10595000EFCFDBFF07012CA19CD10C0EDB6A0D0EF3
:10596000DB6A0E0EDB6A0F0EDB6AF90EDB50E76EA8
:10597000030EE7CFDBFFF90EDB50E76E060EE7CF35
:10598000DBFFA2EC38F0070E22C0DBFF080E23C0BD
:10599000DBFFE66AD9500C0FDBEC36F0EFEC36F0AB
:1059A00002E2E16AE552E16E00507AEC3AF0BDECB9
:1059B00036F079EC37F022EC3CF0090EDB5013E1C5
:1059C000010E7CEC37F0D9500C0FDBEC36F0100EEA
:1059D000EECFDBFF110EEECFDBFF120EEECFDBFFC3
:1059E000130EEECFDBFFBDEC36F0050EB2EC36F059
:1059F00004EC3AF0800B2CE080EC38F0DF0408E196
:105A0000D950140FA2EC36F0140EBAEC3BF020D0B3
:105A1000020EDF5C1DE1BEEC38F0150F22EC37F012
:105A200002E2E16AE552E16E0050BDEC36F0A9EC0D
:105A300039F0150EBAEC3BF0BDEC36F04AEC38F01C
:105A4000160EDB50006E016ABDEC36F002EC38F049
:105A500004EC3AF0080B02E00CEC3AF092EC37F070
:105A6000EF50F36E010EDB50F35C4FE0A9EC38F021
:105A700001E1C8D0090EDB0405E104EC3AF0080BA3
:105A800001E10BD104EC3AF0080B01E106D1E66A22
:105A90000A0EDBCF04F00B0EDBCF05F0066A076AB7
:105AA00004C0E6FF05C0E6FF06C0E6FF07C0E6FF4C
:105AB0002DC7E6FFD9EC6EF0086E060EE15C02E23F
:105AC000E16AE552E16E0850006E016A026A036AFB
:105AD00000AE03D00168026803680C0E00C0DBFF53
