:020000040000FA
:060000004AEFC2F01200FD
:060008006FEFBEF01200D4
:060018003AEFBEF01200F9
:06002A001300C187010074
:10003000720A000001000000BD870100610A000093
:10004000040000004F050100710A000001000000DB
:10005000BB8701006F0A0000020000004887010012
:100060008A0500007300000030870100E4010000F1
:10007000180000002E8701006D0A00000200000039
:100080004A86010000010000E400000046860100ED
:100090005D0A000004000000DE8501008406000007
:1000A00068000000DC8501006B0A0000020000000F
:1000B000DA850100690A000002000000D68501000F
:1000C000590A000004000000CE850100490A000022
:1000D00008000000A58501002B0700002900000092
:1000E000A3850100670A000002000000808501006E
:1000F0009F070000230000007C850100550A0000D6
:10010000040000007A850100650A0000020000007A
:10011000E8EC16F0FD0EDB500A01695D2CE0FE0EE6
:10012000695D11E01C0EE66EE66A270EE66E0F0EA4
:10013000E66E695108EC1AF080EC1AF002E2E16A0E
:10014000E552E16E0250FD0EDBCF69FADB50FE088E
:1001500012E01C0EE66EE66AFD0EDB5008EC1AF0AB
:10016000270EE66E0F0EE66E80EC1AF002E2E16AF0
:10017000E552E16E0250F6EF16F00A0169516A5D30
:1001800001E11200FE0E6A5D1CE0250EE66EE66AD5
:10019000010EE66E020EE66E0F0E41EC1AF01B0E1B
:1001A0008FEC17F0EF5041EC1AF00EEC19F0250E21
:1001B000A3EC1BF03EEC1DF002E2E16AE552E16EB9
:1001C000025069CA6AFA250EE66EE66A42CFE6FF79
:1001D00027CF00F028CF01F0A3EC1BF0010EE66E54
:1001E000020EE66E0F0EE66E3EEC1DF002E2E16AD4
:1001F000E552E16E02501200E8EC16F00B0EE1241D
:1002000002E3E168E652E16EC20EF36E090EF3CF2F
:10021000DBFF0F0EF36E0A0EF3CFDBFF0F01005171
:1002200001110FE14DEC60F020C000FF21C001FF83
:10023000FF0E0F010017070E0117000E0027040E16
:1002400001233C0EE66EE66AE66A000EE66E0E0ECE
:10025000E66EAFECA9F0006E050EE15C02E2E16A29
:10026000E552E16E0050010EDB6ADF6A5BEC18F0CC
:1002700001E392D0EEEC19F079EC17F0B9EC17F03D
:10028000F62A000EF722F8220800080EF5CFDBFF51
:1002900079EC17F0B9EC17F0020EF626000EF722F3
:1002A000F8220900020EF5CFDBFF0A00030EF5CF9E
:1002B000DBFF79EC17F002EC1EF0040EF626000EC0
:1002C000F722F8220900040EF5CFDBFF0A00050E25
:1002D000F5CFDBFF080EDB502BE1090EDBCF22F060
:1002E0000A0EA0EC19F067EC1DF0250E0226000E98
:1002F00003223CEC1CF0040ED6EC1EF0050EDB5085
:100300000320A7EC17F0D950090F88EC1CF0090E58
:10031000DBCF00F00A0E2DEC1AF0D880FE0E005450
:100320001E0E0154000E0254000E035402E2EFD7D9
:10033000FFD7080EDBCF42FF060EDBCF27FF070EED
:10034000DBCF28FF250E0F012727000E2823020EE2
:10035000DB502725296F030EDB5028212A6F010E61
:100360002927000E2A23040EDB5029252B6F050EAA
:10037000DB502A212C6F0D0E3D6F3E97FEDE79EC8F
:1003800017F01EC003F002EC1EF00800F5CF26FFA8
:10039000B6EC0FF0DF2A6AD70B0EE15C02E2E16AED
:1003A000E552E16EF6EF16F09DEC1EF0DF6A5BECB5
:1003B00018F001E38FD0EEEC19F00D0E0F013D5D4A
:1003C00001E086D0DADEF60EDB500F01265D01E09B
:1003D0007FD0F90EDB5010E1F70EDBCF12FFF80EE5
:1003E000DBCF13FF3E87040E3D6FF70EDBCF40FFE0
:1003F000F80EDBCF41FF6AD0000E005D040E0159FC
:1004000006E3880ED8800055130E015503E2006BF9
:10041000040E016F00CF12FF01CF13FF002B000E5F
:100420000123F70EDBCF10FFF80EDBCF11FFF3EC4B
:1004300017F00F013E89F90EDB50040A26E0070A87
:1004400045E1FA0EDBCF04F0FB0EDBCF05F0FC0E2E
:10045000DB500424026EFD0EDB50052041EC19F048
:10046000FA0EDBCF18FFFB0EDBCF19FFFC0EDBCF44
:100470001AFFFD0EDBCF1BFF256B270E026F036BF0
:10048000046B056B020E3D6F21D0FEEC17F0020EDF
:100490008FEC17F0EECF04F0EFCF05F0FEEC17F085
:1004A0000450EE24026E0550EE2041EC19F091EC60
:1004B0001DF002E2E16AE552E16E00500F01050E07
:1004C0003D6F010EE66E020E97EC17F0DF5003D081
:1004D000DF2A6DD7FE0EE552F6EF16F01BEC1DF08D
:1004E0000F013FA903D03F99010E01D0000EF6EF96
:1004F00016F01BEC1DF0070E0F013D5D02E0000E33
:1005000001D0010EF6EF16F01BEC1DF041EC1CF0D3
:100510000F013D51080A2EE0010A2CE0050A2AE0ED
:10052000020A25E0050A18E00D0A0BE0010A09E0BD
:10053000070A24E0020A22E0010A20E0060A1AE182
:100540001DD097EC1DF006E00E512D19FAE10F5168
:100550002E19F7E1080E0CD097EC1DF006E00E51B5
:100560002D19FAE10F512E19F7E10C0E01D00D0EE5
:100570003D6F06D0E66A140E97EC17F0B6EC0FF05C
:10058000F6EF16F01BEC1DF00F013E9781EC1DF00D
:10059000BBDFE552F6EF16F01BEC1DF0EEDD64EC70
:1005A0001CF0F4EC19F0430EE66E0F0EE66E86ECCE
:1005B0001AF002E2E16AE552E16E005010CF4DFF01
:1005C00011CF4EFF430E006E0F0E6EEC1DF0F6EFD6
:1005D00016F01BEC1DF0D1DD0F010E512D1902E1BB
:1005E0000F512E1902E011EC1DF0F6EF16F09DEC04
:1005F0001EF04BEC17F03DCFDFFF070EDF5C06E08F
:100600000B0EDF5C03E0F36AF46A21D00F012F5177
:100610002D5D30512E5910E30CEC18F00206000E3F
:10062000035A2F512D5D046E2E513055056E44EC4A
:100630001DF06EEC1DF00BD02D512F5D006E305172
:100640002E55016E0006000E015AEDEC1AF0E5522F
:10065000F6EF16F09DEC1EF0E6526DEC1EF004EC89
:100660001DF002E1000E39D071EC1EF004E1ED50F6
:1006700002E1C7EC17F00F013F51010B09E1F9EC62
:1006800019F00CEC18F024EC1AF002E376EC1EF0F2
:10069000010EE66EE66AE66ED3EC1BF080EC18F015
:1006A00002E2E16AE552E16E00500F012D2B000ECF
:1006B0002E2329512D5D2A512E5902E3F2EC1AF016
:1006C00071EC1EF005E1ED5003E1C7EC17F004D02A
:1006D0003EBB02D062EC17F0010EE552E552F6EF98
:1006E00016F029EC1DF002E3E168E652B4EC1EF0CE
:1006F00005E1C7EC17F0F36AF46A3DD0A0EC1DF0F9
:100700001FEC1DF093EC17F003E2F90E32EC1AF037
:100710000F013F51010B05E108EC1EF002E376ECFE
:100720001EF092EC1AF010E353EC1DF0DAEC1EF020
:1007300002E2E16AE55228EC1BF0D950FB0FEDEC28
:1007400017F0ED22DFEC1EF07BEC1EF0DAEC1EF071
:1007500002E2E16AE55233EC1DF01FEC1DF093EC70
:1007600017F003E3C7EC17F004D03EBB02D062ECF5
:1007700017F056EC19F0060EE15C02E2E16AE55270
:10078000E16EF6EF16F029EC1DF002E3E168E652A7
:10079000B4EC1EF005E1C7EC17F0F36AF46A44D03C
:1007A0000F013F51010B05E108EC1EF002E376EC6E
:1007B0001EF0A0EC1DF0CAEC1DF093EC17F003E264
:1007C000F80E32EC1AF092EC1AF015E353EC1DF02F
:1007D00032EC18F04DEC1AF002E2E16AE55228EC36
:1007E0001BF0026AD950FA0FEDEC17F0EE2202501E
:1007F000EE22DFEC1EF07BEC1EF032EC18F04DEC3C
:100800001AF002E2E16AE55233EC1DF0CAEC1DF089
:1008100093EC17F003E3C7EC17F004D03EBB02D013
:1008200062EC17F056EC19F0060EE15C02E2E16AA8
:10083000E552E16EF6EF16F0E8EC16F0FB0EDBCFBA
:1008400002F0FC0EDBCF03F080EC1EF098EC1CF005
:1008500055ECAAF0E552E552F3CF04F0F4CF05F0E1
:10086000F3CFE6FFF4CFE6FFFB0EDBCFE6FFE3ECD2
:1008700017F037DF066E050EE15C02E2E16AE55231
:10088000E16E0650A8EC1BF0F324006E0350F42038
:100890006EEC1DF0F6EF16F0E8EC16F032EC18F006
:1008A00063ECAAF0E552E552E55221C006F022C001
:1008B00007F021C0E6FF22C0E6FF32EC18F081EC21
:1008C0001DF061DF086E060EE15C02E2E16AE552AE
:1008D000E16E0850F3CF03F0F4CF04F0056A05ECA5
:1008E0001FF0EE50F324006EEE50F420016EEE5037
:1008F0000520026E00C021F001C022F0236EF6EF49
:1009000016F00EEC1EF00F01CDEC17F00006000EF5
:10091000015A6BEC18F0C9EC19F072EC18F002E215
:10092000E16AE552E16EF6EF16F0E8EC16F013EC32
:1009300018F0CFEC1DF0F350F41006E04BEC17F07C
:1009400041EC1CF011EC1DF0F6EF16F01BEC1DF065
:100950000F0199EC1BF006E33351315D006E32510B
:10096000345513D033512B5D026E2C513455036E28
:100970003CEC1CF02951315D046E32512A55056E54
:1009800002500424006E035005206EEC1DF0F6EFBB
:1009900016F09DEC1EF0E65213EC18F004EC1DF07E
:1009A00002E1000E28D04BEC17F0D4EC1DF00CE067
:1009B000010EE66EE66AC2EC1AF09DEC17F002E258
:1009C000E16AE552E16E00500F01332B000E342333
:1009D00033512B5D34512C5902E24BEC1CF071EC7D
:1009E0001EF004E1ED5002E13F8504D03EBB02D091
:1009F00062EC17F0010EE552E552F6EF16F0E8EC66
:100A000016F046EC1CF0020EDB6A030EDB6A13ECF8
:100A100018F004EC1DF003E1F36AF46A84D04BECA7
:100A200017F0CEEC19F02CEC1BF008E2B4EC17F048
:100A3000F90EEECFDBFFFA0EEDCFDBFFF90EDB5048
:100A40000F0133250001006EFA0EDB500F01342137
:100A50000001016E0F012EEC1DF02CE2335106EC6B
:100A60001BF03455A7EC17F06BEC18F0D4EC1DF02C
:100A700017E0020EDBCFE6FF030EDBCFE6FFC2EC92
:100A80001AF0010E9DEC17F002E2E16AE552E16E08
:100A9000005076EC17F0D950FB0FEDEC17F0ED227B
:100AA00076EC17F0D950F90FBEEC1CF0E8EC17F01B
:100AB0004BEC1CF0D4EC1DF00CE00AEC1DF0C2EC89
:100AC0001AF0010E9DEC17F002E2E16AE552E16EC8
:100AD0000050CDEC1AF022500F013327235034235D
:100AE00076EC17F0D950F90FEDEC17F0ED22DECFD0
:100AF00002F0DDCF03F0F90E22EC1FF0FA0EDB500E
:100B00000358016EF90EDBCF04F0FA0EC9EC1AF0AF
:100B100002E33F8504D03EBB02D062EC17F0CEEC7E
:100B200019F0EDEC1AF0040EE15C02E2E16AE55224
:100B3000E16EF6EF16F00EEC1EF00F01295106ECF7
:100B40001BF02A55016E6BEC18F013EC18F072ECE8
:100B500018F002E2E16AE552E16EF6EF16F029ECD8
:100B60001DF002E3E168E652E16ED950F90FA2EC04
:100B700017F003E1F36AF46A82D085EC1EF0BBEC57
:100B80001AF01FEC1DF0DBCF03F0A3EC1DF0020EFA
:100B9000DBCF04F0030EC9EC1AF00FE267EC1DF096
:100BA000F70E22EC1FF0F80EDB500358016EF90E21
:100BB00000C0DBFFFA0E01C0DBFFF70E50EC1CF0AB
:100BC000F80EDB50342100C0DEFFDD6EF9EC19F0C9
:100BD0002EEC1DF004E29FEC1CF0C6EC1DF0DE5084
:100BE0002B5D006EDD502C5909EC1FF0CEEC19F096
:100BF000040EDBCF02F0050E93EC17F00DE30AECC8
:100C00001DF0FCEC18F0010E9DEC17F002E2E16A19
:100C1000E552E16E00502FD0F5EC18F0FCEC18F026
:100C2000010E9DEC17F002E2E16AE552E16E005020
:100C30001FEC1DF0B6EC1CF09DEC1AF0010EE66EF8
:100C4000040EDBCF06F0050EDBCF07F0FB0EDB500A
:100C50000624046EFC0EDB500720056E04C0E6FF80
:100C6000E66E1DEC16F0086E080EE15C02E2E16A29
:100C7000E552E16E0850CEEC19F0EDEC1AF0060EDC
:100C8000E15C02E2E16AE552E16EF6EF16F09DECFE
:100C90001EF098EC1CF0010ED4EC1AF081EC1DF063
:100CA0005EDF006E070EE15C02E2E16AE552E16E92
:100CB0000050DF50E552F6EF16F0E8EC16F0300E7B
:100CC000E12402E3E168E652E16ED950F90FA2ECAB
:100CD00017F003E1F36AF46A27D185EC1EF0F70EF2
:100CE000DB50F35C006EF80EDDEC1DF01FEC1DF028
:100CF000D5EC19F001E20ED1D950F50FA2EC17F0A6
:100D00000FE076EC17F0F50EDBCF02F0F60E93EC69
:100D100017F006E2F50EDBCF22F0F60E31EC1BF0F9
:100D2000F70E50EC1CF0F80E9EEC18F002E2E3EC2B
:100D30001EF0DDEC1CF0F70EDBCF22F0F80EA0EC7D
:100D400019F0CDEC1AF0DAEC1BF0FB0EDBCF22F041
:100D5000FC0E3AEC1BF063EC18F001E3DB2A0D0EFD
:100D6000EFCFDBFF0F0EDB6AF40EDB500AE0610E03
:100D700073EC1DF006E30D0EDB507A0802E3D9ECAC
:100D800018F0200EF36E0E0E61EC19F006E2040E60
:100D9000DB50E76E0E0EE7CFDBFF0E0E10EC1AF005
:100DA00006E2020EDB50E76E0E0EE7CFDBFF0E0E03
:100DB000A7EC1DF0100FFEEC19F0ABEC1CF002E2FA
:100DC000E16AE552E16E00500E0EDB50DE26000EA9
:100DD000DD220E0EBDEC1EF002E143EC1BF0F40E22
:100DE000DB505CE00C0EDB6A13EC1EF001E38AD0F2
:100DF000D950100F016E000EDA20026E0C0E54EC6A
:100E00001AF010E3D950100F036E000EDA20046EB2
:100E10000C0E4CEC1BF006E3E00E026EA9EC19F090
:100E2000B0EC1BF0A9EC19F034EC19F00D0EDB500E
:100E3000F35C1BE1F90EDB06DBCF00F0FA0E01E2FA
:100E4000DB069EEC1BF042E063EC18F001E3DB2ACA
:100E500055EC1BF0610E73EC1DF01DE30D0EDB5025
:100E60007A0819E3D9EC18F016D06BEC19F013E0FE
:100E7000E8EC1CF001E3DB2A0D0EEFCFDBFF610E87
:100E800073EC1DF006E30D0EDB507A0802E3D9EC9B
:100E900018F00F0EDB6A0C0EDB2AA6D70C0EDB6AED
:100EA00013EC1EF02FE2A9EC19F00F0134EC19F04D
:100EB0000D0EDB50F35C17E1F90EDB06DBCF00F023
:100EC000FA0E01E2DB069EEC1BF006E176EC19F06F
:100ED0000C0E85EC1DF028D063EC18F001E3DB2A42
:100EE00055EC1BF00CD06BEC19F009E0E8EC1CF0B1
:100EF00001E3DB2A0D0EEFCFDBFF0F0EDB6A0C0EDA
:100F0000DB2ACED70E0E8CEC1DF01FEC1DF0D5ECBD
:100F100019F003E2F368F46807D00E0E37EC1AF00C
:100F2000060F88EC1CF02DD7300EE15C02E2E16A7E
:100F3000E552E16EF6EF16F0E8EC16F0310EE12422
:100F400002E3E168E652E16ED950F80FA2EC17F027
:100F500003E1F36AF46A10D185EC1EF0F60EDB5063
:100F6000F35C006EF70EDDEC1DF0CAEC1DF0D5EC65
:100F700019F001E2F7D0D950F40FA2EC17F00FE00E
:100F800076EC17F0F40EDBCF02F0F50E93EC17F0D1
:100F900006E2F40EDBCF22F0F50E31EC1BF0F60E7C
:100FA00050EC1CF0F70E9EEC18F002E2E3EC1EF0A1
:100FB000DDEC1CF0F60EDBCF22F0F70EA0EC19F002
:100FC000D8EC1AF0DAEC1BF005EC1FF00A0EEECFAD
:100FD000DBFF0B0EEECFDBFF0C0EEECFDBFF51EC99
:100FE00017F0100EDB6AF30EDB5009E0B7EC1DF0D2
:100FF00006E30E0EDB507A0802E3E4EC18F0200E54
:10100000F36E0F0E61EC19F003E2040E8DEC1BF091
:101010000F0E10EC1AF003E2020E8DEC1BF00F0E17
:10102000A7EC1DF0110FFEEC19F0ABEC1CF002E286
:10103000E16AE552E16E00500F0EDB50DE26000E35
:10104000DD220F0EBDEC1EF002E143EC1BF0F30EAF
:10105000DB5053E00D0EDB6A0F0EDB5073EC1DF01E
:1010600001E378D0D950110F016E000EDA20026E24
:101070000D0E54EC1AF010E3D950110F036E000E50
:10108000DA20046E0D0E4CEC1BF006E3E00E026E4F
:10109000B2EC19F0B0EC1BF0B2EC19F034EC19F032
:1010A0000E0EDB50F35C16E1F80EDB06DBCF00F032
:1010B000F90E01E2DB069EEC1BF039E0E4EC1DF0DA
:1010C000B7EC1DF017E30E0EDB507A0813E3E4ECE7
:1010D00018F010D085EC19F00DE0C3EC1CF0B7EC63
:1010E0001DF006E30E0EDB507A0802E3E4EC18F084
:1010F000100EDB6A0D0EDB2AAFD70D0EDB6A0F0E6A
:10110000DB5073EC1DF026E2B2EC19F00F0134EC69
:1011100019F00E0EDB50F35C13E1F80EDB06DBCFAB
:1011200000F0F90E01E2DB069EEC1BF006E176EC26
:1011300019F00D0E85EC1DF01FD0E4EC1DF007D06A
:1011400085EC19F004E0C3EC1CF0100EDB6A0D0E08
:10115000DB2AD5D70F0E8CEC1DF0CAEC1DF0D5ECB8
:1011600019F003E2F368F46807D00F0E37EC1AF0B9
:10117000060F88EC1CF043D7310EE15C02E2E16A15
:10118000E552E16EF6EF16F0E8EC16F0F70EDBCF65
:10119000E6FFDFEC1AF005EC18F0010EE66EE66AE9
:1011A000D3EC1BF081EC1DF088DD006E0A0EE15CD3
:1011B00002E2E16AE552E16E0050F6EF16F029EC2A
:1011C0001DF002E3E168E652E16EDF6A5BEC18F0C5
:1011D00001E3A2D1EEEC19F0030EDB6A010EDB6A2B
:1011E000020EDB6A0F013F51020B03E13F51040B7A
:1011F00010E077EC6DF000090CE0100E3CEC19F0FB
:101200000F013F51040B01E0010EE76E010EE7CF25
:10121000DBFF0F013EAB11D0FBECBEF00F01205005
:10122000395D006E21503A59016EE83402E2FCEC5F
:101230001AF003E3100E3CEC19F03EAD09D0A5EC1A
:101240001AF002E2FCEC1AF003E3100E3CEC19F089
:101250000B0E3D5D0BE1A5EC1AF002E2FCEC1AF07E
:1012600005E3110E3CEC19F00C0E3D6F040E3D5DD4
:101270005FE1F7EC1AF0EFEC18F05AE20DEC1FF01A
:1012800057E0B1EC1CF00EEC19F0405100184AE1A7
:101290004151011847E1BDEC00F064EC1CF0D4ECC6
:1012A00016F05EEC1BF0F4EC19F080EC1AF002E2A0
:1012B000E16AE552E16E0250BCEC1DF0EECF10FF8A
:1012C000EDCF11FFD4EC16F00C0E8FEC17F0EECF33
:1012D0000AFFEECF0BFFEECF0CFFEFCF0DFF0F019C
:1012E0000A2B0B230C230D231A511825026E1B51B8
:1012F0001921036E02501025006E03501121016E5A
:1013000019EC1EF0120E3CEC19F0060E3D6F01ECCC
:1013100017F002E2E16AE552E16E06500E01386B09
:10132000396B06D0040EDB2A050EA5E3DB2AA3D712
:10133000030EDB5009E0010EDB5002E0000E01D08D
:10134000010EE66EB8EC1BF00F013EB933D0070E6C
:101350003D5D01E0DFD0A7EC18F001E0DBD00F012C
:101360003E51070B06081AE13E51080B01E0010E41
:10137000E76E030EE7CFDBFFDFCFE6FF84EC02F082
:10138000E552DFCFE6FF84EC02F0E552030EDB50BE
:1013900001E0C0D00F010E0E3D6FBCD0BDEC00F0DF
:1013A000020EE66E100E97EC17F0F3EC17F00AEC55
:1013B0001BF0B0D0A7EC18F001E0ACD0BDEC00F011
:1013C0000F013D510C0A69E0060A62E0030A6FE072
:1013D000010A59E00F0A4EE00C0A4CE00D0A41E008
:1013E000030A3DE0060A11E0010A69E1FBECBEF0E8
:1013F00020C039FF21C03AFFF4EC19F065ECA3F0EE
:10140000E552E5520F01030E28D01C0EE66E0F0EBA
:10141000E66EF4EC19F0BAECA3F0AFEC1EF00009A4
:1014200015E1FBECBEF00F013951205C006E3A5122
:101430002158016E0050025D0150035940E2060E32
:10144000255D02E2E1EC1BF0020E07D0020E3CEC3F
:1014500019F0010EDB6A0F01050E3D6F30D0020E50
:1014600020D0020E255D02E2120E1BD03EB71FD027
:10147000020E06D0050E255D0EE3080E3D6F110E1F
:10148000F36E030E1AD0050E255D11E2110E09D080
:10149000050E255D0CE2100E04D0050E255D07E259
:1014A000110E3CEC19F0DE52010EDD6E08D0140E68
:1014B0003CEC19F0010EF36E020EF3CFDBFF030ECE
:1014C000DB5023E0010EDB501CE0E1EC1BF08CEC68
:1014D0001AF0016E026A036A01AE02D00268036864
:1014E00090EC18F077EC1DF008E2D8EC1DF001AE9E
:1014F00002D00268036890EC18F055EC1CF0E66A24
:1015000002D0010EE66EB8EC1BF0020EDB5002E0DA
:10151000B6EC0FF0DF2A5AD6F7EC1AF0EFEC18F021
:1015200030E20DEC1FF02DE0D4EC16F0120E8FEC33
:1015300017F03CEC1AF080EC1EF0FBECBEF0A8ECCF
:101540001BF0205C006E03502158016EDC0ED88029
:101550000054010E01540FE201EC17F002E2E16ABF
:10156000E552E16E06500E01386B396B040EDB0656
:10157000050E01E2DB06040EDB2A050ECFE3DB2AB3
:10158000CDD7060EE15C02E2E16AE552E16EF6EFCC
:1015900016F0E8EC16F0250EE12402E3E168E652CD
:1015A000E16EEFEC16F014EC1BF0170EEECFDBFF44
:1015B000FEEC17F0180EEECFDBFF190EEECFDBFFBF
:1015C0001A0EEECFDBFF1B0EEECFDBFF1C0EDB6A2D
:1015D000060EF36E1D0EF3CFDBFFD8EC1AF01E0ED5
:1015E00022C0DBFF1F0E23C0DBFF1E0EDBCFE6FF9A
:1015F0001F0EE8EC1BF01E0EF3CFDBFF1F0EEFEC0F
:101600001BF0140F5DEC1DF0200E00C0DBFF210E5F
:1016100001C0DBFFDFEC1AF082EC6FF0E552E5521F
:10162000220EF3CFDBFF230EF4CFDBFF200EDBCF48
:1016300000F0210EDBCF01F0220EDB50001849E153
:10164000230EDB50011845E1000EF6EC1BF0140EE2
:10165000D4EC1AF0E9EC70F0AFEC1EF024EC1DF0C5
:1016600078EC0FF0E552E552D9500C0FFCEC16F077
:10167000BBEC19F0006E016A140E005E000E015AF8
:10168000240E00C0DBFFDB50026E036AD8EC1AF0B8
:101690000250225C006E03502358016E140E005E4F
:1016A000000E015AF80E00C0DBFFF90E01C0DBFF8F
:1016B000E3EC17F024EC1DF0CCDAAFEC1EF00009DF
:1016C00008E0DFEC1AF024EC1DF0F5EC0FF0AFECC5
:1016D0001EF08BEC6DF0010E006E250EE15C02E257
:1016E000E16AE552E16E0050F6EF16F0E8EC16F014
:1016F0002A0EE12402E3E168E652E16EBDEC00F05F
:10170000FD0EDBA004D00F013F87FD0EDB900F0123
:101710003E9B3E9D3E9F3F933F953F9177EC6DF002
:101720000009FCE0FD0EDB50060B05E0260EDB6A2F
:10173000270EDB6AEFD00F010E512D1910E10F516A
:101740002E190DE1260EDB6A270EDB6A3FA7E2D0D9
:101750001451151101E1DED0FD0EDB80DBD02D51DF
:101760000E5D2E510F593CE20E512D5D006E2E5133
:101770000F5513EC19F003E38CEC1AF004D00CECC9
:1017800018F060EC1AF0D2EC1CF002E217EC1AF040
:10179000E7EC1EF002E268EC1AF03FA713D000EC71
:1017A00019F0280EDB50001803E1290EDB50011858
:1017B00009E04AEC1DF0EE1802E1020EED1802E01D
:1017C000FD0EDB80260EDBCFE6FF270EBAEC18F00D
:1017D00002E2E16AE552E16E0050ECEC1DF09AD0B5
:1017E0000E51295D006E2A510F55C0EC1BF0240EDE
:1017F000DB502D25026E250EDB502E21036E275166
:10180000025C006E2851035813EC19F003E38CECD2
:101810001AF004D00CEC18F060EC1AF0D2EC1CF0CA
:1018200002E217EC1AF0E7EC1EF002E268EC1AF0A4
:101830003FA713D000EC19F0280EDB50001803E18D
:10184000290EDB50011809E04AEC1DF0EE1802E108
:10185000020EED1802E0FD0EDB80240EDBCF00F05F
:10186000250EDBCF01F0260EDBCF02F0270E93EC26
:1018700017F004E2DCEC19F0FDEC1BF089EC1EF033
:10188000BAEC18F002E2E16AE552E16E0050260E71
:10189000DBCF02F0270EDBCF03F0240E22EC1FF08B
:1018A000250EDB500358C0EC1BF0D950240F93ECED
:1018B0001CF027E089EC1EF0DBCFE6FF42CFE6FF0D
:1018C00027CFE6FF28CFE6FFE66A0F010E51295D1C
:1018D000006E2A510F55016E026A036A070E002638
:1018E0000A0E0122000E022203228EEC1EF01DECD5
:1018F00016F0046E080EE15C02E2E16AE552E16E68
:101900000450ECEC1DF029510E5D2A510F5902E3F1
:1019100020EC1EF0D950260F93EC1CF004E1FD0ED4
:10192000DB50030B16E0D950260F93EC1CF002E0BD
:10193000FD0EDB86FC0EDBA008D00F01256BF20E3E
:10194000026F9E0E036F046B056B46EC19F03E8927
:1019500030D0FC0EDBA21ED03E0EE96E0F0EEA6EFA
:10196000EF50070BE82AE850070BF36EF46EF80E01
:10197000EF14F310EF6EF4500F010607000E075B33
:10198000085B095B010EF36E260EF3CFDBFF270E1B
:10199000DB6A0FD00F013EA90CD0DBB008D0255177
:1019A00006E02507D890053304330333023346ECB1
:1019B00019F0020E12CFDBFF030E13CFDBFF040E74
:1019C00010CFDBFF050E11CFDBFF060E06CFDBFFCE
:1019D000070E07CFDBFF080E08CFDBFF090E09CF8C
:1019E000DBFF0A0E0ACFDBFF0B0E0BCFDBFF0C0E6B
:1019F0000CCFDBFF0D0E0DCFDBFF0F0EDB9CDB9E54
:101A00000E0EDB90DB92DB94DB96FD0E8DEC1BF073
:101A1000140EDB6A150EDB6A00EC19F0C8EC1BF043
:101A2000FD0EDBA215D0DBB808D00A0EDB6A0B0E68
:101A3000DB6A0C0EDB6A0D0EDB6A24A303D0CFEC4D
:101A40001EF006D0062B000E07230823092324834B
:101A5000FD0EDBA00BD024A103D0CFEC1EF006D0EE
:101A6000062B000E072308230923248199EC1BF081
:101A700003E3C9EC18F002D01EEC1BF0100E00C0FE
:101A8000DBFF110E01C0DBFFBBEC6DF0CFEC1DF0F6
:101A9000400E005E04EC1CF0F9EC19F00001800E21
:101AA000011402E0DE6ADD6AE3EC19F02CEC1BF0B5
:101AB00008E2B4EC17F0100EEECFDBFF110EEDCF05
:101AC000DBFFD950020FFEEC19F012DAE552E552B5
:101AD00011EC1FF0140EEE26000EED220E0EDB8828
:101AE000DB9ADB8CDB9EFD0EDBA22DD011EC1FF010
:101AF000040EEE26000EED22020EF36E160EF3CF4C
:101B0000DBFF040EF36E170EF3CFDBFF020EF36E56
:101B1000180EF3CFDBFF140E5AEC1CF0010E006E12
:101B2000D9500E0FFCEC16F027EC1EF000240F0B22
:101B3000F36EF46EF346F346F346F3460F0EEF14DE
:101B4000F310EF6EF4501A0E90C4DBFF1B0E91C41D
:101B5000DBFF1C0E92C4DBFF1D0E93C4DBFF1E0EC9
:101B600018CFDBFF1F0E19CFDBFF200E1ACFDBFFD4
:101B7000210E1BCFDBFF220EDB6A060EF36E230E57
:101B8000F3CFDBFFDCEC19F0FDEC1BF089EC1EF071
:101B9000E8EC1BF0240EF3CFDBFF250EEFEC1BF07F
:101BA0001A0F5DEC1DF0120E00C0DBFF130E01C01A
:101BB000DBFFDF0EE66E090EE66E46EC6FF067ECBB
:101BC0001BF0060EE66EF4EC19F0D3ECB2F0006EEA
:101BD000050EE15C02E2E16AE552E16E0050140E8E
:101BE000E66EE66AD950020FFEEC19F0EAEC19F045
:101BF000FD0EDBA209D0040EE66EE66AD950160F80
:101C0000FEEC19F0EAEC19F0F30EE66E090EE66E42
:101C100050EC6FF067EC1BF082EC6FF0E552E55290
:101C200015EC1FF0030EE66E0A0EE66E46EC6FF042
:101C3000E552E552020ED4EC1AF0EAEC19F026EC6B
:101C40006FF02A0EE15C02E2E16AE552E16EF6EF26
:101C500016F029EC1DF002E3E168E652E16E68EC53
:101C60001CF0EE50ED1001E1AAD0DE52FE0EDD6E4A
:101C7000FEEC17F0020E8FEC17F0EECF06F0EFCF70
:101C800007F0FEEC17F00650EE24046E0750EE202D
:101C9000056EEFEC16F00450EE24026E0550EE20B7
:101CA000036E68EC1CF00250EE18006E0350EE1844
:101CB000016E6BEC18F0DF6A5BEC18F047E2EEECBB
:101CC00019F00D0E0F013D5D3FE0040E3D5D0CE18E
:101CD000CCEC1EF00050401937E10150411934E1BD
:101CE000010EDFCFDBFF30D040CF00F041CF01F05D
:101CF000020EDB50001828E1030EDB50011824E12E
:101D0000BDEC00F0CCEC1EF00F01125100181CE1EC
:101D10001351011819E1EFEC16F03CEC1AF01051D8
:101D2000021812E1115103180FE1FEEC17F0EE500A
:101D300018190AE1EE50191907E1EE501A1904E1D9
:101D4000EE501B1901E12DE0DF2AB6D7010EDB5062
:101D5000FE0829E0010EDBCFE6FF88EC00F0E5523B
:101D6000BDEC00F0010EDB50FE081DE0020EDBCFE3
:101D700040FF030EDBCF41FF91EC1DF002E2E16A70
:101D8000E552E16E0050EFEC16F0EECF10FFEDCF14
:101D900011FF68EC1CF0EECF12FFEDCF13FF5FECEC
:101DA0001CF0010E9BD0EFEC16F00D0E8FEC17F02F
:101DB000EF50020B04E00E013851391102E0000E21
:101DC0008DD0F7EC1AF0EFEC18F036E20DEC1FF0C6
:101DD00033E0B1EC1CF00EEC19F068EC1CF03CECBC
:101DE0001AF00250001822E1035001181FE1BCEC68
:101DF0001DF00EEC19F0EFEC16F03CEC1AF002506E
:101E0000001814E10350011811E1FEEC17F0B0ECDA
:101E10001DF0EE500001001808E1EE50011805E138
:101E2000EE50021802E1EE50031849E0040EDB2ADE
:101E3000050EC9E3DB2AC7D7DF6A5BEC18F04DE279
:101E4000EEEC19F00F013EA746D0BDEC00F0CCEC53
:101E50001EF000500F0112193EE1015013193BE131
:101E600064EC1CF005EC18F0D4EC16F05EEC1BF002
:101E700080EC1AF002E2E16AE552E16E0250EFEC0A
:101E800016F00EEC19F0BCEC1DF000C0EEFF01C026
:101E9000EDFFEFEC16F0040E8FEC17F0B0EC1DF038
:101EA0000C0E8FEC17F000C0EEFFC5EC1EF0CCEC72
:101EB0001EF0B1EC1CF000C0EEFF01C0EDFFFBEC2A
:101EC000BEF021C001F0D4EC16F0120E93EC1EF01F
:101ED00001C0EDFF03D0DF2AB0D7000E006E060E62
:101EE000E15C02E2E16AE552E16E0050F6EF16F0C5
:101EF000E8EC16F0EFEC16F0A1EC1EF0EFEC16F0AB
:101F000001EC1BF068EC1CF0A1EC1EF068EC1CF07E
:101F10001AEC1FF0040E74EC1CF0040E93EC1EF08F
:101F2000C5EC1EF0EFEC16F0080E74EC1CF0080E79
:101F300093EC1EF0C5EC1EF016EC1DF0A1EC1EF0AB
:101F400016EC1DF01AEC1FF0100E2AEC1FF0100E0C
:101F50008FEC17F01AEC1FF0120E2AEC1FF0120E85
:101F60008FEC17F001EC1BF0F6EF16F0BDEC00F073
:101F700012CF40FF13CF41FFF2EC1AF027CF2FFF13
:101F800028CF30FF29CF31FF2ACF32FF4BEC1CF096
:101F90000F013E51080B02E0040E01D00D0E3D6F03
:101FA0003E913E933E953E993E9B3E9D3E9F3F9186
:101FB0003F933F953F973F892491249324972499F9
:101FC0005FEC1CF07EECBDF0F3CF06FFF4CF07FF13
:101FD0007EECBDF0F3CF08FFF4CF09FF0F012269BB
:101FE0002369010E146F156B1200E8EC16F01A0E3F
:101FF000E12402E3E168E652E16EEFEC16F00D0E2B
:102000008FEC17F00E0EEFCFDBFFEFEC16F0080EA3
:102010008FEC17F00F0EEECFDBFF100EEECFDBFFD5
:10202000110EEECFDBFF120EEECFDBFFEFEC16F062
:10203000040E8FEC17F0130EEECFDBFF14EC1BF049
:102040000F013E913E933E953EB904D0F3EC17F05C
:102050000AEC1BF03D51050A23E0010A10E0E6EC12
:102060001AF0170E22C0DBFF180E23C0DBFF0E0E86
:10207000DBA04AD0170EDB2A180E46E344D00E0E22
:10208000DBB432EF15F0DBA805D04AEC18F0E66AB5
:10209000040EA1D2DBA232EF15F022EC19F029D008
:1020A0000E0EDBB439EF15F0DBA810D02EEC1EF0CD
:1020B00001E01BD1EE50071901E017D1EE500819CD
:1020C00001E013D1EE50091901E00FD10E0EDBA291
:1020D00039EF15F022EC19F0EDEC1EF00E0EDBA836
:1020E00008D011EC1DF00F01070E3D6F3E9939EF3E
:1020F00015F0010EE66E120E97EC17F00F01060EAA
:102100003D6F39EF15F0DB2A0E0EDBA205D0170E5E
:10211000DB2A180E01E3DB2A99EC1BF003E3C9EC80
:1021200018F002D01EEC1BF00C0E00C0DBFF0D0EF1
:1021300001C0DBFFD950130FFCEC16F00A51EE5C26
:10214000006E0B51EE58016E0C51EE58026E0D519F
:10215000EE58036E35EC1EF0080E02C0DBFF090ED0
:1021600003C0DBFF060EDBCF22F0070E3AEC1BF0BC
:10217000190EDB6AD950170F93EC1CF06EE0D950A2
:102180000C0F93EC1CF001E183D0F3EC1EF002E69F
:1021900070EC1BF005E3A7EC1EF0C0EC19F040E377
:1021A000170EDBCF00F0180E2DEC1AF08FEC1CF0A0
:1021B00079EC1BF00334000E031809E6D880000EFA
:1021C0000054000E0154000E0254000E03542BE282
:1021D0000C0EDBCF08F00D0EDBCF09F0170EDB5035
:1021E000085C046E180EDB500958056E066A076A13
:1021F00005AE02D0066807688FEC1CF0030EEBCF2B
:10220000F3FF0750F318E8AE02D0F33408D0EE50D5
:10221000045CEE500558EE500658EE50075803E3A4
:10222000010E5AEC1CF0A7EC1EF0030EEB50031845
:10223000E8AE02D0033402D0C0EC19F029E2170E48
:10224000DBCF06F0180EB0EC1AF0E83421E20450AF
:102250000008000E05541CE218D03CEC1EF0080EDD
:10226000DBCF02F0090EDBCF03F0005001100210AB
:1022700003100BE0F3EC1EF002E670EC1BF008E339
:10228000A7EC1EF0C0EC19F003E2010E5AEC1CF0B2
:10229000190EDB5005E10E0EDBB4EBD335EF15F074
:1022A0000E0EDB50060B01E0DDD30E0EDBA8E1D3F2
:1022B0003D510C0A01E1A8D10B0A39E00F0A37E0C1
:1022C000010A35E0020A33E0010A31E00C0A01E0BC
:1022D000AED12EEC1EF008E1EE50071905E1EE50EC
:1022E000081902E1EE50091920E0130E06CFDBFFBA
:1022F000140E07CFDBFF150E08CFDBFF160E09CF3C
:10230000DBFF4AEC18F0010EE66E040E97EC17F0B6
:10231000130EDBCF06FF140EDBCF07FF150EDBCF4E
:1023200008FF160EDBCF09FFA4D3070E3D6F0E5139
:102330002D5D006E2E510F55016EADEC17F0040EA1
:1023400093EC1BF006E0CDEC17F0D950040F88ECAD
:102350001CF0040EDBCF00F0050E2DEC1AF0060E7B
:10236000E96E0F0EEA6E79EC1BF084EC18F0F6ECD7
:102370001CF00450EE5C006E0550EE58016E0650E5
:10238000EE58026E0750EE58036E0001800E0314E3
:1023900002E0E66A6CD30F012F510E5D046E0F51FF
:1023A0003055056E066A076A05AE02D006680768F2
:1023B0000450065D006E05500759016E065008591D
:1023C000026E07500959036E84EC18F077EC1DF08B
:1023D0000CE2D8EC1DF0B4EC17F00050EE5E0150AA
:1023E000EE5A0250EE5A0350EE5AF6EC1CF0EE5044
:1023F000045C006EEE500558016EEE500658026EF9
:10240000EE500758036E84EC18F0DECF21F0DECFDB
:1024100022F0DECF23F0DDCF24F0DD52DD52243474
:10242000000E241809E6D880000E2154000E225414
:10243000000E2354000E24545BE2D8EC1DF0B4ECE3
:1024400017F0EE50005CEE500158EE500258EE507E
:1024500003584EE3249724993F91040E2FCFDBFFBE
:10246000050E30CFDBFFB4EC17F0EE502F27EE5007
:102470003023D0EC1BF00E5D01500F5909E377ECCF
:102480001DF023E20E512F5D006E30510F5518D014
:102490000CEC18F00E510224006E0F510320016E57
:1024A000ADEC17F06DEC1CF02F51005C3051015871
:1024B0000CE2040EDB502F5D006E050EDB50305930
:1024C000016EC8EC1BF055EC1CF029512F5D2A5110
:1024D000305906E3CDEC17F000502F5F0150305B10
:1024E00029510E5D2A510F5928E320EC1EF025D00A
:1024F0000E512F1902E10F5130191FE024A71CD0F3
:1025000024A919D08CEC1AF0016E026A036A01AE9C
:1025100002D00268036890EC18F077EC1DF008E236
:10252000D8EC1DF001AE02D00268036890EC18F000
:1025300055EC1CF03F85248924872D512F1917E174
:102540002E51301914E13FB702D03E9910D0A4ECBF
:102550001CF00DE10751EE180AE10851EE1807E1F1
:102560000951EE1804E103E13E993F97249114517B
:10257000151106E116EC1DF0EE50ED1001E03F8361
:10258000EDEC1EF0080E3D5D1CE1A4EC1CF04FE1EB
:102590000751EE184CE10851EE1849E10951EE18C7
:1025A00046E145E1F3EC17F0BA0E0F0135271A0E9C
:1025B0003623030E3723000E38233E89090E3D6F64
:1025C00036D0090E3D5D0AE10E0EDBB030D04AEC8C
:1025D00018F0E66A140E97EC17F044D20A0E3D5D2F
:1025E00026E1A4EC1CF001E044D20751EE1801E012
:1025F00040D20851EE1801E03CD20951EE1801E03A
:1026000038D201E036D22ED2A4EC1CF001E031D257
:102610000751EE1801E02DD20851EE1801E029D241
:102620000951EE1801E025D201E023D21BD20E0E93
:10263000DBBA1FD20B0E3D5D01E11BD20A0E3D5DE0
:1026400001E117D20C0E3D5D01E113D2D950FA0F12
:10265000A2EC17F001E188D107EC19F0013402E295
:10266000FCEC1AF001E2ACD0F4EC1DF0026E036A4F
:102670000A0EDB50F35C006E0B0EDB5003587CEC53
:102680001DF056ECB3F0E552E55207EC19F0D950C5
:10269000FA0FEDEC17F0ED220BEC1CF00C0EDBCF7B
:1026A00002F00D0E93EC17F00CE20C0EDBCF22F0D3
:1026B0000D0EDBCF23F0FA0E22C0DBFFFB0E23C092
:1026C000DBFF0BEC1CF000500F0112EC1CF0FA0EBB
:1026D000DB503125006EFB0EDB503221016E2EECFB
:1026E0001DF021E2315106EC1BF0325509EC1FF0D0
:1026F000F5EC18F090EC19F002E2E16AE552E16EB7
:102700000050D4EC17F002E2E16AE552E16E0450A9
:10271000F9EC1EF0016E0F0129510024316F2A518E
:102720000120326F10D005EC18F090EC19F002E2A5
:10273000E16AE552E16E0050E6EC1AF022500F011A
:10274000312723503223221D01E1231D01E10CD149
:10275000E6EC1AF02250225F2350235B165122250B
:10276000006E17512321016EADEC17F0040EDBCF84
:1027700000F093EC1BF021E1233504E22251000824
:10278000000E235501E2F0D0D0EC1BF012EC1CF04F
:10279000040EDBCF22F0050EDBCF23F022503127D1
:1027A0002350322331512B5D32512C5906E29FECDC
:1027B0001CF00050315F0150325B22692369D4D094
:1027C00007EC19F0013401E3CFD0FCEC1AF001E37F
:1027D000CBD00A0EDBCF02F00B0EDBCF03F082EC86
:1027E0001BF00C0EDBCF04F00D0EC9EC1AF00EE25C
:1027F0000C0EDBCF02F00D0EDBCF03F086EC1BF0EE
:10280000FA0E00C0DBFFFB0E01C0DBFFF4EC1DF095
:10281000F6EC1BF00A0EDB500F0119EC1CF082ECF9
:102820001BF02EEC1DF03EE231512B5D026E2C515F
:102830003255036E3CEC1CF086EC1BF08EDB040E74
:1028400093EC1BF010E1F5EC18F03CEC18F002E210
:10285000E16AE552E16E0250A7DB02E2E16AE5526D
:10286000E16E045026D0D1DB4DEC1DF00A0EDB509A
:1028700019EC1CF029512B5D046E2C512A55056E64
:10288000010E0426000E052244EC1DF07CEC1DF028
:10289000D4D9066E080EE15C02E2E16AE552E16E0F
:1028A000065007D0B2DBE8DB02E2E16AE552E16EF6
:1028B00002500F01221D07E1231D05E127EC1CF04A
:1028C00020EC1CF051D007EC19F02251005C235190
:1028D000015825E2B2DB13E3FA0EDBCF08F0FB0E62
:1028E000DBCF09F00A0EDB500824066E0B0EDB501E
:1028F0000920076E2251065C2351075803E220ECA1
:102900001CF00AD02EEC1CF00A0EDB50005C166F97
:102910000B0EDB500158176F27EC1CF025D08DDB18
:1029200023E207EC19F022511625026E23511721DC
:10293000036E0050025C0150035816E3FA0EDBCF21
:1029400006F0FB0EB0EC1AF02251045C026E23512B
:102950000558036E1651025C006E17510358016E44
:102960000050162701501723D950170F93EC1CF075
:1029700017E0070E3D5D02E041EC1CF03EAF05D0D4
:1029800011EC1DF0BDEC00F00BD03E8F3EBD08D029
:102990003E8D35EC1CF00F0E0F013B27000E3C2343
:1029A0000E0EDBA066D00ACF00F00BCF01F00CCFEB
:1029B00002F00DCF03F0002A000E012202220322B2
:1029C000170EDBCF04F0180EDBCF05F0066A076A9E
:1029D000D950130F11DAEE500426EE500522EE50B6
:1029E0000622EE5007220050041843E1015005185A
:1029F00040E1025006183DE1035007183AE139E181
:102A00000F010A2B000E0B230C230D233D51090A45
:102A100026E0010A14E00F0A08E0010A26E10C0E84
:102A20003D6F010EE66E110E23D00B0E3D6F35EC9F
:102A30001CF01F0E0F013B27000E3C2316D0A4EC08
:102A40001CF00AE10751EE1807E10851EE1804E105
:102A50000951EE1801E103E00A0E3D6F06D0E66A67
:102A6000100E65DAB6EC0FF004D0010EE66E100E13
:102A70005EDA1A0EE15C02E2E16AE552E16EB6D17D
:102A800029EC1DF002E3E168E652E16E04DAD4ECD1
:102A90001DF007E1010EF36EFB0EF3CFDBFFFC0E22
:102AA000DB6A0F01275106EC1BF02855016E00066A
:102AB00004EC1CF097EC19F0DECF04F0DDCF05F04C
:102AC00098EC1EF06BE3BDEC00F0F80EDB50030B4E
:102AD00003E1F80EDB80DB82CDEC1AF0040E22C09D
:102AE000DBFF050E23C0DBFF97EC19F0C6EC1DF0F1
:102AF000F80EDBA20ED0DBA006D0F9EC19F0D890CE
:102B00000132003202D0F9EC19F0D950040F88ECF0
:102B10001CF0040EDB500F012725006E050EDB5064
:102B2000282115DA00C0DEFF01C0DDFF020E31CF23
:102B3000DBFF030E32CFDBFF221D01E1231D10E07E
:102B40002EEC1CF0D950020F88EC1CF0CFD92EECE3
:102B50001DF006E29FEC1CF0D950020F26EC1FF08E
:102B6000C5D90050335D015034590BE2F9EC19F02E
:102B70000050335D015034591BE2F80EDBB40ED027
:102B80000FD043EC1EF00CE2F9EC19F00050295D77
:102B900001502A590DE2F80EDBA402D0000E44D0F9
:102BA000DECF33FFDDCF34FFDECF31FFDDCF32FFAD
:102BB00043EC1EF027E2F80EDB50040B23E0020E7C
:102BC000DBCF22F0030EDBCF23F02951225C006E15
:102BD0002A5123589DEC1AF00FDB3EEC1DF002E267
:102BE000E16AE552E16E02500F0199EC1BF00AE236
:102BF000DE50295D006EDD502A59016E0050315FB4
:102C00000150325BDECF29FFDDCF2AFF5FEC1CF0E5
:102C100027CF2FFF28CF30FFF2EC1AF0070E3D5DD3
:102C200002E111EC1DF0010E006E060EE15C02E205
:102C3000E16AE552E16E0050D9D0CAD8F80EDB50F7
:102C40001BE0010A40E1FB0EDB500CE0010A3BE116
:102C50002EDAB9D986EC1AF002E2E16AE552E16EA9
:102C6000005031D0D950FC0FF3DB02E14AEC1EF0EA
:102C70001EDA29EC71F014D0FB0EDB5014E0010ACF
:102C800022E1D950F90FE4DB06E10AEC1DF050EC2B
:102C90006FF0E552E55251EC1EF095D9E9EC70F079
:102CA000AFEC1EF010D003DA8ED93AEC70F0006E63
:102CB000060EE15C02E2E16AE552E16E0050E1ECF1
:102CC00070F00009FCE092D083D8120EE12402E3F8
:102CD000E168E652E16EFB0EDB5014E0010A5DE1B3
:102CE000F60EDBCFE6FFF70E74EC1AF06CD98CEC25
:102CF000A9F0006E070EE15C02E2E16AE552E16EC6
:102D000000504BD0D950FC0FA3DB02E14AEC1EF07F
:102D1000100EF36EDB6E110EDB6AD950F60F12D96E
:102D20003CE051DBF60EDBCF02F0F70EFCD80CE2F4
:102D3000F60EDBCF22F0F70EDBCF23F0100E22C011
:102D4000DBFF110E23C0DBFF100EDBCFE6FF110E01
:102D5000CBDB24EC1DF08CECA9F0006E070EE15CDF
:102D600002E2E16AE552E16E0050100EDBCFE6FFB1
:102D7000110EDBCFE6FF24EC1DF02CDB24DB026A16
:102D8000D950F80F2AD9EE220250EE221CDBD9507E
:102D9000F60FBEEC1CF01CD9C0D7120EE15C02E2AB
:102DA000E16AE552E16E22D0040EDBCFE9FF050EA9
:102DB000DBCFEAFF140EEA02F3CFEAFFE902F3CF1A
:102DC000E9FFF450EA26000EE9260E0EEA22120070
:102DD00024EC1DF0E1CFD9FFE2CFDAFF1200FC0EA8
:102DE000DBCFE9FFFD0EDBCFEAFF1200E552E5CFB6
:102DF000DAFFE7CFD9FF1200E96E000EDA20EA6EA3
:102E000012006DEC1CF0020ED8800056000E015628
:102E1000140E0102F3CF01F00002F3CF00F0F450E2
:102E20000126F3CFE6FF01C0E6FF010EE66EE76E76
:102E300058EC1EF0E7500226000E0322140E030287
:102E4000F3CF03F00202F3CF02F0F4500326000E9A
:102E500002260E0E032280EC1EF0010EE66E040E1A
:102E6000DBCF04F0050EDBCF05F0140E0502F3CF27
:102E700005F00402F3CF04F0F4500526000E0426FA
:102E80000E0E052204C0E6FF05C0E6FFD6DE066E84
:102E9000080EE15C120081EC1DF088EC00F0E552B8
:102EA000120005EC1FF0EFCFF6FFEE2AEFCFF7FF91
:102EB000000EEE22EFCFF8FFEE2208000E0EF5CF47
:102EC000DBFF12003E8BFBECBEF020C000F021C007
:102ED00001F0026A036A060E0026000E0122022299
:102EE000032200C039FF01C03AFF1200020EFFEFBB
:102EF0001EF0700E006E840E016E010E026EDFCFAA
:102F000003F0046A056A060E266E276A286A03C063
:102F100021F004C022F005C023F072EF9EF0E926F4
:102F2000000EEA221200DBCF03F0C1EF1DF0E66EC7
:102F300076EC0BF0E552E5521200E66E98EC1CF0D0
:102F4000ABEF1CF0BEEC1CF0EE50ED101200016E69
:102F5000010E0026000E01221200040E00C0DBFF4D
:102F6000050E01C0DBFF1200D9CFE9FFDACFEAFF7F
:102F7000120000501E24F36E01501F20F46E025008
:102F80002020F86EF4CFF7FFF3CFF6FF120081ECAC
:102F90001DF0E9EC02F0E55212002751295D006EA8
:102FA0002A512855016E1200F9EC1EF07CEC1DF040
:102FB0004DEC1DF029CFE6FF2ACFE6FF3EDE046E82
:102FC000080EE15C1200FC0EDBCFE6FF81EF1DF086
:102FD0000050EE5E0150ED5A1200BEEC1CF00050A5
:102FE000EE2601501200F1ECBEF020C035FF21C0EA
:102FF00036FF22C037FF23C038FF1200FA0EDBCFA6
:10300000E9FFFB0EDBCFEAFF1200FA0EDBCFE6FF93
:10301000FB0EDBCFE6FF12002751295D026E2A511D
:103020002855036E120081EC1DF0A6EC04F0E55269
:103030001200E552E552CFEF1DF0FA0EDBCF02F0A1
:10304000FB0EDBCF03F00A0ED6EC1EF00B0EDB50AE
:103050000320016E22511625046E23511721056E9F
:1030600098EF1EF0FA0EDBCFE6FFFB0EDBCFE6FF9C
:10307000FC0EDBCFE6FF12004DEC1DF00A0EDB501C
:103080003125006E0B0EDB50322100017CEC1DF06F
:103090003EEF1DF00F0EDBCF06FF100EDBCF07FF5C
:1030A000110EDBCF08FF120EDBCF09FF120051EC2F
:1030B0001EF00AEF1DF0DF50006E016A060E005C84
:1030C000000E01581200FB0EDBCFE9FFDB2AFC0EDD
:1030D000DBCFEAFF1200020E00C0DBFF030E01C0CF
:1030E000DBFF120015EC1FF067EC1DF0DE50025CF8
:1030F000006EDD5003586EEC1DF0040EE15C120012
:103100005FEC1EF0ABEF1CF000C0DFFF010E01C052
:10311000DBFF020E02C0DBFF030E03C0DBFF120069
:103120000050065F0150075B0250085B0350095BCB
:103130001200DBCFF4FFF350F45C1200DB503421BB
:10314000016E35EC1EF03CEC1EF02EEF1DF0F1ECA4
:10315000BEF00F013551205C006E36512158016ED2
:1031600037512258026E38512358036E0001800EE9
:1031700003141200DBCFE6FF42CFE6FF0ECFE6FFDF
:103180000FCFE6FFE66A070EE66E0A0EE66EABEFBD
:103190001CF029512B5D026E2C512A55036E3351C0
:1031A000315D046E32513455056E44EC1DF0016EF4
:1031B0001200E00E006E0D0EDBCFE7FF0050E72699
:1031C0000D0EE7CFDBFF1200E00E006E0E0EDBCF20
:1031D000E7FF0050E7260E0EE7CFDBFF12007DDB96
:1031E000030E005C000E01581200040EDBCFE6FF58
:1031F000050EDBCFE6FF120042CFE6FF7BEF1EF0AD
:10320000260EDBCF00F0270EDBCF01F012000A0EF6
:10321000DBCF00F00B0EDBCF01F01200EECF00F0A1
:10322000EFCF01F01200016E260E00C0DBFF270E6B
:1032300001C0DBFF280E14CFDBFF290E15CFDBFF0B
:1032400077EF1DF0130EDBCF0AFF140EDBCF0BFF61
:10325000150EDBCF0CFF160EDBCF0DFF0A2B000E79
:103260000B230C230D2312000024E96E000E012015
:10327000EA6EEF50F36E1200F36E030EF3CFDBFF36
:103280001200036EA3EC1DF019EF1EF0F1ECBEF07E
:1032900020500F010225356F21500321366F225037
:1032A0000421376F23500521386F120058EC1EF0AF
:1032B000DE500224006EDD50032000C0F3FFF46EE8
:1032C0001200F3CFDBFFDBCF00F0040EDBCF01F009
:1032D000050EFBEF1DF066EC1EF0F90E22C0DBFFC1
:1032E000FA0E23C0DBFF0F0EDB501200060EDBCF01
:1032F00004F0070EDBCF05F0080EDB50045C026E15
:10330000090EDB500558036E120066EC1EF0F80E35
:1033100022C0DBFFF90E23C0DBFF100EDB501200D2
:10332000BCDB31CFE6FF32CFE6FFABEF1CF087DB33
:10333000DBCF03F0FB0ED6EC1EF0FC0E1EEF1FF0F1
:10334000DBCF23F0060E22C0DBFF070E23C0DBFF1E
:103350001200D950100F006E000EDA20016E0C0E14
:10336000DB501200D950110F006E000EDA20016EF2
:103370000D0EDB50120027EC1EF0040DF35012006E
:103380000050EE5C0150EE580250EE580350EE58DB
:103390001200B7DBF7EC02F0E5521200F90EDBCFBA
:1033A00000F0FA0EDBCF01F01200DBCF03F0025089
:1033B000005C035001581200260EDBCF22F0270ECE
:1033C000DBCF23F01200100EDBCF00F0110EDBCFAD
:1033D00001F0120029EC71F0AFEF1EF0DFCFE6FF35
:1033E00088EC00F0E5521200180EE66E0F0EE66E45
:1033F0001200DECF00F0DDCF01F01200E66E000E0D
:10340000DA20E66E1200EECFE6FFEFCFE6FF120005
:103410001C0DC5DB000E0026020E01228EEF1EF0F1
:10342000DBCF00F0020EDBCF01F0030EE4D3280E59
:10343000DBCF22F0290EDBCF23F0260E22C0DBFFEC
:10344000270E23C0DBFF1200D8900332023299D33B
:1034500095DAEE52EF50800B1200DBCF01F0026ADA
:10346000036A1200DBCFDEFFDBCFDDFF1200DB5093
:10347000006E016AD9501200EECF02F0EFCF03F0D8
:103480001200E66E6A511C0DF3CFE9FFF4CFEAFF9C
:10349000000EE926020EEA2212005FEC1EF014DC98
:1034A000006E080EE15C1200DB500F010124E96E92
:1034B000000E0220EA6EEFCF00F0610E005C1200F9
:1034C0000E512F5D046E30510F55056E44EF1DF007
:1034D000180EF36E260EF3CFDBFF020EF36E270EEF
:1034E000F3CFDBFF3F851200DBCFE6FFF80EDBCF2B
:1034F000E6FFF90EDBCFE6FFFA0EDBCFE6FF1200A8
:1035000061ECA9F0026E060EE15C120061ECA9F01C
:10351000006E060EE15C12002F510E5D006E0F5121
:1035200030551200DE502D25006EDD502E21016E2B
:103530002951005C2A5101581200DEDA42CFE6FF21
:1035400029CFE6FF2ACFE6FF1200FBECBEF00F0109
:1035500020503B5D006E21503C59016EE834120052
:10356000DBCF07F00A0EDB500624046E0B0EDB5097
:103570000720056E1200020EF3CFDBFF030EF4CF1F
:10358000DBFF120042CFE6FF33CFE6FF34CFE6FF8A
:103590001200DBCF05F098EF1EF0F90EDBCF22F022
:1035A000FA0EDBCF23F01200E66EE66A24EF1DF080
:1035B000F80EDBCF22F0F90EDBCF23F01200F80E6D
:1035C000DBCFE6FFF90EDBCFE6FF1200FA0EDBCF12
:1035D00022F0FB0EDBCF23F0120000C0F3FF01C08E
:1035E000F4FF120027CF2DFF28CF2EFF1200040E6C
:1035F000DB6A050EDB6A120000500008000E015461
:103600001200F3CFEEFF01C0EDFF12002B5D006E44
:103610002C511200740E0F013527350E3623060E7D
:103620003723000E38231200140EEECFDBFF150EE9
:10363000EECFDBFF160EEECFDBFF12003151335D14
:10364000006E34513255016E0006000E015A120010
:10365000E16E00506DEF1CF0DECF02F0DDCF03F025
:1036600090D2DBCF23F0020E22C0DBFF030E23C07B
:10367000DBFF1200DBCF23F00A0E22C0DBFF0B0EB4
:1036800023C0DBFF120029CFDEFF2ACFDDFF040EAF
:10369000DB68050EDB681200DB500324E96E000EC8
:1036A0000420EA6EEF507A0812000D0EEFCFDBFF18
:1036B000010EF36E0F0EF3CFDBFF1200E9CF00F027
:1036C000EACF01F0E9CFE6FFEACFE6FF1200E552CC
:1036D000E552260EDBCFE6FF270EDBCFE6FF12001A
:1036E000000EEE5C000EEE58000EEE58000EEE5886
:1036F0001200EE500026EE500122EE500222EE5053
:1037000003221200FA0E52DBFB0E98D30A0E9ADB4C
:103710000B0EDB500358016E1200DB50E76E0F0EEC
:10372000E7CFDBFF1200050EDBCF01F0800E0114A6
:1037300012003351315D345132591200DBCF01F0A8
:10374000005001101200005E000E015A8EEF1EF0B4
:10375000E552E7CF03F0E552E7CF02F00250120046
:103760000024E96E000E0120EA6E0250EF261200DE
:10377000030EDBCFE6FF76EC0BF0E552E5521200CC
:10378000016E240E00C0DBFF250E01C0DBFF12001E
:103790000050062701500723000E082309231200BA
:1037A0009CD800501200D950FC0FE66EFF0EDA20B4
:1037B000E66E1200080E22C0DBFF090E23C0DBFFFD
:1037C0001200252BD8900237033704370537120033
:1037D000DBCFE6FF8DEC64F0E552E5521200F4CF4A
:1037E000DBFF0C0EE66EE66AD9501200E66EE66A62
:1037F00056ECB3F0E552E5521200240E22C0DBFF76
:10380000250E23C0DBFF1200000E015A00C0DEFFB0
:1038100001C0DDFF1200FA0EDBCF00F0FB0EDBCFA4
:1038200001F012000A2701500B23000E0C230D2378
:1038300012003125026E0B0EDB503221036E120096
:10384000FA0EDBCF16FFFB0EDBCF17FF12000A0EBE
:10385000DBCF22FF0B0EDBCF23FF120022511625F8
:10386000006E23511721016E1200FBECBEF020C048
:103870003BFF21C03CFF1200010E0226000E032276
:10388000120031CF33FF32CF34FF1200E652E6523E
:10389000E652E652120029CF33FF2ACF34FF12003E
:1038A000DB500F013325006E12002FCF0EFF30CFFB
:1038B0000FFF1200F36E190EF3CFDBFF120027CFBC
:1038C0000EFF28CF0FFF12000A0EE66EE66A120006
:1038D000EFEC16F0020E8FEF17F0040EDBCF00F0C6
:1038E000050EDBCF01F012008FEC17F0EECFE6FFF4
:1038F000EECFE6FF88DDACEC64F031DA20C000F0FA
:1039000021C001F022C002F023C003F0EFEF16F057
:10391000FCEC16F00050EE260150ED221200D950BA
:10392000060FFCEF16F0FCEC16F0EE50ED10120056
:10393000FB0EDBCFE6FFFC0EDBCFE6FF12002951CA
:1039400065DE2A55A7EF17F0D9500F0FFCEC16F0E3
:103950000651EE1812001DEC16F0006E080EE15C28
:103960001200D4EC16F0100E8FEF17F0DBCF03F03F
:10397000040E68DA050EDB5003581200E96EFF0EE4
:10398000DA20EA6E1200D9500A0FFCEC16F0FA0E9B
:10399000EECFDBFFFB0EEECFDBFFFC0EEECFDBFF4F
:1039A00051EF17F0016ED950280F50DA29DC280E9C
:1039B000DBCF02F0290E93EF17F0060E53DDDB503C
:1039C0002B5D006E070EDB502C59000109EF1FF034
:1039D0000A0EDBCF22F00B0EDBCF23F0FB0E22C052
:1039E000DBFFFC0E23C0DBFF63EF18F00F0EDBCF15
:1039F00004F0100EDBCF05F0110EDBCF06F0120E37
:103A0000DBCF07F0B4EF17F010DAB4EC17F0EE509C
:103A1000ED101200F90EDBCFE6FFFA0EDBCFE6FF6A
:103A20001200010EE66E100E97EF17F0EFEC16F095
:103A30000E0E8FEF17F0E8EC16F04BEF17F0F90EC3
:103A4000DBCF02F0FA0E1200D9CFE6FFDACFE6FFA5
:103A50001200E8EC16F0060EE124120000502B5D77
:103A600001502C591200E16E0050B4EC17F0EE50EA
:103A70000F012D27EE502E2376EF17F01DEC16F0D8
:103A8000026E080EE15C12000450025C006E0550EC
:103A900003581200C6D9180E1200E66AE668E668F6
:103AA00042CFE6FF12002D51295D006E2A512E559E
:103AB000016EADEC17F0F5EF18F0A0DCD3EC64F07C
:103AC000E552E55219EC18F0001E011E1200020E1C
:103AD000DBCF02F0030EDBCF03F01200016E00C05B
:103AE000F3FFF46E1200F36E0D0E99EF18F02F51E4
:103AF0000E5D30510F591200016E00C0E6FFE66EF8
:103B00001200FD0EDBCFE6FF120050D9000E03209D
:103B1000A7EC17F0EDEF1AF0AADC020F97D976EFB9
:103B200017F0D2DE05EC18F05FDC86EF1AF0010E1C
:103B3000E66E110E97EC17F00F01145115111200DB
:103B4000020E90DC5CD1F70E31D9F80E77D1DBCFC5
:103B5000E6FFE66AFCEC18F0010EE66ED9501200A2
:103B6000EECF00F0EECF01F087DCD4EF16F0610E5F
:103B7000F36E0E0E99EF18F0D4EC16F00A0E8FEFDC
:103B800017F00050025C015003581200B4EC17F01B
:103B9000E8EF17F0F80EDBCF02F0F90E1200F3CFCA
:103BA00000F0F4CF01F01200D950FB0FA2EF17F094
:103BB000CDEC17F0026A036A1200DB50F458016E74
:103BC0006BEC18F076EF17F051EC17F0010EF36E76
:103BD000100EF3CFDBFF1200DCEC19F022500F01C6
:103BE0000E2723500F231200EFEC16F00C0E8FEC73
:103BF00017F0BBEF19F0DBCF02F00050015C000EB4
:103C0000025812001FC004F020C005F0B9EF17F0F1
:103C100076EC17F00CEC18F024EF1AF0E8EC16F044
:103C200035DE4BEF17F00E0EDB50F36E0C0E99EFF6
:103C300018F000501219406F01501319416F120013
:103C4000CDEC17F000500E5F01500F5B1200EF50EB
:103C5000F00BE842E842E842E8421200D9500F0F68
:103C6000FCEC16F0EE5006191200060E00C0DBFF49
:103C7000070E01C0DBFF1200060EDBCF00F0070EBF
:103C8000DBCF01F0120076EC17F03351005C3451B9
:103C900001581200E3EC17F046EC6FF0E552E552E4
:103CA0001200F60EDBCFE6FFF70EDBCFE6FF1200C9
:103CB000040EDBCF02F0050EDBCF03F0120042CF83
:103CC000E6FF2DCFE6FF2ECFE6FF1200080EDBCF7A
:103CD00022F0090EDBCF23F012004BEC17F0C9EFF6
:103CE00019F0B4EC17F0010EEE181200C7EC17F043
:103CF0000F013F811200DECFE6FFDDCFE6FF1200AD
:103D000002C0E6FF03C0E6FF12004BEC17F013EF12
:103D100018F0240EDBCFE6FF250E120000C0E6FFF0
:103D200001C0E6FF12008FEC17F020C0EEFF12007A
:103D30000050045C015005581200E8EC16F0E65201
:103D4000120003EC1AF08DEC64F019EF18F00C0E71
:103D5000DBCF00F00D0E2DEC1AF08FEF1CF0E552CA
:103D6000E552E552E5521200E16E41DCB6DFBBECF4
:103D70001AF0D950020F93EF1CF037EC1AF0040F31
:103D800065D8D950040F93EF1CF001C0EEFF02C0BC
:103D9000EEFF03C0EEFF12009BDD0EEF19F0BFDD5A
:103DA000EE06000EEE5AEE5AEE5A1200DB500224D6
:103DB000006E1200010EE66EBBDD80EF18F08DDDA7
:103DC000E5DEF2EF1AF0BBDDAADDE8EF17F062DE08
:103DD000D880EE54020EED54120028DEEECF14FF10
:103DE000EDCF15FF12009BDDD890030EEB50000ABB
:103DF0001200FA0EDBCF02F0FB0EB6EF1CF0DBCFA9
:103E000000F0030EDBCF01F01200D950FA0FBEEF25
:103E10001CF0A7EC17F0ADEF17F0A3DDEE50ED109E
:103E20001200D950260FFCEF16F0F3CFDEFFF4CFCF
:103E3000DDFF120001EC1BF0EFEF16F0DB5003206A
:103E4000016E1200DB50025C006E1200FCEC16F0FA
:0E3E5000E8EF17F08FEC17F074DFEFEF16F0CD
:023E5E0007015A
:103E6000046BFF0EE66EE66A000EE66EE66AA10ED1
:103E7000E66EE66A1EEC67F0D2EC34F002E2E16A2C
:103E8000E552E16E00500A016B6F1200C3EC30F096
:103E9000160EE12402E3E168E652E16EFF0E0A012C
:103EA0006B5D52E06BCAE6FF9DEC69F087EC32F087
:103EB0004BE06BCAE6FF9CEC2CF0E552080EDB6A87
:103EC000D950080FD3EC30F0ACEC34F05BDAD2EC24
:103ED00034F002E2E16AE552E16E0050E76E0F0E47
:103EE000E7CFDBFFDB502EE0D950090FD3EC30F0E9
:103EF0008FDAC9EC33F026E00701049196EC31F03B
:103F000001E00481080EDBCFE6FFACEC34F0BCDA54
:103F1000006E050EE15C02E2E16AE552E16E0050DE
:103F2000E76E150EE7CFDBFF070104A102D069ECB5
:103F300032F0150EDB5006E00501D85105E1DBEC4F
:103F400068F002D001EC6AF0010E006E160EE15C22
:103F500002E2E16AE552E16E0050D8EF30F0BAECCF
:103F600033F0FC0EDBCFDEFFDBCFDDFF5FEC31F0AB
:103F70000F0EE66E070EE66E1BECAAF0D6EC34F0E0
:103F8000E552F90EDBCF17F7F80EDBCF18F7F70E77
:103F9000DBCF19F7F30EDBCF1BF7F40EDBCF1CF7EB
:103FA000F50EDBCF1DF7F60EDBCF1EF7DECFE6FFFB
:103FB000DDCFE6FF65ECA3F0E55224EF34F0C3EC6F
:103FC00030F00C0EE12402E3E168E652E16EB8EC59
:103FD00032F0B1EC32F026EC34F00A0EDBCFE6FF23
:103FE0000B0EDBCFE6FFBAECA3F0E5526DEC31F03F
:103FF00022E00A0EDBCFE9FF0B0EDBCFEAFFF6EC87
:1040000031F0A20EE66EE66A69EC33F0FE0EE66E63
:10401000E6681EEC67F0D2EC34F002E2E16AE552A9
:10402000E16E005007011A6FFF0E005C02E1000E06
:1040300003D0010E01D0000E006E0C0EE15C02E216
:10404000E16AE552E16E0050D8EF30F0C3EC30F099
:104050003B0EE12402E3E168E652E16E96EC31F0BA
:1040600001E1F7D01AC7E6FF9CEC2CF0E552020EF6
:1040700017C7DBFF0F0EDE6E070EDD6E300E2FEC66
:1040800033F0160E00C7DBFF170E59EC34F054EC7A
:1040900034F03BEC33F0040E2FEC33F0020EDBCFA8
:1040A000E6FFCFEC30F0020E0CEC31F00BE0DFCF8E
:1040B000E9FFDF2A010EDBCFEAFF01E3DB2AEF5045
:1040C000E66EEFD7A40E2FEC33F0180E00C7DBFF1F
:1040D000190E59EC34F0D950130FADEC33F018C76A
:1040E000E6FFDFEC2CF031EC34F002E2E16AE5525D
:1040F0002AEC32F001E1ABD0D950250F00EC31F0C1
:10410000EF50400B01E1A3D0E66AD9502A0F00EC32
:1041100031F0F3EC30F002E2E16AE552E16E00507A
:104120007CEC34F0B1EC34F0E76E130EE7CFDBFF3C
:10413000020E2BEC33F0020E0CEC31F006E0D950FD
:104140003A0F34EC33F03A0EF4D7400E7FEC34F0F3
:1041500090C4E6FFCFEC30F091C4E6FFCFEC30F036
:1041600092C4E6FFCFEC30F093C4E6FFCFEC30F022
:1041700054EC34F0DAC5E6FFCFEC30F054EC34F018
:10418000F70E2BEC33F0430E7FEC34F01EC7E6FF46
:10419000CFEC30F01DC7E6FFCFEC30F01CC7E6FFD8
:1041A000CFEC30F01BC7E6FFCFEC30F0300E2FEC39
:1041B00033F01A0E00C7DBFF1B0E59EC34F0300E43
:1041C0002FEC33F01C0E00C7DBFF1D0E59EC34F052
:1041D000D950120FADEC33F0FD0EDBCFE6FFDFEC74
:1041E0002CF031EC34F002E2E16AE5522AEC32F0D4
:1041F0002EE07CEC34F0120EDB282FEC33F0120EA4
:10420000DB5070EC31F0D950030F90EC33F0140E0A
:1042100000C0DBFF150E01C0DBFF020E0CEC31F01D
:104220000BE0140EFEEC33F0150EDBCFEAFF01E3DA
:10423000DB2AA3EC34F0F1D7F80E2BEC33F0D95095
:10424000380FD3EC30F0260E02EC34F009E169ECC3
:1042500032F01AC7E6FF95EC67F0E552000E88D001
:10426000380E2BEC33F0390EDB50FF080DE1040E55
:10427000F36E390EF3CFDBFFF90EDB6AFA0EDB6A61
:10428000FB0EDB6AFC0EDB6A390EDB5070EC31F0A2
:10429000DBCFE6FFCFEC30F0020E0CEC31F00DE09E
:1042A000D950F90F006EFF0EDA20016E020EDB50BE
:1042B000ADEC31F0EF50E66EEDD7120EDBCFE6FF3E
:1042C000390EDB28010FE552E724020F010F70ECD5
:1042D00031F01E0E00C7DBFF1F0E01C7DBFF1C0EF7
:1042E000DBCF00F71D0E79EC34F0020E006EDBCF51
:1042F000E7FFE850E726020EE7CFDBFF1A0EDBCF21
:1043000000F71B0E79EC34F0130EDBCFE6FF020E44
:10431000DB50020F060F030F030F060FE552E724D1
:10432000020F70EC31F0180EDBCF00F7190E79ECAC
:1043300034F0020EDB50020F07011725020F030FA6
:1043400070EC31F0160EDBCF00F7170E79EC34F07D
:104350001E0EDBCF00F71F0EDBCF01F769EC32F04A
:10436000DBEC68F01AC7E6FF95EC67F0E552010E4A
:10437000006E3B0EE15C02E2E16AE552E16E005044
:10438000D8EF30F0BDEC33F0E65269EC33F0ECECF2
:1043900031F000092FE035EC34F02CE0B9EC30F0CE
:1043A000090E1AEC32F0DF5002E0DF0423E1CDEC1D
:1043B00033F064EC2BF0E5526DEC31F01BE026ECB1
:1043C00034F0D7EC2BF0C9EC33F014E060EC34F0AF
:1043D00076EC32F0DBCFEFFF37EC33F003E15DEC4E
:1043E00034F008E05FEC31F0ADEC83F0E552E552DB
:1043F000030802E1000E02D0040EDB50006E050E31
:10440000E15C02E2E16AE552E16E0050D8EF30F083
:10441000BDEC33F035EC34F02AE0B9EC30F002ECCE
:1044200032F037EC33F003E055EC33F009E15DECAA
:1044300034F006E035EC34F01AE039EC31F01AD003
:1044400055EC33F014E15DEC34F011E135EC34F06F
:104450000EE0B9EC30F0040E1AEC32F035EC34F02A
:1044600006E0B9EC30F0050E1AEC32F002D0000E86
:1044700001D0010E006E040EE15C02E2E16AE55239
:10448000E16E0050D8EF30F0C3EC30F0590EE1246B
:1044900002E3E168E652E16EDF6A110EDB6A130E99
:1044A000DB6A140EDB6A150EDB6A160EDB6A170E6A
:1044B000DB6A1A0EDB6A1B0EDB6A1C0EDB6A1F0E40
:1044C000DB6A2A0EDB6A2B0EDB6A2C0EDB6A2D0EF2
:1044D000DB6A2E0EDB6A2F0EDB6A300EDB6A310ED2
:1044E000DB6A320EDB6A330EDB6A340EDB6A350EB2
:1044F000DB6A360EDB6A370EDB6A07010B6B0C6B6F
:10450000096B0A6B076B086B0D6B0E6BBFEC32F01F
:10451000240E22C0DBFF250E23C0DBFF0A016C51F5
:104520000B0A01E17CD3010A01E142D2030A01E155
:104530009DD1010A01E118D10F0A01E1ECD0010A75
:1045400001E1DAD0030A01E18AD0010A71E0070A29
:1045500061E0010A55E0030A36E0010A02E0FCEFDF
:1045600026F00CEC33F0300EE5EC34F02A0E00C7E8
:10457000DBFF2B0E59EC34F03BEC33F054EC34F011
:1045800037EC33F02FEC33F0F90EDB50E76E130EFF
:10459000E7CFDBFF040E2FEC33F0F90EDBCFE6FFA5
:1045A000CFEC30F0F90E0CEC31F00BE0FA0EFEEC33
:1045B00033F0FB0EDBCFEAFF01E3DB2AEF50E66EC0
:1045C000EFD70A016C2BA20EE5EC34F02C0E00C7DD
:1045D000DBFF2D0E59EC34F03BEC33F0020E7FEC98
:1045E00034F0B9EC30F0030E70EC34F0020E70ECE5
:1045F00034F0010E70EC34F0A3EC34F00A016C2BB3
:1046000054EC34F02E0E00C7DBFF2F0E59EC34F0C3
:104610000A016C2B54EC34F0C6EC32F03BEC33F076
:10462000110EDB6A120EDB6A580EDB6A0A016C2B74
:10463000D950380FC8EC34F0000901E15BD3380ED3
:10464000DBCFE6FF390EDBCFE6FF27EC30F0E5529B
:10465000E552E76E150EE7CFDBFF0A016C2B150E56
:10466000DB50E76E1A0EE7CFDBFF1B0EDB6A1C0E7A
:10467000DB6A55EC33F028E15DEC34F025E1B9EC70
:1046800030F0040E4AEC34F0EFCF00F0150EDB50A2
:10469000D880005408E3B9EC30F0040E4AEC34F052
:1046A0001A0EEFCFDBFFE9EC34F01B0EEFCFDBFF90
:1046B0008FEC32F0006E000E005C06E38FEC32F0FF
:1046C000E76E1C0EE7CFDBFF1A0EDB50E76E160E0F
:1046D000E7CFDBFF1A0EDBCFE6FF1C0EDBCFE6FFDA
:1046E0001B0EDB50E552E702F350E552E724E76E7C
:1046F000170EE7CFDBFF6C2B300EE5EC34F0B4EC9B
:1047000031F03BEC33F03BEC33F03E0EDB6A3F0E16
:10471000DB6A0A016C2B1A0EDB5009E1CDEC32F09A
:104720000B0E6C6F4BEC31F097EC32F065D3110E41
:10473000DB2A8BEC33F0DF5001E1DCD23A0EDBCF29
:1047400000F03B0EDBCF01F0D5EC33F0DF50006E14
:10475000016AD5EC33F04BEC31F05DEC34F002E162
:1047600097EC32F00A016C2B9DEC34F001E1C2D2DF
:10477000A6EC34F005E035EC2CF0000901E1BAD2EA
:104780005DEC34F025E07CEC34F0260E00C7DBFF56
:10479000270E01C7DBFF100E2BEC33F0CBEC34F00F
:1047A000200E00C0DBFF210E01C0DBFF100EDB502E
:1047B000DF6EDF50DF0600090BE0200EFEEC33F069
:1047C000210EDBCFEAFF01E3DB2AA3EC34F0F1D7C3
:1047D000240EDBCFE6FF250EDBCFE6FFADEC83F04A
:1047E000E552E552E76E140EE7CFDBFF0A016C6B72
:1047F000A6EC34F005E1140EDB50020807E104D00A
:10480000140EDB50030802E0090E6C6F8BEC34F0E1
:104810007AEC30F0C9EC33F021E00A016C511EE172
:104820001A0EDB6A170EDB6A6C6B3EEC33F002E2A9
:10483000E16AE552D4EC32F0470EDBCFD9F5DBEC80
:1048400032F00701020E005F000E015B0501DB6B19
:104850000501040EDA6F0501010ED86F0A016C51D3
:1048600001E1CAD2070E6C5D01E1C6D21A0EDB501F
:1048700002E01A0EDB061A0EDB5002E1CDEC32F03C
:10488000170EDB063EEC33F002E2E16AE552D4ECAF
:1048900032F0DB0401E18AD0DAEC34F001E186D0B9
:1048A00008EC34F04EEC34F0F1EC34F003E019ECA9
:1048B00033F003D0100EDBCFE6FF70EC33F007E0EF
:1048C00045EC31F001E3DB2AEF50E66EF6D7070145
:1048D000065105E03BEC33F0100EDB2802D0100E41
:1048E000DB50020FB7EC34F037EC33F00AE17FEC29
:1048F00033F002E2E16AE552E16E005083EC34F0FD
:1049000048D055EC33F045E1A6EC34F042E028EC19
:1049100033F0A0082DE11D0E2BEC33F03BEC33F00F
:104920001D0EDB50800810E175EC31F003E051EC16
:1049300032F0FDE155EC32F000BE01680050070195
:1049400007130150081325D01D0EDB50810821E10B
:1049500075EC31F003E051EC32F0FDE155EC32F052
:1049600000BE0168005007010B1301500C1311D059
:104970005DEC34F00EE187EC34F075EC31F003E0DF
:1049800051EC32F0FDE155EC32F000BE01681EEC56
:1049900032F0D9503C0F00EC31F0020EEE26000E42
:1049A000ED2238EC34F00CEC33F035D10A016C2BED
:1049B0001DEC31F04EEC34F07CEC34F0A6EC34F02D
:1049C00047E12AEC34F003E019EC33F003D0100E89
:1049D000DBCFE6FF70EC33F007E045EC31F001E3AC
:1049E000DB2AEF50E66EF6D70701065102E0E1EC54
:1049F00033F0D950580FD3EC30F08FEC34F016EC84
:104A000031F07CEC2EF0D2EC34F002E2E16AE552B7
:104A1000E16E0050DF6E580EDB500DE0110EDBCF63
:104A2000E6FF580EDBCFE6FF2BEC31F002E2E16A45
:104A3000E552E16E00500701065103E0100EDB283D
:104A400002D0100EDB50020FDF2446EC33F053D0BF
:104A500028EC33F0A00803E05DEC34F029E12AEC07
:104A600034F003E019EC33F003D0100EDBCFE6FF97
:104A700070EC33F007E045EC31F001E3DB2AEF5056
:104A8000E66EF6D70701065107E03BEC33F0100E57
:104A9000DB50020F010F03D0100EDB50020F46EC6B
:104AA00033F0E66AD950400F2EEC34F0DF6E23D09D
:104AB000DAEC34F020E18FEC34F0EFD9E552E55236
:104AC000DF6EDF5018E12AEC34F003E019EC33F02C
:104AD00003D0100EDBCFE6FF70EC33F007E045ECBF
:104AE00031F001E3DB2AEF50E66EF6D707010651FD
:104AF00002E0E1EC33F0DF506BE1A6EC34F068E06B
:104B000037EC33F007E17FEC33F002E2E16AE55283
:104B1000E16E005083EC34F0DAEC34F003E05DEC4D
:104B200034F00DE155EC33F00AE10701020E005FAD
:104B3000000E015B820E2FEC33F0E1EC33F028EC39
:104B400033F0A00803E05DEC34F003E1020EDF6E09
:104B500005D0DAEC34F002E1BDEC34F075EC31F064
:104B600003E051EC32F0FDE155EC32F000BE01689B
:104B700000500701091301500A1375EC31F003E0EE
:104B800051EC32F0FDE155EC32F000BE016800500E
:104B9000070107130150081375EC31F003E051ECE5
:104BA00032F0FDE155EC32F000BE01680050070123
:104BB0000B1301500C1375EC31F003E051EC32F0A3
:104BC000FDE155EC32F000BE01681EEC32F007D07A
:104BD000DAEC34F004E1020EDF2446EC33F028EC8A
:104BE00033F0A00803E05DEC34F003E1DF50B7ECF4
:104BF00034F038EC34F04BEC31F00CEC33F05DEC8D
:104C000034F009E155EC33F006E11A0EDB5003E114
:104C10000A010B0E02D00A01070E6C6FEDD0180EC0
:104C2000DB6A1B0EDB50F36E180EDBCFF4FFF35084
:104C3000F45C01E3E1D0360EDBCF02F7370EDBCFB9
:104C400003F7190EDB6A1C0EDB50F36E190EDBCF77
:104C5000F4FFF350F45C01E3CCD0190EDB500BE110
:104C6000150EDBCFE6FF1C0EDB50E552E75CE76E6E
:104C7000110EE7CFDBFF110EDB2A190EDBCFE6FFAB
:104C8000160EDB50E552E724010F0DC700F00EC7EA
:104C900001F005E0D89001320032E804FBE1005059
:104CA000010B14E0170EDB068BEC33F01C0EDB500F
:104CB000F36E190EDB50F35C01E198D03A0EDB5035
:104CC000070102273B0EDB50032390D0170EDB06B3
:104CD0001DEC31F04EEC34F0180EDB50E76E1F0E79
:104CE000E7CFDBFF8BEC33F0DF5001E182D09DECAE
:104CF00034F002E1000EC7D0DEEC30F0A6EC34F068
:104D000004E035EC2CF0000974E03EEC33F002E2F4
:104D1000E16AE5522AEC32F029E1F1EC34F003E0EB
:104D200019EC33F003D0100EDBCFE6FF70EC33F05C
:104D300007E045EC31F001E3DB2AEF50E66EF6D7F1
:104D40000701065102E0E1EC33F087EC34F0BDECF2
:104D500034F075EC31F003E051EC32F0FDE155EC4C
:104D600032F000BE01681EEC32F03CD0D9501F0F6B
:104D7000D3EC30F076EC33F08FEC34F080D9006E69
:104D8000080EE15C02E2E16AE552E16E0050DF6E7E
:104D9000DF5024E1DEEC30F07CEC34F0100EDBCFA1
:104DA000E6FF70EC33F007E045EC31F001E3DB2A7D
:104DB000EF50E66EF6D787EC34F075EC31F003E097
:104DC00051EC32F0FDE155EC32F000BE01681EEC12
:104DD00032F0100EDB50020F020F02D0020EDF2461
:104DE00046EC33F038EC34F04BEC31F0190EDB2AA2
:104DF0002AD7180EDB2A15D71A0EDB5002E08EEFE9
:104E000022F0170EDB5002E08EEF22F00A016C6BED
:104E10000FEC34F0C2EC31F074EC34F0040EE76EB9
:104E20003E0EDBCF00F03F0EDBCF01F0E75083EC0E
:104E300032F0060E83EC32F0030E83EC32F0030EF8
:104E400083EC32F0E2EC32F02C0EDBCF00F72D0ECB
:104E5000DBCF01F774EC34F0130EDB50050F040FB9
:104E6000026E036A3E0EDB500224006E3F0EDB50E2
:104E70000320016EE2EC32F0DBEC32F074EC34F043
:104E8000BBEC31F0010E006E590EE15C02E2E16A0A
:104E9000E552E16E0050D8EF30F0C3EC30F0360E42
:104EA000E12402E3E168E652E16E340EDB6ADF6A78
:104EB0009AEC34F006E19AEC34F00BE1A9EC34F012
:104EC00008E1010EF36E340EF3CFDBFFC3EC34F0D8
:104ED00012E0D9502C0FD3EC30F0D9501D0FD3EC89
:104EE00030F016EC31F073EC32F002E2E16AE55298
:104EF0002AEC32F002E1000EB8D0D9501D0F90EC30
:104F000033F01B0E00C0DBFF1C0E01C0DBFFC6EC44
:104F100032F02C0EDB50DF6EC9EC31F0010E0701D0
:104F20000027000E0123DF50DF0600090BE01B0EF7
:104F3000FEEC33F01C0EDBCFEAFF01E3DB2AA3EC2F
:104F400034F0F1D72C0EDB50DF6EEEEC34F0EFCF07
:104F500023F7E6EC33F0EFCFDBFFA9EC34F01FE1F1
:104F60003BEC33F0DF2AB4EC31F0C9EC31F02C0E1D
:104F7000DB2A2BEC33F0C2EC31F0B4EC31F0A7ECCF
:104F800033F070EC31F0DB5007E1C2EC31F083EC30
:104F900034F0020EF36EDB6E020EDB5064D0350E81
:104FA000DB6A340EDB0410E11F0EE66E070EE66EC0
:104FB000D950350FD3EC30F058EC33F002E2E16A0F
:104FC000E5522AEC32F020E0EAEC33F0EDEC33F07D
:104FD0000701246BD9502D0FF7EC34F0090EDB6A72
:104FE000D950090F34EC33F07BEC33F0190EEFCFCE
:104FF000DBFF340EDB500BE1D950190FD3EC30F04E
:105000000A0E16EC34F003E1C9EC31F05AD7080E61
:10501000E9EC32F0030F2EEC34F0070124277BEC8F
:1050200033F0190EDBCFEFFF2451DF262C0EDBCF40
:10503000E7FF2451E7262C0EE7CFDBFFB4EC31F07D
:10504000C9EC31F02C0E2BEC33F0C2EC31F0EAEC71
:1050500033F0DBCFEFFFE6EC33F0DDEC33F023C7CA
:10506000EFFFA7EC33F0DF26DF50006E360EE15C79
:1050700002E2E16AE552E16E0050D8EF30F0C3EC95
:1050800030F0260EE12402E3E168E652E16E050EFF
:10509000DB6A0C0EDB6A010EF36E020EF3CFDBFF50
:1050A000DBCF00F0F60EDBCFE9FFF70EDBCFEAFF38
:1050B000EF50D880005415E39AEC34F009E1A9ECE4
:1050C00034F006E19AEC34F009E1A9EC34F006E1A1
:1050D000010E8CEC31F0C3EC34F013E0020EDB2A4D
:1050E000DFD7D950030FD3EC30F05FEC31F016EC82
:1050F00031F073EC32F002E2E16AE5522AEC32F070
:1051000002E1000EC3D07CEC34F0080E00C7DBFFD8
:10511000090E01C7DBFF05EC31F0F0EC32F0D0EC0A
:1051200031F0010E07010027000E01230C0E0CECDC
:1051300031F00AE0F9EC30F0A3EC34F0FA0EDB2A9F
:10514000FB0EF4E3DB2AF2D705EC31F0F0EC32F0A1
:10515000EEEC34F0EFCF25F7DDEC34F076EC32F006
:10516000EFCFDBFFA9EC34F01AE13BEC33F00C0E8F
:10517000DB2A3DEC32F0D0EC31F0030EDB2A2BECD5
:1051800033F0F7EC32F03DEC32F0A7EC33F079EC91
:1051900032F00C0EDBCFE7FF010EDB5072D0DF6A7E
:1051A000050EDB040EE1270EE66E070EE66E69ECD7
:1051B00033F058EC33F002E2E16AE5522AEC32F0C7
:1051C00024E0F4EC33F0EDEC33F00701266BD9501A
:1051D000060F34EC33F0D950150F34EC33F0140EC5
:1051E000DB6AD950140F34EC33F07BEC33F0240E2F
:1051F000EFCFDBFF050EDB500BE1D950240FD3ECD2
:1052000030F0150E16EC34F003E1D0EC31F060D73D
:10521000130EE9EC32F00E0F2EEC34F007012627C6
:105220007BEC33F0240EDBCFEFFF0C0EDBCFE7FF80
:105230002651E7260C0EE7CFDBFF030EDBCFE7FF9F
:105240002651E726030EE7CFDBFF3DEC32F0D0EC32
:1052500031F0030E2BEC33F0F7EC32F0F4EC33F0DA
:10526000DBCFEFFFDDEC34F076EC32F0DDEC33F049
:1052700025C7EFFFA7EC33F0006E0C0EDBCFE7FF86
:105280000050E7260C0EE7CFDBFFDB50006E260E4A
:10529000E15C02E2E16AE552E16E0050D8EF30F0E5
:1052A000C3EC30F0130EE12402E3E168E652E16E54
:1052B000080EDB6A0701010E066FB9EC30F0090E2B
:1052C000FEEC32F060EC34F076EC32F0EFCFDBFF46
:1052D00004A161D10B0EDB6A0C0EDB6A0D0EDB6ADA
:1052E0000E0EDB6AF90EDB5070EC31F0F90EDB507C
:1052F000E76E050EE7CFDBFFBFEC32F0060E22C0F3
:10530000DBFF070E23C0DBFFE66AD9500B0F00EC72
:1053100031F0F3EC30F002E2E16AE552E16E005068
:10532000B5EC33F0ECEC30F059EC31F069EC33F0E3
:10533000C9EC30F0080EDB5013E1010EDFCFDBFFCC
:10534000D9500B0F00EC31F00F0EEECFDBFF100E3B
:10535000EECFDBFF110EEECFDBFF120EEECFDBFF49
:10536000ECEC30F0050E1DEC33F06EEC33F0800BFE
:1053700005E0ECEC30F0070E1DEC33F06EEC33F092
:10538000080B02E063EC34F066EC31F0EF50DF5CC8
:1053900050E0F90E24EC32F001E1BAD0080EDB0443
:1053A00005E16EEC33F0080B01E1F9D06EEC33F05F
:1053B000080B01E1F4D0E66A090EDBCF04F00A0E17
:1053C000DBCF05F0066A076A04C0E6FF05C0E6FF0A
:1053D00006C0E6FF07C0E6FF05C7E6FF2EEC5BF060
:1053E000086E060EE15C02E2E16AE552E16E0850E9
:1053F000006E016A026A036A00AE03D001680268A7
:1054000003680B0E00C0DBFF0C0E01C0DBFF0D0EAE
:1054100002C0DBFF0E0E03C0DBFF3FEC31F02EECD1
:1054200032F023C0DBFF010EF36E080EF3CFDBFF7B
:105430006BD7020EDB06060EDB2A070E01E3DB2A22
:105440006EEC33F0100B43E16EEC33F0010B02E035
:1054500063EC34F0ECEC30F0060E4EEC32F0ECEC99
:1054600030F0060E1DEC33F03FEC31F052EC31F031
:10547000ECEC30F011EC33F059EC31F0A9EC32F0F7
:1054800006E1020EDB5003E10701066B88D0A9ECB0
:1054900032F00AE1020EDB0407E166EC31F0EF5076
:1054A00003E10701066B34D0040EDB50A10830E1A4
:1054B000020EDB502DE10701010E066FEEEC34F019
:1054C000A00EEF6EF36E040EF3CFDBFF21D0020EC1
:1054D000DB040CE166EC31F0EF5008E10701066BEC
:1054E0006EEC33F0100B01E10FD759D0020EDB50F8
:1054F0000AE16EEC33F0100B03E1A9EC32F008E1A5
:105500000701066B4CD03FEC31F02EEC32F0FAD6AE
:10551000ECEC30F0160E1AEC32F066EC31F0EFCF16
:10552000DFFFECEC30F003EC33F0020EDB040CE1B7
:1055300066EC31F0EF50E66EECEC30F0160E4AEC13
:1055400034F0ADEC32F029D0020EDB5006E1ECEC89
:1055500030F0160E4EEC32F020D0020EDB50010877
:1055600003E3800EDF1419E0ECEC30F0170E4AEC88
:1055700034F0EF68A9EC32F003E1030EDB5015E0E4
:10558000A9EC32F008E1030EDB0405E1F90E24EC8E
:1055900032F016E113D0000E23D0010E21D0A9EC79
:1055A00032F010E1030EDB5002E1020E19D0030EBF
:1055B000DB0415E1F90E24EC32F002E1810E10D08B
:1055C000800E0ED0040EDB50A10804E0040EDB5068
:1055D000A50805E1030EDB0402E1820E01D0000EF6
:1055E000006E130EE15C02E2E16AE552E16E0050EA
:1055F000D8EF30F0BAEC33F09AEC34F015E132EC3D
:1056000033F0080B04E132EC33F0010B0BE0E66AF7
:10561000B9EC30F01CEC34F002E2E16AE552E16EE4
:10562000005002D0000E4CD020EC34F059EC31F098
:10563000B9EC30F0040E1DEC33F0B9EC30F0050E8F
:105640001DEC33F032EC33F0800B04E0DDEC34F091
:105650001DEC33F032EC33F0080B04E132EC33F0A4
:10566000010B13E069EC33F0C9EC30F0D950010FB5
:1056700034EC33F0DECF00F0DDCF01F0026A036AD4
:10568000B9EC30F00E0E12EC31F09AEC34F0CCE1C3
:1056900060EC34F04EEC32F060EC34F01DEC33F0A2
:1056A00020EC34F011EC33F059EC31F0B9EC30F07F
:1056B00003EC33F0B9EC30F0160E4EEC32F0010E84
:1056C000E552E552D8EF30F0E1EC34F014EC33F071
:1056D000040EDF5C0BE157D979EC32F0F9EC30F0D5
:1056E000010EDBCFEFFFDB50080802E2000E11D005
:1056F000010E0CEC31F009E046D9DF6E9FEC32F080
:1057000001E3DB2ADFCFEFFFF3D7B9EC30F0EF6A2C
:10571000010EE552E552D8EF30F0C3EC30F0080E40
:10572000E12402E3E168E65259EC32F02CD9020898
:1057300014E126EC34F058D8C9EC33F00EE0D9501F
:10574000040F00EC31F0D880040EEE54000EEE543D
:10575000000EEE54000EEE5402E2000E1ED0DE6A81
:10576000DE6ADE6ADD6ADD52DD52040E0CEC31F0D9
:105770000FE009D9E66ED9CF00F0DACF01F0040EC0
:10578000DB500F01D92400EC31F0ADEC32F0EDD755
:10579000B9EC30F002EC32F0010E006E080EE15C64
:1057A00002E2E16AE552E16E0050D8EF30F0BAEC67
:1057B00033F014EC33F0A00EDF5C0BE0A10EDF5CE5
:1057C00008E0A30EDF5C05E0A50EDF5C02E0000E42
:1057D00009D0B9EC30F0DFCFEFFF8BEC34F004D818
:1057E000E552E55224EF34F0BDEC33F0010EDB6AF4
:1057F000020EDB6A030EDB6AC6D8DF6E010EDFCF56
:10580000DBFFDFAE1AD0000EDF9EDF50020802E29F
:10581000000E21D0DF28E76E030EE7CFDBFFDF505D
:10582000DF0600090EE0AFD8E66ECBEC34F0DF50B7
:10583000ADEC31F0ADEC32F0F2D7F36E030EF3CFF6
:10584000DBFFB9EC30F0010EDBCFEEFF020EDBCF59
:10585000EDFF030EDB50006E040EE15C02E2E16A34
:10586000E552E16E0050D8EF30F0C3EC30F014ECAC
:1058700033F0050EDF5C03E186D8000902E0000E7C
:1058800001D0010EE552D8EF30F0BDEC33F07BD8FB
:1058900006080CE163EC32F0000908E091EC31F00D
:1058A0000F0ED880EE54000EED5402E2000E15D01B
:1058B000F9EC30F0DFCFEFFFDF50DF06000909E041
:1058C00062D8E66E9FEC32F001E3DB2AADEC32F0F9
:1058D000F3D7B9EC30F0EF68010E006E040EE15C16
:1058E00002E2E16AE552E16E0050D8EF30F0E1ECFF
:1058F00034F0D7EC31F047D8300808E163EC32F0EF
:10590000E76E040EE7CFDBFFDB5002E1000E0AD0AA
:10591000040EDB2AB9EC30F0DECFEEFFDDCFEDFF79
:10592000040EDB50006E050EE15C02E2E16AE55216
:10593000E16E0050D8EF30F0C3EC30F0FD0EDBCF5D
:10594000E6FFE5EC67F087EC32F0F8E00701026B68
:10595000036B006B016BD8EF30F0C3EC30F000C785
:10596000E6FF01C7E6FFADEC67F0E552E552FD0E3C
:10597000DBCFE6FF12EC68F0E5520701002B000ECA
:105980000123D8EF30F0E1EC34F0070102C700F05A
:1059900003C701F0022B000E032300C0E6FF01C085
:1059A000E6FFD4EC67F0E552E55269EC33F0B7EC72
:1059B00069F0E552E552DF50E552D8EF30F0BDEC2A
:1059C00033F0DE6ADE6ADE6ADD6ADD52DD52FB0E2E
:1059D000DBCFE6FFFC0EDBCFE6FF91EC31F0DCEC39
:1059E00031F002E2E16AE552E16E0050ABEC33F0D7
:1059F000100B31E1ABEC33F0800B1BE020EC31F00D
:105A0000070E4AEC34F0EFCF00F0FD0EDB50005CE7
:105A100010E1F70EDBCFE6FFCDEC33F0FC0EDBCF71
:105A2000E6FF73EC32F002E2E16AE552E16E00500B
:105A30001ED0ABEC33F0080B04E1ABEC33F0010B00
:105A400015E0E66A20EC31F01CEC34F002E2E16A89
:105A5000E552E16E00503FEC31F020C0DEFF21C086
:105A6000DEFF22C0DEFF23C0DDFFAFD7000E006ED9
:105A7000040EE15C02E2E16AE552E16E005098D367
:105A800082DB260EE12402E3E168E65259EC32F0B3
:105A900070DBF6EC31F0250EDB6A240EDB6AD950A0
:105AA0000C0F81DBD950040FABDBDCEC31F002E2F0
:105AB000E16AE552E16E0050240EDB50E76E99DB9F
:105AC000E7504AEC34F0100EDBCFEFFF040EDBCFD3
:105AD00000F0050EDBCF01F0060EDBCF02F0070E63
