:020000040000FA
:0600000012EFA4F0120053
:060008005CEF9EF0120007
:06001800E7EF9DF012006D
:06002A000D00D5F80000F6
:10003000FF03000001000000864A010035090000AE
:10004000B9000000844A01007104000002000000B1
:10005000824A01006F04000002000000804A010093
:100060006D0400000200000005490100FF010000CE
:10007000010000006D4A0100E400000013000000D0
:100080006B4A01006B04000002000000674A010097
:1000900065040000040000005F4A0100F700000052
:1000A000080000002A490100000800003501000096
:1000B00026490100610400000400000024490100F9
:0800C000FE0200000200000036
:0800C800C4EC16F0FD0EDB5044
:1000D00004016B5D2CE0FE0E6B5D11E01C0EE66E04
:1000E000E66A770EE66E020EE66E6B51E4EC19F0EE
:1000F0005CEC1AF002E2E16AE552E16E0250FD0E9C
:10010000DBCF6BF4DB50FE0812E01C0EE66EE66AF5
:10011000FD0EDB50E4EC19F0770EE66E020EE66E93
:100120005CEC1AF002E2E16AE552E16E0250D2EFB5
:1001300016F004016B516C5D01E11200FE0E6C5D66
:100140001CE0250EE66EE66A010EE66E520EE66EC5
:10015000020E1DEC1AF01B0E6BEC17F0EF501DECAD
:100160001AF0EAEC18F0250E7FEC1BF01AEC1DF0EB
:1001700002E2E16AE552E16E02506BC46CF4250EB6
:10018000E66EE66A92C2E6FF77C200F078C201F03E
:100190007FEC1BF0010EE66E520EE66E020EE66E6E
:1001A0001AEC1DF002E2E16AE552E16E0250120023
:1001B000C4EC16F00B0EE12402E3E168E652E16EB6
:1001C000C20EF36E090EF3CFDBFF0F0EF36E0A0EB5
:1001D000F3CFDBFF0201505151110FE1B1EC69F097
:1001E0001EC050F21FC051F2FF0E02015017070E41
:1001F0005117000E5027040E51233C0EE66EE66A9E
:10020000E66A400EE66E030EE66E32EC8EF0006E8D
:10021000050EE15C02E2E16AE552E16E0050010E7A
:10022000DB6ADF6A37EC18F001E392D0CAEC19F010
:1002300055EC17F095EC17F0F62A000EF722F8228D
:100240000800080EF5CFDBFF55EC17F095EC17F022
:10025000020EF626000EF722F8220900020EF5CF54
:10026000DBFF0A00030EF5CFDBFF55EC17F0DEECE9
:100270001DF0040EF626000EF722F8220900040EE7
:10028000F5CFDBFF0A00050EF5CFDBFF080EDB50D4
:100290002BE1090EDBCF20F00A0E7CEC19F043ECC9
:1002A0001DF0250E0226000E032218EC1CF0040E91
:1002B000B2EC1EF0050EDB50032083EC17F0D95092
:1002C000090F64EC1CF0090EDBCF00F00A0E09ECFC
:1002D0001AF0D880FE0E00541E0E0154000E025477
:1002E000000E035402E2EFD7FFD7080EDBCF92F2E5
:1002F000060EDBCF77F2070EDBCF78F2250E020178
:100300007727000E7823020EDB507725796F030ED6
:10031000DB5078217A6F010E7927000E7A23040EC4
:10032000DB5079257B6F050EDB507A217C6F0D0E3B
:100330008D6F8E97FEDE55EC17F01CC003F0DEECDF
:100340001DF00800F5CF76F292EC0FF0DF2A6AD7A5
:100350000B0EE15C02E2E16AE552E16ED2EF16F0CB
:1003600079EC1EF0DF6A37EC18F001E38FD0CAECAD
:1003700019F00D0E02018D5D01E086D0DADEF60E79
:10038000DB500201765D01E07FD0F90EDB5010E119
:10039000F70EDBCF62F2F80EDBCF63F28E87040E2E
:1003A0008D6FF70EDBCF90F2F80EDBCF91F26AD0B3
:1003B000000E505D040E515906E3880ED88050554A
:1003C000130E515503E2506B040E516F50C262F28E
:1003D00051C263F2502B000E5123F70EDBCF60F2B7
:1003E000F80EDBCF61F2CFEC17F002018E89F90E27
:1003F000DB50040A26E0070A45E1FA0EDBCF04F0E1
:10040000FB0EDBCF05F0FC0EDB500424026EFD0E6C
:10041000DB5005201DEC19F0FA0EDBCF68F2FB0E65
:10042000DBCF69F2FC0EDBCF6AF2FD0EDBCF6BF2A5
:10043000756B270E526F536B546B556B020E8D6F9D
:1004400021D0DAEC17F0020E6BEC17F0EECF04F0CF
:10045000EFCF05F0DAEC17F00450EE24026E0550F1
:10046000EE201DEC19F06DEC1DF002E2E16AE552A0
:10047000E16E00500201050E8D6F010EE66E020E58
:1004800073EC17F0DF5003D0DF2A6DD7FE0EE55274
:10049000D2EF16F0F7EC1CF002018FA903D08F9970
:1004A000010E01D0000ED2EF16F0F7EC1CF0070E93
:1004B00002018D5D02E0000E01D0010ED2EF16F0B8
:1004C000F7EC1CF01DEC1CF002018D51080A2EE027
:1004D000010A2CE0050A2AE0020A25E0050A18E0D4
:1004E0000D0A0BE0010A09E0070A24E0020A22E0F3
:1004F000010A20E0060A1AE11DD073EC1DF006E0A7
:100500005E517D19FAE15F517E19F7E1080E0CD0BA
:1005100073EC1DF006E05E517D19FAE15F517E1922
:10052000F7E10C0E01D00D0E8D6F06D0E66A140EA9
:1005300073EC17F092EC0FF0D2EF16F0F7EC1CF022
:1005400002018E975DEC1DF0BBDFE552D2EF16F095
:10055000F7EC1CF0EEDD40EC1CF0D0EC19F0930E43
:10056000E66E020EE66E62EC1AF002E2E16AE55215
:10057000E16E005060C29DF261C29EF2930E006E69
:10058000020E4AEC1DF0D2EF16F0F7EC1CF0D1DDB4
:1005900002015E517D1902E15F517E1902E0EDEC2E
:1005A0001CF0D2EF16F079EC1EF027EC17F08DC29C
:1005B000DFFF070EDF5C06E00B0EDF5C03E0F36A93
:1005C000F46A21D002017F517D5D80517E5910E394
:1005D000E8EC17F00206000E035A7F517D5D046EB1
:1005E0007E518055056E20EC1DF04AEC1DF00BD0BD
:1005F0007D517F5D006E80517E55016E0006000EBC
:10060000015AC9EC1AF0E552D2EF16F079EC1EF05F
:10061000E65249EC1EF0E0EC1CF002E1000E39D08D
:100620004DEC1EF004E1ED5002E1A3EC17F00201E5
:100630008F51010B09E1D5EC19F0E8EC17F000EC53
:100640001AF002E352EC1EF0010EE66EE66AE66E68
:10065000AFEC1BF05CEC18F002E2E16AE552E16EEF
:10066000005002017D2B000E7E2379517D5D7A5171
:100670007E5902E3CEEC1AF04DEC1EF005E1ED5090
:1006800003E1A3EC17F004D08EBB02D03EEC17F0D0
:10069000010EE552E552D2EF16F005EC1DF002E333
:1006A000E168E65290EC1EF005E1A3EC17F0F36A66
:1006B000F46A3DD07CEC1DF0FBEC1CF06FEC17F005
:1006C00003E2F90E0EEC1AF002018F51010B05E165
:1006D000E4EC1DF002E352EC1EF06EEC1AF010E3B5
:1006E0002FEC1DF0B6EC1EF002E2E16AE55204ECDC
:1006F0001BF0D950FB0FC9EC17F0ED22BBEC1EF03C
:1007000057EC1EF0B6EC1EF002E2E16AE5520FEC87
:100710001DF0FBEC1CF06FEC17F003E3A3EC17F0FB
:1007200004D08EBB02D03EEC17F032EC19F0060E6E
:10073000E15C02E2E16AE552E16ED2EF16F005EC0F
:100740001DF002E3E168E65290EC1EF005E1A3EC37
:1007500017F0F36AF46A44D002018F51010B05E1EE
:10076000E4EC1DF002E352EC1EF07CEC1DF0A6EC74
:100770001DF06FEC17F003E2F80E0EEC1AF06EECC1
:100780001AF015E32FEC1DF00EEC18F029EC1AF01E
:1007900002E2E16AE55204EC1BF0026AD950FA0F5A
:1007A000C9EC17F0EE220250EE22BBEC1EF057EC23
:1007B0001EF00EEC18F029EC1AF002E2E16AE552A4
:1007C0000FEC1DF0A6EC1DF06FEC17F003E3A3ECAB
:1007D00017F004D08EBB02D03EEC17F032EC19F0CB
:1007E000060EE15C02E2E16AE552E16ED2EF16F03C
:1007F000C4EC16F0FB0EDBCF02F0FC0EDBCF03F0F7
:100800005CEC1EF074EC1CF010EC8FF0E552E5523D
:10081000F3CF04F0F4CF05F0F3CFE6FFF4CFE6FF1B
:10082000FB0EDBCFE6FFBFEC17F037DF066E050EE1
:10083000E15C02E2E16AE552E16E065084EC1BF0F5
:10084000F324006E0350F4204AEC1DF0D2EF16F0B2
:10085000C4EC16F00EEC18F01EEC8FF0E552E552E9
:10086000E5521FC006F020C007F01FC0E6FF20C001
:10087000E6FF0EEC18F05DEC1DF061DF086E060E71
:10088000E15C02E2E16AE552E16E0850F3CF03F069
:10089000F4CF04F0056AE1EC1EF0EE50F324006E94
:1008A000EE50F420016EEE500520026E00C01FF0E5
:1008B00001C020F0216ED2EF16F0EAEC1DF002012B
:1008C000A9EC17F00006000E015A47EC18F0A5EC51
:1008D00019F04EEC18F002E2E16AE552E16ED2EF57
:1008E00016F0C4EC16F0EFEC17F0ABEC1DF0F35083
:1008F000F41006E027EC17F01DEC1CF0EDEC1CF0FA
:10090000D2EF16F0F7EC1CF0020175EC1BF006E3D9
:100910008351815D006E8251845513D083517B5D7C
:10092000026E7C518455036E18EC1CF07951815D88
:10093000046E82517A55056E02500424006E0350F5
:1009400005204AEC1DF0D2EF16F079EC1EF0E652CD
:10095000EFEC17F0E0EC1CF002E1000E28D027ECE1
:1009600017F0B0EC1DF00CE0010EE66EE66A9EECAE
:100970001AF079EC17F002E2E16AE552E16E0050FC
:100980000201832B000E842383517B5D84517C59AB
:1009900002E227EC1CF04DEC1EF004E1ED5002E108
:1009A0008F8504D08EBB02D03EEC17F0010EE552CD
:1009B000E552D2EF16F0C4EC16F022EC1CF0020E59
:1009C000DB6A030EDB6AEFEC17F0E0EC1CF003E1EE
:1009D000F36AF46A84D027EC17F0AAEC19F008EC5B
:1009E0001BF008E290EC17F0F90EEECFDBFFFA0EE9
:1009F000EDCFDBFFF90EDB50020183250001006E15
:100A0000FA0EDB50020184210001016E02010AECA2
:100A10001DF02CE28351E2EC1AF0845583EC17F0C0
:100A200047EC18F0B0EC1DF017E0020EDBCFE6FF4C
:100A3000030EDBCFE6FF9EEC1AF0010E79EC17F007
:100A400002E2E16AE552E16E005052EC17F0D95033
:100A5000FB0FC9EC17F0ED2252EC17F0D950F90F4B
:100A60009AEC1CF0C4EC17F027EC1CF0B0EC1DF075
:100A70000CE0E6EC1CF09EEC1AF0010E79EC17F09D
:100A800002E2E16AE552E16E0050A9EC1AF0205052
:100A9000020183272150842352EC17F0D950F90F1B
:100AA000C9EC17F0ED22DECF02F0DDCF03F0F90E36
:100AB000FEEC1EF0FA0EDB500358016EF90EDBCF90
:100AC00004F0FA0EA5EC1AF002E38F8504D08EBB79
:100AD00002D03EEC17F0AAEC19F0C9EC1AF0040EA3
:100AE000E15C02E2E16AE552E16ED2EF16F0EAEC77
:100AF0001DF002017951E2EC1AF07A55016E47ECD3
:100B000018F0EFEC17F04EEC18F002E2E16AE55253
:100B1000E16ED2EF16F005EC1DF002E3E168E6525B
:100B2000E16ED950F90F7EEC17F003E1F36AF46A35
:100B300082D061EC1EF097EC1AF0FBEC1CF0DBCFDE
:100B400003F07FEC1DF0020EDBCF04F0030EA5ECEA
:100B50001AF00FE243EC1DF0F70EFEEC1EF0F80E5B
:100B6000DB500358016EF90E00C0DBFFFA0E01C026
:100B7000DBFFF70E2CEC1CF0F80EDB50842100C0DC
:100B8000DEFFDD6ED5EC19F00AEC1DF004E27BEC23
:100B90001CF0A2EC1DF0DE507B5D006EDD507C5938
:100BA000E5EC1EF0AAEC19F0040EDBCF02F0050E06
:100BB0006FEC17F00DE3E6EC1CF0D8EC18F0010E2A
:100BC00079EC17F002E2E16AE552E16E00502FD0B5
:100BD000D1EC18F0D8EC18F0010E79EC17F002E225
:100BE000E16AE552E16E0050FBEC1CF092EC1CF067
:100BF00079EC1AF0010EE66E040EDBCF06F0050E5E
:100C0000DBCF07F0FB0EDB500624046EFC0EDB503E
:100C10000720056E04C0E6FFE66EF9EC15F0086EDD
:100C2000080EE15C02E2E16AE552E16E0850AAECCE
:100C300019F0C9EC1AF0060EE15C02E2E16AE55235
:100C4000E16ED2EF16F079EC1EF074EC1CF0010EA0
:100C5000B0EC1AF05DEC1DF05EDF006E070EE15C9B
:100C600002E2E16AE552E16E0050DF50E552D2EF58
:100C700016F0C4EC16F0300EE12402E3E168E6520F
:100C8000E16ED950F90F7EEC17F003E1F36AF46AD4
:100C900027D161EC1EF0F70EDB50F35C006EF80E0E
:100CA000B9EC1DF0FBEC1CF0B1EC19F001E20ED137
:100CB000D950F50F7EEC17F00FE052EC17F0F50E5F
:100CC000DBCF02F0F60E6FEC17F006E2F50EDBCF8D
:100CD00020F0F60E0DEC1BF0F70E2CEC1CF0F80ECD
:100CE0007AEC18F002E2BFEC1EF0B9EC1CF0F70E43
:100CF000DBCF20F0F80E7CEC19F0A9EC1AF0B6EC82
:100D00001BF0FB0EDBCF20F0FC0E16EC1BF03FECD3
:100D100018F001E3DB2A0D0EEFCFDBFF0F0EDB6ACD
:100D2000F40EDB500AE0610E4FEC1DF006E30D0EF1
:100D3000DB507A0802E3B5EC18F0200EF36E0E0ECD
:100D40003DEC19F006E2040EDB50E76E0E0EE7CF25
:100D5000DBFF0E0EECEC19F006E2020EDB50E76E44
:100D60000E0EE7CFDBFF0E0E83EC1DF0100FDAEC5A
:100D700019F087EC1CF002E2E16AE552E16E0050E6
:100D80000E0EDB50DE26000EDD220E0E99EC1EF05C
:100D900002E11FEC1BF0F40EDB505CE00C0EDB6A92
:100DA000EFEC1DF001E38AD0D950100F016E000E58
:100DB000DA20026E0C0E30EC1AF010E3D950100F4E
:100DC000036E000EDA20046E0C0E28EC1BF006E316
:100DD000E00E026E85EC19F08CEC1BF085EC19F03E
:100DE00010EC19F00D0EDB50F35C1BE1F90EDB0685
:100DF000DBCF00F0FA0E01E2DB067AEC1BF042E0FA
:100E00003FEC18F001E3DB2A31EC1BF0610E4FECF4
:100E10001DF01DE30D0EDB507A0819E3B5EC18F058
:100E200016D047EC19F013E0C4EC1CF001E3DB2A08
:100E30000D0EEFCFDBFF610E4FEC1DF006E30D0E44
:100E4000DB507A0802E3B5EC18F00F0EDB6A0C0EEB
:100E5000DB2AA6D70C0EDB6AEFEC1DF02FE285EC47
:100E600019F00F0110EC19F00D0EDB50F35C17E1D7
:100E7000F90EDB06DBCF00F0FA0E01E2DB067AECBE
:100E80001BF006E152EC19F00C0E61EC1DF028D0BD
:100E90003FEC18F001E3DB2A31EC1BF00CD047ECFF
:100EA00019F009E0C4EC1CF001E3DB2A0D0EEFCFD2
:100EB000DBFF0F0EDB6A0C0EDB2ACED70E0E68ECC2
:100EC0001DF0FBEC1CF0B1EC19F003E2F368F468E0
:100ED00007D00E0E13EC1AF0060F64EC1CF02DD7A1
:100EE000300EE15C02E2E16AE552E16ED2EF16F00B
:100EF000C4EC16F0310EE12402E3E168E652E16E43
:100F0000D950F80F7EEC17F003E1F36AF46A10D1C0
:100F100061EC1EF0F60EDB50F35C006EF70EB9ECE0
:100F20001DF0A6EC1DF0B1EC19F001E2F7D0D9509C
:100F3000F40F7EEC17F00FE052EC17F0F40EDBCF5D
:100F400002F0F50E6FEC17F006E2F40EDBCF20F0A6
:100F5000F50E0DEC1BF0F60E2CEC1CF0F70E7AECF7
:100F600018F002E2BFEC1EF0B9EC1CF0F60EDBCF7D
:100F700020F0F70E7CEC19F0B4EC1AF0B6EC1BF094
:100F8000E1EC1EF00A0EEECFDBFF0B0EEECFDBFF27
:100F90000C0EEECFDBFF2DEC17F0100EDB6AF30E1C
:100FA000DB5009E093EC1DF006E30E0EDB507A08EF
:100FB00002E3C0EC18F0200EF36E0F0E3DEC19F0BA
:100FC00003E2040E69EC1BF00F0EECEC19F003E2E7
:100FD000020E69EC1BF00F0E83EC1DF0110FDAEC22
:100FE00019F087EC1CF002E2E16AE552E16E005074
:100FF0000F0EDB50DE26000EDD220F0E99EC1EF0E8
:1010000002E11FEC1BF0F30EDB5053E00D0EDB6A28
:101010000F0EDB504FEC1DF001E378D0D950110FCB
:10102000016E000EDA20026E0D0E30EC1AF010E3A5
:10103000D950110F036E000EDA20046E0D0E28EC4D
:101040001BF006E3E00E026E8EEC19F08CEC1BF048
:101050008EEC19F010EC19F00E0EDB50F35C16E17B
:10106000F80EDB06DBCF00F0F90E01E2DB067AECCE
:101070001BF039E0C0EC1DF093EC1DF017E30E0EF1
:10108000DB507A0813E3C0EC18F010D061EC19F0D3
:101090000DE09FEC1CF093EC1DF006E30E0EDB5010
:1010A0007A0802E3C0EC18F0100EDB6A0D0EDB2AA2
:1010B000AFD70D0EDB6A0F0EDB504FEC1DF026E2B2
:1010C0008EEC19F00F0110EC19F00E0EDB50F35CF2
:1010D00013E1F80EDB06DBCF00F0F90E01E2DB06D0
:1010E0007AEC1BF006E152EC19F00D0E61EC1DF0EC
:1010F0001FD0C0EC1DF007D061EC19F004E09FECAC
:101100001CF0100EDB6A0D0EDB2AD5D70F0E68EC33
:101110001DF0A6EC1DF0B1EC19F003E2F368F468E1
:1011200007D00F0E13EC1AF0060F64EC1CF043D737
:10113000310EE15C02E2E16AE552E16ED2EF16F0B7
:10114000C4EC16F0F70EDBCFE6FFBBEC1AF0E1ECD7
:1011500017F0010EE66EE66AAFEC1BF05DEC1DF0D9
:1011600088DD006E0A0EE15C02E2E16AE552E16EA2
:101170000050D2EF16F005EC1DF002E3E168E652F4
:10118000E16EDF6A37EC18F001E3A2D1CAEC19F086
:10119000030EDB6A010EDB6A020EDB6A02018F516D
:1011A000020B03E18F51040B10E000EC7DF000090D
:1011B0000CE0100E18EC19F002018F51040B01E045
:1011C000010EE76E010EE7CFDBFF02018EAB11D0FF
:1011D000FDECA0F002011E50895D006E1F508A597F
:1011E000016EE83402E2D8EC1AF003E3100E18ECBA
:1011F00019F08EAD09D081EC1AF002E2D8EC1AF0A9
:1012000003E3100E18EC19F00B0E8D5D0BE181EC71
:101210001AF002E2D8EC1AF005E3110E18EC19F0FE
:101220000C0E8D6F040E8D5D5FE1D3EC1AF0CBECEC
:1012300018F05AE2E9EC1EF057E08DEC1CF0EAECF5
:1012400018F0905100184AE19151011847E199ECCA
:1012500000F040EC1CF0B0EC16F03AEC1BF0D0ECD7
:1012600019F05CEC1AF002E2E16AE552E16E02501C
:1012700098EC1DF0EECF60F2EDCF61F2B0EC16F01D
:101280000C0E6BEC17F0EECF5AF2EECF5BF2EECF16
:101290005CF2EFCF5DF202015A2B5B235C235D23EE
:1012A0006A516825026E6B516921036E02506025F8
:1012B000006E03506121016EF5EC1DF0120E18EC6A
:1012C00019F0060E8D6FDDEC16F002E2E16AE552D0
:1012D000E16E06500301786B796B06D0040EDB2AB1
:1012E000050EA5E3DB2AA3D7030EDB5009E0010EB0
:1012F000DB5002E0000E01D0010EE66E94EC1BF014
:1013000002018EB933D0070E8D5D01E0DFD083EC92
:1013100018F001E0DBD002018E51070B06081AE13C
:101320008E51080B01E0010EE76E030EE7CFDBFFE5
:10133000DFCFE6FF60EC02F0E552DFCFE6FF60ECC6
:1013400002F0E552030EDB5001E0C0D002010E0EA8
:101350008D6FBCD099EC00F0020EE66E100E73ECAF
:1013600017F0CFEC17F0E6EC1AF0B0D083EC18F0E1
:1013700001E0ACD099EC00F002018D510C0A69E05B
:10138000060A62E0030A6FE0010A59E00F0A4EE024
:101390000C0A4CE00D0A41E0030A3DE0060A11E0A8
:1013A000010A69E1FDECA0F01EC089F21FC08AF2BB
:1013B000D0EC19F098EC8CF0E552E5520201030EE6
:1013C00028D06C0EE66E020EE66ED0EC19F0EDEC55
:1013D0008CF08BEC1EF0000915E1FDECA0F0020191
:1013E00089511E5C006E8A511F58016E0050525D7B
:1013F0000150535940E2060E755D02E2BDEC1BF050
:10140000020E07D0020E18EC19F0010EDB6A020181
:10141000050E8D6F30D0020E20D0020E755D02E2F7
:10142000120E1BD08EB71FD0020E06D0050E755DB2
:101430000EE3080E8D6F110EF36E030E1AD0050E1B
:10144000755D11E2110E09D0050E755D0CE2100EEE
:1014500004D0050E755D07E2110E18EC19F0DE528E
:10146000010EDD6E08D0140E18EC19F0010EF36EAB
:10147000020EF3CFDBFF030EDB5023E0010EDB5047
:101480001CE0BDEC1BF068EC1AF0016E026A036A06
:1014900001AE02D0026803686CEC18F053EC1DF04A
:1014A00008E2B4EC1DF001AE02D0026803686CECF7
:1014B00018F031EC1CF0E66A02D0010EE66E94ECF6
:1014C0001BF0020EDB5002E092EC0FF0DF2A5AD63E
:1014D000D3EC1AF0CBEC18F030E2E9EC1EF02DE082
:1014E000B0EC16F0120E6BEC17F018EC1AF05CEC86
:1014F0001EF0FDECA0F084EC1BF01E5C006E0350AF
:101500001F58016EDC0ED8800054010E01540FE20A
:10151000DDEC16F002E2E16AE552E16E06500301ED
:10152000786B796B040EDB06050E01E2DB06040E18
:10153000DB2A050ECFE3DB2ACDD7060EE15C02E203
:10154000E16AE552E16ED2EF16F0C4EC16F0250E1A
:10155000E12402E3E168E652E16ECBEC16F0F0EC38
:101560001AF0170EEECFDBFFDAEC17F0180EEECF05
:10157000DBFF190EEECFDBFF1A0EEECFDBFF1B0EEB
:10158000EECFDBFF1C0EDB6A060EF36E1D0EF3CFF3
:10159000DBFFB4EC1AF01E0E20C0DBFF1F0E21C0D3
:1015A000DBFF1E0EDBCFE6FF1F0EC4EC1BF01E0E92
:1015B000F3CFDBFF1F0ECBEC1BF0140F39EC1DF04B
:1015C000200E00C0DBFF210E01C0DBFFBBEC1AF0D8
:1015D0000BEC7FF0E552E552220EF3CFDBFF230E3A
:1015E000F4CFDBFF200EDBCF00F0210EDBCF01F0CC
:1015F000220EDB50001849E1230EDB50011845E1B3
:10160000000ED2EC1BF0140EB0EC1AF072EC80F06D
:101610008BEC1EF000EC1DF054EC0FF0E552E5529F
:10162000D9500C0FD8EC16F097EC19F0006E016A47
:10163000140E005E000E015A240E00C0DBFFDB50CA
:10164000026E036AB4EC1AF00250205C006E035084
:101650002158016E140E005E000E015AF80E00C0F3
:10166000DBFFF90E01C0DBFFBFEC17F000EC1DF053
:10167000CCDA8BEC1EF0000908E0BBEC1AF000ECB1
:101680001DF0D1EC0FF08BEC1EF014EC7DF0010E90
:10169000006E250EE15C02E2E16AE552E16E005067
:1016A000D2EF16F0C4EC16F02A0EE12402E3E16852
:1016B000E652E16E99EC00F0FD0EDBA004D00201D1
:1016C0008F87FD0EDB9002018E9B8E9D8E9F8F93E8
:1016D0008F958F9100EC7DF00009FCE0FD0EDB5052
:1016E000060B05E0260EDB6A270EDB6AEFD002014F
:1016F0005E517D1910E15F517E190DE1260EDB6A06
:10170000270EDB6A8FA7E2D06451651101E1DED0BC
:10171000FD0EDB80DBD07D515E5D7E515F593CE28A
:101720005E517D5D006E7E515F55EFEC18F003E376
:1017300068EC1AF004D0E8EC17F03CEC1AF0AEECD0
:101740001CF002E2F3EC19F0C3EC1EF002E244ECF0
:101750001AF08FA713D0DCEC18F0280EDB5000181D
:1017600003E1290EDB50011809E026EC1DF0EE180C
:1017700002E1020EED1802E0FD0EDB80260EDBCF4B
:10178000E6FF270E96EC18F002E2E16AE552E16E00
:101790000050C8EC1DF09AD05E51795D006E7A5110
:1017A0005F559CEC1BF0240EDB507D25026E250E50
:1017B000DB507E21036E7751025C006E7851035836
:1017C000EFEC18F003E368EC1AF004D0E8EC17F043
:1017D0003CEC1AF0AEEC1CF002E2F3EC19F0C3ECB6
:1017E0001EF002E244EC1AF08FA713D0DCEC18F0E4
:1017F000280EDB50001803E1290EDB50011809E028
:1018000026EC1DF0EE1802E1020EED1802E0FD0ECE
:10181000DB80240EDBCF00F0250EDBCF01F0260E9F
:10182000DBCF02F0270E6FEC17F004E2B8EC19F0F2
:10183000D9EC1BF065EC1EF096EC18F002E2E16AC0
:10184000E552E16E0050260EDBCF02F0270EDBCF13
:1018500003F0240EFEEC1EF0250EDB5003589CEC2A
:101860001BF0D950240F6FEC1CF027E065EC1EF044
:10187000DBCFE6FF92C2E6FF77C2E6FF78C2E6FF63
:10188000E66A02015E51795D006E7A515F55016E24
:10189000026A036A070E00260A0E0122000E0222C7
:1018A00003226AEC1EF0F9EC15F0046E080EE15C00
:1018B00002E2E16AE552E16E0450C8EC1DF0795194
:1018C0005E5D7A515F5902E3FCEC1DF0D950260FA2
:1018D0006FEC1CF004E1FD0EDB50030B16E0D95059
:1018E000260F6FEC1CF002E0FD0EDB86FC0EDBA089
:1018F00008D00201756BF20E526F9E0E536F546B3F
:10190000556B22EC19F08E8930D0FC0EDBA21ED074
:101910008E0EE96E020EEA6EEF50070BE82AE850D1
:10192000070BF36EF46EF80EEF14F310EF6EF45035
:1019300002015607000E575B585B595B010EF36EB0
:10194000260EF3CFDBFF270EDB6A0FD002018EA934
:101950000CD0DBB008D0755106E07507D890553330
:1019600054335333523322EC19F0020E62C2DBFFC0
:10197000030E63C2DBFF040E60C2DBFF050E61C213
:10198000DBFF060E56C2DBFF070E57C2DBFF080E59
:1019900058C2DBFF090E59C2DBFF0A0E5AC2DBFF39
:1019A0000B0E5BC2DBFF0C0E5CC2DBFF0D0E5DC2DB
:1019B000DBFF0F0EDB9CDB9E0E0EDB90DB92DB94DD
:1019C000DB96FD0E69EC1BF0140EDB6A150EDB6A6C
:1019D000DCEC18F0A4EC1BF0FD0EDBA215D0DBB89C
:1019E00008D00A0EDB6A0B0EDB6A0C0EDB6A0D0EEA
:1019F000DB6A74A303D0ABEC1EF006D0562B000EAE
:101A00005723582359237483FD0EDBA00BD074A1F8
:101A100003D0ABEC1EF006D0562B000E57235823F4
:101A20005923748175EC1BF003E3A5EC18F002D088
:101A3000FAEC1AF0100E00C0DBFF110E01C0DBFF44
:101A400044EC7DF0ABEC1DF0400E005EE0EC1BF0D2
:101A5000D5EC19F00001800E011402E0DE6ADD6AA7
:101A6000BFEC19F008EC1BF008E290EC17F0100E38
:101A7000EECFDBFF110EEDCFDBFFD950020FDAEC1A
:101A800019F012DAE552E552EDEC1EF0140EEE26D6
:101A9000000EED220E0EDB88DB9ADB8CDB9EFD0E4A
:101AA000DBA22DD0EDEC1EF0040EEE26000EED2292
:101AB000020EF36E160EF3CFDBFF040EF36E170E5D
:101AC000F3CFDBFF020EF36E180EF3CFDBFF140E25
:101AD00036EC1CF0010E006ED9500E0FD8EC16F04B
:101AE00003EC1EF000240F0BF36EF46EF346F34686
:101AF000F346F3460F0EEF14F310EF6EF4501A0E88
:101B0000B8C3DBFF1B0EB9C3DBFF1C0EBAC3DBFF80
:101B10001D0EBBC3DBFF1E0E68C2DBFF1F0E69C2BA
:101B2000DBFF200E6AC2DBFF210E6BC2DBFF220E41
:101B3000DB6A060EF36E230EF3CFDBFFB8EC19F071
:101B4000D9EC1BF065EC1EF0C4EC1BF0240EF3CFB7
:101B5000DBFF250ECBEC1BF01A0F39EC1DF0120E3B
:101B600000C0DBFF130E01C0DBFFDF0EE66E090EC7
:101B7000E66ECFEC7EF043EC1BF0060EE66ED0EC8A
:101B800019F037EC94F0006E050EE15C02E2E16AB8
:101B9000E552E16E0050140EE66EE66AD950020F6F
:101BA000DAEC19F0C6EC19F0FD0EDBA209D0040E38
:101BB000E66EE66AD950160FDAEC19F0C6EC19F0A9
:101BC000F30EE66E090EE66ED9EC7EF043EC1BF0E8
:101BD0000BEC7FF0E552E552F1EC1EF0030EE66EE1
:101BE0000A0EE66ECFEC7EF0E552E552020EB0EC46
:101BF0001AF0C6EC19F0AFEC7EF02A0EE15C02E2BE
:101C0000E16AE552E16ED2EF16F005EC1DF002E359
:101C1000E168E652E16E44EC1CF0EE50ED1001E19B
:101C2000AAD0DE52FE0EDD6EDAEC17F0020E6BEC7F
:101C300017F0EECF06F0EFCF07F0DAEC17F0065012
:101C4000EE24046E0750EE20056ECBEC16F0045027
:101C5000EE24026E0550EE20036E44EC1CF00250A0
:101C6000EE18006E0350EE18016E47EC18F0DF6AB4
:101C700037EC18F047E2CAEC19F00D0E02018D5D49
:101C80003FE0040E8D5D0CE1A8EC1EF000509019B1
:101C900037E10150911934E1010EDFCFDBFF30D085
:101CA00090C200F091C201F0020EDB50001828E152
:101CB000030EDB50011824E199EC00F0A8EC1EF0B3
:101CC0000201625100181CE16351011819E1CBECCB
:101CD00016F018EC1AF06051021812E16151031865
:101CE0000FE1DAEC17F0EE5068190AE1EE506919CD
:101CF00007E1EE506A1904E1EE506B1901E12DE0A5
:101D0000DF2AB6D7010EDB50FE0829E0010EDBCF3B
:101D1000E6FF64EC00F0E55299EC00F0010EDB50B8
:101D2000FE081DE0020EDBCF90F2030EDBCF91F236
:101D30006DEC1DF002E2E16AE552E16E0050CBEC81
:101D400016F0EECF60F2EDCF61F244EC1CF0EECF76
:101D500062F2EDCF63F23BEC1CF0010E9BD0CBECBA
:101D600016F00D0E6BEC17F0EF50020B04E00301C0
:101D70007851791102E0000E8DD0D3EC1AF0CBEC43
:101D800018F036E2E9EC1EF033E08DEC1CF0EAECE2
:101D900018F044EC1CF018EC1AF00250001822E184
:101DA000035001181FE198EC1DF0EAEC18F0CBECA1
:101DB00016F018EC1AF00250001814E10350011844
:101DC00011E1DAEC17F08CEC1DF0EE500001001878
:101DD00008E1EE50011805E1EE50021802E1EE5064
:101DE000031849E0040EDB2A050EC9E3DB2AC7D736
:101DF000DF6A37EC18F04DE2CAEC19F002018EA749
:101E000046D099EC00F0A8EC1EF0005002016219D7
:101E10003EE1015063193BE140EC1CF0E1EC17F0AE
:101E2000B0EC16F03AEC1BF05CEC1AF002E2E16A5E
:101E3000E552E16E0250CBEC16F0EAEC18F098ECAB
:101E40001DF000C0EEFF01C0EDFFCBEC16F0040E5C
:101E50006BEC17F08CEC1DF00C0E6BEC17F000C067
:101E6000EEFFA1EC1EF0A8EC1EF08DEC1CF000C003
:101E7000EEFF01C0EDFFFDECA0F01FC001F0B0ECE3
:101E800016F0120E6FEC1EF001C0EDFF03D0DF2A3A
:101E9000B0D7000E006E060EE15C02E2E16AE55288
:101EA000E16E0050D2EF16F0C4EC16F0CBEC16F059
:101EB0007DEC1EF0CBEC16F0DDEC1AF044EC1CF0DF
:101EC0007DEC1EF044EC1CF0F6EC1EF0040E50EC21
:101ED0001CF0040E6FEC1EF0A1EC1EF0CBEC16F023
:101EE000080E50EC1CF0080E6FEC1EF0A1EC1EF07A
:101EF000F2EC1CF07DEC1EF0F2EC1CF0F6EC1EF0A7
:101F0000100E06EC1FF0100E6BEC17F0F6EC1EF046
:101F1000120E06EC1FF0120E6BEC17F0DDEC1AF04F
:101F2000D2EF16F099EC00F062C290F263C291F227
:101F3000CEEC1AF077C27FF278C280F279C281F2D9
:101F40007AC282F227EC1CF002018E51080B02E0EB
:101F5000040E01D00D0E8D6F8E918E938E958E99FD
:101F60008E9B8E9D8E9F8F918F938F958F978F894C
:101F700074917493749774993BEC1CF075EC9FF01A
:101F8000F3CF56F2F4CF57F275EC9FF0F3CF58F23F
:101F9000F4CF59F2020172697369010E646F656BC7
:101FA0001200C4EC16F01A0EE12402E3E168E652D6
:101FB000E16ECBEC16F00D0E6BEC17F00E0EEFCFC2
:101FC000DBFFCBEC16F0080E6BEC17F00F0EEECF2C
:101FD000DBFF100EEECFDBFF110EEECFDBFF120E9C
:101FE000EECFDBFFCBEC16F0040E6BEC17F0130E0C
:101FF000EECFDBFFF0EC1AF002018E918E938E95FE
:102000008EB904D0CFEC17F0E6EC1AF08D51050A2A
:1020100023E0010A10E0C2EC1AF0170E20C0DBFF2B
:10202000180E21C0DBFF0E0EDBA04AD0170EDB2AF4
:10203000180E46E344D00E0EDBB40EEF15F0DBA80D
:1020400005D026EC18F0E66A040EA1D2DBA20EEF52
:1020500015F0FEEC18F029D00E0EDBB415EF15F0DC
:10206000DBA810D00AEC1EF001E01BD1EE5057198E
:1020700001E017D1EE50581901E013D1EE50591973
:1020800001E00FD10E0EDBA215EF15F0FEEC18F0FB
:10209000C9EC1EF00E0EDBA808D0EDEC1CF002011E
:1020A000070E8D6F8E9915EF15F0010EE66E120E6C
:1020B00073EC17F00201060E8D6F15EF15F0DB2A99
:1020C0000E0EDBA205D0170EDB2A180E01E3DB2A69
:1020D00075EC1BF003E3A5EC18F002D0FAEC1AF053
:1020E0000C0E00C0DBFF0D0E01C0DBFFD950130F3B
:1020F000D8EC16F05A51EE5C006E5B51EE58016E52
:102100005C51EE58026E5D51EE58036E11EC1EF0FC
:10211000080E02C0DBFF090E03C0DBFF060EDBCF9B
:1021200020F0070E16EC1BF0190EDB6AD950170FC2
:102130006FEC1CF06EE0D9500C0F6FEC1CF001E15D
:1021400083D0CFEC1EF002E64CEC1BF005E383ECF1
:102150001EF09CEC19F040E3170EDBCF00F0180ED8
:1021600009EC1AF06BEC1CF055EC1BF00334000E7C
:10217000031809E6D880000E0054000E0154000E2A
:102180000254000E03542BE20C0EDBCF08F00D0EB0
:10219000DBCF09F0170EDB50085C046E180EDB5025
:1021A0000958056E066A076A05AE02D00668076818
:1021B0006BEC1CF0030EEBCFF3FF0750F318E8AE07
:1021C00002D0F33408D0EE50045CEE500558EE50C7
:1021D0000658EE50075803E3010E36EC1CF083EC72
:1021E0001EF0030EEB500318E8AE02D0033402D009
:1021F0009CEC19F029E2170EDBCF06F0180E8CECE0
:102200001AF0E83421E204500008000E05541CE2E4
:1022100018D018EC1EF0080EDBCF02F0090EDBCF51
:1022200003F000500110021003100BE0CFEC1EF081
:1022300002E64CEC1BF008E383EC1EF09CEC19F07A
:1022400003E2010E36EC1CF0190EDB5005E10E0E18
:10225000DBB4EBD311EF15F00E0EDB50060B01E0F3
:10226000DDD30E0EDBA8E1D38D510C0A01E1A8D11C
:102270000B0A39E00F0A37E0010A35E0020A33E0C1
:10228000010A31E00C0A01E0AED10AEC1EF008E1CF
:10229000EE50571905E1EE50581902E1EE50591968
:1022A00020E0130E56C2DBFF140E57C2DBFF150EE3
:1022B00058C2DBFF160E59C2DBFF26EC18F0010EE8
:1022C000E66E040E73EC17F0130EDBCF56F2140E0D
:1022D000DBCF57F2150EDBCF58F2160EDBCF59F2DB
:1022E000A4D3070E8D6F5E517D5D006E7E515F55EC
:1022F000016E89EC17F0040E6FEC1BF006E0A9EC00
:1023000017F0D950040F64EC1CF0040EDBCF00F082
:10231000050E09EC1AF0560EE96E020EEA6E55EC47
:102320001BF060EC18F0D2EC1CF00450EE5C006E78
:102330000550EE58016E0650EE58026E0750EE58EA
:10234000036E0001800E031402E0E66A6CD3020102
:102350007F515E5D046E5F518055056E066A076AA7
:1023600005AE02D0066807680450565D006E055041
:102370005759016E06505859026E07505959036E4D
:1023800060EC18F053EC1DF00CE2B4EC1DF090EC96
:1023900017F00050EE5E0150EE5A0250EE5A035014
:1023A000EE5AD2EC1CF0EE50045C006EEE50055874
:1023B000016EEE500658026EEE500758036E60EC48
:1023C00018F0DECF1FF0DECF20F0DECF21F0DDCF22
:1023D00022F0DD52DD522234000E221809E6D880A8
:1023E000000E1F54000E2054000E2154000E2254E3
:1023F0005BE2B4EC1DF090EC17F0EE50005CEE5098
:102400000158EE500258EE5003584EE374977499F9
:102410008F91040E7FC2DBFF050E80C2DBFF90ECC4
:1024200017F0EE507F27EE508023ACEC1BF05E5D82
:1024300001505F5909E353EC1DF023E25E517F5DCB
:10244000006E80515F5518D0E8EC17F05E51022401
:10245000006E5F510320016E89EC17F049EC1CF00F
:102460007F51005C805101580CE2040EDB507F5D0F
:10247000006E050EDB508059016EA4EC1BF031ECB0
:102480001CF079517F5D7A51805906E3A9EC17F071
:1024900000507F5F0150805B79515E5D7A515F59DA
:1024A00028E3FCEC1DF025D05E517F1902E15F515D
:1024B00080191FE074A71CD074A919D068EC1AF019
:1024C000016E026A036A01AE02D0026803686CEC16
:1024D00018F053EC1DF008E2B4EC1DF001AE02D090
:1024E000026803686CEC18F031EC1CF08F8574897D
:1024F00074877D517F1917E17E51801914E18FB7E0
:1025000002D08E9910D080EC1CF00DE15751EE18DE
:102510000AE15851EE1807E15951EE1804E103E1C0
:102520008E998F9774916451651106E1F2EC1CF05D
:10253000EE50ED1001E08F83C9EC1EF0080E8D5DAA
:102540001CE180EC1CF04FE15751EE184CE1585162
:10255000EE1849E15951EE1846E145E1CFEC17F08C
:10256000BA0E020185271A0E8623030E8723000E5A
:1025700088238E89090E8D6F36D0090E8D5D0AE194
:102580000E0EDBB030D026EC18F0E66A140E73ECB9
:1025900017F044D20A0E8D5D26E180EC1CF001E0BC
:1025A00044D25751EE1801E040D25851EE1801E0E4
:1025B0003CD25951EE1801E038D201E036D22ED289
:1025C00080EC1CF001E031D25751EE1801E02DD221
:1025D0005851EE1801E029D25951EE1801E025D2E8
:1025E00001E023D21BD20E0EDBBA1FD20B0E8D5D83
:1025F00001E11BD20A0E8D5D01E117D20C0E8D5D3B
:1026000001E113D2D950FA0F7EEC17F001E188D125
:10261000E3EC18F0013402E2D8EC1AF001E2ACD09D
:10262000D0EC1DF0026E036A0A0EDB50F35C006E04
:102630000B0EDB50035858EC1DF0BAEC94F0E55249
:10264000E552E3EC18F0D950FA0FC9EC17F0ED227F
:10265000E7EC1BF00C0EDBCF02F00D0E6FEC17F069
:102660000CE20C0EDBCF20F00D0EDBCF21F0FA0ECA
:1026700020C0DBFFFB0E21C0DBFFE7EC1BF00050AE
:102680000201EEEC1BF0FA0EDB508125006EFB0E12
:10269000DB508221016E0AEC1DF021E28151E2EC57
:1026A0001AF08255E5EC1EF0D1EC18F06CEC19F044
:1026B00002E2E16AE552E16E0050B0EC17F002E28E
:1026C000E16AE552E16E0450D5EC1EF0016E0201A4
:1026D00079510024816F7A510120826F10D0E1EC92
:1026E00017F06CEC19F002E2E16AE552E16E00507D
:1026F000C2EC1AF020500201812721508223721D62
:1027000001E1731D01E10CD1C2EC1AF02050725F9F
:102710002150735B66517225006E67517321016E03
:1027200089EC17F0040EDBCF00F06FEC1BF021E119
:10273000733504E272510008000E735501E2F0D0C7
:10274000ACEC1BF0EEEC1BF0040EDBCF20F0050E22
:10275000DBCF21F0205081272150822381517B5DE6
:1027600082517C5906E27BEC1CF00050815F0150E5
:10277000825B72697369D4D0E3EC18F0013401E331
:10278000CFD0D8EC1AF001E3CBD00A0EDBCF02F0A9
:102790000B0EDBCF03F05EEC1BF00C0EDBCF04F076
:1027A0000D0EA5EC1AF00EE20C0EDBCF02F00D0EB2
:1027B000DBCF03F062EC1BF0FA0E00C0DBFFFB0E78
:1027C00001C0DBFFD0EC1DF0D2EC1BF00A0EDB5099
:1027D0000201F5EC1BF05EEC1BF00AEC1DF03EE292
:1027E00081517B5D026E7C518255036E18EC1CF0AA
:1027F00062EC1BF08EDB040E6FEC1BF010E1D1ECF1
:1028000018F018EC18F002E2E16AE552E16E0250AD
:10281000A7DB02E2E16AE552E16E045026D0D1DB8B
:1028200029EC1DF00A0EDB50F5EC1BF079517B5DB5
:10283000046E7C517A55056E010E0426000E0522A9
:1028400020EC1DF058EC1DF0D4D9066E080EE15CAA
:1028500002E2E16AE552E16E065007D0B2DBE8DB46
:1028600002E2E16AE552E16E02500201721D07E1E7
:10287000731D05E103EC1CF0FCEC1BF051D0E3EC04
:1028800018F07251005C7351015825E2B2DB13E37A
:10289000FA0EDBCF08F0FB0EDBCF09F00A0EDB509F
:1028A0000824066E0B0EDB500920076E7251065C81
:1028B0007351075803E2FCEC1BF00AD00AEC1CF041
:1028C0000A0EDB50005C666F0B0EDB500158676F21
:1028D00003EC1CF025D08DDB23E2E3EC18F0725101
:1028E0006625026E73516721036E0050025C015031
:1028F000035816E3FA0EDBCF06F0FB0E8CEC1AF051
:102900007251045C026E73510558036E6651025C8D
:10291000006E67510358016E00506627015067230F
:10292000D950170F6FEC1CF017E0070E8D5D02E019
:102930001DEC1CF08EAF05D0EDEC1CF099EC00F016
:102940000BD08E8F8EBD08D08E8D11EC1CF00F0E2B
:1029500002018B27000E8C230E0EDBA066D05AC21C
:1029600000F05BC201F05CC202F05DC203F0002A1D
:10297000000E012202220322170EDBCF04F0180EF4
:10298000DBCF05F0066A076AD950130F11DAEE5053
:102990000426EE500522EE500622EE50072200508B
:1029A000041843E10150051840E1025006183DE1CA
:1029B000035007183AE139E102015A2B000E5B235C
:1029C0005C235D238D51090A26E0010A14E00F0AF9
:1029D00008E0010A26E10C0E8D6F010EE66E110E65
:1029E00023D00B0E8D6F11EC1CF01F0E02018B27F4
:1029F000000E8C2316D080EC1CF00AE15751EE1823
:102A000007E15851EE1804E15951EE1801E103E0D5
:102A10000A0E8D6F06D0E66A100E65DA92EC0FF0A2
:102A200004D0010EE66E100E5EDA1A0EE15C02E2D0
:102A3000E16AE552E16EB6D105EC1DF002E3E16812
:102A4000E652E16E04DAB0EC1DF007E1010EF36E20
:102A5000FB0EF3CFDBFFFC0EDB6A02017751E2ECE9
:102A60001AF07855016E0006E0EC1BF073EC19F0DB
:102A7000DECF04F0DDCF05F074EC1EF06BE399ECD3
:102A800000F0F80EDB50030B03E1F80EDB80DB8275
:102A9000A9EC1AF0040E20C0DBFF050E21C0DBFFFD
:102AA00073EC19F0A2EC1DF0F80EDBA20ED0DBA047
:102AB00006D0D5EC19F0D8900132003202D0D5EC16
:102AC00019F0D950040F64EC1CF0040EDB50020125
:102AD0007725006E050EDB50782115DA00C0DEFF89
:102AE00001C0DDFF020E81C2DBFF030E82C2DBFFED
:102AF000721D01E1731D10E00AEC1CF0D950020FA9
:102B000064EC1CF0CFD90AEC1DF006E27BEC1CF063
:102B1000D950020F02EC1FF0C5D90050835D01505F
:102B200084590BE2D5EC19F00050835D01508459B3
:102B30001BE2F80EDBB40ED00FD01FEC1EF00CE23F
:102B4000D5EC19F00050795D01507A590DE2F80E7C
:102B5000DBA402D0000E44D0DECF83F2DDCF84F2BE
:102B6000DECF81F2DDCF82F21FEC1EF027E2F80EFD
:102B7000DB50040B23E0020EDBCF20F0030EDBCF93
:102B800021F07951205C006E7A51215879EC1AF0CD
:102B90000FDB1AEC1DF002E2E16AE552E16E025031
:102BA000020175EC1BF00AE2DE50795D006EDD502B
:102BB0007A59016E0050815F0150825BDECF79F25D
:102BC000DDCF7AF23BEC1CF077C27FF278C280F264
:102BD000CEEC1AF0070E8D5D02E1EDEC1CF0010E5B
:102BE000006E060EE15C02E2E16AE552E16E005021
:102BF000D9D0CAD8F80EDB501BE0010A40E1FB0E29
:102C0000DB500CE0010A3BE12EDAB9D962EC1AF094
:102C100002E2E16AE552E16E005031D0D950FC0F7A
:102C2000F3DB02E126EC1EF01EDAB2EC80F014D0E9
:102C3000FB0EDB5014E0010A22E1D950F90FE4DB6E
:102C400006E1E6EC1CF0D9EC7EF0E552E5522DEC05
:102C50001EF095D972EC80F08BEC1EF010D003DAE8
:102C60008ED9C3EC7FF0006E060EE15C02E2E16AF1
:102C7000E552E16E00506AEC80F00009FCE092D071
:102C800083D8120EE12402E3E168E652E16EFB0E06
:102C9000DB5014E0010A5DE1F60EDBCFE6FFF70E34
:102CA00050EC1AF06CD90FEC8EF0006E070EE15C60
:102CB00002E2E16AE552E16E00504BD0D950FC0FC0
:102CC000A3DB02E126EC1EF0100EF36EDB6E110E9C
:102CD000DB6AD950F60F12D93CE051DBF60EDBCFA0
:102CE00002F0F70EFCD80CE2F60EDBCF20F0F70E68
:102CF000DBCF21F0100E20C0DBFF110E21C0DBFF67
:102D0000100EDBCFE6FF110ECBDB00EC1DF00FEC5D
:102D10008EF0006E070EE15C02E2E16AE552E16EC0
:102D20000050100EDBCFE6FF110EDBCFE6FF00EC0C
:102D30001DF02CDB24DB026AD950F80F2AD9EE22D1
:102D40000250EE221CDBD950F60F9AEC1CF01CD975
:102D5000C0D7120EE15C02E2E16AE552E16E22D0D8
:102D6000040EDBCFE9FF050EDBCFEAFF140EEA020B
:102D7000F3CFEAFFE902F3CFE9FFF450EA26400E71
:102D8000E926030EEA22120000EC1DF0E1CFD9FF84
:102D9000E2CFDAFF1200FC0EDBCFE9FFFD0EDBCF46
:102DA000EAFF1200E552E5CFDAFFE7CFD9FF1200C4
:102DB000E96E000EDA20EA6E120049EC1CF0020EF9
:102DC000D8800056000E0156140E0102F3CF01F018
:102DD0000002F3CF00F0F4500126F3CFE6FF01C06C
:102DE000E6FF010EE66EE76E34EC1EF0E7500226B9
:102DF000000E0322140E0302F3CF03F00202F3CFFE
:102E000002F0F4500326400E0226030E03225CEC6F
:102E10001EF0010EE66E040EDBCF04F0050EDBCFD4
:102E200005F0140E0502F3CF05F00402F3CF04F011
:102E3000F4500526400E0426030E052204C0E6FFCA
:102E400005C0E6FFD6DE066E080EE15C12005DEC02
:102E50001DF064EC00F0E5521200E1EC1EF0EFCF43
:102E6000F6FFEE2AEFCFF7FF000EEE22EFCFF8FFCE
:102E7000EE2208000E0EF5CFDBFF12008E8BFDEC6C
:102E8000A0F01EC000F01FC001F0026A036A060E27
:102E90000026000E01220222032200C089F201C096
:102EA0008AF21200020EDBEF1EF0000E006E480EDA
:102EB000016E010E026EDFCF03F0046A056A060E92
:102EC000246E256A266A03C01FF004C020F005C0E6
:102ED00021F0A3EF87F0E926000EEA221200DBCFF3
:102EE00003F09DEF1DF0E66E52EC0BF0E552E5525B
:102EF0001200E66E74EC1CF087EF1CF09AEC1CF0EC
:102F0000EE50ED101200016E010E0026000E01229F
:102F10001200040E00C0DBFF050E01C0DBFF120033
:102F2000D9CFE9FFDACFEAFF120000501C24F36E7C
:102F300001501D20F46E02501E20F86EF4CFF7FFF2
:102F4000F3CFF6FF12005DEC1DF0C5EC02F0E55288
:102F500012007751795D006E7A517855016E12003A
:102F6000D5EC1EF058EC1DF029EC1DF079C2E6FFFF
:102F70007AC2E6FF3EDE046E080EE15C1200FC0E33
:102F8000DBCFE6FF5DEF1DF00050EE5E0150ED5A25
:102F900012009AEC1CF00050EE2601501200F3ECE7
:102FA000A0F01EC085F21FC086F220C087F221C0AB
:102FB00088F21200FA0EDBCFE9FFFB0EDBCFEAFF4F
:102FC0001200FA0EDBCFE6FFFB0EDBCFE6FF1200AE
:102FD0007751795D026E7A517855036E12005DEC7F
:102FE0001DF082EC04F0E5521200E552E552ABEF21
:102FF0001DF0FA0EDBCF02F0FB0EDBCF03F00A0E62
:10300000B2EC1EF00B0EDB500320016E72516625F0
:10301000046E73516721056E74EF1EF0FA0EDBCF5C
:10302000E6FFFB0EDBCFE6FFFC0EDBCFE6FF120078
:1030300029EC1DF00A0EDB508125006E0B0EDB50D3
:103040008221000158EC1DF01AEF1DF00F0EDBCFAE
:1030500056F2100EDBCF57F2110EDBCF58F2120EE4
:10306000DBCF59F212002DEC1EF0E6EF1CF0DF5022
:10307000006E016A060E005C000E01581200FB0E85
:10308000DBCFE9FFDB2AFC0EDBCFEAFF1200020EEA
:1030900000C0DBFF030E01C0DBFF1200F1EC1EF0ED
:1030A00043EC1DF0DE50025C006EDD5003584AEC2C
:1030B0001DF0040EE15C12003BEC1EF087EF1CF0EB
:1030C00000C0DFFF010E01C0DBFF020E02C0DBFF0C
:1030D000030E03C0DBFF12000050565F0150575B28
:1030E0000250585B0350595B1200DBCFF4FFF350E2
:1030F000F45C1200DB508421016E11EC1EF018EC20
:103100001EF00AEF1DF0F3ECA0F0020185511E5CE9
:10311000006E86511F58016E87512058026E8851EB
:103120002158036E0001800E03141200DBCFE6FF6E
:1031300092C2E6FF5EC2E6FF5FC2E6FFE66A070EE6
:10314000E66E0A0EE66E87EF1CF079517B5D026E2B
:103150007C517A55036E8351815D046E8251845592
:10316000056E20EC1DF0016E1200E00E006E0D0EDB
:10317000DBCFE7FF0050E7260D0EE7CFDBFF1200A5
:10318000E00E006E0E0EDBCFE7FF0050E7260E0EBE
:10319000E7CFDBFF12007DDB030E005C000E015861
:1031A0001200040EDBCFE6FF050EDBCFE6FF1200B8
:1031B00092C2E6FF57EF1EF0260EDBCF00F0270E7F
:1031C000DBCF01F012000A0EDBCF00F00B0EDBCFDD
:1031D00001F01200EECF00F0EFCF01F01200016E0F
:1031E000260E00C0DBFF270E01C0DBFF280E64C2E5
:1031F000DBFF290E65C2DBFF53EF1DF0130EDBCFA3
:103200005AF2140EDBCF5BF2150EDBCF5CF2160E1A
:10321000DBCF5DF25A2B000E5B235C235D23120093
:103220000024E96E000E0120EA6EEF50F36E1200EA
:10323000F36E030EF3CFDBFF1200036E7FEC1DF085
:10324000F5EF1DF0F3ECA0F01E5002015225856F42
:103250001F505321866F20505421876F21505521D4
:10326000886F120034EC1EF0DE500224006EDD5038
:10327000032000C0F3FFF46E1200F3CFDBFFDBCFBF
:1032800000F0040EDBCF01F0050ED7EF1DF042EC8D
:103290001EF0F90E20C0DBFFFA0E21C0DBFF0F0E7F
:1032A000DB501200060EDBCF04F0070EDBCF05F07B
:1032B000080EDB50045C026E090EDB500558036EED
:1032C000120042EC1EF0F80E20C0DBFFF90E21C008
:1032D000DBFF100EDB501200BCDB81C2E6FF82C2B6
:1032E000E6FF87EF1CF087DBDBCF03F0FB0EB2ECD1
:1032F0001EF0FC0EFAEF1EF0DBCF21F0060E20C010
:10330000DBFF070E21C0DBFF1200D950100F006E4B
:10331000000EDA20016E0C0EDB501200D950110F96
:10332000006E000EDA20016E0D0EDB50120003EC71
:103330001EF0040DF35012000050EE5C0150EE58E8
:103340000250EE580350EE581200B7DBD3EC02F0F7
:10335000E5521200F90EDBCF00F0FA0EDBCF01F0E0
:103360001200DBCF03F00250005C03500158120042
:10337000260EDBCF20F0270EDBCF21F01200100E3F
:10338000DBCF00F0110EDBCF01F01200B2EC80F0C9
:103390008BEF1EF0DFCFE6FF64EC00F0E552120089
:1033A000680EE66E020EE66E1200DECF00F0DDCF94
:1033B00001F01200E66E000EDA20E66E1200EECF8B
:1033C000E6FFEFCFE6FF12001C0DC5DB000E002666
:1033D000010E01226AEF1EF0DBCF00F0020EDBCF00
:1033E00001F0030EE4D3280EDBCF20F0290EDBCF53
:1033F00021F0260E20C0DBFF270E21C0DBFF1200CC
:10340000D8900332023299D395DAEE52EF50800B06
:103410001200DBCF01F0026A036A1200DBCFDEFF8D
:10342000DBCFDDFF1200DB50006E016AD9501200C5
:10343000EECF02F0EFCF03F01200E66E6C511C0DE0
:10344000F3CFE9FFF4CFEAFF000EE926010EEA22EE
:1034500012003BEC1EF014DC006E080EE15C120062
:10346000DB500F010124E96E000E0220EA6EEFCF5F
:1034700000F0610E005C12005E517F5D046E8051B1
:103480005F55056E20EF1DF0180EF36E260EF3CF7C
:10349000DBFF020EF36E270EF3CFDBFF8F851200EA
:1034A000DBCFE6FFF80EDBCFE6FFF90EDBCFE6FF62
:1034B000FA0EDBCFE6FF1200E4EC8DF0026E060E92
:1034C000E15C1200E4EC8DF0006E060EE15C12008F
:1034D0007F515E5D006E5F5180551200DE507D258C
:1034E000006EDD507E21016E7951005C7A510158E9
:1034F0001200DEDA92C2E6FF79C2E6FF7AC2E6FF88
:103500001200FDECA0F002011E508B5D006E1F50FA
:103510008C59016EE8341200DBCF07F00A0EDB5045
:103520000624046E0B0EDB500720056E1200020EFF
:10353000F3CFDBFF030EF4CFDBFF120092C2E6FFF6
:1035400083C2E6FF84C2E6FF1200DBCF05F074EF12
:103550001EF0F90EDBCF20F0FA0EDBCF21F01200C7
:10356000E66EE66A00EF1DF0F80EDBCF20F0F90EF4
:10357000DBCF21F01200F80EDBCFE6FFF90EDBCF38
:10358000E6FF1200FA0EDBCF20F0FB0EDBCF21F0BE
:10359000120000C0F3FF01C0F4FF120077C27DF2F9
:1035A00078C27EF21200040EDB6A050EDB6A12009E
:1035B00000500008000E01541200F3CFEEFF01C0CE
:1035C000EDFF12007B5D006E7C511200740E020153
:1035D0008527350E8623060E8723000E88231200CA
:1035E000140EEECFDBFF150EEECFDBFF160EEECF87
:1035F000DBFF12008151835D006E84518255016EA4
:103600000006000E015A1200E16E005049EF1CF056
:10361000DECF02F0DDCF03F090D2DBCF21F0020E3F
:1036200020C0DBFF030E21C0DBFF1200DBCF21F047
:103630000A0E20C0DBFF0B0E21C0DBFF120079C297
:10364000DEFF7AC2DDFF040EDB68050EDB681200C8
:10365000DB500324E96E000E0420EA6EEF507A0876
:1036600012000D0EEFCFDBFF010EF36E0F0EF3CF46
:10367000DBFF1200E9CF00F0EACF01F0E9CFE6FF6F
:10368000EACFE6FF1200E552E552260EDBCFE6FF59
:10369000270EDBCFE6FF1200000EEE5C000EEE58A8
:1036A000000EEE58000EEE581200EE500026EE50BE
:1036B0000122EE500222EE5003221200FA0E52DBDB
:1036C000FB0E98D30A0E9ADB0B0EDB500358016EEB
:1036D0001200DB50E76E0F0EE7CFDBFF1200050E86
:1036E000DBCF01F0800E011412008351815D845103
:1036F00082591200DBCF01F0005001101200005E71
:10370000000E015A6AEF1EF0E552E7CF03F0E552D2
:10371000E7CF02F0025012000024E96E000E0120F3
:10372000EA6E0250EF261200030EDBCFE6FF52ECEA
:103730000BF0E552E5521200016E240E00C0DBFFD3
:10374000250E01C0DBFF1200005056270150572301
:10375000000E5823592312009CD800501200D95053
:10376000FC0FE66EFF0EDA20E66E1200080E20C097
:10377000DBFF090E21C0DBFF1200752BD8905237FA
:103780005337543755371200DBCFE6FFF1EC6DF0BD
:10379000E552E5521200F4CFDBFF0C0EE66EE66A4E
:1037A000D9501200E66EE66ABAEC94F0E552E552A2
:1037B0001200240E20C0DBFF250E21C0DBFF12000B
:1037C000000E015A00C0DEFF01C0DDFF1200FA0E3C
:1037D000DBCF00F0FB0EDBCF01F012005A270150C7
:1037E0005B23000E5C235D2312008125026E0B0E0D
:1037F000DB508221036E1200FA0EDBCF66F2FB0E65
:10380000DBCF67F212000A0EDBCF72F20B0EDBCFBA
:1038100073F2120072516625006E73516721016EBA
:103820001200FDECA0F01EC08BF21FC08CF2120043
:10383000010E0226000E0322120081C283F282C210
:1038400084F21200E652E652E652E652120079C2C3
:1038500083F27AC284F21200DB5002018325006EEB
:1038600012007FC25EF280C25FF21200F36E190E88
:10387000F3CFDBFF120077C25EF278C25FF2120074
:103880000A0EE66EE66A1200CBEC16F0020E6BEF43
:1038900017F0040EDBCF00F0050EDBCF01F01200B5
:1038A0006BEC17F0EECFE6FFEECFE6FF88DD10EC15
:1038B0006EF031DA1EC000F01FC001F020C002F02F
:1038C00021C003F0CBEF16F0D8EC16F00050EE2636
:1038D0000150ED221200D950060FD8EF16F0D8ECA7
:1038E00016F0EE50ED101200FB0EDBCFE6FFFC0EE3
:1038F000DBCFE6FF1200795165DE7A5583EF17F0D2
:10390000D9500F0FD8EC16F05651EE181200F9EC02
:1039100015F0006E080EE15C1200B0EC16F0100E0F
:103920006BEF17F0DBCF03F0040E68DA050EDB5007
:1039300003581200E96EFF0EDA20EA6E1200D95029
:103940000A0FD8EC16F0FA0EEECFDBFFFB0EEECF2F
:10395000DBFFFC0EEECFDBFF2DEF17F0016ED95031
:10396000280F50DA29DC280EDBCF02F0290E6FEF8A
:1039700017F0060E53DDDB507B5D006E070EDB504B
:103980007C590001E5EF1EF00A0EDBCF20F00B0E94
:10399000DBCF21F0FB0E20C0DBFFFC0E21C0DBFFE4
:1039A0003FEF18F00F0EDBCF04F0100EDBCF05F069
:1039B000110EDBCF06F0120EDBCF07F090EF17F001
:1039C00010DA90EC17F0EE50ED101200F90EDBCF8C
:1039D000E6FFFA0EDBCFE6FF1200010EE66E100ED8
:1039E00073EF17F0CBEC16F00E0E6BEF17F0C4EC84
:1039F00016F027EF17F0F90EDBCF02F0FA0E1200E7
:103A0000D9CFE6FFDACFE6FF1200C4EC16F0060EBF
:103A1000E124120000507B5D01507C591200E16EE0
:103A2000005090EC17F0EE5002017D27EE507E23FF
:103A300052EF17F0F9EC15F0026E080EE15C12007F
:103A40000450025C006E055003581200C6D9180ECF
:103A50001200E66AE668E66892C2E6FF12007D514F
:103A6000795D006E7A517E55016E89EC17F0D1EFC9
:103A700018F0A0DC37EC6EF0E552E552F5EC17F0EB
:103A8000001E011E1200020EDBCF02F0030EDBCF80
:103A900003F01200016E00C0F3FFF46E1200F36E2B
:103AA0000D0E75EF18F07F515E5D80515F59120069
:103AB000016E00C0E6FFE66E1200FD0EDBCFE6FFF2
:103AC000120050D9000E032083EC17F0C9EF1AF052
:103AD000AADC020F97D952EF17F0D2DEE1EC17F013
:103AE0005FDC62EF1AF0010EE66E110E73EC17F058
:103AF0000201645165111200020E90DC5CD1F70ED8
:103B000031D9F80E77D1DBCFE6FFE66AD8EC18F0B2
:103B1000010EE66ED9501200EECF00F0EECF01F0AC
:103B200087DCB0EF16F0610EF36E0E0E75EF18F035
:103B3000B0EC16F00A0E6BEF17F00050025C01506B
:103B40000358120090EC17F0C4EF17F0F80EDBCF1B
:103B500002F0F90E1200F3CF00F0F4CF01F01200E2
:103B6000D950FB0F7EEF17F0A9EC17F0026A036A39
:103B70001200DB50F458016E47EC18F052EF17F0CA
:103B80002DEC17F0010EF36E100EF3CFDBFF1200D9
:103B9000B8EC19F0205002015E2721505F2312007B
:103BA000CBEC16F00C0E6BEC17F097EF19F0DBCFA7
:103BB00002F00050015C000E025812001DC004F01B
:103BC0001EC005F095EF17F052EC17F0E8EC17F077
:103BD00000EF1AF0C4EC16F035DE27EF17F00E0EEA
:103BE000DB50F36E0C0E75EF18F000506219906FF9
:103BF00001506319916F1200A9EC17F000505E5F3D
:103C000001505F5B1200EF50F00BE842E842E842DF
:103C1000E8421200D9500F0FD8EC16F0EE505619AA
:103C20001200060E00C0DBFF070E01C0DBFF120012
:103C3000060EDBCF00F0070EDBCF01F0120052ECD6
:103C400017F08351005C845101581200BFEC17F04B
:103C5000CFEC7EF0E552E5521200F60EDBCFE6FF28
:103C6000F70EDBCFE6FF1200040EDBCF02F0050EED
:103C7000DBCF03F0120092C2E6FF7DC2E6FF7EC2F8
:103C8000E6FF1200080EDBCF20F0090EDBCF21F09B
:103C9000120027EC17F0A5EF19F090EC17F0010EC9
:103CA000EE181200A3EC17F002018F811200DECF94
:103CB000E6FFDDCFE6FF120002C0E6FF03C0E6FF2D
:103CC000120027EC17F0EFEF17F0240EDBCFE6FF22
:103CD000250E120000C0E6FF01C0E6FF12006BECEB
:103CE00017F01EC0EEFF12000050045C0150055892
:103CF0001200C4EC16F0E6521200DFEC19F0F1EC01
:103D00006DF0F5EF17F00C0EDBCF00F00D0E09ECA7
:103D10001AF06BEF1CF0E552E552E552E552120045
:103D2000E16E41DCB6DF97EC1AF0D950020F6FEF6D
:103D30001CF013EC1AF0040F65D8D950040F6FEF84
:103D40001CF001C0EEFF02C0EEFF03C0EEFF120048
:103D50009BDDEAEF18F0BFDDEE06000EEE5AEE5ADC
:103D6000EE5A1200DB500224006E1200010EE66EC5
:103D7000BBDD5CEF18F08DDDE5DECEEF1AF0BBDDCC
:103D8000AADDC4EF17F062DED880EE54020EED54C7
:103D9000120028DEEECF64F2EDCF65F212009BDD5B
:103DA000D890030EEB50000A1200FA0EDBCF02F09F
:103DB000FB0E92EF1CF0DBCF00F0030EDBCF01F027
:103DC0001200D950FA0F9AEF1CF083EC17F089EF2C
:103DD00017F0A3DDEE50ED101200D950260FD8EFEA
:103DE00016F0F3CFDEFFF4CFDDFF1200DDEC1AF0AA
:103DF000CBEF16F0DB500320016E1200DB50025CAB
:103E0000006E1200D8EC16F0C4EF17F06BEC17F050
:063E100074DFCBEF16F099
:0A3E1600D2EC2EF0100EE12402E3BE
:103E2000E168E65227EC32F00401259166EC30F0AF
:103E3000280E59EC32F00C0EE66E250EE66E040EDE
:103E4000E66E280E02EC32F002E1000E99D1040E6B
:103E50000401251511E10101C0510EE0C06BBF6BDB
:103E6000070E0801005D02E0005104E1030502E0D5
:103E7000010E126FE66A19D0040E0401251518E030
:103E80000101C05115E1010EC06FBF6F070E08019F
:103E9000005D02E0005104E1030502E0010E126F33
:103EA0000101DA0505E1010EE66E32EC91F0E55212
:103EB000FD0E0401251502E0000E01D0010E6DEC8F
:103EC00030F0DBCFC1F10101C15109E199EC30F0D3
:103ED000D20EE66E090EF0EC2EF00BE208D0A0EC4C
:103EE00030F0D20EE66E090EF0EC2EF002E2E16A3E
:103EF000E552E16E0050090E0801005D04E1030582
:103F000002E0010E126F080E0401251502E0010EF9
:103F100001D0000E6DEC30F0DBCFC2F10101C251D7
:103F200012E1CB0EE66EF80EE66E000EE66EDA0ECD
:103F3000E66E090EF0EC2EF002E2E16AE552E16E67
:103F40000050E66A0ED0A7EC30F0DA0EE66E090EED
:103F5000F0EC2EF002E2E16AE552E16E0050010E53
:103F6000E66E3CEC91F0E5520A0E0801005D04E1BA
:103F7000030502E0010E126F26C4E6FF27C4E6FF28
:103F800028C4E6FF29C4E6FF7CEC32F00101A81941
:103F900008E1EE50A91905E1EE50AA1902E1EE5030
:103FA000AB193DE009EC30F03AE322EC30F037E3B6
:103FB000DFCFA8F1010EDBCFA9F1020EDBCFAAF112
:103FC000030EDBCFABF1A8C100F0A9C101F0AAC17B
:103FD00002F0ABC103F008EC32F094EC2FF0A8C172
:103FE00004F0A9C105F0AAC106F0ABC107F008ECC6
:103FF00032F049EC2FF0470EE66E090EAEEC30F0D1
:1040000002E2E16AE552E16E0850040E0801005D2B
:1040100002E0005104E1030502E0010E126F2AC420
:10402000E6FF2BC4E6FF38EC2FF00101C1512BE174
:1040300072EC2FF0AC51001802E1AD5101185CE0B8
:1040400032EC30F059E348EC30F056E3040EDBCFAD
:10405000ACF1050EDBCFADF1ACC120F0ADC121F06C
:104060003FEC31F05F0EE66E090EFCEC2FF002E241
:10407000E16AE552E16E0850080E0801005D3CE17E
:1040800003053AE037D072EC2FF0B951001802E185
:10409000BA51011831E02AEC2FF02EE343EC2FF057
:1040A0002BE3040EDBCFB9F1050EDBCFBAF1B9C1BA
:1040B00004F0BAC105F0EDEC31F0DBCFBBF10D0E31
:1040C000DBCFBCF10E0EDBCFBDF10F0EDBCFBEF1AF
:1040D0008EEC31F0BE0EE66E090EFCEC2FF002E223
:1040E000E16AE552E16E0850060E0801005D04E148
:1040F000030502E0010E126F52EC32F00101B151E2
:10410000001802E1B25101183AE02AEC2FF037E32F
:1041100043EC2FF034E3040EDBCFAFF1050EDBCF21
:10412000B0F1F40EAF5F010EB05B0A0E256E266A89
:10413000AFC120F0B0C121F032EC87F020C0AFF168
:1041400021C0B0F1040EDBCFB1F1050EDBCFB2F12F
:104150004EEC30F0AA0EE66E090EE66E03EC30F07F
:1041600002E2E16AE552E16E0050050E0801005DD1
:1041700002E0005104E1030502E0010E126F010E9E
:10418000006E100EE15C02E2E16AE552E16E005061
:104190001AEF2FF0D2EC2EF0100EE12402E3E168CA
:1041A000E65227EC32F00401319166EC30F0360E25
:1041B00059EC32F00C0EE66E310EE66E040EE66E31
:1041C000360E02EC32F002E1000EA1D1040E040121
:1041D000311511E10101DB510EE0DB6BDA6B0E0EE4
:1041E0000801005D02E0000504E1030502E0010EA4
:1041F000126FE66A19D0040E0401311518E00101AE
:10420000DB5115E1010EDB6FDA6F0E0E0801005D68
:1042100002E0000504E1030502E0010E126F010156
:10422000BF0505E1010EE66E32EC91F0E552FD0EA0
:104230000401311502E0000E01D0010E6DEC30F0EA
:10424000DB500101DC5D22E0060EDBCFDCF1DC514E
:1042500009E199EC30F0D60EE66E090EF0EC2EF086
:104260000BE208D0A0EC30F0D60EE66E090EF0ECB2
:104270002EF002E2E16AE552E16E0050100E0801F4
:10428000005D04E1030502E0010E126F080E040157
:10429000311502E0010E01D0000E6DEC30F0DB5064
:1042A0000101DD5D30E0060EDBCFDDF1DD5112E115
:1042B0007E0EE66EF80EE66E000EE66EE30EE66E1D
:1042C000090EF0EC2EF002E2E16AE552E16E0050D8
:1042D000E66A0ED0A7EC30F0E30EE66E090EF0ECC5
:1042E0002EF002E2E16AE552E16E0050010EE66E48
:1042F00046EC91F0E552110E0801005D04E1030562
:1043000002E0010E126F32C4E6FF33C4E6FF34C48C
:10431000E6FF35C4E6FF7CEC32F00101C31908E189
:10432000EE50C41905E1EE50C51902E1EE50C61970
:104330003DE009EC30F03AE322EC30F037E3DFCF38
:10434000C3F1010EDBCFC4F1020EDBCFC5F1030ECA
:10435000DBCFC6F1C3C100F0C4C101F0C5C102F09A
:10436000C6C103F012EC32F094EC2FF0C3C104F09C
:10437000C4C105F0C5C106F0C6C107F012EC32F0A9
:1043800049EC2FF0530EE66E090EAEEC30F002E26F
:10439000E16AE552E16E08500B0E0801005D02E093
:1043A000000504E1030502E0010E126F36C4E6FFCA
:1043B00037C4E6FF38EC2FF00101DC512BE172EC41
:1043C0002FF0C751001802E1C85101185CE032EC2F
:1043D00030F059E348EC30F056E3040EDBCFC7F180
:1043E000050EDBCFC8F1C7C120F0C8C121F03FECFA
:1043F00031F0670EE66E090EFCEC2FF002E2E16A86
:10440000E552E16E08500F0E0801005D3CE1030526
:104410003AE037D072EC2FF0D451001802E1D551B8
:10442000011831E02AEC2FF02EE343EC2FF02BE3C0
:10443000040EDBCFD4F1050EDBCFD5F1D4C104F0EF
:10444000D5C105F0EDEC31F0DBCFD6F10D0EDBCFB1
:10445000D7F10E0EDBCFD8F10F0EDBCFD9F18EECFA
:1044600031F0C80EE66E090EFCEC2FF002E2E16AB4
:10447000E552E16E08500D0E0801005D04E10305F0
:1044800002E0010E126F52EC32F00101CC51001823
:1044900002E1CD5101183AE02AEC2FF037E343EC6A
:1044A0002FF034E3040EDBCFCAF1050EDBCFCBF1E6
:1044B000F40ECA5F010ECB5B0A0E256E266ACAC1D6
:1044C00020F0CBC121F032EC87F020C0CAF121C02E
:1044D000CBF1040EDBCFCCF1050EDBCFCDF14EECF2
:1044E00030F0B40EE66E090EE66E03EC30F002E238
:1044F000E16AE552E16E00500C0E0801005D02E039
:10450000000504E1030502E0010E126F010E006ECA
:10451000100EE15C02E2E16AE552E16E00501AEF32
:104520002FF0A8EC32F0DF6A010EDB6AEDEC30F020
:1045300004013D9166EC30F0320E59EC32F00A0E77
:10454000E66E3D0EE66E040EE66E320E40EC33F083
:10455000030EE7CFDBFFDB5002E1000E2CD1100E83
:1045600004013D1502E0010E01D0000EDF6EDF50A8
:104570000101E35D18E0DFCFE3F1E30504E00901A9
:10458000460E9B6F04D009014E0E9B6F200E9C6F50
:10459000120E0801005D03E0020E005D04E1030558
:1045A00002E0010E126F080E04013D1502E0010E3B
:1045B00001D0000EDF6EDF500101E25D18E0DFCFB9
:1045C000E2F1E20504E00901460E9F6F04D0090103
:1045D0004E0E9F6F200EA06F130E0801005D03E0CA
:1045E000020E005D04E1030502E0010E126F020EEF
:1045F00004013D1502E0010E01D0000EDF6EDF5018
:104600000101E05D15E0DFCFE0F1E00504E0090124
:10461000460EA76F04D009014E0EA76F200EA86F9B
:10462000150E0801005D04E1030502E0010E126FA2
:10463000040E04013D1502E0010E01D0000EDF6EF4
:10464000DF500101E15D15E0DFCFE1F1E10504E0BC
:104650000901460EA36F04D009014E0EA36F200E70
:10466000A46F140E0801005D04E1030502E0010ED1
:10467000126F200E04013D1502E0010E01D0000E64
:10468000DF6EDF500101E45D0AE0DFCFE4F1190ED7
:104690000801005D04E1030502E0010E126F400E07
:1046A00004013D1502E0010E01D0000EDF6EDF5067
:1046B0000101E55D0AE0DFCFE5F11A0E0801005DBA
:1046C00004E1030502E0010E126F800E04013D15A6
:1046D00002E0010E01D0000EDF6EDF500101E65D49
:1046E0000DE0DFCFE6F1160E0801005D03E0020EDB
:1046F000005D04E1030502E0010E126F3FC4E6FF16
:1047000040C4E6FFF7EC2EF00101E851001802E189
:10471000E95101180EE0010EDBCFE8F1020EDBCF0C
:10472000E9F1170E0801005D04E1030502E0010E46
:10473000126F41C4E6FF42C4E6FFF7EC2EF0010120
:10474000EA51001802E1EB5101180EE0010EDBCF37
:10475000EAF1020EDBCFEBF1180E0801005D04E177
:10476000030502E0010E126F43C4E6FF44C4E6FFF6
:10477000F7EC2EF00101EC51001802E1ED510118A7
:1047800006E0010EDBCFECF1020EDBCFEDF145C40C
:10479000E6FF46C4E6FFF7EC2EF00101EE510018EB
:1047A00002E1EF51011806E0010EDBCFEEF1020E3F
:1047B000DBCFEFF1010E006E040EE15C02E2E16A74
:1047C000E552E16E00501AEF2FF009012E5103E17E
:1047D0000BEC1FF008D02E0502E1DCDC04D0020E49
:1047E0002E5D01E19EDE09012E2B030E2E5D01E3FD
:1047F0002E6B120009012F5103E10BEC1FF008D0C2
:104800002F0502E1C7DC04D0020E2F5D01E189DE35
:1048100009012F2B030E2F5D01E32F6B1200D2EC49
:104820002EF0E652DF6A0E0EDF5C10E2DF5064EC21
:104830002EF0120EE9EC31F0EF04DF5064EC2EF0B4
:10484000130EE9EC31F0EF04DF2AEDD7E5521AEF51
:104850002FF0D2EC2EF0210EE12402E3E168E652C3
:10486000E16E0901ED51060A01E1BED2030A01E140
:1048700066D1010A01E10BD1070A01E1B4D0010AB6
:1048800053E0030A01E0B8D20801035142E021ECF1
:1048900031F024E10801C2EC2EF0EFCF00F0300E31
:1048A000005C0BE3C2EC2EF0EFCF01F0390E015C9F
:1048B00004E2C2EC2EF0EF2A81D048EC32F0390845
:1048C00004E1C2EC2EF0300E59D048EC32F02D0845
:1048D0004AE048EC32F02B0871E14DD021EC31F088
:1048E00001086CE179EC33F007E15EEC32F004E1B1
:1048F0002CEC33F061E25ED07DEC33F05FE16EECE6
:104900002EF0510EE6EC2EF059E130EC33F054E28B
:1049100051D0D9EC32F0330E60EC33F001E16CD2BF
:10492000D9EC32F0330E57D0080103514BE021ECA3
:1049300031F026E1080148EC32F0300808E248EC9A
:1049400032F0390804E3C2EC2EF0EF0637D048EC21
:1049500032F0300804E1C2EC2EF0390E0FD048ECF2
:1049600032F02D0804E1C2EC2EF02B0E07D048ECFB
:1049700032F02B0823E1C2EC2EF02D0EEF6E1ED08C
:1049800021EC31F001081AE179EC33F007E15EEC3B
:1049900032F004E12CEC33F00FE20CD07DEC33F07C
:1049A0000DE16EEC2EF0510EE6EC2EF007E130EC4E
:1049B00033F002E2E16AE552E16E09500801010EAE
:1049C000146F1AD2F8EC31F0FFEC30F001E114D2A0
:1049D000D9EC32F0340EABEC32F000C802F808012A
:1049E000010E136F09D2080103513DE021EC31F0B3
:1049F00001E002D2140EDB6A0FEC31F030EC32F041
:104A000002E2E16AE55256EC30F0150EF3CFDBFF1F
:104A10001CEC33F081EC32F006EC33F02CEC30F08F
:104A2000DBCF09F01CEC32F003E0140EDB2AF0D7E8
:104A3000010EF36E160EF3CFDBFF0FEC31F081ECBD
:104A400031F0150EDB04096E1CEC32F006E1BEEC11
:104A500032F0370EF5EC32F052D00FEC31F02CEC96
:104A600030F0DB2849D0010E136FBEEC32F0320E6D
:104A700060EC33F005E0BEEC32F0320EABEC32F01D
:104A8000C3D9000901E0B8D100C802F8B5D10801C6
:104A900003513AE021EC31F001E0AED1170EDB6AB0
:104AA0000FEC31F030EC32F002E2E16AE55256EC04
:104AB00030F0180EF3CFDBFF0FEC31F02FEC30F0BD
:104AC000DBCF09F01CEC32F003E0170EDB2AF4D741
:104AD000D9EC32F0370E77EC2EF0F5040801045DC6
:104AE00006E10FEC31F081EC31F0180E04D00FEC40
:104AF00031F02FEC30F0DB04096E08EC2FF00800E9
:104B0000F5040801046F6DD1010E136FBEEC32F095
:104B1000310E60EC33F005E0BEEC32F0310EABEC60
:104B200032F072D9000901E067D1C9EC2EF007EC30
:104B300031F0310E77EC2EF0F5CF02F8F2D7BEEC63
:104B400032F0350E18EC33F0010801E055D10801C0
:104B5000030501E043D1036B046B62EC32F0BEEC61
:104B600032F0360E18EC33F001E0F7D0FAEC32F008
:104B7000AAEC54F0E552E552190E1EC0DBFF1A0EE6
:104B80001FC0DBFF1B0E20C0DBFF1C0E21C0DBFFA4
:104B9000FAEC32F057EC54F0E552E5521D0E1EC00F
:104BA000DBFF1E0E1FC0DBFF1F0E20C0DBFF200E31
:104BB00021C0DBFF080103EC33F0080E3BEC30F0C2
:104BC000D950190F45EC30F0EBCFF3FF0350F31839
:104BD000E8AE02D0F33408D0EE50005CEE5001583D
:104BE000EE500258EE50035825E203EC33F0060E67
:104BF000E9EC31F0EECF04F0EFCF05F0066A076A7A
:104C000005AE02D006680768D9501D0F45EC30F09C
:104C1000EBCFF3FF0750F318E8AE02D0F33408D01F
:104C2000EE50045CEE500558EE500658EE50075812
:104C300001E2E2D003EC33F00E0EE9EC31F0EECFFE
:104C400008F0EECF09F0EECF0AF0EFCF0BF0D9501D
:104C5000190F45EC30F0EB500B18E8AE02D00B34D6
:104C600008D00850EE5C0950EE580A50EE580B5030
:104C7000EE5823E203EC33F00C0EE9EC31F0EECF0A
:104C80000CF0EFCF0DF00E6A0F6A0DAE02D00E6879
:104C90000F68D9501D0F45EC30F0EB500F18E8AEFF
:104CA00002D00F3408D00C50EE5C0D50EE580E5070
:104CB000EE580F50EE5801E29FD003EC33F0EECFE8
:104CC00010F0EFCF11F0126A136A11AE02D0126821
:104CD0001368D9501D0F22EC32F0EE50101826E167
:104CE000EE50111823E1EE50121820E1EE50131887
:104CF0001DE11CE103EC33F0EECF14F0EFCF15F023
:104D0000166A176A15AE02D016681768D950190FBF
:104D100022EC32F0EE50141808E1EE50151805E1BF
:104D2000EE50161802E1EE50171866E064EC33F00E
:104D3000190EDBCFEEFF1A0EDBCFEEFF1B0EDBCF23
:104D4000EEFF1C0EDBCFEEFF03EC33F01D0EDBCFCE
:104D5000EEFF1E0EDBCFEDFF3AD021EC31F0010863
:104D60004BE179EC33F015E15EEC32F012E1080131
:104D7000FFEC31F0F7EC30F0EE1805E1EE5003E116
:104D8000EE5001E1EE5038E0FFEC31F0F7EC30F09E
:104D90001AD07DEC33F030E1A9EC31F00FEC33F0B8
:104DA000510EE6EC2EF028E1080164EC33F0020E1F
:104DB000EE1805E1EE5003E1EE5001E1EE501CE08B
:104DC00064EC33F0020EEE6EEE6AEE6AEE6A03EC0D
:104DD00033F0120EF7EC30F0EF6E0ED0010E036FD1
:104DE000046B35EC32F008D00801030505E162ECF4
:104DF00032F00801036B046B210EE15C02E2E16A10
:104E0000E552E16E1AEF2FF0A8EC32F0DF6A020EE5
:104E100002C8DBFFE2EC32F002E2E16AE55267EC45
:104E200032F0D6EC31F0F350DF6E020EDB500801A9
:104E3000005D19E0C4EC31F0020E39EC31F007EC02
:104E400031F0310E77EC2EF0020EF5CFDBFFE2EC05
:104E500032F002E2E16AE55267EC32F088EC30F0C1
:104E6000DB50DF24E1D7BEEC32F0330E77EC2EF0CE
:104E7000020EF5CFDBFFDB500801005D1AE07BEC92
:104E80002EF0020E12EC31F0120E4BEC32F0030F4A
:104E9000A6EC31F002E2E16AE552E16E0950DF5022
:104EA000C3EC30F0030F8AEC2EF0AEEC2FF0005084
:104EB000DF6E280EDF5C02E3000E01D0010E006EF3
:104EC000040EE15C02E2E16AE552E16E00501AEF85
:104ED0002FF0D2EC2EF0E652E652C00E0801042567
:104EE0005FEC2FF062EC32F0C00E080104255FEC9D
:104EF0002FF0BEEC32F0360E18EC33F012E1080160
:104F0000C2EC2EF05BEC30F006E3010EDB507A08C9
:104F100002E3CAEC30F0080103051AE135EC32F087
:104F200017D0DF6A090EDF5C13E2DF5008010425A9
:104F3000EA6A280FE96E020EEA225BEC30F006E323
:104F4000010EDB507A0802E3CAEC30F0DF2AEAD720
:104F5000E552E5521AEF2FF0D9CFE6FFDACFE6FFA0
:104F6000E1CFD9FFE2CFDAFF190EE12402E3E168D5
:104F7000E652E16EF3ECA0F0090131511E5C006EC7
:104F8000090132511F58016E090133512058026E38
:104F9000090134512158036EFB0E005C340E015898
:104FA000000E0258000E035801E212D2F3ECA0F0FA
:104FB0001EC031F91FC032F920C033F921C034F9C5
:104FC000020E02C8DBFF420E036E110E046E010ECC
:104FD000056E020EDBCF06F0076A086A640E246EC7
:104FE000256A266A06C01FF007C020F008C021F01D
:104FF000A3EC87F01CC006F01DC007F01EC008F02F
:1050000003500624F36E04500720F46E0550082068
:10501000F86EF4CFF7FFF3CFF6FFF6CF00F0F7CF3F
:1050200001F0F8CF02F000C0E6FF01C0E6FF02C0C9
:10503000E6FFD950050FE66E000EDA20E66EF7ECBB
:105040008EF0096E050EE15C02E2E16AE552E16E66
:105050000950D950050FE66E000EDA20E66E10EC0E
:105060008FF0E552E552030EF3CFDBFF040EDB6A4F
:10507000020EDB500801005D01E193D0030EDBCF8F
:10508000E6FF040EDB50E552E724E76E040EE7CF9F
:10509000DBFF420E006E110E016E010E026E020E5B
:1050A000DBCF03F0046A056A640E246E256A266A63
:1050B00003C01FF004C020F005C021F0A3EC87F06E
:1050C0001CC003F01DC004F01EC005F000500324F6
:1050D000F36E01500420F46E02500520F86EF4CFF8
:1050E000F7FFF3CFF6FF310EF626000EF722000E83
:1050F000F8220800020EF5CFDBFF420E036E110E00
:10510000046E010E056E020EDBCF06F0076A086A18
:10511000640E246E256A266A06C01FF007C020F0C0
:1051200008C021F0A3EC87F01CC006F01DC007F0FA
:105130001EC008F003500624F36E04500720F46EDE
:1051400005500820F86EF4CFF7FFF3CFF6FFF6CF47
:1051500000F0F7CF01F0F8CF02F000C0E6FF01C089
:10516000E6FF02C0E6FFD950050FE66E000EDA201A
:10517000E66EF7EC8EF0096E050EE15C02E2E16A84
:10518000E552E16E0950D950050FE66E000EDA20A7
:10519000E66E10EC8FF0E552E552030EF3CFDBFF25
:1051A00067D7420E006E110E016E010E026E00C82E
:1051B00003F0046A056A640E246E256A266A03C039
:1051C0001FF004C020F005C021F0A3EC87F01CC044
:1051D00003F01DC004F01EC005F000500324F36E60
:1051E00001500420F46E02500520F86EF4CFF7FF52
:1051F000F3CFF6FF330EF626000EF722000EF8224C
:105200000800020EF5CFDBFF020EDB500801005D47
:105210006DE0420E036E110E046E010E056E020E5D
:10522000DBCF06F0076A086A640E246E256A266AD8
:1052300006C01FF007C020F008C021F0A3EC87F0E3
:105240001CC006F01DC007F01EC008F00350062465
:10525000F36E04500720F46E05500820F86EF4CF6A
:10526000F7FFF3CFF6FF120EF626000EF722000E20
:10527000F822F6CF00F0F7CF01F0F8CF02F000C02F
:10528000E6FF01C0E6FF02C0E6FFD950050FE66E5B
:10529000000EDA20E66EF7EC8EF0096E050EE15C8A
:1052A00002E2E16AE552E16E0950040EDB50026E43
:1052B000036A02C0E6FF03C0E6FFD950050FE66EA1
:1052C000000EDA20E66E10EC8FF0E552E552E55262
:1052D000E7CF03F0E552E7CF02F00250F324006E6F
:1052E0000350F420016E040E00C0DBFF09013051B1
:1052F00023E10901010E306F040EDB50800FE66ED2
:1053000050EC98F0E5520000040EDB50DF6E030E07
:10531000DBCFE6FF040EDB50E552E724DF5C0BE257
:10532000DE52200EDD6E010EDBCFE6FF67EC98F05B
:10533000E552DF2AECD727D00901306B040EDB5091
:10534000800FE66E50EC98F0E5520000040EDB5042
:10535000DF6E030EDBCFE6FF040EDB50E552E724E1
:10536000DF5C11E2DF50EA6A000FE96E020EEA220A
:10537000010EEFCFDBFF010EDBCFE6FF67EC98F00D
:10538000E552DF2AE6D70801030512E1C00E080145
:105390000425E66E50EC98F0E552E66A010EE66EE2
:1053A000010EE66E14EC99F0E552E552E55210D08C
:1053B000C00E08010425E66E50EC98F0E552E66A4E
:1053C000E66A010EE66E14EC99F0E552E552E552FC
:1053D0000801130503E114D80801136B0801140533
:1053E00003E177DD0801146B190EE15C02E2E16A6A
:1053F000E552E16EE552E5CFDAFFE7CFD9FF1200C3
:10540000D9CFE6FFDACFE6FFE1CFD9FFE2CFDAFF6F
:105410002D0EE12402E3E168E652E16E030EDB6A41
:1054200008D9280EE66EE66A000EE66E020EE66EFB
:10543000D950040FE66E000EDA20E66E74EC8FF0A1
:10544000006E060EE15C02E2E16AE552E16E005098
:10545000800EE66E50EC98F0E5520000DF6A280EF0
:10546000DF5C26E2DF50EA6A000FE96E020EEA22F4
:10547000010EEFCFDBFF200EF36E010EDBCFF4FF4A
:10548000F350F45C0BE3010EDB507A0807E3010EE6
:10549000DBCFE6FF67EC98F0E55208D0010EDB5059
:1054A00005E1200EE66E67EC98F0E552DF2AD7D7CB
:1054B000C00EE66E50EC98F0E5520000DF6A280E50
:1054C000DF5C26E2DF50EA6A280FE96E020EEA226C
:1054D000010EEFCFDBFF200EF36E010EDBCFF4FFEA
:1054E000F350F45C0BE3010EDB507A0807E3010E86
:1054F000DBCFE6FF67EC98F0E55208D0010EDB50F9
:1055000005E1200EE66E67EC98F0E552DF2AD7D76A
:105510000801030512E1C00E08010425E66E50ECF7
:1055200098F0E552E66A010EE66E010EE66E14ECA6
:1055300099F0E552E552E55210D0C00E080104255D
:10554000E66E50EC98F0E552E66AE66A010EE66E09
:1055500014EC99F0E552E552E5522D0EE15C02E2C1
:10556000E16AE552E16EE552E5CFDAFFE7CFD9FF18
:105570001200D9CFE6FFDACFE6FFE1CFD9FFE2CFC5
:10558000DAFFE652E652800EE66E50EC98F0E552F5
:105590000000DF6A280EDF5C1DE2DF50EA6A000FC0
:1055A000E96E020EEA22010EEFCFDBFF200EF36E52
:1055B000010EDBCFF4FFF350F45C0AE3010EDB5085
:1055C0007A0806E3010EDBCFE6FF67EC98F0E552C0
:1055D000DF2AE0D7C00EE66E50EC98F0E5520000EE
:1055E000DF6A280EDF5C1DE2DF50EA6A280FE96EF1
:1055F000020EEA22010EEFCFDBFF200EF36E010E4A
:10560000DBCFF4FFF350F45C0AE3010EDB507A08C1
:1056100006E3010EDBCFE6FF67EC98F0E552DF2AE8
:10562000E0D7E552E552E552E5CFDAFFE7CFD9FF03
:105630001200B8DB780EE12402E3E168E652E16E85
:10564000EDEC30F079EC2FF0080EDB6A070EDB6A28
:10565000080EDB6A070EDBCF00F0080EDBCF01F08F
:10566000D890015004E6280E005C000E015816E2A6
:10567000D1EC30F0000EE926020EEA22200EEF6E89
:10568000D1EC30F0280EE926020EEA22200EEF6E51
:10569000070EDB2A080EDEE3DB2ADCD76EEC32F0E5
:1056A000F5500801025D17E1C7EC32F04EEC32F024
:1056B000E66E57DB02E2E16AE552E16E0950040E44
:1056C00002C8DBFF4EEC32F0EFEC2FF062DB74EC43
:1056D00033F01FE21CD06EEC32F0040EF5CFDBFF8E
:1056E00081EC33F04EEC32F0E66E3BDB02E2E16A35
:1056F000E552E16E09504EEC32F0EFEC2FF0040E63
:1057000002C8DBFFC7EC32F067EC33F002E2E16A7B
:10571000E552E16E0950020EDB50C3EC30F01D0F74
:10572000F9DAAEEC2FF0020E00C0DBFF34EC33F000
:105730006BEC33F08DEC30F040E2E8DAB8DA310EA1
:1057400018EC33F00801025D38E0050EDB2A060E86
:1057500001E3DB2ADBDA74EC33F002E2E16AE552C2
:1057600084EC30F01D0FD6DA88EC30F0D8EC30F055
:1057700028080BE2020EDBCFE6FF280EE552D880A8
:10578000E754E76E010EE7CFDBFF010ED8EC30F0F7
:10579000E76E020EE7CFDBFF010EDBCFE6FFE66A26
:1057A00034EC33F043EC8FF0006E060EE15C02E265
:1057B000E16AE552E16E0050BDD7F8EC31F0FFEC44
:1057C00030F001E1D7D00FEC31F0120E64EC31F083
:1057D00002E2E16AE552E16E0950F8EC31F0F55071
:1057E000DF6E040EDFCFDBFF020EDB6A3DEC32F032
:1057F0004CE181EC33F072EC30F002E2E16AE55208
:10580000EBEC32F002E2E16AE55225EC33F006E01F
:10581000040EDB5076EC31F009E206D087EC32F072
:1058200008E1E2EC31F002E2E16AE552E16E00509B
:1058300018D0040EDB5068EC31F002E2E16AE55268
:1058400047EC33F002E2E16AE552D0EC31F007E2D6
:1058500025EC31F002E2E16AE552E16E0250BCEC67
:1058600031F0C2EC32F0F0EC32F002E2E16AE552E3
:1058700085EC31F002E2E16AE55243EC32F06BEC88
:1058800033F0280EE66E020EAADB40DADBEC31F0D4
:10589000420E016E110E026E010E036E040EDBCF7E
:1058A00004F0056A066ADDEC32F004C01FF005C0A2
:1058B00020F006C021F0A3EC87F01EC006F00150D6
:1058C0001C24F36E02501D20F46E0350C2EC31F024
:1058D000310E0DDAF5CF00F0DF50005C01E1ABD006
:1058E0008DEC30F001E3A7D03DEC32F0CEE181EC5D
:1058F00033F0F8DB02E2E16AE552EBEC32F002E26F
:10590000E16AE55225EC33F006E0040EDB5076EC5C
:1059100031F009E206D087EC32F008E1E2EC31F038
:1059200002E2E16AE552E16E005018D0040EDB504D
:1059300068EC31F002E2E16AE55247EC33F002E252
:10594000E16AE552D0EC31F007E225EC31F002E2F9
:10595000E16AE552E16E0250BCEC31F0C2EC32F08B
:10596000F0EC32F002E2E16AE55285EC31F001E35D
:1059700084D781D721EC31F046E10FEC31F085EC92
:1059800033F002E2E16AE552E16E0950BEEC32F01A
:105990006BEC32F00AE00801005176EC31F002E2E3
:1059A000E16AE552E16E00501CD00801005168EC3C
:1059B00031F002E2E16AE552E16E00500801005167
:1059C000CBEC31F002E2E16AE552D0EC31F007E2D3
:1059D00025EC31F002E2E16AE552E16E0250BCECE6
:1059E00031F00FEC31F0F0EC32F002E2E16AE55216
:1059F00085EC31F002E2E16AE55243EC32F0D6EC9C
:105A00008EF031DA18D021EC31F0010814E10801F0
:105A1000FFEC31F030DB005001100210031004E104
:105A200030EC33F006E203D02CEC33F002E2E16A12
:105A3000E552E16E0950780EE15C02E2E16AE5525E
:105A4000E16EF8D1A8EC32F0010EDB6A020EDB6ADF
:105A500052D9FB0EE7DB1F0E33D9B1DB82D902E24C
:105A6000E16AE552B0EC32F0FB0EDCDB1F0E4BECD2
:105A700032F0030FA6EC31F002E2E16AE55267EC86
:105A800032F0D6EC31F0F350DF6E3BEC33F0360EF3
:105A900018EC33F004E13BEC33F06BEC32F0040E25
:105AA000E15C02E2E16AE552E16EC4D19482978C36
:105AB00097869788998E998C978A998812009A90E0
:105AC0009A989A9A969E969C969A96989696969456
:105AD0009692969012008EEC32F08EEC32F00C0E14
